{
  "_format": "hh3-artifact-1",
  "contractName": "VaultAuditLog",
  "sourceName": "contracts/VaultAuditLog.sol",
  "abi": [
    {
      "anonymous": false,
      "inputs": [
        {
          "indexed": true,
          "internalType": "address",
          "name": "submitter",
          "type": "address"
        },
        {
          "indexed": true,
          "internalType": "bytes32",
          "name": "commitmentHash",
          "type": "bytes32"
        },
        {
          "indexed": false,
          "internalType": "uint256",
          "name": "timestamp",
          "type": "uint256"
        }
      ],
      "name": "VaultUnlocked",
      "type": "event"
    },
    {
      "inputs": [
        {
          "internalType": "bytes32",
          "name": "commitmentHash",
          "type": "bytes32"
        }
      ],
      "name": "anchorUnlock",
      "outputs": [],
      "stateMutability": "nonpayable",
      "type": "function"
    },
    {
      "inputs": [
        {
          "internalType": "address",
          "name": "",
          "type": "address"
        }
      ],
      "name": "unlockCount",
      "outputs": [
        {
          "internalType": "uint256",
          "name": "",
          "type": "uint256"
        }
      ],
      "stateMutability": "view",
      "type": "function"
    }
  ],
  "bytecode": "0x6080806040523460155761015f908161001a8239f35b5f80fdfe6080806040526004361015610012575f80fd5b5f3560e01c908163b7f2696b146100f1575063b8893ee514610032575f80fd5b346100ed5760203660031901126100ed5760043580156100a857335f525f60205260405f208054906001820180921161009457556040514281527f9331921c3f283733334d3f10ca65781d2793ee9aa3653166e82d2ee0b2408a1560203392a3005b634e487b7160e01b5f52601160045260245ffd5b60405162461bcd60e51b815260206004820152601e60248201527f5661756c7441756469744c6f673a207a65726f20636f6d6d69746d656e7400006044820152606490fd5b5f80fd5b346100ed5760203660031901126100ed576004356001600160a01b03811691908290036100ed576020915f525f825260405f20548152f3fea26469706673582212200152d7e1f7ad2d03641806cb2a7dad3553f63272733d27c30b06bd8af29152fd64736f6c634300081c0033",
  "linkReferences": {},
  "deployedLinkReferences": {},
  "immutableReferences": {},
  "inputSourceName": "project/contracts/VaultAuditLog.sol",
  "buildInfoId": "solc-0_8_28-6da5c9a6224e728c8bed896ae7392738701594c8"
}