{"project/contracts/VaultAuditLog.sol":{"VaultAuditLog":{"abi":[{"inputs":[],"stateMutability":"nonpayable","type":"constructor"},{"inputs":[{"internalType":"address","name":"owner","type":"address"}],"name":"OwnableInvalidOwner","type":"error"},{"inputs":[{"internalType":"address","name":"account","type":"address"}],"name":"OwnableUnauthorizedAccount","type":"error"},{"anonymous":false,"inputs":[{"indexed":true,"internalType":"address","name":"anchorer","type":"address"}],"name":"AnchorerAuthorized","type":"event"},{"anonymous":false,"inputs":[{"indexed":true,"internalType":"address","name":"anchorer","type":"address"}],"name":"AnchorerRevoked","type":"event"},{"anonymous":false,"inputs":[{"indexed":true,"internalType":"address","name":"previousOwner","type":"address"},{"indexed":true,"internalType":"address","name":"newOwner","type":"address"}],"name":"OwnershipTransferred","type":"event"},{"anonymous":false,"inputs":[{"indexed":true,"internalType":"address","name":"submitter","type":"address"},{"indexed":true,"internalType":"bytes32","name":"commitmentHash","type":"bytes32"},{"indexed":false,"internalType":"uint256","name":"timestamp","type":"uint256"}],"name":"VaultUnlocked","type":"event"},{"inputs":[{"internalType":"address","name":"anchorer","type":"address"}],"name":"addAuthorizedAnchorer","outputs":[],"stateMutability":"nonpayable","type":"function"},{"inputs":[{"internalType":"bytes32","name":"commitmentHash","type":"bytes32"}],"name":"anchorUnlock","outputs":[],"stateMutability":"nonpayable","type":"function"},{"inputs":[{"internalType":"bytes32","name":"","type":"bytes32"}],"name":"anchoredCommitments","outputs":[{"internalType":"bool","name":"","type":"bool"}],"stateMutability":"view","type":"function"},{"inputs":[],"name":"authorizedAnchorerCount","outputs":[{"internalType":"uint256","name":"","type":"uint256"}],"stateMutability":"view","type":"function"},{"inputs":[{"internalType":"address","name":"","type":"address"}],"name":"authorizedAnchorers","outputs":[{"internalType":"bool","name":"","type":"bool"}],"stateMutability":"view","type":"function"},{"inputs":[],"name":"owner","outputs":[{"internalType":"address","name":"","type":"address"}],"stateMutability":"view","type":"function"},{"inputs":[{"internalType":"address","name":"anchorer","type":"address"}],"name":"removeAuthorizedAnchorer","outputs":[],"stateMutability":"nonpayable","type":"function"},{"inputs":[],"name":"renounceOwnership","outputs":[],"stateMutability":"view","type":"function"},{"inputs":[{"internalType":"address","name":"newOwner","type":"address"}],"name":"transferOwnership","outputs":[],"stateMutability":"nonpayable","type":"function"},{"inputs":[{"internalType":"address","name":"","type":"address"}],"name":"unlockCount","outputs":[{"internalType":"uint256","name":"","type":"uint256"}],"stateMutability":"view","type":"function"}],"evm":{"bytecode":{"linkReferences":{},"object":"6080806040523460b2573315609f575f8054336001600160a01b0319821681178355916001600160a01b03909116907f8be0079c531659141344cd1fd0a4f28419497f9722a3daafe3b4186f6b6457e09080a3335f52600360205260405f20600160ff198254161790556001600455337fef6abd6e9dd7ffd71ac4dadfd6a88a666d21a57523fce415d6a1ce24fbe1f3e95f80a261066090816100b78239f35b631e4fbdf760e01b5f525f60045260245ffd5b5f80fdfe6080806040526004361015610012575f80fd5b5f3560e01c9081631545cb79146105c657508063715018a61461057557806378a53994146105585780638da5cb5b14610531578063b7f2696b146104f5578063b8893ee514610377578063bfa93dd41461026f578063c317503514610240578063e858056a146101175763f2fde38b1461008a575f80fd5b34610113576020366003190112610113576004356001600160a01b03811690819003610113576100b8610604565b8015610100575f80546001600160a01b03198116831782556001600160a01b0316907f8be0079c531659141344cd1fd0a4f28419497f9722a3daafe3b4186f6b6457e09080a3005b631e4fbdf760e01b5f525f60045260245ffd5b5f80fd5b34610113576020366003190112610113576004356001600160a01b0381169081900361011357610145610604565b805f52600360205260ff60405f2054161561020a57600160045411156101c5575f818152600360205260409020805460ff191690556004545f1981019081116101b1576004557f26bbdf2d48a55de217f177df13cd6f86b980571805ad4bad8d7270e3e71a12505f80a2005b634e487b7160e01b5f52601160045260245ffd5b60405162461bcd60e51b815260206004820152601b60248201527f43616e6e6f742072656d6f7665206c61737420616e63686f72657200000000006044820152606490fd5b60405162461bcd60e51b815260206004820152600e60248201526d139bdd08185d5d1a1bdc9a5e995960921b6044820152606490fd5b34610113576020366003190112610113576004355f526002602052602060ff60405f2054166040519015158152f35b34610113576020366003190112610113576004356001600160a01b038116908190036101135761029d610604565b801561033f57805f52600360205260ff60405f20541661030557805f52600360205260405f20600160ff19825416179055600454600181018091116101b1576004557fef6abd6e9dd7ffd71ac4dadfd6a88a666d21a57523fce415d6a1ce24fbe1f3e95f80a2005b60405162461bcd60e51b8152602060048201526012602482015271105b1c9958591e48185d5d1a1bdc9a5e995960721b6044820152606490fd5b60405162461bcd60e51b815260206004820152601060248201526f24b73b30b634b21030b731b437b932b960811b6044820152606490fd5b3461011357602036600319011261011357600435335f52600360205260ff60405f205416156104a457801561045f57805f52600260205260ff60405f20541661041a57805f52600260205260405f20600160ff19825416179055335f52600160205260405f20805490600182018092116101b157556040514281527f9331921c3f283733334d3f10ca65781d2793ee9aa3653166e82d2ee0b2408a1560203392a3005b60405162461bcd60e51b815260206004820152601f60248201527f5661756c7441756469744c6f673a20616c726561647920616e63686f726564006044820152606490fd5b60405162461bcd60e51b815260206004820152601e60248201527f5661756c7441756469744c6f673a207a65726f20636f6d6d69746d656e7400006044820152606490fd5b60405162461bcd60e51b8152602060048201526024808201527f5661756c7441756469744c6f673a20756e617574686f72697a656420616e636860448201526337b932b960e11b6064820152608490fd5b34610113576020366003190112610113576004356001600160a01b03811690819003610113575f526001602052602060405f2054604051908152f35b34610113575f366003190112610113575f546040516001600160a01b039091168152602090f35b34610113575f366003190112610113576020600454604051908152f35b34610113575f3660031901126101135761058d610604565b60405162461bcd60e51b815260206004820152601160248201527014995b9bdd5b98d948191a5cd8589b1959607a1b6044820152606490fd5b34610113576020366003190112610113576004356001600160a01b0381169190829003610113576020915f526003825260ff60405f20541615158152f35b5f546001600160a01b0316330361061757565b63118cdaa760e01b5f523360045260245ffdfea26469706673582212206a0266dece29ebd2544915c4e30030ed7b88240fbeed66ca5ff5ba4346a1303964736f6c634300081c0033","opcodes":"PUSH1 0x80 DUP1 PUSH1 0x40 MSTORE CALLVALUE PUSH1 0xB2 JUMPI CALLER ISZERO PUSH1 0x9F JUMPI PUSH0 DUP1 SLOAD CALLER PUSH1 0x1 PUSH1 0x1 PUSH1 0xA0 SHL SUB NOT DUP3 AND DUP2 OR DUP4 SSTORE SWAP2 PUSH1 0x1 PUSH1 0x1 PUSH1 0xA0 SHL SUB SWAP1 SWAP2 AND SWAP1 PUSH32 0x8BE0079C531659141344CD1FD0A4F28419497F9722A3DAAFE3B4186F6B6457E0 SWAP1 DUP1 LOG3 CALLER PUSH0 MSTORE PUSH1 0x3 PUSH1 0x20 MSTORE PUSH1 0x40 PUSH0 KECCAK256 PUSH1 0x1 PUSH1 0xFF NOT DUP3 SLOAD AND OR SWAP1 SSTORE PUSH1 0x1 PUSH1 0x4 SSTORE CALLER PUSH32 0xEF6ABD6E9DD7FFD71AC4DADFD6A88A666D21A57523FCE415D6A1CE24FBE1F3E9 PUSH0 DUP1 LOG2 PUSH2 0x660 SWAP1 DUP2 PUSH2 0xB7 DUP3 CODECOPY RETURN JUMPDEST PUSH4 0x1E4FBDF7 PUSH1 0xE0 SHL PUSH0 MSTORE PUSH0 PUSH1 0x4 MSTORE PUSH1 0x24 PUSH0 REVERT JUMPDEST PUSH0 DUP1 REVERT INVALID PUSH1 0x80 DUP1 PUSH1 0x40 MSTORE PUSH1 0x4 CALLDATASIZE LT ISZERO PUSH2 0x12 JUMPI PUSH0 DUP1 REVERT JUMPDEST PUSH0 CALLDATALOAD PUSH1 0xE0 SHR SWAP1 DUP2 PUSH4 0x1545CB79 EQ PUSH2 0x5C6 JUMPI POP DUP1 PUSH4 0x715018A6 EQ PUSH2 0x575 JUMPI DUP1 PUSH4 0x78A53994 EQ PUSH2 0x558 JUMPI DUP1 PUSH4 0x8DA5CB5B EQ PUSH2 0x531 JUMPI DUP1 PUSH4 0xB7F2696B EQ PUSH2 0x4F5 JUMPI DUP1 PUSH4 0xB8893EE5 EQ PUSH2 0x377 JUMPI DUP1 PUSH4 0xBFA93DD4 EQ PUSH2 0x26F JUMPI DUP1 PUSH4 0xC3175035 EQ PUSH2 0x240 JUMPI DUP1 PUSH4 0xE858056A EQ PUSH2 0x117 JUMPI PUSH4 0xF2FDE38B EQ PUSH2 0x8A JUMPI PUSH0 DUP1 REVERT JUMPDEST CALLVALUE PUSH2 0x113 JUMPI PUSH1 0x20 CALLDATASIZE PUSH1 0x3 NOT ADD SLT PUSH2 0x113 JUMPI PUSH1 0x4 CALLDATALOAD PUSH1 0x1 PUSH1 0x1 PUSH1 0xA0 SHL SUB DUP2 AND SWAP1 DUP2 SWAP1 SUB PUSH2 0x113 JUMPI PUSH2 0xB8 PUSH2 0x604 JUMP JUMPDEST DUP1 ISZERO PUSH2 0x100 JUMPI PUSH0 DUP1 SLOAD PUSH1 0x1 PUSH1 0x1 PUSH1 0xA0 SHL SUB NOT DUP2 AND DUP4 OR DUP3 SSTORE PUSH1 0x1 PUSH1 0x1 PUSH1 0xA0 SHL SUB AND SWAP1 PUSH32 0x8BE0079C531659141344CD1FD0A4F28419497F9722A3DAAFE3B4186F6B6457E0 SWAP1 DUP1 LOG3 STOP JUMPDEST PUSH4 0x1E4FBDF7 PUSH1 0xE0 SHL PUSH0 MSTORE PUSH0 PUSH1 0x4 MSTORE PUSH1 0x24 PUSH0 REVERT JUMPDEST PUSH0 DUP1 REVERT JUMPDEST CALLVALUE PUSH2 0x113 JUMPI PUSH1 0x20 CALLDATASIZE PUSH1 0x3 NOT ADD SLT PUSH2 0x113 JUMPI PUSH1 0x4 CALLDATALOAD PUSH1 0x1 PUSH1 0x1 PUSH1 0xA0 SHL SUB DUP2 AND SWAP1 DUP2 SWAP1 SUB PUSH2 0x113 JUMPI PUSH2 0x145 PUSH2 0x604 JUMP JUMPDEST DUP1 PUSH0 MSTORE PUSH1 0x3 PUSH1 0x20 MSTORE PUSH1 0xFF PUSH1 0x40 PUSH0 KECCAK256 SLOAD AND ISZERO PUSH2 0x20A JUMPI PUSH1 0x1 PUSH1 0x4 SLOAD GT ISZERO PUSH2 0x1C5 JUMPI PUSH0 DUP2 DUP2 MSTORE PUSH1 0x3 PUSH1 0x20 MSTORE PUSH1 0x40 SWAP1 KECCAK256 DUP1 SLOAD PUSH1 0xFF NOT AND SWAP1 SSTORE PUSH1 0x4 SLOAD PUSH0 NOT DUP2 ADD SWAP1 DUP2 GT PUSH2 0x1B1 JUMPI PUSH1 0x4 SSTORE PUSH32 0x26BBDF2D48A55DE217F177DF13CD6F86B980571805AD4BAD8D7270E3E71A1250 PUSH0 DUP1 LOG2 STOP JUMPDEST PUSH4 0x4E487B71 PUSH1 0xE0 SHL PUSH0 MSTORE PUSH1 0x11 PUSH1 0x4 MSTORE PUSH1 0x24 PUSH0 REVERT JUMPDEST PUSH1 0x40 MLOAD PUSH3 0x461BCD PUSH1 0xE5 SHL DUP2 MSTORE PUSH1 0x20 PUSH1 0x4 DUP3 ADD MSTORE PUSH1 0x1B PUSH1 0x24 DUP3 ADD MSTORE PUSH32 0x43616E6E6F742072656D6F7665206C61737420616E63686F7265720000000000 PUSH1 0x44 DUP3 ADD MSTORE PUSH1 0x64 SWAP1 REVERT JUMPDEST PUSH1 0x40 MLOAD PUSH3 0x461BCD PUSH1 0xE5 SHL DUP2 MSTORE PUSH1 0x20 PUSH1 0x4 DUP3 ADD MSTORE PUSH1 0xE PUSH1 0x24 DUP3 ADD MSTORE PUSH14 0x139BDD08185D5D1A1BDC9A5E9959 PUSH1 0x92 SHL PUSH1 0x44 DUP3 ADD MSTORE PUSH1 0x64 SWAP1 REVERT JUMPDEST CALLVALUE PUSH2 0x113 JUMPI PUSH1 0x20 CALLDATASIZE PUSH1 0x3 NOT ADD SLT PUSH2 0x113 JUMPI PUSH1 0x4 CALLDATALOAD PUSH0 MSTORE PUSH1 0x2 PUSH1 0x20 MSTORE PUSH1 0x20 PUSH1 0xFF PUSH1 0x40 PUSH0 KECCAK256 SLOAD AND PUSH1 0x40 MLOAD SWAP1 ISZERO ISZERO DUP2 MSTORE RETURN JUMPDEST CALLVALUE PUSH2 0x113 JUMPI PUSH1 0x20 CALLDATASIZE PUSH1 0x3 NOT ADD SLT PUSH2 0x113 JUMPI PUSH1 0x4 CALLDATALOAD PUSH1 0x1 PUSH1 0x1 PUSH1 0xA0 SHL SUB DUP2 AND SWAP1 DUP2 SWAP1 SUB PUSH2 0x113 JUMPI PUSH2 0x29D PUSH2 0x604 JUMP JUMPDEST DUP1 ISZERO PUSH2 0x33F JUMPI DUP1 PUSH0 MSTORE PUSH1 0x3 PUSH1 0x20 MSTORE PUSH1 0xFF PUSH1 0x40 PUSH0 KECCAK256 SLOAD AND PUSH2 0x305 JUMPI DUP1 PUSH0 MSTORE PUSH1 0x3 PUSH1 0x20 MSTORE PUSH1 0x40 PUSH0 KECCAK256 PUSH1 0x1 PUSH1 0xFF NOT DUP3 SLOAD AND OR SWAP1 SSTORE PUSH1 0x4 SLOAD PUSH1 0x1 DUP2 ADD DUP1 SWAP2 GT PUSH2 0x1B1 JUMPI PUSH1 0x4 SSTORE PUSH32 0xEF6ABD6E9DD7FFD71AC4DADFD6A88A666D21A57523FCE415D6A1CE24FBE1F3E9 PUSH0 DUP1 LOG2 STOP JUMPDEST PUSH1 0x40 MLOAD PUSH3 0x461BCD PUSH1 0xE5 SHL DUP2 MSTORE PUSH1 0x20 PUSH1 0x4 DUP3 ADD MSTORE PUSH1 0x12 PUSH1 0x24 DUP3 ADD MSTORE PUSH18 0x105B1C9958591E48185D5D1A1BDC9A5E9959 PUSH1 0x72 SHL PUSH1 0x44 DUP3 ADD MSTORE PUSH1 0x64 SWAP1 REVERT JUMPDEST PUSH1 0x40 MLOAD PUSH3 0x461BCD PUSH1 0xE5 SHL DUP2 MSTORE PUSH1 0x20 PUSH1 0x4 DUP3 ADD MSTORE PUSH1 0x10 PUSH1 0x24 DUP3 ADD MSTORE PUSH16 0x24B73B30B634B21030B731B437B932B9 PUSH1 0x81 SHL PUSH1 0x44 DUP3 ADD MSTORE PUSH1 0x64 SWAP1 REVERT JUMPDEST CALLVALUE PUSH2 0x113 JUMPI PUSH1 0x20 CALLDATASIZE PUSH1 0x3 NOT ADD SLT PUSH2 0x113 JUMPI PUSH1 0x4 CALLDATALOAD CALLER PUSH0 MSTORE PUSH1 0x3 PUSH1 0x20 MSTORE PUSH1 0xFF PUSH1 0x40 PUSH0 KECCAK256 SLOAD AND ISZERO PUSH2 0x4A4 JUMPI DUP1 ISZERO PUSH2 0x45F JUMPI DUP1 PUSH0 MSTORE PUSH1 0x2 PUSH1 0x20 MSTORE PUSH1 0xFF PUSH1 0x40 PUSH0 KECCAK256 SLOAD AND PUSH2 0x41A JUMPI DUP1 PUSH0 MSTORE PUSH1 0x2 PUSH1 0x20 MSTORE PUSH1 0x40 PUSH0 KECCAK256 PUSH1 0x1 PUSH1 0xFF NOT DUP3 SLOAD AND OR SWAP1 SSTORE CALLER PUSH0 MSTORE PUSH1 0x1 PUSH1 0x20 MSTORE PUSH1 0x40 PUSH0 KECCAK256 DUP1 SLOAD SWAP1 PUSH1 0x1 DUP3 ADD DUP1 SWAP3 GT PUSH2 0x1B1 JUMPI SSTORE PUSH1 0x40 MLOAD TIMESTAMP DUP2 MSTORE PUSH32 0x9331921C3F283733334D3F10CA65781D2793EE9AA3653166E82D2EE0B2408A15 PUSH1 0x20 CALLER SWAP3 LOG3 STOP JUMPDEST PUSH1 0x40 MLOAD PUSH3 0x461BCD PUSH1 0xE5 SHL DUP2 MSTORE PUSH1 0x20 PUSH1 0x4 DUP3 ADD MSTORE PUSH1 0x1F PUSH1 0x24 DUP3 ADD MSTORE PUSH32 0x5661756C7441756469744C6F673A20616C726561647920616E63686F72656400 PUSH1 0x44 DUP3 ADD MSTORE PUSH1 0x64 SWAP1 REVERT JUMPDEST PUSH1 0x40 MLOAD PUSH3 0x461BCD PUSH1 0xE5 SHL DUP2 MSTORE PUSH1 0x20 PUSH1 0x4 DUP3 ADD MSTORE PUSH1 0x1E PUSH1 0x24 DUP3 ADD MSTORE PUSH32 0x5661756C7441756469744C6F673A207A65726F20636F6D6D69746D656E740000 PUSH1 0x44 DUP3 ADD MSTORE PUSH1 0x64 SWAP1 REVERT JUMPDEST PUSH1 0x40 MLOAD PUSH3 0x461BCD PUSH1 0xE5 SHL DUP2 MSTORE PUSH1 0x20 PUSH1 0x4 DUP3 ADD MSTORE PUSH1 0x24 DUP1 DUP3 ADD MSTORE PUSH32 0x5661756C7441756469744C6F673A20756E617574686F72697A656420616E6368 PUSH1 0x44 DUP3 ADD MSTORE PUSH4 0x37B932B9 PUSH1 0xE1 SHL PUSH1 0x64 DUP3 ADD MSTORE PUSH1 0x84 SWAP1 REVERT JUMPDEST CALLVALUE PUSH2 0x113 JUMPI PUSH1 0x20 CALLDATASIZE PUSH1 0x3 NOT ADD SLT PUSH2 0x113 JUMPI PUSH1 0x4 CALLDATALOAD PUSH1 0x1 PUSH1 0x1 PUSH1 0xA0 SHL SUB DUP2 AND SWAP1 DUP2 SWAP1 SUB PUSH2 0x113 JUMPI PUSH0 MSTORE PUSH1 0x1 PUSH1 0x20 MSTORE PUSH1 0x20 PUSH1 0x40 PUSH0 KECCAK256 SLOAD PUSH1 0x40 MLOAD SWAP1 DUP2 MSTORE RETURN JUMPDEST CALLVALUE PUSH2 0x113 JUMPI PUSH0 CALLDATASIZE PUSH1 0x3 NOT ADD SLT PUSH2 0x113 JUMPI PUSH0 SLOAD PUSH1 0x40 MLOAD PUSH1 0x1 PUSH1 0x1 PUSH1 0xA0 SHL SUB SWAP1 SWAP2 AND DUP2 MSTORE PUSH1 0x20 SWAP1 RETURN JUMPDEST CALLVALUE PUSH2 0x113 JUMPI PUSH0 CALLDATASIZE PUSH1 0x3 NOT ADD SLT PUSH2 0x113 JUMPI PUSH1 0x20 PUSH1 0x4 SLOAD PUSH1 0x40 MLOAD SWAP1 DUP2 MSTORE RETURN JUMPDEST CALLVALUE PUSH2 0x113 JUMPI PUSH0 CALLDATASIZE PUSH1 0x3 NOT ADD SLT PUSH2 0x113 JUMPI PUSH2 0x58D PUSH2 0x604 JUMP JUMPDEST PUSH1 0x40 MLOAD PUSH3 0x461BCD PUSH1 0xE5 SHL DUP2 MSTORE PUSH1 0x20 PUSH1 0x4 DUP3 ADD MSTORE PUSH1 0x11 PUSH1 0x24 DUP3 ADD MSTORE PUSH17 0x14995B9BDD5B98D948191A5CD8589B1959 PUSH1 0x7A SHL PUSH1 0x44 DUP3 ADD MSTORE PUSH1 0x64 SWAP1 REVERT JUMPDEST CALLVALUE PUSH2 0x113 JUMPI PUSH1 0x20 CALLDATASIZE PUSH1 0x3 NOT ADD SLT PUSH2 0x113 JUMPI PUSH1 0x4 CALLDATALOAD PUSH1 0x1 PUSH1 0x1 PUSH1 0xA0 SHL SUB DUP2 AND SWAP2 SWAP1 DUP3 SWAP1 SUB PUSH2 0x113 JUMPI PUSH1 0x20 SWAP2 PUSH0 MSTORE PUSH1 0x3 DUP3 MSTORE PUSH1 0xFF PUSH1 0x40 PUSH0 KECCAK256 SLOAD AND ISZERO ISZERO DUP2 MSTORE RETURN JUMPDEST PUSH0 SLOAD PUSH1 0x1 PUSH1 0x1 PUSH1 0xA0 SHL SUB AND CALLER SUB PUSH2 0x617 JUMPI JUMP JUMPDEST PUSH4 0x118CDAA7 PUSH1 0xE0 SHL PUSH0 MSTORE CALLER PUSH1 0x4 MSTORE PUSH1 0x24 PUSH0 REVERT INVALID LOG2 PUSH5 0x6970667358 0x22 SLT KECCAK256 PUSH11 0x266DECE29EBD2544915C4 0xE3 STOP ADDRESS 0xED PUSH28 0x88240FBEED66CA5FF5BA4346A1303964736F6C634300081C00330000 "},"methodIdentifiers":{"addAuthorizedAnchorer(address)":"bfa93dd4","anchorUnlock(bytes32)":"b8893ee5","anchoredCommitments(bytes32)":"c3175035","authorizedAnchorerCount()":"78a53994","authorizedAnchorers(address)":"1545cb79","owner()":"8da5cb5b","removeAuthorizedAnchorer(address)":"e858056a","renounceOwnership()":"715018a6","transferOwnership(address)":"f2fde38b","unlockCount(address)":"b7f2696b"}}}}}