{"project/contracts/TimeLockedVault.sol":{"TimeLockedVault":{"abi":[{"inputs":[],"stateMutability":"nonpayable","type":"constructor"},{"inputs":[{"internalType":"address","name":"owner","type":"address"}],"name":"OwnableInvalidOwner","type":"error"},{"inputs":[{"internalType":"address","name":"account","type":"address"}],"name":"OwnableUnauthorizedAccount","type":"error"},{"inputs":[],"name":"ReentrancyGuardReentrantCall","type":"error"},{"anonymous":false,"inputs":[{"indexed":true,"internalType":"uint256","name":"vaultId","type":"uint256"},{"indexed":true,"internalType":"address","name":"oldBeneficiary","type":"address"},{"indexed":true,"internalType":"address","name":"newBeneficiary","type":"address"}],"name":"BeneficiaryUpdated","type":"event"},{"anonymous":false,"inputs":[{"indexed":true,"internalType":"uint256","name":"vaultId","type":"uint256"},{"indexed":true,"internalType":"address","name":"owner","type":"address"},{"indexed":false,"internalType":"uint256","name":"checkedInAt","type":"uint256"},{"indexed":false,"internalType":"uint256","name":"nextDeadline","type":"uint256"}],"name":"CheckIn","type":"event"},{"anonymous":false,"inputs":[{"indexed":true,"internalType":"uint256","name":"vaultId","type":"uint256"},{"indexed":true,"internalType":"address","name":"voter","type":"address"},{"indexed":false,"internalType":"enum TimeLockedVault.VoteChoice","name":"choice","type":"uint8"},{"indexed":false,"internalType":"uint256","name":"votesFor","type":"uint256"},{"indexed":false,"internalType":"uint256","name":"votesAgainst","type":"uint256"}],"name":"DAOVoteCast","type":"event"},{"anonymous":false,"inputs":[{"indexed":true,"internalType":"uint256","name":"vaultId","type":"uint256"},{"indexed":true,"internalType":"address","name":"arbitrator","type":"address"},{"indexed":true,"internalType":"address","name":"beneficiary","type":"address"},{"indexed":false,"internalType":"uint256","name":"releasedAt","type":"uint256"}],"name":"EscrowReleased","type":"event"},{"anonymous":false,"inputs":[{"indexed":true,"internalType":"uint256","name":"vaultId","type":"uint256"},{"indexed":true,"internalType":"address","name":"signer","type":"address"},{"indexed":false,"internalType":"uint256","name":"currentApprovals","type":"uint256"},{"indexed":false,"internalType":"uint256","name":"requiredApprovals","type":"uint256"}],"name":"MultiSigApproval","type":"event"},{"anonymous":false,"inputs":[{"indexed":true,"internalType":"address","name":"previousOwner","type":"address"},{"indexed":true,"internalType":"address","name":"newOwner","type":"address"}],"name":"OwnershipTransferred","type":"event"},{"anonymous":false,"inputs":[{"indexed":true,"internalType":"uint256","name":"vaultId","type":"uint256"},{"indexed":true,"internalType":"address","name":"cancelledBy","type":"address"},{"indexed":false,"internalType":"uint256","name":"cancelledAt","type":"uint256"}],"name":"VaultCancelled","type":"event"},{"anonymous":false,"inputs":[{"indexed":true,"internalType":"uint256","name":"vaultId","type":"uint256"},{"indexed":true,"internalType":"address","name":"creator","type":"address"},{"indexed":false,"internalType":"enum TimeLockedVault.ConditionType","name":"conditionType","type":"uint8"},{"indexed":false,"internalType":"uint256","name":"createdAt","type":"uint256"}],"name":"VaultCreated","type":"event"},{"anonymous":false,"inputs":[{"indexed":true,"internalType":"uint256","name":"vaultId","type":"uint256"},{"indexed":true,"internalType":"address","name":"unlockedBy","type":"address"},{"indexed":false,"internalType":"uint256","name":"unlockedAt","type":"uint256"}],"name":"VaultUnlocked","type":"event"},{"inputs":[],"name":"DEFAULT_ORACLE_STALENESS","outputs":[{"internalType":"uint256","name":"","type":"uint256"}],"stateMutability":"view","type":"function"},{"inputs":[{"internalType":"uint256","name":"_vaultId","type":"uint256"}],"name":"approveAccess","outputs":[],"stateMutability":"nonpayable","type":"function"},{"inputs":[{"internalType":"uint256","name":"_vaultId","type":"uint256"}],"name":"cancelVault","outputs":[],"stateMutability":"nonpayable","type":"function"},{"inputs":[{"internalType":"uint256","name":"_vaultId","type":"uint256"},{"internalType":"bool","name":"_approve","type":"bool"}],"name":"castVote","outputs":[],"stateMutability":"nonpayable","type":"function"},{"inputs":[{"internalType":"uint256","name":"_vaultId","type":"uint256"}],"name":"checkIn","outputs":[],"stateMutability":"nonpayable","type":"function"},{"inputs":[{"internalType":"uint256","name":"_vaultId","type":"uint256"}],"name":"conditionalAccess","outputs":[{"internalType":"bool","name":"met","type":"bool"}],"stateMutability":"view","type":"function"},{"inputs":[{"internalType":"bytes32","name":"_passwordHash","type":"bytes32"},{"internalType":"address[]","name":"_voters","type":"address[]"},{"internalType":"uint256","name":"_votingDeadline","type":"uint256"},{"internalType":"uint256","name":"_quorumThreshold","type":"uint256"}],"name":"createDAOVault","outputs":[{"internalType":"uint256","name":"","type":"uint256"}],"stateMutability":"nonpayable","type":"function"},{"inputs":[{"internalType":"bytes32","name":"_passwordHash","type":"bytes32"},{"internalType":"uint256","name":"_checkInInterval","type":"uint256"},{"internalType":"uint256","name":"_gracePeriod","type":"uint256"},{"internalType":"address","name":"_beneficiary","type":"address"}],"name":"createDeadMansSwitchVault","outputs":[{"internalType":"uint256","name":"","type":"uint256"}],"stateMutability":"nonpayable","type":"function"},{"inputs":[{"internalType":"bytes32","name":"_passwordHash","type":"bytes32"},{"internalType":"address","name":"_beneficiary","type":"address"},{"internalType":"address","name":"_arbitrator","type":"address"}],"name":"createEscrowVault","outputs":[{"internalType":"uint256","name":"","type":"uint256"}],"stateMutability":"nonpayable","type":"function"},{"inputs":[{"internalType":"bytes32","name":"_passwordHash","type":"bytes32"},{"internalType":"address[]","name":"_signers","type":"address[]"},{"internalType":"uint256","name":"_requiredApprovals","type":"uint256"}],"name":"createMultiSigVault","outputs":[{"internalType":"uint256","name":"","type":"uint256"}],"stateMutability":"nonpayable","type":"function"},{"inputs":[{"internalType":"bytes32","name":"_passwordHash","type":"bytes32"},{"internalType":"address","name":"_oracleAddress","type":"address"},{"internalType":"uint256","name":"_priceThreshold","type":"uint256"},{"internalType":"bool","name":"_priceAbove","type":"bool"},{"internalType":"uint256","name":"_maxStaleness","type":"uint256"}],"name":"createPriceOracleVault","outputs":[{"internalType":"uint256","name":"","type":"uint256"}],"stateMutability":"nonpayable","type":"function"},{"inputs":[{"internalType":"bytes32","name":"_passwordHash","type":"bytes32"},{"internalType":"uint256","name":"_unlockTime","type":"uint256"}],"name":"createTimeLockVault","outputs":[{"internalType":"uint256","name":"","type":"uint256"}],"stateMutability":"nonpayable","type":"function"},{"inputs":[{"internalType":"uint256","name":"","type":"uint256"},{"internalType":"uint256","name":"","type":"uint256"}],"name":"daoVoters","outputs":[{"internalType":"address","name":"","type":"address"}],"stateMutability":"view","type":"function"},{"inputs":[{"internalType":"uint256","name":"","type":"uint256"},{"internalType":"address","name":"","type":"address"}],"name":"daoVotes","outputs":[{"internalType":"enum TimeLockedVault.VoteChoice","name":"","type":"uint8"}],"stateMutability":"view","type":"function"},{"inputs":[{"internalType":"uint256","name":"_vaultId","type":"uint256"}],"name":"getDAOVoteResults","outputs":[{"internalType":"uint256","name":"votesFor","type":"uint256"},{"internalType":"uint256","name":"votesAgainst","type":"uint256"},{"internalType":"uint256","name":"totalEligible","type":"uint256"},{"internalType":"uint256","name":"quorumThreshold","type":"uint256"},{"internalType":"bool","name":"votingEnded","type":"bool"},{"internalType":"bool","name":"conditionMet","type":"bool"}],"stateMutability":"view","type":"function"},{"inputs":[{"internalType":"uint256","name":"_vaultId","type":"uint256"}],"name":"getDAOVoters","outputs":[{"internalType":"address[]","name":"","type":"address[]"}],"stateMutability":"view","type":"function"},{"inputs":[{"internalType":"uint256","name":"_vaultId","type":"uint256"}],"name":"getDeadMansSwitchStatus","outputs":[{"internalType":"uint256","name":"timeRemaining","type":"uint256"},{"internalType":"bool","name":"isTriggered","type":"bool"}],"stateMutability":"view","type":"function"},{"inputs":[{"internalType":"uint256","name":"_vaultId","type":"uint256"}],"name":"getMultiSigSigners","outputs":[{"internalType":"address[]","name":"","type":"address[]"}],"stateMutability":"view","type":"function"},{"inputs":[{"internalType":"address","name":"_user","type":"address"}],"name":"getUserVaults","outputs":[{"internalType":"uint256[]","name":"","type":"uint256[]"}],"stateMutability":"view","type":"function"},{"inputs":[{"internalType":"uint256","name":"_vaultId","type":"uint256"}],"name":"getVault","outputs":[{"components":[{"internalType":"uint256","name":"id","type":"uint256"},{"internalType":"address","name":"creator","type":"address"},{"internalType":"bytes32","name":"passwordHash","type":"bytes32"},{"internalType":"enum TimeLockedVault.ConditionType","name":"conditionType","type":"uint8"},{"internalType":"enum TimeLockedVault.VaultStatus","name":"status","type":"uint8"},{"internalType":"uint256","name":"createdAt","type":"uint256"},{"internalType":"uint256","name":"updatedAt","type":"uint256"},{"internalType":"uint256","name":"unlockTime","type":"uint256"},{"internalType":"uint256","name":"checkInInterval","type":"uint256"},{"internalType":"uint256","name":"lastCheckIn","type":"uint256"},{"internalType":"uint256","name":"gracePeriod","type":"uint256"},{"internalType":"address","name":"beneficiary","type":"address"},{"internalType":"uint256","name":"requiredApprovals","type":"uint256"},{"internalType":"uint256","name":"approvalCount","type":"uint256"},{"internalType":"uint256","name":"votingDeadline","type":"uint256"},{"internalType":"uint256","name":"quorumThreshold","type":"uint256"},{"internalType":"uint256","name":"votesFor","type":"uint256"},{"internalType":"uint256","name":"votesAgainst","type":"uint256"},{"internalType":"uint256","name":"totalEligibleVoters","type":"uint256"},{"internalType":"uint256","name":"priceThreshold","type":"uint256"},{"internalType":"bool","name":"priceAbove","type":"bool"},{"internalType":"address","name":"oracleAddress","type":"address"},{"internalType":"uint256","name":"oracleMaxStaleness","type":"uint256"},{"internalType":"address","name":"arbitrator","type":"address"},{"internalType":"bool","name":"exists","type":"bool"}],"internalType":"struct TimeLockedVault.Vault","name":"","type":"tuple"}],"stateMutability":"view","type":"function"},{"inputs":[],"name":"getVaultCount","outputs":[{"internalType":"uint256","name":"","type":"uint256"}],"stateMutability":"view","type":"function"},{"inputs":[{"internalType":"uint256","name":"","type":"uint256"},{"internalType":"address","name":"","type":"address"}],"name":"multiSigApprovals","outputs":[{"internalType":"bool","name":"","type":"bool"}],"stateMutability":"view","type":"function"},{"inputs":[{"internalType":"uint256","name":"","type":"uint256"},{"internalType":"uint256","name":"","type":"uint256"}],"name":"multiSigSigners","outputs":[{"internalType":"address","name":"","type":"address"}],"stateMutability":"view","type":"function"},{"inputs":[],"name":"nextVaultId","outputs":[{"internalType":"uint256","name":"","type":"uint256"}],"stateMutability":"view","type":"function"},{"inputs":[],"name":"owner","outputs":[{"internalType":"address","name":"","type":"address"}],"stateMutability":"view","type":"function"},{"inputs":[{"internalType":"uint256","name":"_vaultId","type":"uint256"}],"name":"releaseEscrow","outputs":[],"stateMutability":"nonpayable","type":"function"},{"inputs":[],"name":"renounceOwnership","outputs":[],"stateMutability":"nonpayable","type":"function"},{"inputs":[{"internalType":"address","name":"newOwner","type":"address"}],"name":"transferOwnership","outputs":[],"stateMutability":"nonpayable","type":"function"},{"inputs":[{"internalType":"uint256","name":"_vaultId","type":"uint256"}],"name":"triggerDeadMansSwitch","outputs":[],"stateMutability":"nonpayable","type":"function"},{"inputs":[{"internalType":"uint256","name":"_vaultId","type":"uint256"}],"name":"unlockVault","outputs":[],"stateMutability":"nonpayable","type":"function"},{"inputs":[{"internalType":"uint256","name":"_vaultId","type":"uint256"},{"internalType":"address","name":"_newBeneficiary","type":"address"}],"name":"updateBeneficiary","outputs":[],"stateMutability":"nonpayable","type":"function"},{"inputs":[{"internalType":"address","name":"","type":"address"},{"internalType":"uint256","name":"","type":"uint256"}],"name":"userVaults","outputs":[{"internalType":"uint256","name":"","type":"uint256"}],"stateMutability":"view","type":"function"},{"inputs":[{"internalType":"uint256","name":"","type":"uint256"}],"name":"vaults","outputs":[{"internalType":"uint256","name":"id","type":"uint256"},{"internalType":"address","name":"creator","type":"address"},{"internalType":"bytes32","name":"passwordHash","type":"bytes32"},{"internalType":"enum TimeLockedVault.ConditionType","name":"conditionType","type":"uint8"},{"internalType":"enum TimeLockedVault.VaultStatus","name":"status","type":"uint8"},{"internalType":"uint256","name":"createdAt","type":"uint256"},{"internalType":"uint256","name":"updatedAt","type":"uint256"},{"internalType":"uint256","name":"unlockTime","type":"uint256"},{"internalType":"uint256","name":"checkInInterval","type":"uint256"},{"internalType":"uint256","name":"lastCheckIn","type":"uint256"},{"internalType":"uint256","name":"gracePeriod","type":"uint256"},{"internalType":"address","name":"beneficiary","type":"address"},{"internalType":"uint256","name":"requiredApprovals","type":"uint256"},{"internalType":"uint256","name":"approvalCount","type":"uint256"},{"internalType":"uint256","name":"votingDeadline","type":"uint256"},{"internalType":"uint256","name":"quorumThreshold","type":"uint256"},{"internalType":"uint256","name":"votesFor","type":"uint256"},{"internalType":"uint256","name":"votesAgainst","type":"uint256"},{"internalType":"uint256","name":"totalEligibleVoters","type":"uint256"},{"internalType":"uint256","name":"priceThreshold","type":"uint256"},{"internalType":"bool","name":"priceAbove","type":"bool"},{"internalType":"address","name":"oracleAddress","type":"address"},{"internalType":"uint256","name":"oracleMaxStaleness","type":"uint256"},{"internalType":"address","name":"arbitrator","type":"address"},{"internalType":"bool","name":"exists","type":"bool"}],"stateMutability":"view","type":"function"}],"evm":{"bytecode":{"linkReferences":{},"object":"6080806040523460995733156086575f8054336001600160a01b0319821681178355916001600160a01b03909116907f8be0079c531659141344cd1fd0a4f28419497f9722a3daafe3b4186f6b6457e09080a360017f9b779b17422d0df92223018b32b4d1fa46e071723d6817e2486d003becc55f005560018055612fb2908161009e8239f35b631e4fbdf760e01b5f525f60045260245ffd5b5f80fdfe6101c0806040526004361015610013575f80fd5b5f3560e01c908163061fd021146125cc575080630cc1a407146124fd57806312ac1763146124e0578063149317c0146124c457806315373e3d146122365780631a9ba00d146121ed578063210af0fb14611fdb5780633e8eb5a414611e5b578063568497bb14611c7a57806357aa6f49146119c7578063715018a61461197057806374d4e4911461194757806378640668146118f95780637afdcb09146117cc5780637b707f0114611656578063816078931461162e57806381ff793f1461139857806382aa0a1f1461126a5780638c64ea4a1461103f5780638da5cb5b146110185780639403b63414610c855780639c841fef14610c2d578063bc161f8714610be4578063d1bed38614610bb5578063de22f0c2146108e6578063de244be7146106e9578063dfc17308146106a1578063e5009cc314610634578063e7f3c69c14610580578063e95a644f1461044b578063ebfe7a1d146103ce578063ed653164146102115763f2fde38b14610188575f80fd5b3461020d57602036600319011261020d576101a16127bc565b6101a9612de1565b6001600160a01b031680156101fa575f80546001600160a01b03198116831782556001600160a01b0316907f8be0079c531659141344cd1fd0a4f28419497f9722a3daafe3b4186f6b6457e09080a3005b631e4fbdf760e01b5f525f60045260245ffd5b5f80fd5b3461020d57602036600319011261020d5760043561022d612da9565b805f52600260205261024b60ff601560405f20015460a01c166129bf565b805f52600260205260ff600360405f20015460081c1660048110156103ba576102749015612a42565b805f52600260205260405f206003810160ff81541660068110156103ba5760050361037f5760158201546001600160a01b0316330361033a5761010061ff0019825416179055426005820155600a60018060a01b0391015416604051428152827f23d38aeadadb5b25e6436c7b0d6fcdc7d408b609d4f1ce095cff6bbbf9acc41e60203393a4604051904282527fc8ee545e5b582cef6b0ab3ab5a84dc33bd22cc3ae4fc4b86d4004f1ddf88b74860203393a360015f516020612f5d5f395f51905f5255005b60405162461bcd60e51b815260206004820152601b60248201527f4f6e6c792061726269747261746f722063616e2072656c6561736500000000006044820152606490fd5b60405162461bcd60e51b8152602060048201526013602482015272139bdd08185b88195cd8dc9bddc81d985d5b1d606a1b6044820152606490fd5b634e487b7160e01b5f52602160045260245ffd5b3461020d57602036600319011261020d576004355f52600660205260405f206040519081602082549182815201915f5260205f20905f5b81811061042c576104288561041c81870382612ce0565b60405191829182612869565b0390f35b82546001600160a01b0316845260209093019260019283019201610405565b3461020d57602036600319011261020d57600435805f52600260205261047d60ff601560405f20015460a01c166129bf565b805f52600260205261049f60018060a01b03600160405f200154163314612a02565b805f52600260205260ff600360405f20015460081c1660048110156103ba576104c89015612a42565b805f52600260205260405f2060ff60038201541660068110156103ba5760010361053b57600761050691426008820155426005820155015442612abf565b906040519142835260208301527f58b5ff600c8f70ee1f1b0b8580a69c78ba78f51913156ca1d798fc4322c386d960403393a3005b60405162461bcd60e51b815260206004820152601d60248201527f4e6f7420612064656164206d616e277320737769746368207661756c740000006044820152606490fd5b3461020d57602036600319011261020d576001600160a01b036105a16127bc565b165f52600760205260405f20604051806020835491828152019081935f5260205f20905f5b81811061061e57505050816105dc910382612ce0565b604051918291602083019060208452518091526040830191905f5b818110610605575050500390f35b82518452859450602093840193909201916001016105f7565b82548452602090930192600192830192016105c6565b3461020d57602036600319011261020d576004355f52600460205260405f206040519081602082549182815201915f5260205f20905f5b818110610682576104288561041c81870382612ce0565b82546001600160a01b031684526020909301926001928301920161066b565b3461020d576106af36612853565b905f52600460205260405f20805482101561020d576020916106d09161282a565b905460405160039290921b1c6001600160a01b03168152f35b3461020d57606036600319011261020d576004356107056127a6565b6044356001600160a01b038116919082900361020d576001600160a01b0316906107308215156128ab565b80156108ac5733811461086757808214610823576015836107546020951515612939565b600154936107618561297d565b60019081555f8681526002808952604080832089815593840180546001600160a01b0319908116339081179092559285019690965560038401805461ffff19166005908117909155426004860181905590850155600a8401805490921690941790559301805460ff60a01b199095166001600160a81b031990951694909417600160a01b17909355815260078452206107fb90829061298b565b604051600581524283820152815f516020612f3d5f395f51905f5260403393a3604051908152f35b606460405162461bcd60e51b815260206004820152602060248201527f42656e65666963696172792063616e6e6f742062652061726269747261746f726044820152fd5b60405162461bcd60e51b815260206004820152601c60248201527f41726269747261746f722063616e6e6f742062652063726561746f72000000006044820152606490fd5b60405162461bcd60e51b815260206004820152601260248201527124b73b30b634b21030b93134ba3930ba37b960711b6044820152606490fd5b3461020d57606036600319011261020d5760043560243567ffffffffffffffff811161020d5761091a9036906004016127df565b6044929192359160028210610b7057600a8211610b3a5760018310610af557818311610ab0578061094e6015921515612939565b6001549361095b8561297d565b60019081555f8681526002602081815260408084208a815594850180546001600160a01b031916331790558483019690965560038401805461ffff19169092179091554260048085018290556005850191909155600b840194909455600c830182905594909101805460ff60a01b1916600160a01b179055925290209267ffffffffffffffff8211610a9c57600160401b8211610a9c578354828555808310610a76575b50925f5260205f20925f905b828210610a5157602084335f5260078252610a298160405f2061298b565b604051600281524283820152815f516020612f3d5f395f51905f5260403393a3604051908152f35b8035916001600160a01b038316830361020d5760206001920192818701550190610a0b565b845f528260205f2091820191015b818110610a9157506109ff565b5f8155600101610a84565b634e487b7160e01b5f52604160045260245ffd5b60405162461bcd60e51b815260206004820152601860248201527f5265717569726564203e20746f74616c207369676e65727300000000000000006044820152606490fd5b60405162461bcd60e51b815260206004820152601860248201527f4e656564206174206c65617374203120617070726f76616c00000000000000006044820152606490fd5b60405162461bcd60e51b815260206004820152600e60248201526d4d6178203130207369676e65727360901b6044820152606490fd5b60405162461bcd60e51b815260206004820152601760248201527f4e656564206174206c656173742032207369676e6572730000000000000000006044820152606490fd5b3461020d57610bc336612853565b905f52600660205260405f20805482101561020d576020916106d09161282a565b3461020d57604036600319011261020d57610bfd6127a6565b6004355f52600360205260405f209060018060a01b03165f52602052602060ff60405f2054166040519015158152f35b3461020d57604036600319011261020d57610c466127bc565b6001600160a01b03165f9081526007602052604090208054602435919082101561020d57602091610c769161282a565b90549060031b1c604051908152f35b3461020d57602036600319011261020d576004355f610300604051610ca981612cc3565b8281528260208201528260408201528260608201528260808201528260a08201528260c08201528260e08201528261010082015282610120820152826101408201528261016082015282610180820152826101a0820152826101c0820152826101e08201528261020082015282610220820152826102408201528261026082015282610280820152826102a0820152826102c0820152826102e08201520152805f526002602052610d6660ff601560405f20015460a01c166129bf565b5f52600260205260405f20604051610d7d81612cc3565b8154815260018201546001600160a01b0316602082015260028201546040820152600382015460ff81169060068210156103ba5760ff91606084015260081c169160048310156103ba57601560ff91610320946080850152600481015460a0850152600581015460c0850152600681015460e085015260078101546101008501526008810154610120850152600981015461014085015260018060a01b03600a82015416610160850152600b810154610180850152600c8101546101a0850152600d8101546101c0850152600e8101546101e0850152600f8101546102008501526010810154610220850152601181015461024085015260128101546102608501526013810154838116151561028086015260018060a01b039060081c166102a085015260148101546102c0850152015460018060a01b0381166102e084015260a01c161515610300820152610300604051918051835260018060a01b03602082015116602084015260408101516040840152610f0260608201516060850190612810565b610f146080820151608085019061281d565b60a081015160a084015260c081015160c084015260e081015160e084015261010081015161010084015261012081015161012084015261014081015161014084015260018060a01b03610160820151166101608401526101808101516101808401526101a08101516101a08401526101c08101516101c08401526101e08101516101e0840152610200810151610200840152610220810151610220840152610240810151610240840152610260810151610260840152610280810151151561028084015260018060a01b036102a0820151166102a08401526102c08101516102c084015260018060a01b036102e0820151166102e084015201511515610300820152f35b3461020d575f36600319011261020d575f546040516001600160a01b039091168152602090f35b3461020d57602036600319011261020d576004355f52600260205260405f206101a0526101a0515460018060a01b0360016101a0510154166101005260026101a05101546101405260036101a051015460046101a051015460056101a051015460066101a051015460076101a051015460086101a051015460096101a05101549060018060a01b03600a6101a05101541692600b6101a051015494600c6101a051015496600d6101a05101549861118a600e6101a05101549b600f6101a05101549d60106101a051015460805260116101a051015460c05260126101a05101546101805260136101a05101546101605260146101a05101546101205260156101a051015460e05260405160a05260a0515261010051602060a051015261014051604060a0510152611178606060a0510160ff8316612810565b60ff608060a051019160081c1661281d565b60a08051015260c060a051015260e060a051015261010060a051015261012060a051015261014060a051015261016060a051015261018060a05101526101a060a05101526101c060a05101526101e060a051015261020060a051015260805161022060a051015260c05161024060a05101526101805161026060a051015260ff6101605116151561028060a051015260018060a01b036101605160081c166102a060a0510152610120516102c060a051015260018060a01b0360e051166102e060a051015260ff60e05160a01c16151561030060a051015261032060a051f35b3461020d57602036600319011261020d57600435805f52600260205261129c60ff601560405f20015460a01c166129bf565b5f905f52600260205260405f209060ff60038301541660068110156103ba5760030361136157600f820154906010830154601184015493600d600e82015491015442101591828093611358575b611315575b9460c0956040519586526020860152604085015260608401526080830152151560a0820152f35b9250612710840294848604612710148515171561134457816113398260c098612b6c565b1015939095506112ee565b634e487b7160e01b5f52601160045260245ffd5b508515156112e9565b60405162461bcd60e51b815260206004820152600f60248201526e139bdd081848111053c81d985d5b1d608a1b6044820152606490fd5b3461020d57608036600319011261020d5760043560243567ffffffffffffffff811161020d576113cc9036906004016127df565b6044929192359160643590600183106115f157428411156115ac57811515806115a0575b1561156557601591611403821515612939565b600154946114108661297d565b60019081555f8781526002602081815260408084208b815594850180546001600160a01b03191633179055918401969096556003808401805461ffff1916909117905542600484018190556005840155600d830193909355600e820193909355600f8101839055601081018390556011810186905593909301805460ff60a01b1916600160a01b1790556006909152209267ffffffffffffffff8211610a9c57600160401b8211610a9c57835482855580831061153f575b50925f5260205f20925f905b82821061151a57602084335f52600782526114f28160405f2061298b565b604051600381524283820152815f516020612f3d5f395f51905f5260403393a3604051908152f35b8035916001600160a01b038316830361020d57602060019201928187015501906114d4565b845f528260205f2091820191015b81811061155a57506114c8565b5f815560010161154d565b60405162461bcd60e51b815260206004820152601360248201527251756f72756d3a20312d31303030302062707360681b6044820152606490fd5b506127108211156113f0565b60405162461bcd60e51b815260206004820152601e60248201527f446561646c696e65206d75737420626520696e207468652066757475726500006044820152606490fd5b60405162461bcd60e51b81526020600482015260156024820152742732b2b21030ba103632b0b9ba1018903b37ba32b960591b6044820152606490fd5b3461020d57602036600319011261020d57602061164c600435612b42565b6040519015158152f35b3461020d57602036600319011261020d57600435611672612da9565b805f52600260205261169060ff601560405f20015460a01c166129bf565b805f52600260205260ff600360405f20015460081c1660048110156103ba576116b99015612a42565b805f52600260205260405f206003810160ff81541660068110156103ba5760016116e39114612a81565b600a8201546001600160a01b031633036117945761170083612b42565b156117585761010061ff0019825416179055600542910155604051904282527fc8ee545e5b582cef6b0ab3ab5a84dc33bd22cc3ae4fc4b86d4004f1ddf88b74860203393a360015f516020612f5d5f395f51905f5255005b60405162461bcd60e51b815260206004820152601460248201527314ddda5d18da081b9bdd081d1c9a59d9d95c995960621b6044820152606490fd5b60405162461bcd60e51b815260206004820152601060248201526f4f6e6c792062656e656669636961727960801b6044820152606490fd5b3461020d57604036600319011261020d57600435602435428111156118aa576015826117fb6020941515612939565b600154926118088461297d565b60019081555f8581526002808852604080832088815593840180546001600160a01b031916339081179091559184019590955560038301805461ffff191690554260048401819055600584015560068301939093559301805460ff60a01b1916600160a01b179055825260078452902061188390829061298b565b6040515f81524283820152815f516020612f3d5f395f51905f5260403393a3604051908152f35b60405162461bcd60e51b815260206004820152602160248201527f556e6c6f636b2074696d65206d75737420626520696e207468652066757475726044820152606560f81b6064820152608490fd5b3461020d57604036600319011261020d576119126127a6565b6004355f52600560205260405f209060018060a01b03165f52602052602060ff60405f20541661194560405180926127d2565bf35b3461020d575f36600319011261020d576001545f19810190811161134457602090604051908152f35b3461020d575f36600319011261020d57611988612de1565b5f80546001600160a01b0319811682556001600160a01b03167f8be0079c531659141344cd1fd0a4f28419497f9722a3daafe3b4186f6b6457e08280a3005b3461020d57602036600319011261020d576004356119e3612da9565b805f526002602052611a0160ff601560405f20015460a01c166129bf565b805f52600260205260ff600360405f20015460081c1660048110156103ba57611a2a9015612a42565b805f52600260205260405f206003810160ff81541660068110156103ba5760058114611c3f5760018114611bfa575f905f81158015611bee575b15611b915750505060018201546001600160a01b031633148015611b68575b15611b2357611a9183612b42565b15611ae95761010061ff0019825416179055600542910155604051904282527fc8ee545e5b582cef6b0ab3ab5a84dc33bd22cc3ae4fc4b86d4004f1ddf88b74860203393a360015f516020612f5d5f395f51905f5255005b60405162461bcd60e51b815260206004820152601260248201527110dbdb991a5d1a5bdb9cc81b9bdd081b595d60721b6044820152606490fd5b60405162461bcd60e51b815260206004820152601860248201527f4e6f7420617574686f72697a656420746f20756e6c6f636b00000000000000006044820152606490fd5b50600a8201546001600160a01b03168015159081611b87575b50611a83565b9050331484611b81565b6103ba5760028103611bc657505060018201546001600160a01b031633148015611bbb575b611a83565b50611bb63384612d5a565b600303611a83575060018201546001600160a01b0316331480611bb65750611bb63384612d02565b50505f60048214611a64565b60405162461bcd60e51b815260206004820152601b60248201527f5573652074726967676572446561644d616e73537769746368282900000000006044820152606490fd5b60405162461bcd60e51b81526020600482015260136024820152725573652072656c65617365457363726f77282960681b6044820152606490fd5b3461020d57602036600319011261020d57600435805f526002602052611cac60ff601560405f20015460a01c166129bf565b805f52600260205260ff600360405f20015460081c1660048110156103ba57611cd59015612a42565b805f52600260205260405f209060ff60038301541660068110156103ba57600203611e1e575f81815260036020908152604080832033845290915290205460ff16611de657611d243382612d5a565b15611da157805f52600360205260405f2060018060a01b0333165f5260205260405f20600160ff19825416179055600b600c830192611d63845461297d565b809455426005820155015460405192835260208301527fc993e60c6bf9dbd562b8c3796f50de8d9e54439cf55afc37e33ffef7405ed90460403393a3005b60405162461bcd60e51b815260206004820152601860248201527f4e6f7420616e20617574686f72697a6564207369676e657200000000000000006044820152606490fd5b60405162461bcd60e51b815260206004820152601060248201526f105b1c9958591e48185c1c1c9bdd995960821b6044820152606490fd5b60405162461bcd60e51b8152602060048201526015602482015274139bdd0818481b5d5b1d1a4b5cda59c81d985d5b1d605a1b6044820152606490fd5b3461020d57604036600319011261020d57600435611e776127a6565b815f526002602052611e9560ff601560405f20015460a01c166129bf565b815f526002602052611eb760018060a01b03600160405f200154163314612a02565b815f52600260205260ff600360405f20015460081c1660048110156103ba57611ee09015612a42565b6001600160a01b031690611ef58215156128ab565b611f01338314156128ed565b805f52600260205260405f209060ff60038301541660068110156103ba5760018114908115611fd0575b5015611f7f57600a82019160018060a01b0383541692846001600160601b0360a01b8254161790556005429101557ff585da3452445cd066854ce9c4f3306e8deddd1d571e840b1dddaa1f3d4de53c5f80a4005b60405162461bcd60e51b8152602060048201526024808201527f5661756c74207479706520646f6573206e6f7420686176652062656e656669636044820152636961727960e01b6064820152608490fd5b600591501484611f2b565b3461020d5760a036600319011261020d57600435611ff76127a6565b604435906064359283151580940361020d576084356001600160a01b038316156121af57831561216a5761202c821515612939565b62093a80811161212f57602094601593600154956120498761297d565b60019081555f8881526002808b52604090912089815591820180546001600160a01b0319163317905581019590955560038501805461ffff1916600490811790915542908601819055600586015560128501556013840180546001600160a81b03191660ff939093169290921760089190911b610100600160a81b03161790558061212a5750610e105b601482015501805460ff60a01b1916600160a01b179055335f908152600783526040902061210290829061298b565b604051600481524283820152815f516020612f3d5f395f51905f5260403393a3604051908152f35b6120d3565b60405162461bcd60e51b81526020600482015260136024820152725374616c656e65737320746f6f206c6172676560681b6044820152606490fd5b60405162461bcd60e51b815260206004820152601b60248201527f5072696365207468726573686f6c64206d757374206265203e203000000000006044820152606490fd5b60405162461bcd60e51b8152602060048201526016602482015275496e76616c6964206f7261636c65206164647265737360501b6044820152606490fd5b3461020d57602036600319011261020d576040612228600435805f52600260205261222360ff6015855f20015460a01c166129bf565b612ad9565b825191825215156020820152f35b3461020d57604036600319011261020d57602435600435811515820361020d57805f52600260205261227460ff601560405f20015460a01c166129bf565b805f52600260205260ff600360405f20015460081c1660048110156103ba5761229d9015612a42565b805f52600260205260405f209160ff60038401541660068110156103ba5760030361248857600d83015442101561244d575f82815260056020908152604080832033845290915290205460ff1660038110156103ba57612418576123013383612d02565b156123db5780156123a2575f8281526005602090815260408083203384529091529020805460ff19166001179055600f8301805461233e9061297d565b90555b4260058401551561239a576001915b6010600f8201549101549061236860405180956127d2565b602084015260408301527f4fb436bc3e53ee9d93d9cad6bc99565de46432e0ea0e1c0655ef56f189658c9660603393a3005b600291612350565b5f8281526005602090815260408083203384529091529020805460ff191660021790556010830180546123d49061297d565b9055612341565b60405162461bcd60e51b81526020600482015260156024820152742737ba1030b71032b634b3b4b13632903b37ba32b960591b6044820152606490fd5b60405162461bcd60e51b815260206004820152600d60248201526c105b1c9958591e481d9bdd1959609a1b6044820152606490fd5b60405162461bcd60e51b8152602060048201526013602482015272159bdd1a5b99c81c195c9a5bd908195b991959606a1b6044820152606490fd5b60405162461bcd60e51b8152602060048201526014602482015273139bdd081848111053c81d9bdd19481d985d5b1d60621b6044820152606490fd5b3461020d575f36600319011261020d576020604051610e108152f35b3461020d575f36600319011261020d576020600154604051908152f35b3461020d57602036600319011261020d57600435805f52600260205261252f60ff601560405f20015460a01c166129bf565b805f52600260205261255160018060a01b03600160405f200154163314612a02565b805f52600260205260ff600360405f20015460081c1660048110156103ba5761257a9015612a42565b805f52600260205260405f206003810161020061ff0019825416179055600542910155604051904282527f63c22da2349a9598e170cb9c7e26f1f906bea8e78f0dced9d0b85b17ffe0d61160203393a3005b3461020d57608036600319011261020d576064356001600160a01b0381169160243591604435916004359185900361020d576201518084106127595750610e108210612714578360159261262360209615156128ab565b61262f338314156128ed565b61263a831515612939565b600154946126478661297d565b600155855f526002875260405f20938685556001850160018060a01b0333166001600160601b0360a01b825416179055600285015560038401600160ff1982541617815561ff0019815416905542600485015542600585015560078401554260088401556009830155600a8201906001600160601b0360a01b82541617905501600160a01b60ff60a01b19825416179055335f52600782526126ec8160405f2061298b565b604051600181524283820152815f516020612f3d5f395f51905f5260403393a3604051908152f35b60405162461bcd60e51b815260206004820152601e60248201527f477261636520706572696f64206d757374206265203e3d203120686f757200006044820152606490fd5b62461bcd60e51b815260206004820152602260248201527f436865636b2d696e20696e74657276616c206d757374206265203e3d20312064604482015261617960f01b6064820152608490fd5b602435906001600160a01b038216820361020d57565b600435906001600160a01b038216820361020d57565b9060038210156103ba5752565b9181601f8401121561020d5782359167ffffffffffffffff831161020d576020808501948460051b01011161020d57565b9060068210156103ba5752565b9060048210156103ba5752565b805482101561283f575f5260205f2001905f90565b634e487b7160e01b5f52603260045260245ffd5b604090600319011261020d576004359060243590565b60206040818301928281528451809452019201905f5b81811061288c5750505090565b82516001600160a01b031684526020938401939092019160010161287f565b156128b257565b60405162461bcd60e51b8152602060048201526013602482015272496e76616c69642062656e656669636961727960681b6044820152606490fd5b156128f457565b60405162461bcd60e51b815260206004820152601d60248201527f42656e65666963696172792063616e6e6f742062652063726561746f720000006044820152606490fd5b1561294057565b60405162461bcd60e51b8152602060048201526015602482015274092dcecc2d8d2c840e0c2e6e6eedee4c840d0c2e6d605b1b6044820152606490fd5b5f1981146113445760010190565b8054600160401b811015610a9c576129a89160018201815561282a565b819291549060031b91821b915f19901b1916179055565b156129c657565b60405162461bcd60e51b815260206004820152601460248201527315985d5b1d08191bd95cc81b9bdd08195e1a5cdd60621b6044820152606490fd5b15612a0957565b60405162461bcd60e51b81526020600482015260116024820152702737ba103b30bab63a1031b932b0ba37b960791b6044820152606490fd5b15612a4957565b60405162461bcd60e51b815260206004820152601060248201526f5661756c74206e6f742061637469766560801b6044820152606490fd5b15612a8857565b60405162461bcd60e51b815260206004820152600f60248201526e139bdd081848111354c81d985d5b1d608a1b6044820152606490fd5b9190820180921161134457565b9190820391821161134457565b5f52600260205260405f2060ff6003820154169060068210156103ba57612b056001612b239314612a81565b6009612b1a6008830154600784015490612abf565b91015490612abf565b804211612b3a57612b35904290612acc565b905f90565b505f90600190565b612b6990805f526002602052612b6460ff601560405f20015460a01c166129bf565b612b8a565b90565b8115612b76570490565b634e487b7160e01b5f52601260045260245ffd5b5f52600260205260405f20600381015460ff8160081c1660048110156103ba5780612cba575060ff1660068110156103ba578015612caf5760018114612c905760028114612c805760038114612c2357600414612be657505f90565b806013612b699201546014601283015492015480155f14612c1d5750610e10915b60ff82169160081c6001600160a01b0316612e1e565b91612c07565b50600d8101544210612c7b57600f810154612c42601083015482612abf565b15612c7557612710810290808204612710149015171561134457612c6d600e91601184015490612b6c565b910154111590565b50505f90565b505f90565b50600b600c820154910154111590565b50806009612b1a6008612caa940154600784015490612abf565b421190565b506006015442101590565b60011492915050565b610320810190811067ffffffffffffffff821117610a9c57604052565b90601f8019910116810190811067ffffffffffffffff821117610a9c57604052565b5f52600660205260405f20905f918054925b838110612d2357505050505f90565b612d2d818361282a565b905460039190911b1c6001600160a01b0390811690841614612d5157600101612d14565b50505050600190565b5f52600460205260405f20905f918054925b838110612d7b57505050505f90565b612d85818361282a565b905460039190911b1c6001600160a01b0390811690841614612d5157600101612d6c565b60025f516020612f5d5f395f51905f525414612dd25760025f516020612f5d5f395f51905f5255565b633ee5aeb560e01b5f5260045ffd5b5f546001600160a01b03163303612df457565b63118cdaa760e01b5f523360045260245ffd5b519069ffffffffffffffffffff8216820361020d57565b5f8091949392946040516020810190633fabe5a360e21b825260048152612e46602482612ce0565b51915afa3d15612f34573d9067ffffffffffffffff8211610a9c5760405191612e79601f8201601f191660200184612ce0565b82523d5f602084013e5b158015612f29575b612f215760a08180518101031261020d57612ea860208201612e07565b604082015193612ebf60a060808501519401612e07565b925f861315612f16578015612f1657804210612f1657612edf9042612acc565b11612f0d5769ffffffffffffffffffff809116911610612f065715612f02571190565b1090565b5050505f90565b50505050505f90565b505050505050505f90565b505050505f90565b5060a0815110612e8b565b606090612e8356fef05b5cfff5f684799218b8134d5d0c1cbeb310e8fc7d26e0ef92e2c792b02ec69b779b17422d0df92223018b32b4d1fa46e071723d6817e2486d003becc55f00a26469706673582212204375a7a80516114ef4ea4e07da0b19563fc8fdd77d5ee0b8140770bac31cb7d664736f6c634300081c0033","opcodes":"PUSH1 0x80 DUP1 PUSH1 0x40 MSTORE CALLVALUE PUSH1 0x99 JUMPI CALLER ISZERO PUSH1 0x86 JUMPI PUSH0 DUP1 SLOAD CALLER PUSH1 0x1 PUSH1 0x1 PUSH1 0xA0 SHL SUB NOT DUP3 AND DUP2 OR DUP4 SSTORE SWAP2 PUSH1 0x1 PUSH1 0x1 PUSH1 0xA0 SHL SUB SWAP1 SWAP2 AND SWAP1 PUSH32 0x8BE0079C531659141344CD1FD0A4F28419497F9722A3DAAFE3B4186F6B6457E0 SWAP1 DUP1 LOG3 PUSH1 0x1 PUSH32 0x9B779B17422D0DF92223018B32B4D1FA46E071723D6817E2486D003BECC55F00 SSTORE PUSH1 0x1 DUP1 SSTORE PUSH2 0x2FB2 SWAP1 DUP2 PUSH2 0x9E DUP3 CODECOPY RETURN JUMPDEST PUSH4 0x1E4FBDF7 PUSH1 0xE0 SHL PUSH0 MSTORE PUSH0 PUSH1 0x4 MSTORE PUSH1 0x24 PUSH0 REVERT JUMPDEST PUSH0 DUP1 REVERT INVALID PUSH2 0x1C0 DUP1 PUSH1 0x40 MSTORE PUSH1 0x4 CALLDATASIZE LT ISZERO PUSH2 0x13 JUMPI PUSH0 DUP1 REVERT JUMPDEST PUSH0 CALLDATALOAD PUSH1 0xE0 SHR SWAP1 DUP2 PUSH4 0x61FD021 EQ PUSH2 0x25CC JUMPI POP DUP1 PUSH4 0xCC1A407 EQ PUSH2 0x24FD JUMPI DUP1 PUSH4 0x12AC1763 EQ PUSH2 0x24E0 JUMPI DUP1 PUSH4 0x149317C0 EQ PUSH2 0x24C4 JUMPI DUP1 PUSH4 0x15373E3D EQ PUSH2 0x2236 JUMPI DUP1 PUSH4 0x1A9BA00D EQ PUSH2 0x21ED JUMPI DUP1 PUSH4 0x210AF0FB EQ PUSH2 0x1FDB JUMPI DUP1 PUSH4 0x3E8EB5A4 EQ PUSH2 0x1E5B JUMPI DUP1 PUSH4 0x568497BB EQ PUSH2 0x1C7A JUMPI DUP1 PUSH4 0x57AA6F49 EQ PUSH2 0x19C7 JUMPI DUP1 PUSH4 0x715018A6 EQ PUSH2 0x1970 JUMPI DUP1 PUSH4 0x74D4E491 EQ PUSH2 0x1947 JUMPI DUP1 PUSH4 0x78640668 EQ PUSH2 0x18F9 JUMPI DUP1 PUSH4 0x7AFDCB09 EQ PUSH2 0x17CC JUMPI DUP1 PUSH4 0x7B707F01 EQ PUSH2 0x1656 JUMPI DUP1 PUSH4 0x81607893 EQ PUSH2 0x162E JUMPI DUP1 PUSH4 0x81FF793F EQ PUSH2 0x1398 JUMPI DUP1 PUSH4 0x82AA0A1F EQ PUSH2 0x126A JUMPI DUP1 PUSH4 0x8C64EA4A EQ PUSH2 0x103F JUMPI DUP1 PUSH4 0x8DA5CB5B EQ PUSH2 0x1018 JUMPI DUP1 PUSH4 0x9403B634 EQ PUSH2 0xC85 JUMPI DUP1 PUSH4 0x9C841FEF EQ PUSH2 0xC2D JUMPI DUP1 PUSH4 0xBC161F87 EQ PUSH2 0xBE4 JUMPI DUP1 PUSH4 0xD1BED386 EQ PUSH2 0xBB5 JUMPI DUP1 PUSH4 0xDE22F0C2 EQ PUSH2 0x8E6 JUMPI DUP1 PUSH4 0xDE244BE7 EQ PUSH2 0x6E9 JUMPI DUP1 PUSH4 0xDFC17308 EQ PUSH2 0x6A1 JUMPI DUP1 PUSH4 0xE5009CC3 EQ PUSH2 0x634 JUMPI DUP1 PUSH4 0xE7F3C69C EQ PUSH2 0x580 JUMPI DUP1 PUSH4 0xE95A644F EQ PUSH2 0x44B JUMPI DUP1 PUSH4 0xEBFE7A1D EQ PUSH2 0x3CE JUMPI DUP1 PUSH4 0xED653164 EQ PUSH2 0x211 JUMPI PUSH4 0xF2FDE38B EQ PUSH2 0x188 JUMPI PUSH0 DUP1 REVERT JUMPDEST CALLVALUE PUSH2 0x20D JUMPI PUSH1 0x20 CALLDATASIZE PUSH1 0x3 NOT ADD SLT PUSH2 0x20D JUMPI PUSH2 0x1A1 PUSH2 0x27BC JUMP JUMPDEST PUSH2 0x1A9 PUSH2 0x2DE1 JUMP JUMPDEST PUSH1 0x1 PUSH1 0x1 PUSH1 0xA0 SHL SUB AND DUP1 ISZERO PUSH2 0x1FA JUMPI PUSH0 DUP1 SLOAD PUSH1 0x1 PUSH1 0x1 PUSH1 0xA0 SHL SUB NOT DUP2 AND DUP4 OR DUP3 SSTORE PUSH1 0x1 PUSH1 0x1 PUSH1 0xA0 SHL SUB AND SWAP1 PUSH32 0x8BE0079C531659141344CD1FD0A4F28419497F9722A3DAAFE3B4186F6B6457E0 SWAP1 DUP1 LOG3 STOP JUMPDEST PUSH4 0x1E4FBDF7 PUSH1 0xE0 SHL PUSH0 MSTORE PUSH0 PUSH1 0x4 MSTORE PUSH1 0x24 PUSH0 REVERT JUMPDEST PUSH0 DUP1 REVERT JUMPDEST CALLVALUE PUSH2 0x20D JUMPI PUSH1 0x20 CALLDATASIZE PUSH1 0x3 NOT ADD SLT PUSH2 0x20D JUMPI PUSH1 0x4 CALLDATALOAD PUSH2 0x22D PUSH2 0x2DA9 JUMP JUMPDEST DUP1 PUSH0 MSTORE PUSH1 0x2 PUSH1 0x20 MSTORE PUSH2 0x24B PUSH1 0xFF PUSH1 0x15 PUSH1 0x40 PUSH0 KECCAK256 ADD SLOAD PUSH1 0xA0 SHR AND PUSH2 0x29BF JUMP JUMPDEST DUP1 PUSH0 MSTORE PUSH1 0x2 PUSH1 0x20 MSTORE PUSH1 0xFF PUSH1 0x3 PUSH1 0x40 PUSH0 KECCAK256 ADD SLOAD PUSH1 0x8 SHR AND PUSH1 0x4 DUP2 LT ISZERO PUSH2 0x3BA JUMPI PUSH2 0x274 SWAP1 ISZERO PUSH2 0x2A42 JUMP JUMPDEST DUP1 PUSH0 MSTORE PUSH1 0x2 PUSH1 0x20 MSTORE PUSH1 0x40 PUSH0 KECCAK256 PUSH1 0x3 DUP2 ADD PUSH1 0xFF DUP2 SLOAD AND PUSH1 0x6 DUP2 LT ISZERO PUSH2 0x3BA JUMPI PUSH1 0x5 SUB PUSH2 0x37F JUMPI PUSH1 0x15 DUP3 ADD SLOAD PUSH1 0x1 PUSH1 0x1 PUSH1 0xA0 SHL SUB AND CALLER SUB PUSH2 0x33A JUMPI PUSH2 0x100 PUSH2 0xFF00 NOT DUP3 SLOAD AND OR SWAP1 SSTORE TIMESTAMP PUSH1 0x5 DUP3 ADD SSTORE PUSH1 0xA PUSH1 0x1 DUP1 PUSH1 0xA0 SHL SUB SWAP2 ADD SLOAD AND PUSH1 0x40 MLOAD TIMESTAMP DUP2 MSTORE DUP3 PUSH32 0x23D38AEADADB5B25E6436C7B0D6FCDC7D408B609D4F1CE095CFF6BBBF9ACC41E PUSH1 0x20 CALLER SWAP4 LOG4 PUSH1 0x40 MLOAD SWAP1 TIMESTAMP DUP3 MSTORE PUSH32 0xC8EE545E5B582CEF6B0AB3AB5A84DC33BD22CC3AE4FC4B86D4004F1DDF88B748 PUSH1 0x20 CALLER SWAP4 LOG3 PUSH1 0x1 PUSH0 MLOAD PUSH1 0x20 PUSH2 0x2F5D PUSH0 CODECOPY PUSH0 MLOAD SWAP1 PUSH0 MSTORE SSTORE STOP JUMPDEST PUSH1 0x40 MLOAD PUSH3 0x461BCD PUSH1 0xE5 SHL DUP2 MSTORE PUSH1 0x20 PUSH1 0x4 DUP3 ADD MSTORE PUSH1 0x1B PUSH1 0x24 DUP3 ADD MSTORE PUSH32 0x4F6E6C792061726269747261746F722063616E2072656C656173650000000000 PUSH1 0x44 DUP3 ADD MSTORE PUSH1 0x64 SWAP1 REVERT JUMPDEST PUSH1 0x40 MLOAD PUSH3 0x461BCD PUSH1 0xE5 SHL DUP2 MSTORE PUSH1 0x20 PUSH1 0x4 DUP3 ADD MSTORE PUSH1 0x13 PUSH1 0x24 DUP3 ADD MSTORE PUSH19 0x139BDD08185B88195CD8DC9BDDC81D985D5B1D PUSH1 0x6A SHL PUSH1 0x44 DUP3 ADD MSTORE PUSH1 0x64 SWAP1 REVERT JUMPDEST PUSH4 0x4E487B71 PUSH1 0xE0 SHL PUSH0 MSTORE PUSH1 0x21 PUSH1 0x4 MSTORE PUSH1 0x24 PUSH0 REVERT JUMPDEST CALLVALUE PUSH2 0x20D JUMPI PUSH1 0x20 CALLDATASIZE PUSH1 0x3 NOT ADD SLT PUSH2 0x20D JUMPI PUSH1 0x4 CALLDATALOAD PUSH0 MSTORE PUSH1 0x6 PUSH1 0x20 MSTORE PUSH1 0x40 PUSH0 KECCAK256 PUSH1 0x40 MLOAD SWAP1 DUP2 PUSH1 0x20 DUP3 SLOAD SWAP2 DUP3 DUP2 MSTORE ADD SWAP2 PUSH0 MSTORE PUSH1 0x20 PUSH0 KECCAK256 SWAP1 PUSH0 JUMPDEST DUP2 DUP2 LT PUSH2 0x42C JUMPI PUSH2 0x428 DUP6 PUSH2 0x41C DUP2 DUP8 SUB DUP3 PUSH2 0x2CE0 JUMP JUMPDEST PUSH1 0x40 MLOAD SWAP2 DUP3 SWAP2 DUP3 PUSH2 0x2869 JUMP JUMPDEST SUB SWAP1 RETURN JUMPDEST DUP3 SLOAD PUSH1 0x1 PUSH1 0x1 PUSH1 0xA0 SHL SUB AND DUP5 MSTORE PUSH1 0x20 SWAP1 SWAP4 ADD SWAP3 PUSH1 0x1 SWAP3 DUP4 ADD SWAP3 ADD PUSH2 0x405 JUMP JUMPDEST CALLVALUE PUSH2 0x20D JUMPI PUSH1 0x20 CALLDATASIZE PUSH1 0x3 NOT ADD SLT PUSH2 0x20D JUMPI PUSH1 0x4 CALLDATALOAD DUP1 PUSH0 MSTORE PUSH1 0x2 PUSH1 0x20 MSTORE PUSH2 0x47D PUSH1 0xFF PUSH1 0x15 PUSH1 0x40 PUSH0 KECCAK256 ADD SLOAD PUSH1 0xA0 SHR AND PUSH2 0x29BF JUMP JUMPDEST DUP1 PUSH0 MSTORE PUSH1 0x2 PUSH1 0x20 MSTORE PUSH2 0x49F PUSH1 0x1 DUP1 PUSH1 0xA0 SHL SUB PUSH1 0x1 PUSH1 0x40 PUSH0 KECCAK256 ADD SLOAD AND CALLER EQ PUSH2 0x2A02 JUMP JUMPDEST DUP1 PUSH0 MSTORE PUSH1 0x2 PUSH1 0x20 MSTORE PUSH1 0xFF PUSH1 0x3 PUSH1 0x40 PUSH0 KECCAK256 ADD SLOAD PUSH1 0x8 SHR AND PUSH1 0x4 DUP2 LT ISZERO PUSH2 0x3BA JUMPI PUSH2 0x4C8 SWAP1 ISZERO PUSH2 0x2A42 JUMP JUMPDEST DUP1 PUSH0 MSTORE PUSH1 0x2 PUSH1 0x20 MSTORE PUSH1 0x40 PUSH0 KECCAK256 PUSH1 0xFF PUSH1 0x3 DUP3 ADD SLOAD AND PUSH1 0x6 DUP2 LT ISZERO PUSH2 0x3BA JUMPI PUSH1 0x1 SUB PUSH2 0x53B JUMPI PUSH1 0x7 PUSH2 0x506 SWAP2 TIMESTAMP PUSH1 0x8 DUP3 ADD SSTORE TIMESTAMP PUSH1 0x5 DUP3 ADD SSTORE ADD SLOAD TIMESTAMP PUSH2 0x2ABF JUMP JUMPDEST SWAP1 PUSH1 0x40 MLOAD SWAP2 TIMESTAMP DUP4 MSTORE PUSH1 0x20 DUP4 ADD MSTORE PUSH32 0x58B5FF600C8F70EE1F1B0B8580A69C78BA78F51913156CA1D798FC4322C386D9 PUSH1 0x40 CALLER SWAP4 LOG3 STOP JUMPDEST PUSH1 0x40 MLOAD PUSH3 0x461BCD PUSH1 0xE5 SHL DUP2 MSTORE PUSH1 0x20 PUSH1 0x4 DUP3 ADD MSTORE PUSH1 0x1D PUSH1 0x24 DUP3 ADD MSTORE PUSH32 0x4E6F7420612064656164206D616E277320737769746368207661756C74000000 PUSH1 0x44 DUP3 ADD MSTORE PUSH1 0x64 SWAP1 REVERT JUMPDEST CALLVALUE PUSH2 0x20D JUMPI PUSH1 0x20 CALLDATASIZE PUSH1 0x3 NOT ADD SLT PUSH2 0x20D JUMPI PUSH1 0x1 PUSH1 0x1 PUSH1 0xA0 SHL SUB PUSH2 0x5A1 PUSH2 0x27BC JUMP JUMPDEST AND PUSH0 MSTORE PUSH1 0x7 PUSH1 0x20 MSTORE PUSH1 0x40 PUSH0 KECCAK256 PUSH1 0x40 MLOAD DUP1 PUSH1 0x20 DUP4 SLOAD SWAP2 DUP3 DUP2 MSTORE ADD SWAP1 DUP2 SWAP4 PUSH0 MSTORE PUSH1 0x20 PUSH0 KECCAK256 SWAP1 PUSH0 JUMPDEST DUP2 DUP2 LT PUSH2 0x61E JUMPI POP POP POP DUP2 PUSH2 0x5DC SWAP2 SUB DUP3 PUSH2 0x2CE0 JUMP JUMPDEST PUSH1 0x40 MLOAD SWAP2 DUP3 SWAP2 PUSH1 0x20 DUP4 ADD SWAP1 PUSH1 0x20 DUP5 MSTORE MLOAD DUP1 SWAP2 MSTORE PUSH1 0x40 DUP4 ADD SWAP2 SWAP1 PUSH0 JUMPDEST DUP2 DUP2 LT PUSH2 0x605 JUMPI POP POP POP SUB SWAP1 RETURN JUMPDEST DUP3 MLOAD DUP5 MSTORE DUP6 SWAP5 POP PUSH1 0x20 SWAP4 DUP5 ADD SWAP4 SWAP1 SWAP3 ADD SWAP2 PUSH1 0x1 ADD PUSH2 0x5F7 JUMP JUMPDEST DUP3 SLOAD DUP5 MSTORE PUSH1 0x20 SWAP1 SWAP4 ADD SWAP3 PUSH1 0x1 SWAP3 DUP4 ADD SWAP3 ADD PUSH2 0x5C6 JUMP JUMPDEST CALLVALUE PUSH2 0x20D JUMPI PUSH1 0x20 CALLDATASIZE PUSH1 0x3 NOT ADD SLT PUSH2 0x20D JUMPI PUSH1 0x4 CALLDATALOAD PUSH0 MSTORE PUSH1 0x4 PUSH1 0x20 MSTORE PUSH1 0x40 PUSH0 KECCAK256 PUSH1 0x40 MLOAD SWAP1 DUP2 PUSH1 0x20 DUP3 SLOAD SWAP2 DUP3 DUP2 MSTORE ADD SWAP2 PUSH0 MSTORE PUSH1 0x20 PUSH0 KECCAK256 SWAP1 PUSH0 JUMPDEST DUP2 DUP2 LT PUSH2 0x682 JUMPI PUSH2 0x428 DUP6 PUSH2 0x41C DUP2 DUP8 SUB DUP3 PUSH2 0x2CE0 JUMP JUMPDEST DUP3 SLOAD PUSH1 0x1 PUSH1 0x1 PUSH1 0xA0 SHL SUB AND DUP5 MSTORE PUSH1 0x20 SWAP1 SWAP4 ADD SWAP3 PUSH1 0x1 SWAP3 DUP4 ADD SWAP3 ADD PUSH2 0x66B JUMP JUMPDEST CALLVALUE PUSH2 0x20D JUMPI PUSH2 0x6AF CALLDATASIZE PUSH2 0x2853 JUMP JUMPDEST SWAP1 PUSH0 MSTORE PUSH1 0x4 PUSH1 0x20 MSTORE PUSH1 0x40 PUSH0 KECCAK256 DUP1 SLOAD DUP3 LT ISZERO PUSH2 0x20D JUMPI PUSH1 0x20 SWAP2 PUSH2 0x6D0 SWAP2 PUSH2 0x282A JUMP JUMPDEST SWAP1 SLOAD PUSH1 0x40 MLOAD PUSH1 0x3 SWAP3 SWAP1 SWAP3 SHL SHR PUSH1 0x1 PUSH1 0x1 PUSH1 0xA0 SHL SUB AND DUP2 MSTORE RETURN JUMPDEST CALLVALUE PUSH2 0x20D JUMPI PUSH1 0x60 CALLDATASIZE PUSH1 0x3 NOT ADD SLT PUSH2 0x20D JUMPI PUSH1 0x4 CALLDATALOAD PUSH2 0x705 PUSH2 0x27A6 JUMP JUMPDEST PUSH1 0x44 CALLDATALOAD PUSH1 0x1 PUSH1 0x1 PUSH1 0xA0 SHL SUB DUP2 AND SWAP2 SWAP1 DUP3 SWAP1 SUB PUSH2 0x20D JUMPI PUSH1 0x1 PUSH1 0x1 PUSH1 0xA0 SHL SUB AND SWAP1 PUSH2 0x730 DUP3 ISZERO ISZERO PUSH2 0x28AB JUMP JUMPDEST DUP1 ISZERO PUSH2 0x8AC JUMPI CALLER DUP2 EQ PUSH2 0x867 JUMPI DUP1 DUP3 EQ PUSH2 0x823 JUMPI PUSH1 0x15 DUP4 PUSH2 0x754 PUSH1 0x20 SWAP6 ISZERO ISZERO PUSH2 0x2939 JUMP JUMPDEST PUSH1 0x1 SLOAD SWAP4 PUSH2 0x761 DUP6 PUSH2 0x297D JUMP JUMPDEST PUSH1 0x1 SWAP1 DUP2 SSTORE PUSH0 DUP7 DUP2 MSTORE PUSH1 0x2 DUP1 DUP10 MSTORE PUSH1 0x40 DUP1 DUP4 KECCAK256 DUP10 DUP2 SSTORE SWAP4 DUP5 ADD DUP1 SLOAD PUSH1 0x1 PUSH1 0x1 PUSH1 0xA0 SHL SUB NOT SWAP1 DUP2 AND CALLER SWAP1 DUP2 OR SWAP1 SWAP3 SSTORE SWAP3 DUP6 ADD SWAP7 SWAP1 SWAP7 SSTORE PUSH1 0x3 DUP5 ADD DUP1 SLOAD PUSH2 0xFFFF NOT AND PUSH1 0x5 SWAP1 DUP2 OR SWAP1 SWAP2 SSTORE TIMESTAMP PUSH1 0x4 DUP7 ADD DUP2 SWAP1 SSTORE SWAP1 DUP6 ADD SSTORE PUSH1 0xA DUP5 ADD DUP1 SLOAD SWAP1 SWAP3 AND SWAP1 SWAP5 OR SWAP1 SSTORE SWAP4 ADD DUP1 SLOAD PUSH1 0xFF PUSH1 0xA0 SHL NOT SWAP1 SWAP6 AND PUSH1 0x1 PUSH1 0x1 PUSH1 0xA8 SHL SUB NOT SWAP1 SWAP6 AND SWAP5 SWAP1 SWAP5 OR PUSH1 0x1 PUSH1 0xA0 SHL OR SWAP1 SWAP4 SSTORE DUP2 MSTORE PUSH1 0x7 DUP5 MSTORE KECCAK256 PUSH2 0x7FB SWAP1 DUP3 SWAP1 PUSH2 0x298B JUMP JUMPDEST PUSH1 0x40 MLOAD PUSH1 0x5 DUP2 MSTORE TIMESTAMP DUP4 DUP3 ADD MSTORE DUP2 PUSH0 MLOAD PUSH1 0x20 PUSH2 0x2F3D PUSH0 CODECOPY PUSH0 MLOAD SWAP1 PUSH0 MSTORE PUSH1 0x40 CALLER SWAP4 LOG3 PUSH1 0x40 MLOAD SWAP1 DUP2 MSTORE RETURN JUMPDEST PUSH1 0x64 PUSH1 0x40 MLOAD PUSH3 0x461BCD PUSH1 0xE5 SHL DUP2 MSTORE PUSH1 0x20 PUSH1 0x4 DUP3 ADD MSTORE PUSH1 0x20 PUSH1 0x24 DUP3 ADD MSTORE PUSH32 0x42656E65666963696172792063616E6E6F742062652061726269747261746F72 PUSH1 0x44 DUP3 ADD MSTORE REVERT JUMPDEST PUSH1 0x40 MLOAD PUSH3 0x461BCD PUSH1 0xE5 SHL DUP2 MSTORE PUSH1 0x20 PUSH1 0x4 DUP3 ADD MSTORE PUSH1 0x1C PUSH1 0x24 DUP3 ADD MSTORE PUSH32 0x41726269747261746F722063616E6E6F742062652063726561746F7200000000 PUSH1 0x44 DUP3 ADD MSTORE PUSH1 0x64 SWAP1 REVERT JUMPDEST PUSH1 0x40 MLOAD PUSH3 0x461BCD PUSH1 0xE5 SHL DUP2 MSTORE PUSH1 0x20 PUSH1 0x4 DUP3 ADD MSTORE PUSH1 0x12 PUSH1 0x24 DUP3 ADD MSTORE PUSH18 0x24B73B30B634B21030B93134BA3930BA37B9 PUSH1 0x71 SHL PUSH1 0x44 DUP3 ADD MSTORE PUSH1 0x64 SWAP1 REVERT JUMPDEST CALLVALUE PUSH2 0x20D JUMPI PUSH1 0x60 CALLDATASIZE PUSH1 0x3 NOT ADD SLT PUSH2 0x20D JUMPI PUSH1 0x4 CALLDATALOAD PUSH1 0x24 CALLDATALOAD PUSH8 0xFFFFFFFFFFFFFFFF DUP2 GT PUSH2 0x20D JUMPI PUSH2 0x91A SWAP1 CALLDATASIZE SWAP1 PUSH1 0x4 ADD PUSH2 0x27DF JUMP JUMPDEST PUSH1 0x44 SWAP3 SWAP2 SWAP3 CALLDATALOAD SWAP2 PUSH1 0x2 DUP3 LT PUSH2 0xB70 JUMPI PUSH1 0xA DUP3 GT PUSH2 0xB3A JUMPI PUSH1 0x1 DUP4 LT PUSH2 0xAF5 JUMPI DUP2 DUP4 GT PUSH2 0xAB0 JUMPI DUP1 PUSH2 0x94E PUSH1 0x15 SWAP3 ISZERO ISZERO PUSH2 0x2939 JUMP JUMPDEST PUSH1 0x1 SLOAD SWAP4 PUSH2 0x95B DUP6 PUSH2 0x297D JUMP JUMPDEST PUSH1 0x1 SWAP1 DUP2 SSTORE PUSH0 DUP7 DUP2 MSTORE PUSH1 0x2 PUSH1 0x20 DUP2 DUP2 MSTORE PUSH1 0x40 DUP1 DUP5 KECCAK256 DUP11 DUP2 SSTORE SWAP5 DUP6 ADD DUP1 SLOAD PUSH1 0x1 PUSH1 0x1 PUSH1 0xA0 SHL SUB NOT AND CALLER OR SWAP1 SSTORE DUP5 DUP4 ADD SWAP7 SWAP1 SWAP7 SSTORE PUSH1 0x3 DUP5 ADD DUP1 SLOAD PUSH2 0xFFFF NOT AND SWAP1 SWAP3 OR SWAP1 SWAP2 SSTORE TIMESTAMP PUSH1 0x4 DUP1 DUP6 ADD DUP3 SWAP1 SSTORE PUSH1 0x5 DUP6 ADD SWAP2 SWAP1 SWAP2 SSTORE PUSH1 0xB DUP5 ADD SWAP5 SWAP1 SWAP5 SSTORE PUSH1 0xC DUP4 ADD DUP3 SWAP1 SSTORE SWAP5 SWAP1 SWAP2 ADD DUP1 SLOAD PUSH1 0xFF PUSH1 0xA0 SHL NOT AND PUSH1 0x1 PUSH1 0xA0 SHL OR SWAP1 SSTORE SWAP3 MSTORE SWAP1 KECCAK256 SWAP3 PUSH8 0xFFFFFFFFFFFFFFFF DUP3 GT PUSH2 0xA9C JUMPI PUSH1 0x1 PUSH1 0x40 SHL DUP3 GT PUSH2 0xA9C JUMPI DUP4 SLOAD DUP3 DUP6 SSTORE DUP1 DUP4 LT PUSH2 0xA76 JUMPI JUMPDEST POP SWAP3 PUSH0 MSTORE PUSH1 0x20 PUSH0 KECCAK256 SWAP3 PUSH0 SWAP1 JUMPDEST DUP3 DUP3 LT PUSH2 0xA51 JUMPI PUSH1 0x20 DUP5 CALLER PUSH0 MSTORE PUSH1 0x7 DUP3 MSTORE PUSH2 0xA29 DUP2 PUSH1 0x40 PUSH0 KECCAK256 PUSH2 0x298B JUMP JUMPDEST PUSH1 0x40 MLOAD PUSH1 0x2 DUP2 MSTORE TIMESTAMP DUP4 DUP3 ADD MSTORE DUP2 PUSH0 MLOAD PUSH1 0x20 PUSH2 0x2F3D PUSH0 CODECOPY PUSH0 MLOAD SWAP1 PUSH0 MSTORE PUSH1 0x40 CALLER SWAP4 LOG3 PUSH1 0x40 MLOAD SWAP1 DUP2 MSTORE RETURN JUMPDEST DUP1 CALLDATALOAD SWAP2 PUSH1 0x1 PUSH1 0x1 PUSH1 0xA0 SHL SUB DUP4 AND DUP4 SUB PUSH2 0x20D JUMPI PUSH1 0x20 PUSH1 0x1 SWAP3 ADD SWAP3 DUP2 DUP8 ADD SSTORE ADD SWAP1 PUSH2 0xA0B JUMP JUMPDEST DUP5 PUSH0 MSTORE DUP3 PUSH1 0x20 PUSH0 KECCAK256 SWAP2 DUP3 ADD SWAP2 ADD JUMPDEST DUP2 DUP2 LT PUSH2 0xA91 JUMPI POP PUSH2 0x9FF JUMP JUMPDEST PUSH0 DUP2 SSTORE PUSH1 0x1 ADD PUSH2 0xA84 JUMP JUMPDEST PUSH4 0x4E487B71 PUSH1 0xE0 SHL PUSH0 MSTORE PUSH1 0x41 PUSH1 0x4 MSTORE PUSH1 0x24 PUSH0 REVERT JUMPDEST PUSH1 0x40 MLOAD PUSH3 0x461BCD PUSH1 0xE5 SHL DUP2 MSTORE PUSH1 0x20 PUSH1 0x4 DUP3 ADD MSTORE PUSH1 0x18 PUSH1 0x24 DUP3 ADD MSTORE PUSH32 0x5265717569726564203E20746F74616C207369676E6572730000000000000000 PUSH1 0x44 DUP3 ADD MSTORE PUSH1 0x64 SWAP1 REVERT JUMPDEST PUSH1 0x40 MLOAD PUSH3 0x461BCD PUSH1 0xE5 SHL DUP2 MSTORE PUSH1 0x20 PUSH1 0x4 DUP3 ADD MSTORE PUSH1 0x18 PUSH1 0x24 DUP3 ADD MSTORE PUSH32 0x4E656564206174206C65617374203120617070726F76616C0000000000000000 PUSH1 0x44 DUP3 ADD MSTORE PUSH1 0x64 SWAP1 REVERT JUMPDEST PUSH1 0x40 MLOAD PUSH3 0x461BCD PUSH1 0xE5 SHL DUP2 MSTORE PUSH1 0x20 PUSH1 0x4 DUP3 ADD MSTORE PUSH1 0xE PUSH1 0x24 DUP3 ADD MSTORE PUSH14 0x4D6178203130207369676E657273 PUSH1 0x90 SHL PUSH1 0x44 DUP3 ADD MSTORE PUSH1 0x64 SWAP1 REVERT JUMPDEST PUSH1 0x40 MLOAD PUSH3 0x461BCD PUSH1 0xE5 SHL DUP2 MSTORE PUSH1 0x20 PUSH1 0x4 DUP3 ADD MSTORE PUSH1 0x17 PUSH1 0x24 DUP3 ADD MSTORE PUSH32 0x4E656564206174206C656173742032207369676E657273000000000000000000 PUSH1 0x44 DUP3 ADD MSTORE PUSH1 0x64 SWAP1 REVERT JUMPDEST CALLVALUE PUSH2 0x20D JUMPI PUSH2 0xBC3 CALLDATASIZE PUSH2 0x2853 JUMP JUMPDEST SWAP1 PUSH0 MSTORE PUSH1 0x6 PUSH1 0x20 MSTORE PUSH1 0x40 PUSH0 KECCAK256 DUP1 SLOAD DUP3 LT ISZERO PUSH2 0x20D JUMPI PUSH1 0x20 SWAP2 PUSH2 0x6D0 SWAP2 PUSH2 0x282A JUMP JUMPDEST CALLVALUE PUSH2 0x20D JUMPI PUSH1 0x40 CALLDATASIZE PUSH1 0x3 NOT ADD SLT PUSH2 0x20D JUMPI PUSH2 0xBFD PUSH2 0x27A6 JUMP JUMPDEST PUSH1 0x4 CALLDATALOAD PUSH0 MSTORE PUSH1 0x3 PUSH1 0x20 MSTORE PUSH1 0x40 PUSH0 KECCAK256 SWAP1 PUSH1 0x1 DUP1 PUSH1 0xA0 SHL SUB AND PUSH0 MSTORE PUSH1 0x20 MSTORE PUSH1 0x20 PUSH1 0xFF PUSH1 0x40 PUSH0 KECCAK256 SLOAD AND PUSH1 0x40 MLOAD SWAP1 ISZERO ISZERO DUP2 MSTORE RETURN JUMPDEST CALLVALUE PUSH2 0x20D JUMPI PUSH1 0x40 CALLDATASIZE PUSH1 0x3 NOT ADD SLT PUSH2 0x20D JUMPI PUSH2 0xC46 PUSH2 0x27BC JUMP JUMPDEST PUSH1 0x1 PUSH1 0x1 PUSH1 0xA0 SHL SUB AND PUSH0 SWAP1 DUP2 MSTORE PUSH1 0x7 PUSH1 0x20 MSTORE PUSH1 0x40 SWAP1 KECCAK256 DUP1 SLOAD PUSH1 0x24 CALLDATALOAD SWAP2 SWAP1 DUP3 LT ISZERO PUSH2 0x20D JUMPI PUSH1 0x20 SWAP2 PUSH2 0xC76 SWAP2 PUSH2 0x282A JUMP JUMPDEST SWAP1 SLOAD SWAP1 PUSH1 0x3 SHL SHR PUSH1 0x40 MLOAD SWAP1 DUP2 MSTORE RETURN JUMPDEST CALLVALUE PUSH2 0x20D JUMPI PUSH1 0x20 CALLDATASIZE PUSH1 0x3 NOT ADD SLT PUSH2 0x20D JUMPI PUSH1 0x4 CALLDATALOAD PUSH0 PUSH2 0x300 PUSH1 0x40 MLOAD PUSH2 0xCA9 DUP2 PUSH2 0x2CC3 JUMP JUMPDEST DUP3 DUP2 MSTORE DUP3 PUSH1 0x20 DUP3 ADD MSTORE DUP3 PUSH1 0x40 DUP3 ADD MSTORE DUP3 PUSH1 0x60 DUP3 ADD MSTORE DUP3 PUSH1 0x80 DUP3 ADD MSTORE DUP3 PUSH1 0xA0 DUP3 ADD MSTORE DUP3 PUSH1 0xC0 DUP3 ADD MSTORE DUP3 PUSH1 0xE0 DUP3 ADD MSTORE DUP3 PUSH2 0x100 DUP3 ADD MSTORE DUP3 PUSH2 0x120 DUP3 ADD MSTORE DUP3 PUSH2 0x140 DUP3 ADD MSTORE DUP3 PUSH2 0x160 DUP3 ADD MSTORE DUP3 PUSH2 0x180 DUP3 ADD MSTORE DUP3 PUSH2 0x1A0 DUP3 ADD MSTORE DUP3 PUSH2 0x1C0 DUP3 ADD MSTORE DUP3 PUSH2 0x1E0 DUP3 ADD MSTORE DUP3 PUSH2 0x200 DUP3 ADD MSTORE DUP3 PUSH2 0x220 DUP3 ADD MSTORE DUP3 PUSH2 0x240 DUP3 ADD MSTORE DUP3 PUSH2 0x260 DUP3 ADD MSTORE DUP3 PUSH2 0x280 DUP3 ADD MSTORE DUP3 PUSH2 0x2A0 DUP3 ADD MSTORE DUP3 PUSH2 0x2C0 DUP3 ADD MSTORE DUP3 PUSH2 0x2E0 DUP3 ADD MSTORE ADD MSTORE DUP1 PUSH0 MSTORE PUSH1 0x2 PUSH1 0x20 MSTORE PUSH2 0xD66 PUSH1 0xFF PUSH1 0x15 PUSH1 0x40 PUSH0 KECCAK256 ADD SLOAD PUSH1 0xA0 SHR AND PUSH2 0x29BF JUMP JUMPDEST PUSH0 MSTORE PUSH1 0x2 PUSH1 0x20 MSTORE PUSH1 0x40 PUSH0 KECCAK256 PUSH1 0x40 MLOAD PUSH2 0xD7D DUP2 PUSH2 0x2CC3 JUMP JUMPDEST DUP2 SLOAD DUP2 MSTORE PUSH1 0x1 DUP3 ADD SLOAD PUSH1 0x1 PUSH1 0x1 PUSH1 0xA0 SHL SUB AND PUSH1 0x20 DUP3 ADD MSTORE PUSH1 0x2 DUP3 ADD SLOAD PUSH1 0x40 DUP3 ADD MSTORE PUSH1 0x3 DUP3 ADD SLOAD PUSH1 0xFF DUP2 AND SWAP1 PUSH1 0x6 DUP3 LT ISZERO PUSH2 0x3BA JUMPI PUSH1 0xFF SWAP2 PUSH1 0x60 DUP5 ADD MSTORE PUSH1 0x8 SHR AND SWAP2 PUSH1 0x4 DUP4 LT ISZERO PUSH2 0x3BA JUMPI PUSH1 0x15 PUSH1 0xFF SWAP2 PUSH2 0x320 SWAP5 PUSH1 0x80 DUP6 ADD MSTORE PUSH1 0x4 DUP2 ADD SLOAD PUSH1 0xA0 DUP6 ADD MSTORE PUSH1 0x5 DUP2 ADD SLOAD PUSH1 0xC0 DUP6 ADD MSTORE PUSH1 0x6 DUP2 ADD SLOAD PUSH1 0xE0 DUP6 ADD MSTORE PUSH1 0x7 DUP2 ADD SLOAD PUSH2 0x100 DUP6 ADD MSTORE PUSH1 0x8 DUP2 ADD SLOAD PUSH2 0x120 DUP6 ADD MSTORE PUSH1 0x9 DUP2 ADD SLOAD PUSH2 0x140 DUP6 ADD MSTORE PUSH1 0x1 DUP1 PUSH1 0xA0 SHL SUB PUSH1 0xA DUP3 ADD SLOAD AND PUSH2 0x160 DUP6 ADD MSTORE PUSH1 0xB DUP2 ADD SLOAD PUSH2 0x180 DUP6 ADD MSTORE PUSH1 0xC DUP2 ADD SLOAD PUSH2 0x1A0 DUP6 ADD MSTORE PUSH1 0xD DUP2 ADD SLOAD PUSH2 0x1C0 DUP6 ADD MSTORE PUSH1 0xE DUP2 ADD SLOAD PUSH2 0x1E0 DUP6 ADD MSTORE PUSH1 0xF DUP2 ADD SLOAD PUSH2 0x200 DUP6 ADD MSTORE PUSH1 0x10 DUP2 ADD SLOAD PUSH2 0x220 DUP6 ADD MSTORE PUSH1 0x11 DUP2 ADD SLOAD PUSH2 0x240 DUP6 ADD MSTORE PUSH1 0x12 DUP2 ADD SLOAD PUSH2 0x260 DUP6 ADD MSTORE PUSH1 0x13 DUP2 ADD SLOAD DUP4 DUP2 AND ISZERO ISZERO PUSH2 0x280 DUP7 ADD MSTORE PUSH1 0x1 DUP1 PUSH1 0xA0 SHL SUB SWAP1 PUSH1 0x8 SHR AND PUSH2 0x2A0 DUP6 ADD MSTORE PUSH1 0x14 DUP2 ADD SLOAD PUSH2 0x2C0 DUP6 ADD MSTORE ADD SLOAD PUSH1 0x1 DUP1 PUSH1 0xA0 SHL SUB DUP2 AND PUSH2 0x2E0 DUP5 ADD MSTORE PUSH1 0xA0 SHR AND ISZERO ISZERO PUSH2 0x300 DUP3 ADD MSTORE PUSH2 0x300 PUSH1 0x40 MLOAD SWAP2 DUP1 MLOAD DUP4 MSTORE PUSH1 0x1 DUP1 PUSH1 0xA0 SHL SUB PUSH1 0x20 DUP3 ADD MLOAD AND PUSH1 0x20 DUP5 ADD MSTORE PUSH1 0x40 DUP2 ADD MLOAD PUSH1 0x40 DUP5 ADD MSTORE PUSH2 0xF02 PUSH1 0x60 DUP3 ADD MLOAD PUSH1 0x60 DUP6 ADD SWAP1 PUSH2 0x2810 JUMP JUMPDEST PUSH2 0xF14 PUSH1 0x80 DUP3 ADD MLOAD PUSH1 0x80 DUP6 ADD SWAP1 PUSH2 0x281D JUMP JUMPDEST PUSH1 0xA0 DUP2 ADD MLOAD PUSH1 0xA0 DUP5 ADD MSTORE PUSH1 0xC0 DUP2 ADD MLOAD PUSH1 0xC0 DUP5 ADD MSTORE PUSH1 0xE0 DUP2 ADD MLOAD PUSH1 0xE0 DUP5 ADD MSTORE PUSH2 0x100 DUP2 ADD MLOAD PUSH2 0x100 DUP5 ADD MSTORE PUSH2 0x120 DUP2 ADD MLOAD PUSH2 0x120 DUP5 ADD MSTORE PUSH2 0x140 DUP2 ADD MLOAD PUSH2 0x140 DUP5 ADD MSTORE PUSH1 0x1 DUP1 PUSH1 0xA0 SHL SUB PUSH2 0x160 DUP3 ADD MLOAD AND PUSH2 0x160 DUP5 ADD MSTORE PUSH2 0x180 DUP2 ADD MLOAD PUSH2 0x180 DUP5 ADD MSTORE PUSH2 0x1A0 DUP2 ADD MLOAD PUSH2 0x1A0 DUP5 ADD MSTORE PUSH2 0x1C0 DUP2 ADD MLOAD PUSH2 0x1C0 DUP5 ADD MSTORE PUSH2 0x1E0 DUP2 ADD MLOAD PUSH2 0x1E0 DUP5 ADD MSTORE PUSH2 0x200 DUP2 ADD MLOAD PUSH2 0x200 DUP5 ADD MSTORE PUSH2 0x220 DUP2 ADD MLOAD PUSH2 0x220 DUP5 ADD MSTORE PUSH2 0x240 DUP2 ADD MLOAD PUSH2 0x240 DUP5 ADD MSTORE PUSH2 0x260 DUP2 ADD MLOAD PUSH2 0x260 DUP5 ADD MSTORE PUSH2 0x280 DUP2 ADD MLOAD ISZERO ISZERO PUSH2 0x280 DUP5 ADD MSTORE PUSH1 0x1 DUP1 PUSH1 0xA0 SHL SUB PUSH2 0x2A0 DUP3 ADD MLOAD AND PUSH2 0x2A0 DUP5 ADD MSTORE PUSH2 0x2C0 DUP2 ADD MLOAD PUSH2 0x2C0 DUP5 ADD MSTORE PUSH1 0x1 DUP1 PUSH1 0xA0 SHL SUB PUSH2 0x2E0 DUP3 ADD MLOAD AND PUSH2 0x2E0 DUP5 ADD MSTORE ADD MLOAD ISZERO ISZERO PUSH2 0x300 DUP3 ADD MSTORE RETURN JUMPDEST CALLVALUE PUSH2 0x20D JUMPI PUSH0 CALLDATASIZE PUSH1 0x3 NOT ADD SLT PUSH2 0x20D JUMPI PUSH0 SLOAD PUSH1 0x40 MLOAD PUSH1 0x1 PUSH1 0x1 PUSH1 0xA0 SHL SUB SWAP1 SWAP2 AND DUP2 MSTORE PUSH1 0x20 SWAP1 RETURN JUMPDEST CALLVALUE PUSH2 0x20D JUMPI PUSH1 0x20 CALLDATASIZE PUSH1 0x3 NOT ADD SLT PUSH2 0x20D JUMPI PUSH1 0x4 CALLDATALOAD PUSH0 MSTORE PUSH1 0x2 PUSH1 0x20 MSTORE PUSH1 0x40 PUSH0 KECCAK256 PUSH2 0x1A0 MSTORE PUSH2 0x1A0 MLOAD SLOAD PUSH1 0x1 DUP1 PUSH1 0xA0 SHL SUB PUSH1 0x1 PUSH2 0x1A0 MLOAD ADD SLOAD AND PUSH2 0x100 MSTORE PUSH1 0x2 PUSH2 0x1A0 MLOAD ADD SLOAD PUSH2 0x140 MSTORE PUSH1 0x3 PUSH2 0x1A0 MLOAD ADD SLOAD PUSH1 0x4 PUSH2 0x1A0 MLOAD ADD SLOAD PUSH1 0x5 PUSH2 0x1A0 MLOAD ADD SLOAD PUSH1 0x6 PUSH2 0x1A0 MLOAD ADD SLOAD PUSH1 0x7 PUSH2 0x1A0 MLOAD ADD SLOAD PUSH1 0x8 PUSH2 0x1A0 MLOAD ADD SLOAD PUSH1 0x9 PUSH2 0x1A0 MLOAD ADD SLOAD SWAP1 PUSH1 0x1 DUP1 PUSH1 0xA0 SHL SUB PUSH1 0xA PUSH2 0x1A0 MLOAD ADD SLOAD AND SWAP3 PUSH1 0xB PUSH2 0x1A0 MLOAD ADD SLOAD SWAP5 PUSH1 0xC PUSH2 0x1A0 MLOAD ADD SLOAD SWAP7 PUSH1 0xD PUSH2 0x1A0 MLOAD ADD SLOAD SWAP9 PUSH2 0x118A PUSH1 0xE PUSH2 0x1A0 MLOAD ADD SLOAD SWAP12 PUSH1 0xF PUSH2 0x1A0 MLOAD ADD SLOAD SWAP14 PUSH1 0x10 PUSH2 0x1A0 MLOAD ADD SLOAD PUSH1 0x80 MSTORE PUSH1 0x11 PUSH2 0x1A0 MLOAD ADD SLOAD PUSH1 0xC0 MSTORE PUSH1 0x12 PUSH2 0x1A0 MLOAD ADD SLOAD PUSH2 0x180 MSTORE PUSH1 0x13 PUSH2 0x1A0 MLOAD ADD SLOAD PUSH2 0x160 MSTORE PUSH1 0x14 PUSH2 0x1A0 MLOAD ADD SLOAD PUSH2 0x120 MSTORE PUSH1 0x15 PUSH2 0x1A0 MLOAD ADD SLOAD PUSH1 0xE0 MSTORE PUSH1 0x40 MLOAD PUSH1 0xA0 MSTORE PUSH1 0xA0 MLOAD MSTORE PUSH2 0x100 MLOAD PUSH1 0x20 PUSH1 0xA0 MLOAD ADD MSTORE PUSH2 0x140 MLOAD PUSH1 0x40 PUSH1 0xA0 MLOAD ADD MSTORE PUSH2 0x1178 PUSH1 0x60 PUSH1 0xA0 MLOAD ADD PUSH1 0xFF DUP4 AND PUSH2 0x2810 JUMP JUMPDEST PUSH1 0xFF PUSH1 0x80 PUSH1 0xA0 MLOAD ADD SWAP2 PUSH1 0x8 SHR AND PUSH2 0x281D JUMP JUMPDEST PUSH1 0xA0 DUP1 MLOAD ADD MSTORE PUSH1 0xC0 PUSH1 0xA0 MLOAD ADD MSTORE PUSH1 0xE0 PUSH1 0xA0 MLOAD ADD MSTORE PUSH2 0x100 PUSH1 0xA0 MLOAD ADD MSTORE PUSH2 0x120 PUSH1 0xA0 MLOAD ADD MSTORE PUSH2 0x140 PUSH1 0xA0 MLOAD ADD MSTORE PUSH2 0x160 PUSH1 0xA0 MLOAD ADD MSTORE PUSH2 0x180 PUSH1 0xA0 MLOAD ADD MSTORE PUSH2 0x1A0 PUSH1 0xA0 MLOAD ADD MSTORE PUSH2 0x1C0 PUSH1 0xA0 MLOAD ADD MSTORE PUSH2 0x1E0 PUSH1 0xA0 MLOAD ADD MSTORE PUSH2 0x200 PUSH1 0xA0 MLOAD ADD MSTORE PUSH1 0x80 MLOAD PUSH2 0x220 PUSH1 0xA0 MLOAD ADD MSTORE PUSH1 0xC0 MLOAD PUSH2 0x240 PUSH1 0xA0 MLOAD ADD MSTORE PUSH2 0x180 MLOAD PUSH2 0x260 PUSH1 0xA0 MLOAD ADD MSTORE PUSH1 0xFF PUSH2 0x160 MLOAD AND ISZERO ISZERO PUSH2 0x280 PUSH1 0xA0 MLOAD ADD MSTORE PUSH1 0x1 DUP1 PUSH1 0xA0 SHL SUB PUSH2 0x160 MLOAD PUSH1 0x8 SHR AND PUSH2 0x2A0 PUSH1 0xA0 MLOAD ADD MSTORE PUSH2 0x120 MLOAD PUSH2 0x2C0 PUSH1 0xA0 MLOAD ADD MSTORE PUSH1 0x1 DUP1 PUSH1 0xA0 SHL SUB PUSH1 0xE0 MLOAD AND PUSH2 0x2E0 PUSH1 0xA0 MLOAD ADD MSTORE PUSH1 0xFF PUSH1 0xE0 MLOAD PUSH1 0xA0 SHR AND ISZERO ISZERO PUSH2 0x300 PUSH1 0xA0 MLOAD ADD MSTORE PUSH2 0x320 PUSH1 0xA0 MLOAD RETURN JUMPDEST CALLVALUE PUSH2 0x20D JUMPI PUSH1 0x20 CALLDATASIZE PUSH1 0x3 NOT ADD SLT PUSH2 0x20D JUMPI PUSH1 0x4 CALLDATALOAD DUP1 PUSH0 MSTORE PUSH1 0x2 PUSH1 0x20 MSTORE PUSH2 0x129C PUSH1 0xFF PUSH1 0x15 PUSH1 0x40 PUSH0 KECCAK256 ADD SLOAD PUSH1 0xA0 SHR AND PUSH2 0x29BF JUMP JUMPDEST PUSH0 SWAP1 PUSH0 MSTORE PUSH1 0x2 PUSH1 0x20 MSTORE PUSH1 0x40 PUSH0 KECCAK256 SWAP1 PUSH1 0xFF PUSH1 0x3 DUP4 ADD SLOAD AND PUSH1 0x6 DUP2 LT ISZERO PUSH2 0x3BA JUMPI PUSH1 0x3 SUB PUSH2 0x1361 JUMPI PUSH1 0xF DUP3 ADD SLOAD SWAP1 PUSH1 0x10 DUP4 ADD SLOAD PUSH1 0x11 DUP5 ADD SLOAD SWAP4 PUSH1 0xD PUSH1 0xE DUP3 ADD SLOAD SWAP2 ADD SLOAD TIMESTAMP LT ISZERO SWAP2 DUP3 DUP1 SWAP4 PUSH2 0x1358 JUMPI JUMPDEST PUSH2 0x1315 JUMPI JUMPDEST SWAP5 PUSH1 0xC0 SWAP6 PUSH1 0x40 MLOAD SWAP6 DUP7 MSTORE PUSH1 0x20 DUP7 ADD MSTORE PUSH1 0x40 DUP6 ADD MSTORE PUSH1 0x60 DUP5 ADD MSTORE PUSH1 0x80 DUP4 ADD MSTORE ISZERO ISZERO PUSH1 0xA0 DUP3 ADD MSTORE RETURN JUMPDEST SWAP3 POP PUSH2 0x2710 DUP5 MUL SWAP5 DUP5 DUP7 DIV PUSH2 0x2710 EQ DUP6 ISZERO OR ISZERO PUSH2 0x1344 JUMPI DUP2 PUSH2 0x1339 DUP3 PUSH1 0xC0 SWAP9 PUSH2 0x2B6C JUMP JUMPDEST LT ISZERO SWAP4 SWAP1 SWAP6 POP PUSH2 0x12EE JUMP JUMPDEST PUSH4 0x4E487B71 PUSH1 0xE0 SHL PUSH0 MSTORE PUSH1 0x11 PUSH1 0x4 MSTORE PUSH1 0x24 PUSH0 REVERT JUMPDEST POP DUP6 ISZERO ISZERO PUSH2 0x12E9 JUMP JUMPDEST PUSH1 0x40 MLOAD PUSH3 0x461BCD PUSH1 0xE5 SHL DUP2 MSTORE PUSH1 0x20 PUSH1 0x4 DUP3 ADD MSTORE PUSH1 0xF PUSH1 0x24 DUP3 ADD MSTORE PUSH15 0x139BDD081848111053C81D985D5B1D PUSH1 0x8A SHL PUSH1 0x44 DUP3 ADD MSTORE PUSH1 0x64 SWAP1 REVERT JUMPDEST CALLVALUE PUSH2 0x20D JUMPI PUSH1 0x80 CALLDATASIZE PUSH1 0x3 NOT ADD SLT PUSH2 0x20D JUMPI PUSH1 0x4 CALLDATALOAD PUSH1 0x24 CALLDATALOAD PUSH8 0xFFFFFFFFFFFFFFFF DUP2 GT PUSH2 0x20D JUMPI PUSH2 0x13CC SWAP1 CALLDATASIZE SWAP1 PUSH1 0x4 ADD PUSH2 0x27DF JUMP JUMPDEST PUSH1 0x44 SWAP3 SWAP2 SWAP3 CALLDATALOAD SWAP2 PUSH1 0x64 CALLDATALOAD SWAP1 PUSH1 0x1 DUP4 LT PUSH2 0x15F1 JUMPI TIMESTAMP DUP5 GT ISZERO PUSH2 0x15AC JUMPI DUP2 ISZERO ISZERO DUP1 PUSH2 0x15A0 JUMPI JUMPDEST ISZERO PUSH2 0x1565 JUMPI PUSH1 0x15 SWAP2 PUSH2 0x1403 DUP3 ISZERO ISZERO PUSH2 0x2939 JUMP JUMPDEST PUSH1 0x1 SLOAD SWAP5 PUSH2 0x1410 DUP7 PUSH2 0x297D JUMP JUMPDEST PUSH1 0x1 SWAP1 DUP2 SSTORE PUSH0 DUP8 DUP2 MSTORE PUSH1 0x2 PUSH1 0x20 DUP2 DUP2 MSTORE PUSH1 0x40 DUP1 DUP5 KECCAK256 DUP12 DUP2 SSTORE SWAP5 DUP6 ADD DUP1 SLOAD PUSH1 0x1 PUSH1 0x1 PUSH1 0xA0 SHL SUB NOT AND CALLER OR SWAP1 SSTORE SWAP2 DUP5 ADD SWAP7 SWAP1 SWAP7 SSTORE PUSH1 0x3 DUP1 DUP5 ADD DUP1 SLOAD PUSH2 0xFFFF NOT AND SWAP1 SWAP2 OR SWAP1 SSTORE TIMESTAMP PUSH1 0x4 DUP5 ADD DUP2 SWAP1 SSTORE PUSH1 0x5 DUP5 ADD SSTORE PUSH1 0xD DUP4 ADD SWAP4 SWAP1 SWAP4 SSTORE PUSH1 0xE DUP3 ADD SWAP4 SWAP1 SWAP4 SSTORE PUSH1 0xF DUP2 ADD DUP4 SWAP1 SSTORE PUSH1 0x10 DUP2 ADD DUP4 SWAP1 SSTORE PUSH1 0x11 DUP2 ADD DUP7 SWAP1 SSTORE SWAP4 SWAP1 SWAP4 ADD DUP1 SLOAD PUSH1 0xFF PUSH1 0xA0 SHL NOT AND PUSH1 0x1 PUSH1 0xA0 SHL OR SWAP1 SSTORE PUSH1 0x6 SWAP1 SWAP2 MSTORE KECCAK256 SWAP3 PUSH8 0xFFFFFFFFFFFFFFFF DUP3 GT PUSH2 0xA9C JUMPI PUSH1 0x1 PUSH1 0x40 SHL DUP3 GT PUSH2 0xA9C JUMPI DUP4 SLOAD DUP3 DUP6 SSTORE DUP1 DUP4 LT PUSH2 0x153F JUMPI JUMPDEST POP SWAP3 PUSH0 MSTORE PUSH1 0x20 PUSH0 KECCAK256 SWAP3 PUSH0 SWAP1 JUMPDEST DUP3 DUP3 LT PUSH2 0x151A JUMPI PUSH1 0x20 DUP5 CALLER PUSH0 MSTORE PUSH1 0x7 DUP3 MSTORE PUSH2 0x14F2 DUP2 PUSH1 0x40 PUSH0 KECCAK256 PUSH2 0x298B JUMP JUMPDEST PUSH1 0x40 MLOAD PUSH1 0x3 DUP2 MSTORE TIMESTAMP DUP4 DUP3 ADD MSTORE DUP2 PUSH0 MLOAD PUSH1 0x20 PUSH2 0x2F3D PUSH0 CODECOPY PUSH0 MLOAD SWAP1 PUSH0 MSTORE PUSH1 0x40 CALLER SWAP4 LOG3 PUSH1 0x40 MLOAD SWAP1 DUP2 MSTORE RETURN JUMPDEST DUP1 CALLDATALOAD SWAP2 PUSH1 0x1 PUSH1 0x1 PUSH1 0xA0 SHL SUB DUP4 AND DUP4 SUB PUSH2 0x20D JUMPI PUSH1 0x20 PUSH1 0x1 SWAP3 ADD SWAP3 DUP2 DUP8 ADD SSTORE ADD SWAP1 PUSH2 0x14D4 JUMP JUMPDEST DUP5 PUSH0 MSTORE DUP3 PUSH1 0x20 PUSH0 KECCAK256 SWAP2 DUP3 ADD SWAP2 ADD JUMPDEST DUP2 DUP2 LT PUSH2 0x155A JUMPI POP PUSH2 0x14C8 JUMP JUMPDEST PUSH0 DUP2 SSTORE PUSH1 0x1 ADD PUSH2 0x154D JUMP JUMPDEST PUSH1 0x40 MLOAD PUSH3 0x461BCD PUSH1 0xE5 SHL DUP2 MSTORE PUSH1 0x20 PUSH1 0x4 DUP3 ADD MSTORE PUSH1 0x13 PUSH1 0x24 DUP3 ADD MSTORE PUSH19 0x51756F72756D3A20312D313030303020627073 PUSH1 0x68 SHL PUSH1 0x44 DUP3 ADD MSTORE PUSH1 0x64 SWAP1 REVERT JUMPDEST POP PUSH2 0x2710 DUP3 GT ISZERO PUSH2 0x13F0 JUMP JUMPDEST PUSH1 0x40 MLOAD PUSH3 0x461BCD PUSH1 0xE5 SHL DUP2 MSTORE PUSH1 0x20 PUSH1 0x4 DUP3 ADD MSTORE PUSH1 0x1E PUSH1 0x24 DUP3 ADD MSTORE PUSH32 0x446561646C696E65206D75737420626520696E20746865206675747572650000 PUSH1 0x44 DUP3 ADD MSTORE PUSH1 0x64 SWAP1 REVERT JUMPDEST PUSH1 0x40 MLOAD PUSH3 0x461BCD PUSH1 0xE5 SHL DUP2 MSTORE PUSH1 0x20 PUSH1 0x4 DUP3 ADD MSTORE PUSH1 0x15 PUSH1 0x24 DUP3 ADD MSTORE PUSH21 0x2732B2B21030BA103632B0B9BA1018903B37BA32B9 PUSH1 0x59 SHL PUSH1 0x44 DUP3 ADD MSTORE PUSH1 0x64 SWAP1 REVERT JUMPDEST CALLVALUE PUSH2 0x20D JUMPI PUSH1 0x20 CALLDATASIZE PUSH1 0x3 NOT ADD SLT PUSH2 0x20D JUMPI PUSH1 0x20 PUSH2 0x164C PUSH1 0x4 CALLDATALOAD PUSH2 0x2B42 JUMP JUMPDEST PUSH1 0x40 MLOAD SWAP1 ISZERO ISZERO DUP2 MSTORE RETURN JUMPDEST CALLVALUE PUSH2 0x20D JUMPI PUSH1 0x20 CALLDATASIZE PUSH1 0x3 NOT ADD SLT PUSH2 0x20D JUMPI PUSH1 0x4 CALLDATALOAD PUSH2 0x1672 PUSH2 0x2DA9 JUMP JUMPDEST DUP1 PUSH0 MSTORE PUSH1 0x2 PUSH1 0x20 MSTORE PUSH2 0x1690 PUSH1 0xFF PUSH1 0x15 PUSH1 0x40 PUSH0 KECCAK256 ADD SLOAD PUSH1 0xA0 SHR AND PUSH2 0x29BF JUMP JUMPDEST DUP1 PUSH0 MSTORE PUSH1 0x2 PUSH1 0x20 MSTORE PUSH1 0xFF PUSH1 0x3 PUSH1 0x40 PUSH0 KECCAK256 ADD SLOAD PUSH1 0x8 SHR AND PUSH1 0x4 DUP2 LT ISZERO PUSH2 0x3BA JUMPI PUSH2 0x16B9 SWAP1 ISZERO PUSH2 0x2A42 JUMP JUMPDEST DUP1 PUSH0 MSTORE PUSH1 0x2 PUSH1 0x20 MSTORE PUSH1 0x40 PUSH0 KECCAK256 PUSH1 0x3 DUP2 ADD PUSH1 0xFF DUP2 SLOAD AND PUSH1 0x6 DUP2 LT ISZERO PUSH2 0x3BA JUMPI PUSH1 0x1 PUSH2 0x16E3 SWAP2 EQ PUSH2 0x2A81 JUMP JUMPDEST PUSH1 0xA DUP3 ADD SLOAD PUSH1 0x1 PUSH1 0x1 PUSH1 0xA0 SHL SUB AND CALLER SUB PUSH2 0x1794 JUMPI PUSH2 0x1700 DUP4 PUSH2 0x2B42 JUMP JUMPDEST ISZERO PUSH2 0x1758 JUMPI PUSH2 0x100 PUSH2 0xFF00 NOT DUP3 SLOAD AND OR SWAP1 SSTORE PUSH1 0x5 TIMESTAMP SWAP2 ADD SSTORE PUSH1 0x40 MLOAD SWAP1 TIMESTAMP DUP3 MSTORE PUSH32 0xC8EE545E5B582CEF6B0AB3AB5A84DC33BD22CC3AE4FC4B86D4004F1DDF88B748 PUSH1 0x20 CALLER SWAP4 LOG3 PUSH1 0x1 PUSH0 MLOAD PUSH1 0x20 PUSH2 0x2F5D PUSH0 CODECOPY PUSH0 MLOAD SWAP1 PUSH0 MSTORE SSTORE STOP JUMPDEST PUSH1 0x40 MLOAD PUSH3 0x461BCD PUSH1 0xE5 SHL DUP2 MSTORE PUSH1 0x20 PUSH1 0x4 DUP3 ADD MSTORE PUSH1 0x14 PUSH1 0x24 DUP3 ADD MSTORE PUSH20 0x14DDDA5D18DA081B9BDD081D1C9A59D9D95C9959 PUSH1 0x62 SHL PUSH1 0x44 DUP3 ADD MSTORE PUSH1 0x64 SWAP1 REVERT JUMPDEST PUSH1 0x40 MLOAD PUSH3 0x461BCD PUSH1 0xE5 SHL DUP2 MSTORE PUSH1 0x20 PUSH1 0x4 DUP3 ADD MSTORE PUSH1 0x10 PUSH1 0x24 DUP3 ADD MSTORE PUSH16 0x4F6E6C792062656E6566696369617279 PUSH1 0x80 SHL PUSH1 0x44 DUP3 ADD MSTORE PUSH1 0x64 SWAP1 REVERT JUMPDEST CALLVALUE PUSH2 0x20D JUMPI PUSH1 0x40 CALLDATASIZE PUSH1 0x3 NOT ADD SLT PUSH2 0x20D JUMPI PUSH1 0x4 CALLDATALOAD PUSH1 0x24 CALLDATALOAD TIMESTAMP DUP2 GT ISZERO PUSH2 0x18AA JUMPI PUSH1 0x15 DUP3 PUSH2 0x17FB PUSH1 0x20 SWAP5 ISZERO ISZERO PUSH2 0x2939 JUMP JUMPDEST PUSH1 0x1 SLOAD SWAP3 PUSH2 0x1808 DUP5 PUSH2 0x297D JUMP JUMPDEST PUSH1 0x1 SWAP1 DUP2 SSTORE PUSH0 DUP6 DUP2 MSTORE PUSH1 0x2 DUP1 DUP9 MSTORE PUSH1 0x40 DUP1 DUP4 KECCAK256 DUP9 DUP2 SSTORE SWAP4 DUP5 ADD DUP1 SLOAD PUSH1 0x1 PUSH1 0x1 PUSH1 0xA0 SHL SUB NOT AND CALLER SWAP1 DUP2 OR SWAP1 SWAP2 SSTORE SWAP2 DUP5 ADD SWAP6 SWAP1 SWAP6 SSTORE PUSH1 0x3 DUP4 ADD DUP1 SLOAD PUSH2 0xFFFF NOT AND SWAP1 SSTORE TIMESTAMP PUSH1 0x4 DUP5 ADD DUP2 SWAP1 SSTORE PUSH1 0x5 DUP5 ADD SSTORE PUSH1 0x6 DUP4 ADD SWAP4 SWAP1 SWAP4 SSTORE SWAP4 ADD DUP1 SLOAD PUSH1 0xFF PUSH1 0xA0 SHL NOT AND PUSH1 0x1 PUSH1 0xA0 SHL OR SWAP1 SSTORE DUP3 MSTORE PUSH1 0x7 DUP5 MSTORE SWAP1 KECCAK256 PUSH2 0x1883 SWAP1 DUP3 SWAP1 PUSH2 0x298B JUMP JUMPDEST PUSH1 0x40 MLOAD PUSH0 DUP2 MSTORE TIMESTAMP DUP4 DUP3 ADD MSTORE DUP2 PUSH0 MLOAD PUSH1 0x20 PUSH2 0x2F3D PUSH0 CODECOPY PUSH0 MLOAD SWAP1 PUSH0 MSTORE PUSH1 0x40 CALLER SWAP4 LOG3 PUSH1 0x40 MLOAD SWAP1 DUP2 MSTORE RETURN JUMPDEST PUSH1 0x40 MLOAD PUSH3 0x461BCD PUSH1 0xE5 SHL DUP2 MSTORE PUSH1 0x20 PUSH1 0x4 DUP3 ADD MSTORE PUSH1 0x21 PUSH1 0x24 DUP3 ADD MSTORE PUSH32 0x556E6C6F636B2074696D65206D75737420626520696E20746865206675747572 PUSH1 0x44 DUP3 ADD MSTORE PUSH1 0x65 PUSH1 0xF8 SHL PUSH1 0x64 DUP3 ADD MSTORE PUSH1 0x84 SWAP1 REVERT JUMPDEST CALLVALUE PUSH2 0x20D JUMPI PUSH1 0x40 CALLDATASIZE PUSH1 0x3 NOT ADD SLT PUSH2 0x20D JUMPI PUSH2 0x1912 PUSH2 0x27A6 JUMP JUMPDEST PUSH1 0x4 CALLDATALOAD PUSH0 MSTORE PUSH1 0x5 PUSH1 0x20 MSTORE PUSH1 0x40 PUSH0 KECCAK256 SWAP1 PUSH1 0x1 DUP1 PUSH1 0xA0 SHL SUB AND PUSH0 MSTORE PUSH1 0x20 MSTORE PUSH1 0x20 PUSH1 0xFF PUSH1 0x40 PUSH0 KECCAK256 SLOAD AND PUSH2 0x1945 PUSH1 0x40 MLOAD DUP1 SWAP3 PUSH2 0x27D2 JUMP JUMPDEST RETURN JUMPDEST CALLVALUE PUSH2 0x20D JUMPI PUSH0 CALLDATASIZE PUSH1 0x3 NOT ADD SLT PUSH2 0x20D JUMPI PUSH1 0x1 SLOAD PUSH0 NOT DUP2 ADD SWAP1 DUP2 GT PUSH2 0x1344 JUMPI PUSH1 0x20 SWAP1 PUSH1 0x40 MLOAD SWAP1 DUP2 MSTORE RETURN JUMPDEST CALLVALUE PUSH2 0x20D JUMPI PUSH0 CALLDATASIZE PUSH1 0x3 NOT ADD SLT PUSH2 0x20D JUMPI PUSH2 0x1988 PUSH2 0x2DE1 JUMP JUMPDEST PUSH0 DUP1 SLOAD PUSH1 0x1 PUSH1 0x1 PUSH1 0xA0 SHL SUB NOT DUP2 AND DUP3 SSTORE PUSH1 0x1 PUSH1 0x1 PUSH1 0xA0 SHL SUB AND PUSH32 0x8BE0079C531659141344CD1FD0A4F28419497F9722A3DAAFE3B4186F6B6457E0 DUP3 DUP1 LOG3 STOP JUMPDEST CALLVALUE PUSH2 0x20D JUMPI PUSH1 0x20 CALLDATASIZE PUSH1 0x3 NOT ADD SLT PUSH2 0x20D JUMPI PUSH1 0x4 CALLDATALOAD PUSH2 0x19E3 PUSH2 0x2DA9 JUMP JUMPDEST DUP1 PUSH0 MSTORE PUSH1 0x2 PUSH1 0x20 MSTORE PUSH2 0x1A01 PUSH1 0xFF PUSH1 0x15 PUSH1 0x40 PUSH0 KECCAK256 ADD SLOAD PUSH1 0xA0 SHR AND PUSH2 0x29BF JUMP JUMPDEST DUP1 PUSH0 MSTORE PUSH1 0x2 PUSH1 0x20 MSTORE PUSH1 0xFF PUSH1 0x3 PUSH1 0x40 PUSH0 KECCAK256 ADD SLOAD PUSH1 0x8 SHR AND PUSH1 0x4 DUP2 LT ISZERO PUSH2 0x3BA JUMPI PUSH2 0x1A2A SWAP1 ISZERO PUSH2 0x2A42 JUMP JUMPDEST DUP1 PUSH0 MSTORE PUSH1 0x2 PUSH1 0x20 MSTORE PUSH1 0x40 PUSH0 KECCAK256 PUSH1 0x3 DUP2 ADD PUSH1 0xFF DUP2 SLOAD AND PUSH1 0x6 DUP2 LT ISZERO PUSH2 0x3BA JUMPI PUSH1 0x5 DUP2 EQ PUSH2 0x1C3F JUMPI PUSH1 0x1 DUP2 EQ PUSH2 0x1BFA JUMPI PUSH0 SWAP1 PUSH0 DUP2 ISZERO DUP1 ISZERO PUSH2 0x1BEE JUMPI JUMPDEST ISZERO PUSH2 0x1B91 JUMPI POP POP POP PUSH1 0x1 DUP3 ADD SLOAD PUSH1 0x1 PUSH1 0x1 PUSH1 0xA0 SHL SUB AND CALLER EQ DUP1 ISZERO PUSH2 0x1B68 JUMPI JUMPDEST ISZERO PUSH2 0x1B23 JUMPI PUSH2 0x1A91 DUP4 PUSH2 0x2B42 JUMP JUMPDEST ISZERO PUSH2 0x1AE9 JUMPI PUSH2 0x100 PUSH2 0xFF00 NOT DUP3 SLOAD AND OR SWAP1 SSTORE PUSH1 0x5 TIMESTAMP SWAP2 ADD SSTORE PUSH1 0x40 MLOAD SWAP1 TIMESTAMP DUP3 MSTORE PUSH32 0xC8EE545E5B582CEF6B0AB3AB5A84DC33BD22CC3AE4FC4B86D4004F1DDF88B748 PUSH1 0x20 CALLER SWAP4 LOG3 PUSH1 0x1 PUSH0 MLOAD PUSH1 0x20 PUSH2 0x2F5D PUSH0 CODECOPY PUSH0 MLOAD SWAP1 PUSH0 MSTORE SSTORE STOP JUMPDEST PUSH1 0x40 MLOAD PUSH3 0x461BCD PUSH1 0xE5 SHL DUP2 MSTORE PUSH1 0x20 PUSH1 0x4 DUP3 ADD MSTORE PUSH1 0x12 PUSH1 0x24 DUP3 ADD MSTORE PUSH18 0x10DBDB991A5D1A5BDB9CC81B9BDD081B595D PUSH1 0x72 SHL PUSH1 0x44 DUP3 ADD MSTORE PUSH1 0x64 SWAP1 REVERT JUMPDEST PUSH1 0x40 MLOAD PUSH3 0x461BCD PUSH1 0xE5 SHL DUP2 MSTORE PUSH1 0x20 PUSH1 0x4 DUP3 ADD MSTORE PUSH1 0x18 PUSH1 0x24 DUP3 ADD MSTORE PUSH32 0x4E6F7420617574686F72697A656420746F20756E6C6F636B0000000000000000 PUSH1 0x44 DUP3 ADD MSTORE PUSH1 0x64 SWAP1 REVERT JUMPDEST POP PUSH1 0xA DUP3 ADD SLOAD PUSH1 0x1 PUSH1 0x1 PUSH1 0xA0 SHL SUB AND DUP1 ISZERO ISZERO SWAP1 DUP2 PUSH2 0x1B87 JUMPI JUMPDEST POP PUSH2 0x1A83 JUMP JUMPDEST SWAP1 POP CALLER EQ DUP5 PUSH2 0x1B81 JUMP JUMPDEST PUSH2 0x3BA JUMPI PUSH1 0x2 DUP2 SUB PUSH2 0x1BC6 JUMPI POP POP PUSH1 0x1 DUP3 ADD SLOAD PUSH1 0x1 PUSH1 0x1 PUSH1 0xA0 SHL SUB AND CALLER EQ DUP1 ISZERO PUSH2 0x1BBB JUMPI JUMPDEST PUSH2 0x1A83 JUMP JUMPDEST POP PUSH2 0x1BB6 CALLER DUP5 PUSH2 0x2D5A JUMP JUMPDEST PUSH1 0x3 SUB PUSH2 0x1A83 JUMPI POP PUSH1 0x1 DUP3 ADD SLOAD PUSH1 0x1 PUSH1 0x1 PUSH1 0xA0 SHL SUB AND CALLER EQ DUP1 PUSH2 0x1BB6 JUMPI POP PUSH2 0x1BB6 CALLER DUP5 PUSH2 0x2D02 JUMP JUMPDEST POP POP PUSH0 PUSH1 0x4 DUP3 EQ PUSH2 0x1A64 JUMP JUMPDEST PUSH1 0x40 MLOAD PUSH3 0x461BCD PUSH1 0xE5 SHL DUP2 MSTORE PUSH1 0x20 PUSH1 0x4 DUP3 ADD MSTORE PUSH1 0x1B PUSH1 0x24 DUP3 ADD MSTORE PUSH32 0x5573652074726967676572446561644D616E7353776974636828290000000000 PUSH1 0x44 DUP3 ADD MSTORE PUSH1 0x64 SWAP1 REVERT JUMPDEST PUSH1 0x40 MLOAD PUSH3 0x461BCD PUSH1 0xE5 SHL DUP2 MSTORE PUSH1 0x20 PUSH1 0x4 DUP3 ADD MSTORE PUSH1 0x13 PUSH1 0x24 DUP3 ADD MSTORE PUSH19 0x5573652072656C65617365457363726F772829 PUSH1 0x68 SHL PUSH1 0x44 DUP3 ADD MSTORE PUSH1 0x64 SWAP1 REVERT JUMPDEST CALLVALUE PUSH2 0x20D JUMPI PUSH1 0x20 CALLDATASIZE PUSH1 0x3 NOT ADD SLT PUSH2 0x20D JUMPI PUSH1 0x4 CALLDATALOAD DUP1 PUSH0 MSTORE PUSH1 0x2 PUSH1 0x20 MSTORE PUSH2 0x1CAC PUSH1 0xFF PUSH1 0x15 PUSH1 0x40 PUSH0 KECCAK256 ADD SLOAD PUSH1 0xA0 SHR AND PUSH2 0x29BF JUMP JUMPDEST DUP1 PUSH0 MSTORE PUSH1 0x2 PUSH1 0x20 MSTORE PUSH1 0xFF PUSH1 0x3 PUSH1 0x40 PUSH0 KECCAK256 ADD SLOAD PUSH1 0x8 SHR AND PUSH1 0x4 DUP2 LT ISZERO PUSH2 0x3BA JUMPI PUSH2 0x1CD5 SWAP1 ISZERO PUSH2 0x2A42 JUMP JUMPDEST DUP1 PUSH0 MSTORE PUSH1 0x2 PUSH1 0x20 MSTORE PUSH1 0x40 PUSH0 KECCAK256 SWAP1 PUSH1 0xFF PUSH1 0x3 DUP4 ADD SLOAD AND PUSH1 0x6 DUP2 LT ISZERO PUSH2 0x3BA JUMPI PUSH1 0x2 SUB PUSH2 0x1E1E JUMPI PUSH0 DUP2 DUP2 MSTORE PUSH1 0x3 PUSH1 0x20 SWAP1 DUP2 MSTORE PUSH1 0x40 DUP1 DUP4 KECCAK256 CALLER DUP5 MSTORE SWAP1 SWAP2 MSTORE SWAP1 KECCAK256 SLOAD PUSH1 0xFF AND PUSH2 0x1DE6 JUMPI PUSH2 0x1D24 CALLER DUP3 PUSH2 0x2D5A JUMP JUMPDEST ISZERO PUSH2 0x1DA1 JUMPI DUP1 PUSH0 MSTORE PUSH1 0x3 PUSH1 0x20 MSTORE PUSH1 0x40 PUSH0 KECCAK256 PUSH1 0x1 DUP1 PUSH1 0xA0 SHL SUB CALLER AND PUSH0 MSTORE PUSH1 0x20 MSTORE PUSH1 0x40 PUSH0 KECCAK256 PUSH1 0x1 PUSH1 0xFF NOT DUP3 SLOAD AND OR SWAP1 SSTORE PUSH1 0xB PUSH1 0xC DUP4 ADD SWAP3 PUSH2 0x1D63 DUP5 SLOAD PUSH2 0x297D JUMP JUMPDEST DUP1 SWAP5 SSTORE TIMESTAMP PUSH1 0x5 DUP3 ADD SSTORE ADD SLOAD PUSH1 0x40 MLOAD SWAP3 DUP4 MSTORE PUSH1 0x20 DUP4 ADD MSTORE PUSH32 0xC993E60C6BF9DBD562B8C3796F50DE8D9E54439CF55AFC37E33FFEF7405ED904 PUSH1 0x40 CALLER SWAP4 LOG3 STOP JUMPDEST PUSH1 0x40 MLOAD PUSH3 0x461BCD PUSH1 0xE5 SHL DUP2 MSTORE PUSH1 0x20 PUSH1 0x4 DUP3 ADD MSTORE PUSH1 0x18 PUSH1 0x24 DUP3 ADD MSTORE PUSH32 0x4E6F7420616E20617574686F72697A6564207369676E65720000000000000000 PUSH1 0x44 DUP3 ADD MSTORE PUSH1 0x64 SWAP1 REVERT JUMPDEST PUSH1 0x40 MLOAD PUSH3 0x461BCD PUSH1 0xE5 SHL DUP2 MSTORE PUSH1 0x20 PUSH1 0x4 DUP3 ADD MSTORE PUSH1 0x10 PUSH1 0x24 DUP3 ADD MSTORE PUSH16 0x105B1C9958591E48185C1C1C9BDD9959 PUSH1 0x82 SHL PUSH1 0x44 DUP3 ADD MSTORE PUSH1 0x64 SWAP1 REVERT JUMPDEST PUSH1 0x40 MLOAD PUSH3 0x461BCD PUSH1 0xE5 SHL DUP2 MSTORE PUSH1 0x20 PUSH1 0x4 DUP3 ADD MSTORE PUSH1 0x15 PUSH1 0x24 DUP3 ADD MSTORE PUSH21 0x139BDD0818481B5D5B1D1A4B5CDA59C81D985D5B1D PUSH1 0x5A SHL PUSH1 0x44 DUP3 ADD MSTORE PUSH1 0x64 SWAP1 REVERT JUMPDEST CALLVALUE PUSH2 0x20D JUMPI PUSH1 0x40 CALLDATASIZE PUSH1 0x3 NOT ADD SLT PUSH2 0x20D JUMPI PUSH1 0x4 CALLDATALOAD PUSH2 0x1E77 PUSH2 0x27A6 JUMP JUMPDEST DUP2 PUSH0 MSTORE PUSH1 0x2 PUSH1 0x20 MSTORE PUSH2 0x1E95 PUSH1 0xFF PUSH1 0x15 PUSH1 0x40 PUSH0 KECCAK256 ADD SLOAD PUSH1 0xA0 SHR AND PUSH2 0x29BF JUMP JUMPDEST DUP2 PUSH0 MSTORE PUSH1 0x2 PUSH1 0x20 MSTORE PUSH2 0x1EB7 PUSH1 0x1 DUP1 PUSH1 0xA0 SHL SUB PUSH1 0x1 PUSH1 0x40 PUSH0 KECCAK256 ADD SLOAD AND CALLER EQ PUSH2 0x2A02 JUMP JUMPDEST DUP2 PUSH0 MSTORE PUSH1 0x2 PUSH1 0x20 MSTORE PUSH1 0xFF PUSH1 0x3 PUSH1 0x40 PUSH0 KECCAK256 ADD SLOAD PUSH1 0x8 SHR AND PUSH1 0x4 DUP2 LT ISZERO PUSH2 0x3BA JUMPI PUSH2 0x1EE0 SWAP1 ISZERO PUSH2 0x2A42 JUMP JUMPDEST PUSH1 0x1 PUSH1 0x1 PUSH1 0xA0 SHL SUB AND SWAP1 PUSH2 0x1EF5 DUP3 ISZERO ISZERO PUSH2 0x28AB JUMP JUMPDEST PUSH2 0x1F01 CALLER DUP4 EQ ISZERO PUSH2 0x28ED JUMP JUMPDEST DUP1 PUSH0 MSTORE PUSH1 0x2 PUSH1 0x20 MSTORE PUSH1 0x40 PUSH0 KECCAK256 SWAP1 PUSH1 0xFF PUSH1 0x3 DUP4 ADD SLOAD AND PUSH1 0x6 DUP2 LT ISZERO PUSH2 0x3BA JUMPI PUSH1 0x1 DUP2 EQ SWAP1 DUP2 ISZERO PUSH2 0x1FD0 JUMPI JUMPDEST POP ISZERO PUSH2 0x1F7F JUMPI PUSH1 0xA DUP3 ADD SWAP2 PUSH1 0x1 DUP1 PUSH1 0xA0 SHL SUB DUP4 SLOAD AND SWAP3 DUP5 PUSH1 0x1 PUSH1 0x1 PUSH1 0x60 SHL SUB PUSH1 0xA0 SHL DUP3 SLOAD AND OR SWAP1 SSTORE PUSH1 0x5 TIMESTAMP SWAP2 ADD SSTORE PUSH32 0xF585DA3452445CD066854CE9C4F3306E8DEDDD1D571E840B1DDDAA1F3D4DE53C PUSH0 DUP1 LOG4 STOP JUMPDEST PUSH1 0x40 MLOAD PUSH3 0x461BCD PUSH1 0xE5 SHL DUP2 MSTORE PUSH1 0x20 PUSH1 0x4 DUP3 ADD MSTORE PUSH1 0x24 DUP1 DUP3 ADD MSTORE PUSH32 0x5661756C74207479706520646F6573206E6F7420686176652062656E65666963 PUSH1 0x44 DUP3 ADD MSTORE PUSH4 0x69617279 PUSH1 0xE0 SHL PUSH1 0x64 DUP3 ADD MSTORE PUSH1 0x84 SWAP1 REVERT JUMPDEST PUSH1 0x5 SWAP2 POP EQ DUP5 PUSH2 0x1F2B JUMP JUMPDEST CALLVALUE PUSH2 0x20D JUMPI PUSH1 0xA0 CALLDATASIZE PUSH1 0x3 NOT ADD SLT PUSH2 0x20D JUMPI PUSH1 0x4 CALLDATALOAD PUSH2 0x1FF7 PUSH2 0x27A6 JUMP JUMPDEST PUSH1 0x44 CALLDATALOAD SWAP1 PUSH1 0x64 CALLDATALOAD SWAP3 DUP4 ISZERO ISZERO DUP1 SWAP5 SUB PUSH2 0x20D JUMPI PUSH1 0x84 CALLDATALOAD PUSH1 0x1 PUSH1 0x1 PUSH1 0xA0 SHL SUB DUP4 AND ISZERO PUSH2 0x21AF JUMPI DUP4 ISZERO PUSH2 0x216A JUMPI PUSH2 0x202C DUP3 ISZERO ISZERO PUSH2 0x2939 JUMP JUMPDEST PUSH3 0x93A80 DUP2 GT PUSH2 0x212F JUMPI PUSH1 0x20 SWAP5 PUSH1 0x15 SWAP4 PUSH1 0x1 SLOAD SWAP6 PUSH2 0x2049 DUP8 PUSH2 0x297D JUMP JUMPDEST PUSH1 0x1 SWAP1 DUP2 SSTORE PUSH0 DUP9 DUP2 MSTORE PUSH1 0x2 DUP1 DUP12 MSTORE PUSH1 0x40 SWAP1 SWAP2 KECCAK256 DUP10 DUP2 SSTORE SWAP2 DUP3 ADD DUP1 SLOAD PUSH1 0x1 PUSH1 0x1 PUSH1 0xA0 SHL SUB NOT AND CALLER OR SWAP1 SSTORE DUP2 ADD SWAP6 SWAP1 SWAP6 SSTORE PUSH1 0x3 DUP6 ADD DUP1 SLOAD PUSH2 0xFFFF NOT AND PUSH1 0x4 SWAP1 DUP2 OR SWAP1 SWAP2 SSTORE TIMESTAMP SWAP1 DUP7 ADD DUP2 SWAP1 SSTORE PUSH1 0x5 DUP7 ADD SSTORE PUSH1 0x12 DUP6 ADD SSTORE PUSH1 0x13 DUP5 ADD DUP1 SLOAD PUSH1 0x1 PUSH1 0x1 PUSH1 0xA8 SHL SUB NOT AND PUSH1 0xFF SWAP4 SWAP1 SWAP4 AND SWAP3 SWAP1 SWAP3 OR PUSH1 0x8 SWAP2 SWAP1 SWAP2 SHL PUSH2 0x100 PUSH1 0x1 PUSH1 0xA8 SHL SUB AND OR SWAP1 SSTORE DUP1 PUSH2 0x212A JUMPI POP PUSH2 0xE10 JUMPDEST PUSH1 0x14 DUP3 ADD SSTORE ADD DUP1 SLOAD PUSH1 0xFF PUSH1 0xA0 SHL NOT AND PUSH1 0x1 PUSH1 0xA0 SHL OR SWAP1 SSTORE CALLER PUSH0 SWAP1 DUP2 MSTORE PUSH1 0x7 DUP4 MSTORE PUSH1 0x40 SWAP1 KECCAK256 PUSH2 0x2102 SWAP1 DUP3 SWAP1 PUSH2 0x298B JUMP JUMPDEST PUSH1 0x40 MLOAD PUSH1 0x4 DUP2 MSTORE TIMESTAMP DUP4 DUP3 ADD MSTORE DUP2 PUSH0 MLOAD PUSH1 0x20 PUSH2 0x2F3D PUSH0 CODECOPY PUSH0 MLOAD SWAP1 PUSH0 MSTORE PUSH1 0x40 CALLER SWAP4 LOG3 PUSH1 0x40 MLOAD SWAP1 DUP2 MSTORE RETURN JUMPDEST PUSH2 0x20D3 JUMP JUMPDEST PUSH1 0x40 MLOAD PUSH3 0x461BCD PUSH1 0xE5 SHL DUP2 MSTORE PUSH1 0x20 PUSH1 0x4 DUP3 ADD MSTORE PUSH1 0x13 PUSH1 0x24 DUP3 ADD MSTORE PUSH19 0x5374616C656E65737320746F6F206C61726765 PUSH1 0x68 SHL PUSH1 0x44 DUP3 ADD MSTORE PUSH1 0x64 SWAP1 REVERT JUMPDEST PUSH1 0x40 MLOAD PUSH3 0x461BCD PUSH1 0xE5 SHL DUP2 MSTORE PUSH1 0x20 PUSH1 0x4 DUP3 ADD MSTORE PUSH1 0x1B PUSH1 0x24 DUP3 ADD MSTORE PUSH32 0x5072696365207468726573686F6C64206D757374206265203E20300000000000 PUSH1 0x44 DUP3 ADD MSTORE PUSH1 0x64 SWAP1 REVERT JUMPDEST PUSH1 0x40 MLOAD PUSH3 0x461BCD PUSH1 0xE5 SHL DUP2 MSTORE PUSH1 0x20 PUSH1 0x4 DUP3 ADD MSTORE PUSH1 0x16 PUSH1 0x24 DUP3 ADD MSTORE PUSH22 0x496E76616C6964206F7261636C652061646472657373 PUSH1 0x50 SHL PUSH1 0x44 DUP3 ADD MSTORE PUSH1 0x64 SWAP1 REVERT JUMPDEST CALLVALUE PUSH2 0x20D JUMPI PUSH1 0x20 CALLDATASIZE PUSH1 0x3 NOT ADD SLT PUSH2 0x20D JUMPI PUSH1 0x40 PUSH2 0x2228 PUSH1 0x4 CALLDATALOAD DUP1 PUSH0 MSTORE PUSH1 0x2 PUSH1 0x20 MSTORE PUSH2 0x2223 PUSH1 0xFF PUSH1 0x15 DUP6 PUSH0 KECCAK256 ADD SLOAD PUSH1 0xA0 SHR AND PUSH2 0x29BF JUMP JUMPDEST PUSH2 0x2AD9 JUMP JUMPDEST DUP3 MLOAD SWAP2 DUP3 MSTORE ISZERO ISZERO PUSH1 0x20 DUP3 ADD MSTORE RETURN JUMPDEST CALLVALUE PUSH2 0x20D JUMPI PUSH1 0x40 CALLDATASIZE PUSH1 0x3 NOT ADD SLT PUSH2 0x20D JUMPI PUSH1 0x24 CALLDATALOAD PUSH1 0x4 CALLDATALOAD DUP2 ISZERO ISZERO DUP3 SUB PUSH2 0x20D JUMPI DUP1 PUSH0 MSTORE PUSH1 0x2 PUSH1 0x20 MSTORE PUSH2 0x2274 PUSH1 0xFF PUSH1 0x15 PUSH1 0x40 PUSH0 KECCAK256 ADD SLOAD PUSH1 0xA0 SHR AND PUSH2 0x29BF JUMP JUMPDEST DUP1 PUSH0 MSTORE PUSH1 0x2 PUSH1 0x20 MSTORE PUSH1 0xFF PUSH1 0x3 PUSH1 0x40 PUSH0 KECCAK256 ADD SLOAD PUSH1 0x8 SHR AND PUSH1 0x4 DUP2 LT ISZERO PUSH2 0x3BA JUMPI PUSH2 0x229D SWAP1 ISZERO PUSH2 0x2A42 JUMP JUMPDEST DUP1 PUSH0 MSTORE PUSH1 0x2 PUSH1 0x20 MSTORE PUSH1 0x40 PUSH0 KECCAK256 SWAP2 PUSH1 0xFF PUSH1 0x3 DUP5 ADD SLOAD AND PUSH1 0x6 DUP2 LT ISZERO PUSH2 0x3BA JUMPI PUSH1 0x3 SUB PUSH2 0x2488 JUMPI PUSH1 0xD DUP4 ADD SLOAD TIMESTAMP LT ISZERO PUSH2 0x244D JUMPI PUSH0 DUP3 DUP2 MSTORE PUSH1 0x5 PUSH1 0x20 SWAP1 DUP2 MSTORE PUSH1 0x40 DUP1 DUP4 KECCAK256 CALLER DUP5 MSTORE SWAP1 SWAP2 MSTORE SWAP1 KECCAK256 SLOAD PUSH1 0xFF AND PUSH1 0x3 DUP2 LT ISZERO PUSH2 0x3BA JUMPI PUSH2 0x2418 JUMPI PUSH2 0x2301 CALLER DUP4 PUSH2 0x2D02 JUMP JUMPDEST ISZERO PUSH2 0x23DB JUMPI DUP1 ISZERO PUSH2 0x23A2 JUMPI PUSH0 DUP3 DUP2 MSTORE PUSH1 0x5 PUSH1 0x20 SWAP1 DUP2 MSTORE PUSH1 0x40 DUP1 DUP4 KECCAK256 CALLER DUP5 MSTORE SWAP1 SWAP2 MSTORE SWAP1 KECCAK256 DUP1 SLOAD PUSH1 0xFF NOT AND PUSH1 0x1 OR SWAP1 SSTORE PUSH1 0xF DUP4 ADD DUP1 SLOAD PUSH2 0x233E SWAP1 PUSH2 0x297D JUMP JUMPDEST SWAP1 SSTORE JUMPDEST TIMESTAMP PUSH1 0x5 DUP5 ADD SSTORE ISZERO PUSH2 0x239A JUMPI PUSH1 0x1 SWAP2 JUMPDEST PUSH1 0x10 PUSH1 0xF DUP3 ADD SLOAD SWAP2 ADD SLOAD SWAP1 PUSH2 0x2368 PUSH1 0x40 MLOAD DUP1 SWAP6 PUSH2 0x27D2 JUMP JUMPDEST PUSH1 0x20 DUP5 ADD MSTORE PUSH1 0x40 DUP4 ADD MSTORE PUSH32 0x4FB436BC3E53EE9D93D9CAD6BC99565DE46432E0EA0E1C0655EF56F189658C96 PUSH1 0x60 CALLER SWAP4 LOG3 STOP JUMPDEST PUSH1 0x2 SWAP2 PUSH2 0x2350 JUMP JUMPDEST PUSH0 DUP3 DUP2 MSTORE PUSH1 0x5 PUSH1 0x20 SWAP1 DUP2 MSTORE PUSH1 0x40 DUP1 DUP4 KECCAK256 CALLER DUP5 MSTORE SWAP1 SWAP2 MSTORE SWAP1 KECCAK256 DUP1 SLOAD PUSH1 0xFF NOT AND PUSH1 0x2 OR SWAP1 SSTORE PUSH1 0x10 DUP4 ADD DUP1 SLOAD PUSH2 0x23D4 SWAP1 PUSH2 0x297D JUMP JUMPDEST SWAP1 SSTORE PUSH2 0x2341 JUMP JUMPDEST PUSH1 0x40 MLOAD PUSH3 0x461BCD PUSH1 0xE5 SHL DUP2 MSTORE PUSH1 0x20 PUSH1 0x4 DUP3 ADD MSTORE PUSH1 0x15 PUSH1 0x24 DUP3 ADD MSTORE PUSH21 0x2737BA1030B71032B634B3B4B13632903B37BA32B9 PUSH1 0x59 SHL PUSH1 0x44 DUP3 ADD MSTORE PUSH1 0x64 SWAP1 REVERT JUMPDEST PUSH1 0x40 MLOAD PUSH3 0x461BCD PUSH1 0xE5 SHL DUP2 MSTORE PUSH1 0x20 PUSH1 0x4 DUP3 ADD MSTORE PUSH1 0xD PUSH1 0x24 DUP3 ADD MSTORE PUSH13 0x105B1C9958591E481D9BDD1959 PUSH1 0x9A SHL PUSH1 0x44 DUP3 ADD MSTORE PUSH1 0x64 SWAP1 REVERT JUMPDEST PUSH1 0x40 MLOAD PUSH3 0x461BCD PUSH1 0xE5 SHL DUP2 MSTORE PUSH1 0x20 PUSH1 0x4 DUP3 ADD MSTORE PUSH1 0x13 PUSH1 0x24 DUP3 ADD MSTORE PUSH19 0x159BDD1A5B99C81C195C9A5BD908195B991959 PUSH1 0x6A SHL PUSH1 0x44 DUP3 ADD MSTORE PUSH1 0x64 SWAP1 REVERT JUMPDEST PUSH1 0x40 MLOAD PUSH3 0x461BCD PUSH1 0xE5 SHL DUP2 MSTORE PUSH1 0x20 PUSH1 0x4 DUP3 ADD MSTORE PUSH1 0x14 PUSH1 0x24 DUP3 ADD MSTORE PUSH20 0x139BDD081848111053C81D9BDD19481D985D5B1D PUSH1 0x62 SHL PUSH1 0x44 DUP3 ADD MSTORE PUSH1 0x64 SWAP1 REVERT JUMPDEST CALLVALUE PUSH2 0x20D JUMPI PUSH0 CALLDATASIZE PUSH1 0x3 NOT ADD SLT PUSH2 0x20D JUMPI PUSH1 0x20 PUSH1 0x40 MLOAD PUSH2 0xE10 DUP2 MSTORE RETURN JUMPDEST CALLVALUE PUSH2 0x20D JUMPI PUSH0 CALLDATASIZE PUSH1 0x3 NOT ADD SLT PUSH2 0x20D JUMPI PUSH1 0x20 PUSH1 0x1 SLOAD PUSH1 0x40 MLOAD SWAP1 DUP2 MSTORE RETURN JUMPDEST CALLVALUE PUSH2 0x20D JUMPI PUSH1 0x20 CALLDATASIZE PUSH1 0x3 NOT ADD SLT PUSH2 0x20D JUMPI PUSH1 0x4 CALLDATALOAD DUP1 PUSH0 MSTORE PUSH1 0x2 PUSH1 0x20 MSTORE PUSH2 0x252F PUSH1 0xFF PUSH1 0x15 PUSH1 0x40 PUSH0 KECCAK256 ADD SLOAD PUSH1 0xA0 SHR AND PUSH2 0x29BF JUMP JUMPDEST DUP1 PUSH0 MSTORE PUSH1 0x2 PUSH1 0x20 MSTORE PUSH2 0x2551 PUSH1 0x1 DUP1 PUSH1 0xA0 SHL SUB PUSH1 0x1 PUSH1 0x40 PUSH0 KECCAK256 ADD SLOAD AND CALLER EQ PUSH2 0x2A02 JUMP JUMPDEST DUP1 PUSH0 MSTORE PUSH1 0x2 PUSH1 0x20 MSTORE PUSH1 0xFF PUSH1 0x3 PUSH1 0x40 PUSH0 KECCAK256 ADD SLOAD PUSH1 0x8 SHR AND PUSH1 0x4 DUP2 LT ISZERO PUSH2 0x3BA JUMPI PUSH2 0x257A SWAP1 ISZERO PUSH2 0x2A42 JUMP JUMPDEST DUP1 PUSH0 MSTORE PUSH1 0x2 PUSH1 0x20 MSTORE PUSH1 0x40 PUSH0 KECCAK256 PUSH1 0x3 DUP2 ADD PUSH2 0x200 PUSH2 0xFF00 NOT DUP3 SLOAD AND OR SWAP1 SSTORE PUSH1 0x5 TIMESTAMP SWAP2 ADD SSTORE PUSH1 0x40 MLOAD SWAP1 TIMESTAMP DUP3 MSTORE PUSH32 0x63C22DA2349A9598E170CB9C7E26F1F906BEA8E78F0DCED9D0B85B17FFE0D611 PUSH1 0x20 CALLER SWAP4 LOG3 STOP JUMPDEST CALLVALUE PUSH2 0x20D JUMPI PUSH1 0x80 CALLDATASIZE PUSH1 0x3 NOT ADD SLT PUSH2 0x20D JUMPI PUSH1 0x64 CALLDATALOAD PUSH1 0x1 PUSH1 0x1 PUSH1 0xA0 SHL SUB DUP2 AND SWAP2 PUSH1 0x24 CALLDATALOAD SWAP2 PUSH1 0x44 CALLDATALOAD SWAP2 PUSH1 0x4 CALLDATALOAD SWAP2 DUP6 SWAP1 SUB PUSH2 0x20D JUMPI PUSH3 0x15180 DUP5 LT PUSH2 0x2759 JUMPI POP PUSH2 0xE10 DUP3 LT PUSH2 0x2714 JUMPI DUP4 PUSH1 0x15 SWAP3 PUSH2 0x2623 PUSH1 0x20 SWAP7 ISZERO ISZERO PUSH2 0x28AB JUMP JUMPDEST PUSH2 0x262F CALLER DUP4 EQ ISZERO PUSH2 0x28ED JUMP JUMPDEST PUSH2 0x263A DUP4 ISZERO ISZERO PUSH2 0x2939 JUMP JUMPDEST PUSH1 0x1 SLOAD SWAP5 PUSH2 0x2647 DUP7 PUSH2 0x297D JUMP JUMPDEST PUSH1 0x1 SSTORE DUP6 PUSH0 MSTORE PUSH1 0x2 DUP8 MSTORE PUSH1 0x40 PUSH0 KECCAK256 SWAP4 DUP7 DUP6 SSTORE PUSH1 0x1 DUP6 ADD PUSH1 0x1 DUP1 PUSH1 0xA0 SHL SUB CALLER AND PUSH1 0x1 PUSH1 0x1 PUSH1 0x60 SHL SUB PUSH1 0xA0 SHL DUP3 SLOAD AND OR SWAP1 SSTORE PUSH1 0x2 DUP6 ADD SSTORE PUSH1 0x3 DUP5 ADD PUSH1 0x1 PUSH1 0xFF NOT DUP3 SLOAD AND OR DUP2 SSTORE PUSH2 0xFF00 NOT DUP2 SLOAD AND SWAP1 SSTORE TIMESTAMP PUSH1 0x4 DUP6 ADD SSTORE TIMESTAMP PUSH1 0x5 DUP6 ADD SSTORE PUSH1 0x7 DUP5 ADD SSTORE TIMESTAMP PUSH1 0x8 DUP5 ADD SSTORE PUSH1 0x9 DUP4 ADD SSTORE PUSH1 0xA DUP3 ADD SWAP1 PUSH1 0x1 PUSH1 0x1 PUSH1 0x60 SHL SUB PUSH1 0xA0 SHL DUP3 SLOAD AND OR SWAP1 SSTORE ADD PUSH1 0x1 PUSH1 0xA0 SHL PUSH1 0xFF PUSH1 0xA0 SHL NOT DUP3 SLOAD AND OR SWAP1 SSTORE CALLER PUSH0 MSTORE PUSH1 0x7 DUP3 MSTORE PUSH2 0x26EC DUP2 PUSH1 0x40 PUSH0 KECCAK256 PUSH2 0x298B JUMP JUMPDEST PUSH1 0x40 MLOAD PUSH1 0x1 DUP2 MSTORE TIMESTAMP DUP4 DUP3 ADD MSTORE DUP2 PUSH0 MLOAD PUSH1 0x20 PUSH2 0x2F3D PUSH0 CODECOPY PUSH0 MLOAD SWAP1 PUSH0 MSTORE PUSH1 0x40 CALLER SWAP4 LOG3 PUSH1 0x40 MLOAD SWAP1 DUP2 MSTORE RETURN JUMPDEST PUSH1 0x40 MLOAD PUSH3 0x461BCD PUSH1 0xE5 SHL DUP2 MSTORE PUSH1 0x20 PUSH1 0x4 DUP3 ADD MSTORE PUSH1 0x1E PUSH1 0x24 DUP3 ADD MSTORE PUSH32 0x477261636520706572696F64206D757374206265203E3D203120686F75720000 PUSH1 0x44 DUP3 ADD MSTORE PUSH1 0x64 SWAP1 REVERT JUMPDEST PUSH3 0x461BCD PUSH1 0xE5 SHL DUP2 MSTORE PUSH1 0x20 PUSH1 0x4 DUP3 ADD MSTORE PUSH1 0x22 PUSH1 0x24 DUP3 ADD MSTORE PUSH32 0x436865636B2D696E20696E74657276616C206D757374206265203E3D20312064 PUSH1 0x44 DUP3 ADD MSTORE PUSH2 0x6179 PUSH1 0xF0 SHL PUSH1 0x64 DUP3 ADD MSTORE PUSH1 0x84 SWAP1 REVERT JUMPDEST PUSH1 0x24 CALLDATALOAD SWAP1 PUSH1 0x1 PUSH1 0x1 PUSH1 0xA0 SHL SUB DUP3 AND DUP3 SUB PUSH2 0x20D JUMPI JUMP JUMPDEST PUSH1 0x4 CALLDATALOAD SWAP1 PUSH1 0x1 PUSH1 0x1 PUSH1 0xA0 SHL SUB DUP3 AND DUP3 SUB PUSH2 0x20D JUMPI JUMP JUMPDEST SWAP1 PUSH1 0x3 DUP3 LT ISZERO PUSH2 0x3BA JUMPI MSTORE JUMP JUMPDEST SWAP2 DUP2 PUSH1 0x1F DUP5 ADD SLT ISZERO PUSH2 0x20D JUMPI DUP3 CALLDATALOAD SWAP2 PUSH8 0xFFFFFFFFFFFFFFFF DUP4 GT PUSH2 0x20D JUMPI PUSH1 0x20 DUP1 DUP6 ADD SWAP5 DUP5 PUSH1 0x5 SHL ADD ADD GT PUSH2 0x20D JUMPI JUMP JUMPDEST SWAP1 PUSH1 0x6 DUP3 LT ISZERO PUSH2 0x3BA JUMPI MSTORE JUMP JUMPDEST SWAP1 PUSH1 0x4 DUP3 LT ISZERO PUSH2 0x3BA JUMPI MSTORE JUMP JUMPDEST DUP1 SLOAD DUP3 LT ISZERO PUSH2 0x283F JUMPI PUSH0 MSTORE PUSH1 0x20 PUSH0 KECCAK256 ADD SWAP1 PUSH0 SWAP1 JUMP JUMPDEST PUSH4 0x4E487B71 PUSH1 0xE0 SHL PUSH0 MSTORE PUSH1 0x32 PUSH1 0x4 MSTORE PUSH1 0x24 PUSH0 REVERT JUMPDEST PUSH1 0x40 SWAP1 PUSH1 0x3 NOT ADD SLT PUSH2 0x20D JUMPI PUSH1 0x4 CALLDATALOAD SWAP1 PUSH1 0x24 CALLDATALOAD SWAP1 JUMP JUMPDEST PUSH1 0x20 PUSH1 0x40 DUP2 DUP4 ADD SWAP3 DUP3 DUP2 MSTORE DUP5 MLOAD DUP1 SWAP5 MSTORE ADD SWAP3 ADD SWAP1 PUSH0 JUMPDEST DUP2 DUP2 LT PUSH2 0x288C JUMPI POP POP POP SWAP1 JUMP JUMPDEST DUP3 MLOAD PUSH1 0x1 PUSH1 0x1 PUSH1 0xA0 SHL SUB AND DUP5 MSTORE PUSH1 0x20 SWAP4 DUP5 ADD SWAP4 SWAP1 SWAP3 ADD SWAP2 PUSH1 0x1 ADD PUSH2 0x287F JUMP JUMPDEST ISZERO PUSH2 0x28B2 JUMPI JUMP JUMPDEST PUSH1 0x40 MLOAD PUSH3 0x461BCD PUSH1 0xE5 SHL DUP2 MSTORE PUSH1 0x20 PUSH1 0x4 DUP3 ADD MSTORE PUSH1 0x13 PUSH1 0x24 DUP3 ADD MSTORE PUSH19 0x496E76616C69642062656E6566696369617279 PUSH1 0x68 SHL PUSH1 0x44 DUP3 ADD MSTORE PUSH1 0x64 SWAP1 REVERT JUMPDEST ISZERO PUSH2 0x28F4 JUMPI JUMP JUMPDEST PUSH1 0x40 MLOAD PUSH3 0x461BCD PUSH1 0xE5 SHL DUP2 MSTORE PUSH1 0x20 PUSH1 0x4 DUP3 ADD MSTORE PUSH1 0x1D PUSH1 0x24 DUP3 ADD MSTORE PUSH32 0x42656E65666963696172792063616E6E6F742062652063726561746F72000000 PUSH1 0x44 DUP3 ADD MSTORE PUSH1 0x64 SWAP1 REVERT JUMPDEST ISZERO PUSH2 0x2940 JUMPI JUMP JUMPDEST PUSH1 0x40 MLOAD PUSH3 0x461BCD PUSH1 0xE5 SHL DUP2 MSTORE PUSH1 0x20 PUSH1 0x4 DUP3 ADD MSTORE PUSH1 0x15 PUSH1 0x24 DUP3 ADD MSTORE PUSH21 0x92DCECC2D8D2C840E0C2E6E6EEDEE4C840D0C2E6D PUSH1 0x5B SHL PUSH1 0x44 DUP3 ADD MSTORE PUSH1 0x64 SWAP1 REVERT JUMPDEST PUSH0 NOT DUP2 EQ PUSH2 0x1344 JUMPI PUSH1 0x1 ADD SWAP1 JUMP JUMPDEST DUP1 SLOAD PUSH1 0x1 PUSH1 0x40 SHL DUP2 LT ISZERO PUSH2 0xA9C JUMPI PUSH2 0x29A8 SWAP2 PUSH1 0x1 DUP3 ADD DUP2 SSTORE PUSH2 0x282A JUMP JUMPDEST DUP2 SWAP3 SWAP2 SLOAD SWAP1 PUSH1 0x3 SHL SWAP2 DUP3 SHL SWAP2 PUSH0 NOT SWAP1 SHL NOT AND OR SWAP1 SSTORE JUMP JUMPDEST ISZERO PUSH2 0x29C6 JUMPI JUMP JUMPDEST PUSH1 0x40 MLOAD PUSH3 0x461BCD PUSH1 0xE5 SHL DUP2 MSTORE PUSH1 0x20 PUSH1 0x4 DUP3 ADD MSTORE PUSH1 0x14 PUSH1 0x24 DUP3 ADD MSTORE PUSH20 0x15985D5B1D08191BD95CC81B9BDD08195E1A5CDD PUSH1 0x62 SHL PUSH1 0x44 DUP3 ADD MSTORE PUSH1 0x64 SWAP1 REVERT JUMPDEST ISZERO PUSH2 0x2A09 JUMPI JUMP JUMPDEST PUSH1 0x40 MLOAD PUSH3 0x461BCD PUSH1 0xE5 SHL DUP2 MSTORE PUSH1 0x20 PUSH1 0x4 DUP3 ADD MSTORE PUSH1 0x11 PUSH1 0x24 DUP3 ADD MSTORE PUSH17 0x2737BA103B30BAB63A1031B932B0BA37B9 PUSH1 0x79 SHL PUSH1 0x44 DUP3 ADD MSTORE PUSH1 0x64 SWAP1 REVERT JUMPDEST ISZERO PUSH2 0x2A49 JUMPI JUMP JUMPDEST PUSH1 0x40 MLOAD PUSH3 0x461BCD PUSH1 0xE5 SHL DUP2 MSTORE PUSH1 0x20 PUSH1 0x4 DUP3 ADD MSTORE PUSH1 0x10 PUSH1 0x24 DUP3 ADD MSTORE PUSH16 0x5661756C74206E6F7420616374697665 PUSH1 0x80 SHL PUSH1 0x44 DUP3 ADD MSTORE PUSH1 0x64 SWAP1 REVERT JUMPDEST ISZERO PUSH2 0x2A88 JUMPI JUMP JUMPDEST PUSH1 0x40 MLOAD PUSH3 0x461BCD PUSH1 0xE5 SHL DUP2 MSTORE PUSH1 0x20 PUSH1 0x4 DUP3 ADD MSTORE PUSH1 0xF PUSH1 0x24 DUP3 ADD MSTORE PUSH15 0x139BDD081848111354C81D985D5B1D PUSH1 0x8A SHL PUSH1 0x44 DUP3 ADD MSTORE PUSH1 0x64 SWAP1 REVERT JUMPDEST SWAP2 SWAP1 DUP3 ADD DUP1 SWAP3 GT PUSH2 0x1344 JUMPI JUMP JUMPDEST SWAP2 SWAP1 DUP3 SUB SWAP2 DUP3 GT PUSH2 0x1344 JUMPI JUMP JUMPDEST PUSH0 MSTORE PUSH1 0x2 PUSH1 0x20 MSTORE PUSH1 0x40 PUSH0 KECCAK256 PUSH1 0xFF PUSH1 0x3 DUP3 ADD SLOAD AND SWAP1 PUSH1 0x6 DUP3 LT ISZERO PUSH2 0x3BA JUMPI PUSH2 0x2B05 PUSH1 0x1 PUSH2 0x2B23 SWAP4 EQ PUSH2 0x2A81 JUMP JUMPDEST PUSH1 0x9 PUSH2 0x2B1A PUSH1 0x8 DUP4 ADD SLOAD PUSH1 0x7 DUP5 ADD SLOAD SWAP1 PUSH2 0x2ABF JUMP JUMPDEST SWAP2 ADD SLOAD SWAP1 PUSH2 0x2ABF JUMP JUMPDEST DUP1 TIMESTAMP GT PUSH2 0x2B3A JUMPI PUSH2 0x2B35 SWAP1 TIMESTAMP SWAP1 PUSH2 0x2ACC JUMP JUMPDEST SWAP1 PUSH0 SWAP1 JUMP JUMPDEST POP PUSH0 SWAP1 PUSH1 0x1 SWAP1 JUMP JUMPDEST PUSH2 0x2B69 SWAP1 DUP1 PUSH0 MSTORE PUSH1 0x2 PUSH1 0x20 MSTORE PUSH2 0x2B64 PUSH1 0xFF PUSH1 0x15 PUSH1 0x40 PUSH0 KECCAK256 ADD SLOAD PUSH1 0xA0 SHR AND PUSH2 0x29BF JUMP JUMPDEST PUSH2 0x2B8A JUMP JUMPDEST SWAP1 JUMP JUMPDEST DUP2 ISZERO PUSH2 0x2B76 JUMPI DIV SWAP1 JUMP JUMPDEST PUSH4 0x4E487B71 PUSH1 0xE0 SHL PUSH0 MSTORE PUSH1 0x12 PUSH1 0x4 MSTORE PUSH1 0x24 PUSH0 REVERT JUMPDEST PUSH0 MSTORE PUSH1 0x2 PUSH1 0x20 MSTORE PUSH1 0x40 PUSH0 KECCAK256 PUSH1 0x3 DUP2 ADD SLOAD PUSH1 0xFF DUP2 PUSH1 0x8 SHR AND PUSH1 0x4 DUP2 LT ISZERO PUSH2 0x3BA JUMPI DUP1 PUSH2 0x2CBA JUMPI POP PUSH1 0xFF AND PUSH1 0x6 DUP2 LT ISZERO PUSH2 0x3BA JUMPI DUP1 ISZERO PUSH2 0x2CAF JUMPI PUSH1 0x1 DUP2 EQ PUSH2 0x2C90 JUMPI PUSH1 0x2 DUP2 EQ PUSH2 0x2C80 JUMPI PUSH1 0x3 DUP2 EQ PUSH2 0x2C23 JUMPI PUSH1 0x4 EQ PUSH2 0x2BE6 JUMPI POP PUSH0 SWAP1 JUMP JUMPDEST DUP1 PUSH1 0x13 PUSH2 0x2B69 SWAP3 ADD SLOAD PUSH1 0x14 PUSH1 0x12 DUP4 ADD SLOAD SWAP3 ADD SLOAD DUP1 ISZERO PUSH0 EQ PUSH2 0x2C1D JUMPI POP PUSH2 0xE10 SWAP2 JUMPDEST PUSH1 0xFF DUP3 AND SWAP2 PUSH1 0x8 SHR PUSH1 0x1 PUSH1 0x1 PUSH1 0xA0 SHL SUB AND PUSH2 0x2E1E JUMP JUMPDEST SWAP2 PUSH2 0x2C07 JUMP JUMPDEST POP PUSH1 0xD DUP2 ADD SLOAD TIMESTAMP LT PUSH2 0x2C7B JUMPI PUSH1 0xF DUP2 ADD SLOAD PUSH2 0x2C42 PUSH1 0x10 DUP4 ADD SLOAD DUP3 PUSH2 0x2ABF JUMP JUMPDEST ISZERO PUSH2 0x2C75 JUMPI PUSH2 0x2710 DUP2 MUL SWAP1 DUP1 DUP3 DIV PUSH2 0x2710 EQ SWAP1 ISZERO OR ISZERO PUSH2 0x1344 JUMPI PUSH2 0x2C6D PUSH1 0xE SWAP2 PUSH1 0x11 DUP5 ADD SLOAD SWAP1 PUSH2 0x2B6C JUMP JUMPDEST SWAP2 ADD SLOAD GT ISZERO SWAP1 JUMP JUMPDEST POP POP PUSH0 SWAP1 JUMP JUMPDEST POP PUSH0 SWAP1 JUMP JUMPDEST POP PUSH1 0xB PUSH1 0xC DUP3 ADD SLOAD SWAP2 ADD SLOAD GT ISZERO SWAP1 JUMP JUMPDEST POP DUP1 PUSH1 0x9 PUSH2 0x2B1A PUSH1 0x8 PUSH2 0x2CAA SWAP5 ADD SLOAD PUSH1 0x7 DUP5 ADD SLOAD SWAP1 PUSH2 0x2ABF JUMP JUMPDEST TIMESTAMP GT SWAP1 JUMP JUMPDEST POP PUSH1 0x6 ADD SLOAD TIMESTAMP LT ISZERO SWAP1 JUMP JUMPDEST PUSH1 0x1 EQ SWAP3 SWAP2 POP POP JUMP JUMPDEST PUSH2 0x320 DUP2 ADD SWAP1 DUP2 LT PUSH8 0xFFFFFFFFFFFFFFFF DUP3 GT OR PUSH2 0xA9C JUMPI PUSH1 0x40 MSTORE JUMP JUMPDEST SWAP1 PUSH1 0x1F DUP1 NOT SWAP2 ADD AND DUP2 ADD SWAP1 DUP2 LT PUSH8 0xFFFFFFFFFFFFFFFF DUP3 GT OR PUSH2 0xA9C JUMPI PUSH1 0x40 MSTORE JUMP JUMPDEST PUSH0 MSTORE PUSH1 0x6 PUSH1 0x20 MSTORE PUSH1 0x40 PUSH0 KECCAK256 SWAP1 PUSH0 SWAP2 DUP1 SLOAD SWAP3 JUMPDEST DUP4 DUP2 LT PUSH2 0x2D23 JUMPI POP POP POP POP PUSH0 SWAP1 JUMP JUMPDEST PUSH2 0x2D2D DUP2 DUP4 PUSH2 0x282A JUMP JUMPDEST SWAP1 SLOAD PUSH1 0x3 SWAP2 SWAP1 SWAP2 SHL SHR PUSH1 0x1 PUSH1 0x1 PUSH1 0xA0 SHL SUB SWAP1 DUP2 AND SWAP1 DUP5 AND EQ PUSH2 0x2D51 JUMPI PUSH1 0x1 ADD PUSH2 0x2D14 JUMP JUMPDEST POP POP POP POP PUSH1 0x1 SWAP1 JUMP JUMPDEST PUSH0 MSTORE PUSH1 0x4 PUSH1 0x20 MSTORE PUSH1 0x40 PUSH0 KECCAK256 SWAP1 PUSH0 SWAP2 DUP1 SLOAD SWAP3 JUMPDEST DUP4 DUP2 LT PUSH2 0x2D7B JUMPI POP POP POP POP PUSH0 SWAP1 JUMP JUMPDEST PUSH2 0x2D85 DUP2 DUP4 PUSH2 0x282A JUMP JUMPDEST SWAP1 SLOAD PUSH1 0x3 SWAP2 SWAP1 SWAP2 SHL SHR PUSH1 0x1 PUSH1 0x1 PUSH1 0xA0 SHL SUB SWAP1 DUP2 AND SWAP1 DUP5 AND EQ PUSH2 0x2D51 JUMPI PUSH1 0x1 ADD PUSH2 0x2D6C JUMP JUMPDEST PUSH1 0x2 PUSH0 MLOAD PUSH1 0x20 PUSH2 0x2F5D PUSH0 CODECOPY PUSH0 MLOAD SWAP1 PUSH0 MSTORE SLOAD EQ PUSH2 0x2DD2 JUMPI PUSH1 0x2 PUSH0 MLOAD PUSH1 0x20 PUSH2 0x2F5D PUSH0 CODECOPY PUSH0 MLOAD SWAP1 PUSH0 MSTORE SSTORE JUMP JUMPDEST PUSH4 0x3EE5AEB5 PUSH1 0xE0 SHL PUSH0 MSTORE PUSH1 0x4 PUSH0 REVERT JUMPDEST PUSH0 SLOAD PUSH1 0x1 PUSH1 0x1 PUSH1 0xA0 SHL SUB AND CALLER SUB PUSH2 0x2DF4 JUMPI JUMP JUMPDEST PUSH4 0x118CDAA7 PUSH1 0xE0 SHL PUSH0 MSTORE CALLER PUSH1 0x4 MSTORE PUSH1 0x24 PUSH0 REVERT JUMPDEST MLOAD SWAP1 PUSH10 0xFFFFFFFFFFFFFFFFFFFF DUP3 AND DUP3 SUB PUSH2 0x20D JUMPI JUMP JUMPDEST PUSH0 DUP1 SWAP2 SWAP5 SWAP4 SWAP3 SWAP5 PUSH1 0x40 MLOAD PUSH1 0x20 DUP2 ADD SWAP1 PUSH4 0x3FABE5A3 PUSH1 0xE2 SHL DUP3 MSTORE PUSH1 0x4 DUP2 MSTORE PUSH2 0x2E46 PUSH1 0x24 DUP3 PUSH2 0x2CE0 JUMP JUMPDEST MLOAD SWAP2 GAS STATICCALL RETURNDATASIZE ISZERO PUSH2 0x2F34 JUMPI RETURNDATASIZE SWAP1 PUSH8 0xFFFFFFFFFFFFFFFF DUP3 GT PUSH2 0xA9C JUMPI PUSH1 0x40 MLOAD SWAP2 PUSH2 0x2E79 PUSH1 0x1F DUP3 ADD PUSH1 0x1F NOT AND PUSH1 0x20 ADD DUP5 PUSH2 0x2CE0 JUMP JUMPDEST DUP3 MSTORE RETURNDATASIZE PUSH0 PUSH1 0x20 DUP5 ADD RETURNDATACOPY JUMPDEST ISZERO DUP1 ISZERO PUSH2 0x2F29 JUMPI JUMPDEST PUSH2 0x2F21 JUMPI PUSH1 0xA0 DUP2 DUP1 MLOAD DUP2 ADD SUB SLT PUSH2 0x20D JUMPI PUSH2 0x2EA8 PUSH1 0x20 DUP3 ADD PUSH2 0x2E07 JUMP JUMPDEST PUSH1 0x40 DUP3 ADD MLOAD SWAP4 PUSH2 0x2EBF PUSH1 0xA0 PUSH1 0x80 DUP6 ADD MLOAD SWAP5 ADD PUSH2 0x2E07 JUMP JUMPDEST SWAP3 PUSH0 DUP7 SGT ISZERO PUSH2 0x2F16 JUMPI DUP1 ISZERO PUSH2 0x2F16 JUMPI DUP1 TIMESTAMP LT PUSH2 0x2F16 JUMPI PUSH2 0x2EDF SWAP1 TIMESTAMP PUSH2 0x2ACC JUMP JUMPDEST GT PUSH2 0x2F0D JUMPI PUSH10 0xFFFFFFFFFFFFFFFFFFFF DUP1 SWAP2 AND SWAP2 AND LT PUSH2 0x2F06 JUMPI ISZERO PUSH2 0x2F02 JUMPI GT SWAP1 JUMP JUMPDEST LT SWAP1 JUMP JUMPDEST POP POP POP PUSH0 SWAP1 JUMP JUMPDEST POP POP POP POP POP PUSH0 SWAP1 JUMP JUMPDEST POP POP POP POP POP POP POP PUSH0 SWAP1 JUMP JUMPDEST POP POP POP POP PUSH0 SWAP1 JUMP JUMPDEST POP PUSH1 0xA0 DUP2 MLOAD LT PUSH2 0x2E8B JUMP JUMPDEST PUSH1 0x60 SWAP1 PUSH2 0x2E83 JUMP INVALID CREATE JUMPDEST TLOAD SELFDESTRUCT CREATE2 0xF6 DUP5 PUSH26 0x9218B8134D5D0C1CBEB310E8FC7D26E0EF92E2C792B02EC69B77 SWAP12 OR TIMESTAMP 0x2D 0xD 0xF9 0x22 0x23 ADD DUP12 ORIGIN 0xB4 0xD1 STATICCALL CHAINID 0xE0 PUSH18 0x723D6817E2486D003BECC55F00A264697066 PUSH20 0x582212204375A7A80516114EF4EA4E07DA0B1956 EXTCODEHASH 0xC8 REVERT 0xD7 PUSH30 0x5EE0B8140770BAC31CB7D664736F6C634300081C00330000000000000000 "},"methodIdentifiers":{"DEFAULT_ORACLE_STALENESS()":"149317c0","approveAccess(uint256)":"568497bb","cancelVault(uint256)":"0cc1a407","castVote(uint256,bool)":"15373e3d","checkIn(uint256)":"e95a644f","conditionalAccess(uint256)":"81607893","createDAOVault(bytes32,address[],uint256,uint256)":"81ff793f","createDeadMansSwitchVault(bytes32,uint256,uint256,address)":"061fd021","createEscrowVault(bytes32,address,address)":"de244be7","createMultiSigVault(bytes32,address[],uint256)":"de22f0c2","createPriceOracleVault(bytes32,address,uint256,bool,uint256)":"210af0fb","createTimeLockVault(bytes32,uint256)":"7afdcb09","daoVoters(uint256,uint256)":"d1bed386","daoVotes(uint256,address)":"78640668","getDAOVoteResults(uint256)":"82aa0a1f","getDAOVoters(uint256)":"ebfe7a1d","getDeadMansSwitchStatus(uint256)":"1a9ba00d","getMultiSigSigners(uint256)":"e5009cc3","getUserVaults(address)":"e7f3c69c","getVault(uint256)":"9403b634","getVaultCount()":"74d4e491","multiSigApprovals(uint256,address)":"bc161f87","multiSigSigners(uint256,uint256)":"dfc17308","nextVaultId()":"12ac1763","owner()":"8da5cb5b","releaseEscrow(uint256)":"ed653164","renounceOwnership()":"715018a6","transferOwnership(address)":"f2fde38b","triggerDeadMansSwitch(uint256)":"7b707f01","unlockVault(uint256)":"57aa6f49","updateBeneficiary(uint256,address)":"3e8eb5a4","userVaults(address,uint256)":"9c841fef","vaults(uint256)":"8c64ea4a"}}}}}