{"project/contracts/test/MockOracle.sol":{"MockOracle":{"abi":[{"inputs":[],"stateMutability":"nonpayable","type":"constructor"},{"inputs":[],"name":"answer","outputs":[{"internalType":"int256","name":"","type":"int256"}],"stateMutability":"view","type":"function"},{"inputs":[],"name":"answeredInRound","outputs":[{"internalType":"uint80","name":"","type":"uint80"}],"stateMutability":"view","type":"function"},{"inputs":[],"name":"latestRoundData","outputs":[{"internalType":"uint80","name":"","type":"uint80"},{"internalType":"int256","name":"","type":"int256"},{"internalType":"uint256","name":"","type":"uint256"},{"internalType":"uint256","name":"","type":"uint256"},{"internalType":"uint80","name":"","type":"uint80"}],"stateMutability":"view","type":"function"},{"inputs":[],"name":"roundId","outputs":[{"internalType":"uint80","name":"","type":"uint80"}],"stateMutability":"view","type":"function"},{"inputs":[{"internalType":"int256","name":"_answer","type":"int256"},{"internalType":"uint256","name":"_updatedAt","type":"uint256"}],"name":"set","outputs":[],"stateMutability":"nonpayable","type":"function"},{"inputs":[{"internalType":"uint80","name":"_roundId","type":"uint80"},{"internalType":"uint80","name":"_answeredInRound","type":"uint80"}],"name":"setRounds","outputs":[],"stateMutability":"nonpayable","type":"function"},{"inputs":[],"name":"startedAt","outputs":[{"internalType":"uint256","name":"","type":"uint256"}],"stateMutability":"view","type":"function"},{"inputs":[],"name":"updatedAt","outputs":[{"internalType":"uint256","name":"","type":"uint256"}],"stateMutability":"view","type":"function"}],"evm":{"bytecode":{"linkReferences":{},"object":"608080604052346046576001808060501b03195f5416175f55642e90edd0006001556001808060501b03196004541617600455426003554260025561021a908161004b8239f35b5f80fdfe6080806040526004361015610012575f80fd5b5f3560e01c9081637519ab50146101ca5750806385bb7d69146101ad5780638cd221c914610188578063a22c554014610169578063a806aeba1461010b578063c22c2499146100e5578063f21f537d146100c85763feaf968c14610074575f80fd5b346100c4575f3660031901126100c45760a06001600160501b035f5416600154600254600354906001600160501b0360045416926040519485526020850152604084015260608301526080820152f35b5f80fd5b346100c4575f3660031901126100c4576020600254604051908152f35b346100c4575f3660031901126100c45760206001600160501b0360045416604051908152f35b346100c45760403660031901126100c4576004356001600160501b0381168091036100c457602435906001600160501b0382168092036100c4576001600160501b03195f5416175f556001600160501b031960045416176004555f80f35b346100c45760403660031901126100c457600435600155602435600355005b346100c4575f3660031901126100c45760206001600160501b035f5416604051908152f35b346100c4575f3660031901126100c4576020600154604051908152f35b346100c4575f3660031901126100c4576020906003548152f3fea26469706673582212209a21e395f642b9d826afea2d11cecae185a71ad1a00594a848ca0eefe67226b764736f6c634300081c0033","opcodes":"PUSH1 0x80 DUP1 PUSH1 0x40 MSTORE CALLVALUE PUSH1 0x46 JUMPI PUSH1 0x1 DUP1 DUP1 PUSH1 0x50 SHL SUB NOT PUSH0 SLOAD AND OR PUSH0 SSTORE PUSH5 0x2E90EDD000 PUSH1 0x1 SSTORE PUSH1 0x1 DUP1 DUP1 PUSH1 0x50 SHL SUB NOT PUSH1 0x4 SLOAD AND OR PUSH1 0x4 SSTORE TIMESTAMP PUSH1 0x3 SSTORE TIMESTAMP PUSH1 0x2 SSTORE PUSH2 0x21A SWAP1 DUP2 PUSH2 0x4B DUP3 CODECOPY RETURN JUMPDEST PUSH0 DUP1 REVERT INVALID PUSH1 0x80 DUP1 PUSH1 0x40 MSTORE PUSH1 0x4 CALLDATASIZE LT ISZERO PUSH2 0x12 JUMPI PUSH0 DUP1 REVERT JUMPDEST PUSH0 CALLDATALOAD PUSH1 0xE0 SHR SWAP1 DUP2 PUSH4 0x7519AB50 EQ PUSH2 0x1CA JUMPI POP DUP1 PUSH4 0x85BB7D69 EQ PUSH2 0x1AD JUMPI DUP1 PUSH4 0x8CD221C9 EQ PUSH2 0x188 JUMPI DUP1 PUSH4 0xA22C5540 EQ PUSH2 0x169 JUMPI DUP1 PUSH4 0xA806AEBA EQ PUSH2 0x10B JUMPI DUP1 PUSH4 0xC22C2499 EQ PUSH2 0xE5 JUMPI DUP1 PUSH4 0xF21F537D EQ PUSH2 0xC8 JUMPI PUSH4 0xFEAF968C EQ PUSH2 0x74 JUMPI PUSH0 DUP1 REVERT JUMPDEST CALLVALUE PUSH2 0xC4 JUMPI PUSH0 CALLDATASIZE PUSH1 0x3 NOT ADD SLT PUSH2 0xC4 JUMPI PUSH1 0xA0 PUSH1 0x1 PUSH1 0x1 PUSH1 0x50 SHL SUB PUSH0 SLOAD AND PUSH1 0x1 SLOAD PUSH1 0x2 SLOAD PUSH1 0x3 SLOAD SWAP1 PUSH1 0x1 PUSH1 0x1 PUSH1 0x50 SHL SUB PUSH1 0x4 SLOAD AND SWAP3 PUSH1 0x40 MLOAD SWAP5 DUP6 MSTORE PUSH1 0x20 DUP6 ADD MSTORE PUSH1 0x40 DUP5 ADD MSTORE PUSH1 0x60 DUP4 ADD MSTORE PUSH1 0x80 DUP3 ADD MSTORE RETURN JUMPDEST PUSH0 DUP1 REVERT JUMPDEST CALLVALUE PUSH2 0xC4 JUMPI PUSH0 CALLDATASIZE PUSH1 0x3 NOT ADD SLT PUSH2 0xC4 JUMPI PUSH1 0x20 PUSH1 0x2 SLOAD PUSH1 0x40 MLOAD SWAP1 DUP2 MSTORE RETURN JUMPDEST CALLVALUE PUSH2 0xC4 JUMPI PUSH0 CALLDATASIZE PUSH1 0x3 NOT ADD SLT PUSH2 0xC4 JUMPI PUSH1 0x20 PUSH1 0x1 PUSH1 0x1 PUSH1 0x50 SHL SUB PUSH1 0x4 SLOAD AND PUSH1 0x40 MLOAD SWAP1 DUP2 MSTORE RETURN JUMPDEST CALLVALUE PUSH2 0xC4 JUMPI PUSH1 0x40 CALLDATASIZE PUSH1 0x3 NOT ADD SLT PUSH2 0xC4 JUMPI PUSH1 0x4 CALLDATALOAD PUSH1 0x1 PUSH1 0x1 PUSH1 0x50 SHL SUB DUP2 AND DUP1 SWAP2 SUB PUSH2 0xC4 JUMPI PUSH1 0x24 CALLDATALOAD SWAP1 PUSH1 0x1 PUSH1 0x1 PUSH1 0x50 SHL SUB DUP3 AND DUP1 SWAP3 SUB PUSH2 0xC4 JUMPI PUSH1 0x1 PUSH1 0x1 PUSH1 0x50 SHL SUB NOT PUSH0 SLOAD AND OR PUSH0 SSTORE PUSH1 0x1 PUSH1 0x1 PUSH1 0x50 SHL SUB NOT PUSH1 0x4 SLOAD AND OR PUSH1 0x4 SSTORE PUSH0 DUP1 RETURN JUMPDEST CALLVALUE PUSH2 0xC4 JUMPI PUSH1 0x40 CALLDATASIZE PUSH1 0x3 NOT ADD SLT PUSH2 0xC4 JUMPI PUSH1 0x4 CALLDATALOAD PUSH1 0x1 SSTORE PUSH1 0x24 CALLDATALOAD PUSH1 0x3 SSTORE STOP JUMPDEST CALLVALUE PUSH2 0xC4 JUMPI PUSH0 CALLDATASIZE PUSH1 0x3 NOT ADD SLT PUSH2 0xC4 JUMPI PUSH1 0x20 PUSH1 0x1 PUSH1 0x1 PUSH1 0x50 SHL SUB PUSH0 SLOAD AND PUSH1 0x40 MLOAD SWAP1 DUP2 MSTORE RETURN JUMPDEST CALLVALUE PUSH2 0xC4 JUMPI PUSH0 CALLDATASIZE PUSH1 0x3 NOT ADD SLT PUSH2 0xC4 JUMPI PUSH1 0x20 PUSH1 0x1 SLOAD PUSH1 0x40 MLOAD SWAP1 DUP2 MSTORE RETURN JUMPDEST CALLVALUE PUSH2 0xC4 JUMPI PUSH0 CALLDATASIZE PUSH1 0x3 NOT ADD SLT PUSH2 0xC4 JUMPI PUSH1 0x20 SWAP1 PUSH1 0x3 SLOAD DUP2 MSTORE RETURN INVALID LOG2 PUSH5 0x6970667358 0x22 SLT KECCAK256 SWAP11 0x21 0xE3 SWAP6 0xF6 TIMESTAMP 0xB9 0xD8 0x26 0xAF 0xEA 0x2D GT 0xCE 0xCA 0xE1 DUP6 0xA7 BYTE 0xD1 LOG0 SDIV SWAP5 0xA8 BASEFEE 0xCA 0xE 0xEF 0xE6 PUSH19 0x26B764736F6C634300081C0033000000000000 "},"methodIdentifiers":{"answer()":"85bb7d69","answeredInRound()":"c22c2499","latestRoundData()":"feaf968c","roundId()":"8cd221c9","set(int256,uint256)":"a22c5540","setRounds(uint80,uint80)":"a806aeba","startedAt()":"f21f537d","updatedAt()":"7519ab50"}}}}}