{"project/contracts/VaultAuditLog.sol":{"VaultAuditLog":{"abi":[{"anonymous":false,"inputs":[{"indexed":true,"internalType":"address","name":"submitter","type":"address"},{"indexed":true,"internalType":"bytes32","name":"commitmentHash","type":"bytes32"},{"indexed":false,"internalType":"uint256","name":"timestamp","type":"uint256"}],"name":"VaultUnlocked","type":"event"},{"inputs":[{"internalType":"bytes32","name":"commitmentHash","type":"bytes32"}],"name":"anchorUnlock","outputs":[],"stateMutability":"nonpayable","type":"function"},{"inputs":[{"internalType":"address","name":"","type":"address"}],"name":"unlockCount","outputs":[{"internalType":"uint256","name":"","type":"uint256"}],"stateMutability":"view","type":"function"}],"evm":{"bytecode":{"linkReferences":{},"object":"6080806040523460155761015f908161001a8239f35b5f80fdfe6080806040526004361015610012575f80fd5b5f3560e01c908163b7f2696b146100f1575063b8893ee514610032575f80fd5b346100ed5760203660031901126100ed5760043580156100a857335f525f60205260405f208054906001820180921161009457556040514281527f9331921c3f283733334d3f10ca65781d2793ee9aa3653166e82d2ee0b2408a1560203392a3005b634e487b7160e01b5f52601160045260245ffd5b60405162461bcd60e51b815260206004820152601e60248201527f5661756c7441756469744c6f673a207a65726f20636f6d6d69746d656e7400006044820152606490fd5b5f80fd5b346100ed5760203660031901126100ed576004356001600160a01b03811691908290036100ed576020915f525f825260405f20548152f3fea26469706673582212200152d7e1f7ad2d03641806cb2a7dad3553f63272733d27c30b06bd8af29152fd64736f6c634300081c0033","opcodes":"PUSH1 0x80 DUP1 PUSH1 0x40 MSTORE CALLVALUE PUSH1 0x15 JUMPI PUSH2 0x15F SWAP1 DUP2 PUSH2 0x1A DUP3 CODECOPY RETURN JUMPDEST PUSH0 DUP1 REVERT INVALID PUSH1 0x80 DUP1 PUSH1 0x40 MSTORE PUSH1 0x4 CALLDATASIZE LT ISZERO PUSH2 0x12 JUMPI PUSH0 DUP1 REVERT JUMPDEST PUSH0 CALLDATALOAD PUSH1 0xE0 SHR SWAP1 DUP2 PUSH4 0xB7F2696B EQ PUSH2 0xF1 JUMPI POP PUSH4 0xB8893EE5 EQ PUSH2 0x32 JUMPI PUSH0 DUP1 REVERT JUMPDEST CALLVALUE PUSH2 0xED JUMPI PUSH1 0x20 CALLDATASIZE PUSH1 0x3 NOT ADD SLT PUSH2 0xED JUMPI PUSH1 0x4 CALLDATALOAD DUP1 ISZERO PUSH2 0xA8 JUMPI CALLER PUSH0 MSTORE PUSH0 PUSH1 0x20 MSTORE PUSH1 0x40 PUSH0 KECCAK256 DUP1 SLOAD SWAP1 PUSH1 0x1 DUP3 ADD DUP1 SWAP3 GT PUSH2 0x94 JUMPI SSTORE PUSH1 0x40 MLOAD TIMESTAMP DUP2 MSTORE PUSH32 0x9331921C3F283733334D3F10CA65781D2793EE9AA3653166E82D2EE0B2408A15 PUSH1 0x20 CALLER SWAP3 LOG3 STOP JUMPDEST PUSH4 0x4E487B71 PUSH1 0xE0 SHL PUSH0 MSTORE PUSH1 0x11 PUSH1 0x4 MSTORE PUSH1 0x24 PUSH0 REVERT JUMPDEST PUSH1 0x40 MLOAD PUSH3 0x461BCD PUSH1 0xE5 SHL DUP2 MSTORE PUSH1 0x20 PUSH1 0x4 DUP3 ADD MSTORE PUSH1 0x1E PUSH1 0x24 DUP3 ADD MSTORE PUSH32 0x5661756C7441756469744C6F673A207A65726F20636F6D6D69746D656E740000 PUSH1 0x44 DUP3 ADD MSTORE PUSH1 0x64 SWAP1 REVERT JUMPDEST PUSH0 DUP1 REVERT JUMPDEST CALLVALUE PUSH2 0xED JUMPI PUSH1 0x20 CALLDATASIZE PUSH1 0x3 NOT ADD SLT PUSH2 0xED JUMPI PUSH1 0x4 CALLDATALOAD PUSH1 0x1 PUSH1 0x1 PUSH1 0xA0 SHL SUB DUP2 AND SWAP2 SWAP1 DUP3 SWAP1 SUB PUSH2 0xED JUMPI PUSH1 0x20 SWAP2 PUSH0 MSTORE PUSH0 DUP3 MSTORE PUSH1 0x40 PUSH0 KECCAK256 SLOAD DUP2 MSTORE RETURN INVALID LOG2 PUSH5 0x6970667358 0x22 SLT KECCAK256 ADD MSTORE 0xD7 0xE1 0xF7 0xAD 0x2D SUB PUSH5 0x1806CB2A7D 0xAD CALLDATALOAD MSTORE8 0xF6 ORIGIN PUSH19 0x733D27C30B06BD8AF29152FD64736F6C634300 ADDMOD SHR STOP CALLER "},"methodIdentifiers":{"anchorUnlock(bytes32)":"b8893ee5","unlockCount(address)":"b7f2696b"}}}}}