{"project/contracts/TimeLockedVault.sol":{"TimeLockedVault":{"abi":[{"inputs":[],"stateMutability":"nonpayable","type":"constructor"},{"inputs":[{"internalType":"address","name":"owner","type":"address"}],"name":"OwnableInvalidOwner","type":"error"},{"inputs":[{"internalType":"address","name":"account","type":"address"}],"name":"OwnableUnauthorizedAccount","type":"error"},{"inputs":[],"name":"ReentrancyGuardReentrantCall","type":"error"},{"anonymous":false,"inputs":[{"indexed":true,"internalType":"uint256","name":"vaultId","type":"uint256"},{"indexed":true,"internalType":"address","name":"oldBeneficiary","type":"address"},{"indexed":true,"internalType":"address","name":"newBeneficiary","type":"address"}],"name":"BeneficiaryUpdated","type":"event"},{"anonymous":false,"inputs":[{"indexed":true,"internalType":"uint256","name":"vaultId","type":"uint256"},{"indexed":true,"internalType":"address","name":"owner","type":"address"},{"indexed":false,"internalType":"uint256","name":"checkedInAt","type":"uint256"},{"indexed":false,"internalType":"uint256","name":"nextDeadline","type":"uint256"}],"name":"CheckIn","type":"event"},{"anonymous":false,"inputs":[{"indexed":true,"internalType":"uint256","name":"vaultId","type":"uint256"},{"indexed":true,"internalType":"address","name":"voter","type":"address"},{"indexed":false,"internalType":"enum TimeLockedVault.VoteChoice","name":"choice","type":"uint8"},{"indexed":false,"internalType":"uint256","name":"votesFor","type":"uint256"},{"indexed":false,"internalType":"uint256","name":"votesAgainst","type":"uint256"}],"name":"DAOVoteCast","type":"event"},{"anonymous":false,"inputs":[{"indexed":true,"internalType":"uint256","name":"vaultId","type":"uint256"},{"indexed":true,"internalType":"address","name":"arbitrator","type":"address"},{"indexed":true,"internalType":"address","name":"beneficiary","type":"address"},{"indexed":false,"internalType":"uint256","name":"releasedAt","type":"uint256"}],"name":"EscrowReleased","type":"event"},{"anonymous":false,"inputs":[{"indexed":true,"internalType":"uint256","name":"vaultId","type":"uint256"},{"indexed":true,"internalType":"address","name":"signer","type":"address"},{"indexed":false,"internalType":"uint256","name":"currentApprovals","type":"uint256"},{"indexed":false,"internalType":"uint256","name":"requiredApprovals","type":"uint256"}],"name":"MultiSigApproval","type":"event"},{"anonymous":false,"inputs":[{"indexed":true,"internalType":"address","name":"previousOwner","type":"address"},{"indexed":true,"internalType":"address","name":"newOwner","type":"address"}],"name":"OwnershipTransferred","type":"event"},{"anonymous":false,"inputs":[{"indexed":true,"internalType":"uint256","name":"vaultId","type":"uint256"},{"indexed":true,"internalType":"address","name":"cancelledBy","type":"address"},{"indexed":false,"internalType":"uint256","name":"cancelledAt","type":"uint256"}],"name":"VaultCancelled","type":"event"},{"anonymous":false,"inputs":[{"indexed":true,"internalType":"uint256","name":"vaultId","type":"uint256"},{"indexed":true,"internalType":"address","name":"creator","type":"address"},{"indexed":false,"internalType":"enum TimeLockedVault.ConditionType","name":"conditionType","type":"uint8"},{"indexed":false,"internalType":"uint256","name":"createdAt","type":"uint256"}],"name":"VaultCreated","type":"event"},{"anonymous":false,"inputs":[{"indexed":true,"internalType":"uint256","name":"vaultId","type":"uint256"},{"indexed":true,"internalType":"address","name":"unlockedBy","type":"address"},{"indexed":false,"internalType":"uint256","name":"unlockedAt","type":"uint256"}],"name":"VaultUnlocked","type":"event"},{"inputs":[{"internalType":"uint256","name":"_vaultId","type":"uint256"}],"name":"approveAccess","outputs":[],"stateMutability":"nonpayable","type":"function"},{"inputs":[{"internalType":"uint256","name":"_vaultId","type":"uint256"}],"name":"cancelVault","outputs":[],"stateMutability":"nonpayable","type":"function"},{"inputs":[{"internalType":"uint256","name":"_vaultId","type":"uint256"},{"internalType":"bool","name":"_approve","type":"bool"}],"name":"castVote","outputs":[],"stateMutability":"nonpayable","type":"function"},{"inputs":[{"internalType":"uint256","name":"_vaultId","type":"uint256"}],"name":"checkIn","outputs":[],"stateMutability":"nonpayable","type":"function"},{"inputs":[{"internalType":"uint256","name":"_vaultId","type":"uint256"}],"name":"conditionalAccess","outputs":[{"internalType":"bool","name":"met","type":"bool"}],"stateMutability":"view","type":"function"},{"inputs":[{"internalType":"bytes32","name":"_passwordHash","type":"bytes32"},{"internalType":"address[]","name":"_voters","type":"address[]"},{"internalType":"uint256","name":"_votingDeadline","type":"uint256"},{"internalType":"uint256","name":"_quorumThreshold","type":"uint256"}],"name":"createDAOVault","outputs":[{"internalType":"uint256","name":"","type":"uint256"}],"stateMutability":"nonpayable","type":"function"},{"inputs":[{"internalType":"bytes32","name":"_passwordHash","type":"bytes32"},{"internalType":"uint256","name":"_checkInInterval","type":"uint256"},{"internalType":"uint256","name":"_gracePeriod","type":"uint256"},{"internalType":"address","name":"_beneficiary","type":"address"}],"name":"createDeadMansSwitchVault","outputs":[{"internalType":"uint256","name":"","type":"uint256"}],"stateMutability":"nonpayable","type":"function"},{"inputs":[{"internalType":"bytes32","name":"_passwordHash","type":"bytes32"},{"internalType":"address","name":"_beneficiary","type":"address"},{"internalType":"address","name":"_arbitrator","type":"address"}],"name":"createEscrowVault","outputs":[{"internalType":"uint256","name":"","type":"uint256"}],"stateMutability":"nonpayable","type":"function"},{"inputs":[{"internalType":"bytes32","name":"_passwordHash","type":"bytes32"},{"internalType":"address[]","name":"_signers","type":"address[]"},{"internalType":"uint256","name":"_requiredApprovals","type":"uint256"}],"name":"createMultiSigVault","outputs":[{"internalType":"uint256","name":"","type":"uint256"}],"stateMutability":"nonpayable","type":"function"},{"inputs":[{"internalType":"bytes32","name":"_passwordHash","type":"bytes32"},{"internalType":"address","name":"_oracleAddress","type":"address"},{"internalType":"uint256","name":"_priceThreshold","type":"uint256"},{"internalType":"bool","name":"_priceAbove","type":"bool"}],"name":"createPriceOracleVault","outputs":[{"internalType":"uint256","name":"","type":"uint256"}],"stateMutability":"nonpayable","type":"function"},{"inputs":[{"internalType":"bytes32","name":"_passwordHash","type":"bytes32"},{"internalType":"uint256","name":"_unlockTime","type":"uint256"}],"name":"createTimeLockVault","outputs":[{"internalType":"uint256","name":"","type":"uint256"}],"stateMutability":"nonpayable","type":"function"},{"inputs":[{"internalType":"uint256","name":"","type":"uint256"},{"internalType":"uint256","name":"","type":"uint256"}],"name":"daoVoters","outputs":[{"internalType":"address","name":"","type":"address"}],"stateMutability":"view","type":"function"},{"inputs":[{"internalType":"uint256","name":"","type":"uint256"},{"internalType":"address","name":"","type":"address"}],"name":"daoVotes","outputs":[{"internalType":"enum TimeLockedVault.VoteChoice","name":"","type":"uint8"}],"stateMutability":"view","type":"function"},{"inputs":[{"internalType":"uint256","name":"_vaultId","type":"uint256"}],"name":"getDAOVoteResults","outputs":[{"internalType":"uint256","name":"votesFor","type":"uint256"},{"internalType":"uint256","name":"votesAgainst","type":"uint256"},{"internalType":"uint256","name":"totalEligible","type":"uint256"},{"internalType":"uint256","name":"quorumThreshold","type":"uint256"},{"internalType":"bool","name":"votingEnded","type":"bool"},{"internalType":"bool","name":"conditionMet","type":"bool"}],"stateMutability":"view","type":"function"},{"inputs":[{"internalType":"uint256","name":"_vaultId","type":"uint256"}],"name":"getDAOVoters","outputs":[{"internalType":"address[]","name":"","type":"address[]"}],"stateMutability":"view","type":"function"},{"inputs":[{"internalType":"uint256","name":"_vaultId","type":"uint256"}],"name":"getDeadMansSwitchStatus","outputs":[{"internalType":"uint256","name":"timeRemaining","type":"uint256"},{"internalType":"bool","name":"isTriggered","type":"bool"}],"stateMutability":"view","type":"function"},{"inputs":[{"internalType":"uint256","name":"_vaultId","type":"uint256"}],"name":"getMultiSigSigners","outputs":[{"internalType":"address[]","name":"","type":"address[]"}],"stateMutability":"view","type":"function"},{"inputs":[{"internalType":"address","name":"_user","type":"address"}],"name":"getUserVaults","outputs":[{"internalType":"uint256[]","name":"","type":"uint256[]"}],"stateMutability":"view","type":"function"},{"inputs":[{"internalType":"uint256","name":"_vaultId","type":"uint256"}],"name":"getVault","outputs":[{"components":[{"internalType":"uint256","name":"id","type":"uint256"},{"internalType":"address","name":"creator","type":"address"},{"internalType":"bytes32","name":"passwordHash","type":"bytes32"},{"internalType":"enum TimeLockedVault.ConditionType","name":"conditionType","type":"uint8"},{"internalType":"enum TimeLockedVault.VaultStatus","name":"status","type":"uint8"},{"internalType":"uint256","name":"createdAt","type":"uint256"},{"internalType":"uint256","name":"updatedAt","type":"uint256"},{"internalType":"uint256","name":"unlockTime","type":"uint256"},{"internalType":"uint256","name":"checkInInterval","type":"uint256"},{"internalType":"uint256","name":"lastCheckIn","type":"uint256"},{"internalType":"uint256","name":"gracePeriod","type":"uint256"},{"internalType":"address","name":"beneficiary","type":"address"},{"internalType":"uint256","name":"requiredApprovals","type":"uint256"},{"internalType":"uint256","name":"approvalCount","type":"uint256"},{"internalType":"uint256","name":"votingDeadline","type":"uint256"},{"internalType":"uint256","name":"quorumThreshold","type":"uint256"},{"internalType":"uint256","name":"votesFor","type":"uint256"},{"internalType":"uint256","name":"votesAgainst","type":"uint256"},{"internalType":"uint256","name":"totalEligibleVoters","type":"uint256"},{"internalType":"uint256","name":"priceThreshold","type":"uint256"},{"internalType":"bool","name":"priceAbove","type":"bool"},{"internalType":"address","name":"oracleAddress","type":"address"},{"internalType":"address","name":"arbitrator","type":"address"},{"internalType":"bool","name":"exists","type":"bool"}],"internalType":"struct TimeLockedVault.Vault","name":"","type":"tuple"}],"stateMutability":"view","type":"function"},{"inputs":[],"name":"getVaultCount","outputs":[{"internalType":"uint256","name":"","type":"uint256"}],"stateMutability":"view","type":"function"},{"inputs":[{"internalType":"uint256","name":"","type":"uint256"},{"internalType":"address","name":"","type":"address"}],"name":"multiSigApprovals","outputs":[{"internalType":"bool","name":"","type":"bool"}],"stateMutability":"view","type":"function"},{"inputs":[{"internalType":"uint256","name":"","type":"uint256"},{"internalType":"uint256","name":"","type":"uint256"}],"name":"multiSigSigners","outputs":[{"internalType":"address","name":"","type":"address"}],"stateMutability":"view","type":"function"},{"inputs":[],"name":"nextVaultId","outputs":[{"internalType":"uint256","name":"","type":"uint256"}],"stateMutability":"view","type":"function"},{"inputs":[],"name":"owner","outputs":[{"internalType":"address","name":"","type":"address"}],"stateMutability":"view","type":"function"},{"inputs":[{"internalType":"uint256","name":"_vaultId","type":"uint256"}],"name":"releaseEscrow","outputs":[],"stateMutability":"nonpayable","type":"function"},{"inputs":[],"name":"renounceOwnership","outputs":[],"stateMutability":"nonpayable","type":"function"},{"inputs":[{"internalType":"address","name":"newOwner","type":"address"}],"name":"transferOwnership","outputs":[],"stateMutability":"nonpayable","type":"function"},{"inputs":[{"internalType":"uint256","name":"_vaultId","type":"uint256"}],"name":"unlockVault","outputs":[],"stateMutability":"nonpayable","type":"function"},{"inputs":[{"internalType":"uint256","name":"_vaultId","type":"uint256"},{"internalType":"address","name":"_newBeneficiary","type":"address"}],"name":"updateBeneficiary","outputs":[],"stateMutability":"nonpayable","type":"function"},{"inputs":[{"internalType":"address","name":"","type":"address"},{"internalType":"uint256","name":"","type":"uint256"}],"name":"userVaults","outputs":[{"internalType":"uint256","name":"","type":"uint256"}],"stateMutability":"view","type":"function"},{"inputs":[{"internalType":"uint256","name":"","type":"uint256"}],"name":"vaults","outputs":[{"internalType":"uint256","name":"id","type":"uint256"},{"internalType":"address","name":"creator","type":"address"},{"internalType":"bytes32","name":"passwordHash","type":"bytes32"},{"internalType":"enum TimeLockedVault.ConditionType","name":"conditionType","type":"uint8"},{"internalType":"enum TimeLockedVault.VaultStatus","name":"status","type":"uint8"},{"internalType":"uint256","name":"createdAt","type":"uint256"},{"internalType":"uint256","name":"updatedAt","type":"uint256"},{"internalType":"uint256","name":"unlockTime","type":"uint256"},{"internalType":"uint256","name":"checkInInterval","type":"uint256"},{"internalType":"uint256","name":"lastCheckIn","type":"uint256"},{"internalType":"uint256","name":"gracePeriod","type":"uint256"},{"internalType":"address","name":"beneficiary","type":"address"},{"internalType":"uint256","name":"requiredApprovals","type":"uint256"},{"internalType":"uint256","name":"approvalCount","type":"uint256"},{"internalType":"uint256","name":"votingDeadline","type":"uint256"},{"internalType":"uint256","name":"quorumThreshold","type":"uint256"},{"internalType":"uint256","name":"votesFor","type":"uint256"},{"internalType":"uint256","name":"votesAgainst","type":"uint256"},{"internalType":"uint256","name":"totalEligibleVoters","type":"uint256"},{"internalType":"uint256","name":"priceThreshold","type":"uint256"},{"internalType":"bool","name":"priceAbove","type":"bool"},{"internalType":"address","name":"oracleAddress","type":"address"},{"internalType":"address","name":"arbitrator","type":"address"},{"internalType":"bool","name":"exists","type":"bool"}],"stateMutability":"view","type":"function"}],"evm":{"bytecode":{"linkReferences":{},"object":"6080806040523460995733156086575f8054336001600160a01b0319821681178355916001600160a01b03909116907f8be0079c531659141344cd1fd0a4f28419497f9722a3daafe3b4186f6b6457e09080a360017f9b779b17422d0df92223018b32b4d1fa46e071723d6817e2486d003becc55f005560018055612baa908161009e8239f35b631e4fbdf760e01b5f525f60045260245ffd5b5f80fdfe6101a0806040526004361015610013575f80fd5b5f3560e01c908163061fd02114612247575080630cc1a4071461217857806312ac17631461215b57806315373e3d14611ecd5780631a9ba00d14611e845780633e8eb5a414611d04578063568497bb14611b2357806357aa6f49146119c557806363ee0f5214611805578063715018a6146117ae57806374d4e4911461178557806378640668146117375780637afdcb091461160a57806381607893146115e257806381ff793f1461134c57806382aa0a1f1461121e5780638c64ea4a1461100b5780638da5cb5b14610fe45780639403b63414610c6f5780639c841fef14610c17578063bc161f8714610bce578063d1bed38614610b9f578063de22f0c2146108d0578063de244be7146106d3578063dfc173081461068b578063e5009cc31461061e578063e7f3c69c1461056a578063e95a644f14610435578063ebfe7a1d146103b8578063ed653164146101fb5763f2fde38b14610172575f80fd5b346101f75760203660031901126101f75761018b612437565b610193612a2b565b6001600160a01b031680156101e4575f80546001600160a01b03198116831782556001600160a01b0316907f8be0079c531659141344cd1fd0a4f28419497f9722a3daafe3b4186f6b6457e09080a3005b631e4fbdf760e01b5f525f60045260245ffd5b5f80fd5b346101f75760203660031901126101f7576004356102176129f3565b805f52600260205261023560ff601460405f20015460a01c1661263a565b805f52600260205260ff600360405f20015460081c1660048110156103a45761025e90156126bd565b805f52600260205260405f206003810160ff81541660068110156103a4576005036103695760148201546001600160a01b031633036103245761010061ff0019825416179055426005820155600a60018060a01b0391015416604051428152827f23d38aeadadb5b25e6436c7b0d6fcdc7d408b609d4f1ce095cff6bbbf9acc41e60203393a4604051904282527fc8ee545e5b582cef6b0ab3ab5a84dc33bd22cc3ae4fc4b86d4004f1ddf88b74860203393a360015f516020612b555f395f51905f5255005b60405162461bcd60e51b815260206004820152601b60248201527f4f6e6c792061726269747261746f722063616e2072656c6561736500000000006044820152606490fd5b60405162461bcd60e51b8152602060048201526013602482015272139bdd08185b88195cd8dc9bddc81d985d5b1d606a1b6044820152606490fd5b634e487b7160e01b5f52602160045260245ffd5b346101f75760203660031901126101f7576004355f52600660205260405f206040519081602082549182815201915f5260205f20905f5b81811061041657610412856104068187038261292a565b604051918291826124e4565b0390f35b82546001600160a01b03168452602090930192600192830192016103ef565b346101f75760203660031901126101f757600435805f52600260205261046760ff601460405f20015460a01c1661263a565b805f52600260205261048960018060a01b03600160405f20015416331461267d565b805f52600260205260ff600360405f20015460081c1660048110156103a4576104b290156126bd565b805f52600260205260405f2060ff60038201541660068110156103a4576001036105255760076104f0914260088201554260058201550154426126fc565b906040519142835260208301527f58b5ff600c8f70ee1f1b0b8580a69c78ba78f51913156ca1d798fc4322c386d960403393a3005b60405162461bcd60e51b815260206004820152601d60248201527f4e6f7420612064656164206d616e277320737769746368207661756c740000006044820152606490fd5b346101f75760203660031901126101f7576001600160a01b0361058b612437565b165f52600760205260405f20604051806020835491828152019081935f5260205f20905f5b81811061060857505050816105c691038261292a565b604051918291602083019060208452518091526040830191905f5b8181106105ef575050500390f35b82518452859450602093840193909201916001016105e1565b82548452602090930192600192830192016105b0565b346101f75760203660031901126101f7576004355f52600460205260405f206040519081602082549182815201915f5260205f20905f5b81811061066c57610412856104068187038261292a565b82546001600160a01b0316845260209093019260019283019201610655565b346101f757610699366124ce565b905f52600460205260405f2080548210156101f7576020916106ba916124a5565b905460405160039290921b1c6001600160a01b03168152f35b346101f75760603660031901126101f7576004356106ef612421565b6044356001600160a01b03811691908290036101f7576001600160a01b03169061071a821515612526565b8015610896573381146108515780821461080d5760148361073e60209515156125b4565b6001549361074b856125f8565b60019081555f8681526002808952604080832089815593840180546001600160a01b0319908116339081179092559285019690965560038401805461ffff19166005908117909155426004860181905590850155600a8401805490921690941790559301805460ff60a01b199095166001600160a81b031990951694909417600160a01b17909355815260078452206107e5908290612606565b604051600581524283820152815f516020612b355f395f51905f5260403393a3604051908152f35b606460405162461bcd60e51b815260206004820152602060248201527f42656e65666963696172792063616e6e6f742062652061726269747261746f726044820152fd5b60405162461bcd60e51b815260206004820152601c60248201527f41726269747261746f722063616e6e6f742062652063726561746f72000000006044820152606490fd5b60405162461bcd60e51b815260206004820152601260248201527124b73b30b634b21030b93134ba3930ba37b960711b6044820152606490fd5b346101f75760603660031901126101f75760043560243567ffffffffffffffff81116101f75761090490369060040161245a565b6044929192359160028210610b5a57600a8211610b245760018310610adf57818311610a9a578061093860149215156125b4565b60015493610945856125f8565b60019081555f8681526002602081815260408084208a815594850180546001600160a01b031916331790558483019690965560038401805461ffff19169092179091554260048085018290556005850191909155600b840194909455600c830182905594909101805460ff60a01b1916600160a01b179055925290209267ffffffffffffffff8211610a8657600160401b8211610a86578354828555808310610a60575b50925f5260205f20925f905b828210610a3b57602084335f5260078252610a138160405f20612606565b604051600281524283820152815f516020612b355f395f51905f5260403393a3604051908152f35b8035916001600160a01b03831683036101f757602060019201928187015501906109f5565b845f528260205f2091820191015b818110610a7b57506109e9565b5f8155600101610a6e565b634e487b7160e01b5f52604160045260245ffd5b60405162461bcd60e51b815260206004820152601860248201527f5265717569726564203e20746f74616c207369676e65727300000000000000006044820152606490fd5b60405162461bcd60e51b815260206004820152601860248201527f4e656564206174206c65617374203120617070726f76616c00000000000000006044820152606490fd5b60405162461bcd60e51b815260206004820152600e60248201526d4d6178203130207369676e65727360901b6044820152606490fd5b60405162461bcd60e51b815260206004820152601760248201527f4e656564206174206c656173742032207369676e6572730000000000000000006044820152606490fd5b346101f757610bad366124ce565b905f52600660205260405f2080548210156101f7576020916106ba916124a5565b346101f75760403660031901126101f757610be7612421565b6004355f52600360205260405f209060018060a01b03165f52602052602060ff60405f2054166040519015158152f35b346101f75760403660031901126101f757610c30612437565b6001600160a01b03165f908152600760205260409020805460243591908210156101f757602091610c60916124a5565b90549060031b1c604051908152f35b346101f75760203660031901126101f7576004355f6102e0604051610c938161290d565b8281528260208201528260408201528260608201528260808201528260a08201528260c08201528260e08201528261010082015282610120820152826101408201528261016082015282610180820152826101a0820152826101c0820152826101e08201528261020082015282610220820152826102408201528261026082015282610280820152826102a0820152826102c08201520152805f526002602052610d4960ff601460405f20015460a01c1661263a565b5f52600260205260405f20604051610d608161290d565b8154815260018201546001600160a01b0316602082015260028201546040820152600382015460ff81169060068210156103a45760ff91606084015260081c169160048310156103a457601460ff91610300946080850152600481015460a0850152600581015460c0850152600681015460e085015260078101546101008501526008810154610120850152600981015461014085015260018060a01b03600a82015416610160850152600b810154610180850152600c8101546101a0850152600d8101546101c0850152600e8101546101e0850152600f8101546102008501526010810154610220850152601181015461024085015260128101546102608501526013810154838116151561028086015260018060a01b039060081c166102a0850152015460018060a01b0381166102c084015260a01c1615156102e08201526102e0604051918051835260018060a01b03602082015116602084015260408101516040840152610eda6060820151606085019061248b565b610eec60808201516080850190612498565b60a081015160a084015260c081015160c084015260e081015160e084015261010081015161010084015261012081015161012084015261014081015161014084015260018060a01b03610160820151166101608401526101808101516101808401526101a08101516101a08401526101c08101516101c08401526101e08101516101e0840152610200810151610200840152610220810151610220840152610240810151610240840152610260810151610260840152610280810151151561028084015260018060a01b036102a0820151166102a084015260018060a01b036102c0820151166102c0840152015115156102e0820152f35b346101f7575f3660031901126101f7575f546040516001600160a01b039091168152602090f35b346101f75760203660031901126101f7576004355f52600260205260405f2061018052610180515460018060a01b036001610180510154166101005260026101805101546101405260036101805101546004610180510154600561018051015460066101805101546007610180510154600861018051015460096101805101549060018060a01b03600a6101805101541692600b61018051015494600c61018051015496600d6101805101549861114a600e6101805101549b600f6101805101549d6010610180510154608052601161018051015460c052601261018051015461016052601361018051015461012052601461018051015460e05260405160a05260a0515261010051602060a051015261014051604060a0510152611138606060a0510160ff831661248b565b60ff608060a051019160081c16612498565b60a08051015260c060a051015260e060a051015261010060a051015261012060a051015261014060a051015261016060a051015261018060a05101526101a060a05101526101c060a05101526101e060a051015261020060a051015260805161022060a051015260c05161024060a05101526101605161026060a051015260ff6101205116151561028060a051015260018060a01b036101205160081c166102a060a051015260018060a01b0360e051166102c060a051015260ff60e05160a01c1615156102e060a051015261030060a051f35b346101f75760203660031901126101f757600435805f52600260205261125060ff601460405f20015460a01c1661263a565b5f905f52600260205260405f209060ff60038301541660068110156103a45760030361131557600f820154906010830154601184015493600d600e8201549101544210159182809361130c575b6112c9575b9460c0956040519586526020860152604085015260608401526080830152151560a0820152f35b925061271084029484860461271014851517156112f857816112ed8260c0986127cd565b1015939095506112a2565b634e487b7160e01b5f52601160045260245ffd5b5085151561129d565b60405162461bcd60e51b815260206004820152600f60248201526e139bdd081848111053c81d985d5b1d608a1b6044820152606490fd5b346101f75760803660031901126101f75760043560243567ffffffffffffffff81116101f75761138090369060040161245a565b6044929192359160643590600183106115a557428411156115605781151580611554575b15611519576014916113b78215156125b4565b600154946113c4866125f8565b60019081555f8781526002602081815260408084208b815594850180546001600160a01b03191633179055918401969096556003808401805461ffff1916909117905542600484018190556005840155600d830193909355600e820193909355600f8101839055601081018390556011810186905593909301805460ff60a01b1916600160a01b1790556006909152209267ffffffffffffffff8211610a8657600160401b8211610a865783548285558083106114f3575b50925f5260205f20925f905b8282106114ce57602084335f52600782526114a68160405f20612606565b604051600381524283820152815f516020612b355f395f51905f5260403393a3604051908152f35b8035916001600160a01b03831683036101f75760206001920192818701550190611488565b845f528260205f2091820191015b81811061150e575061147c565b5f8155600101611501565b60405162461bcd60e51b815260206004820152601360248201527251756f72756d3a20312d31303030302062707360681b6044820152606490fd5b506127108211156113a4565b60405162461bcd60e51b815260206004820152601e60248201527f446561646c696e65206d75737420626520696e207468652066757475726500006044820152606490fd5b60405162461bcd60e51b81526020600482015260156024820152742732b2b21030ba103632b0b9ba1018903b37ba32b960591b6044820152606490fd5b346101f75760203660031901126101f75760206116006004356127a3565b6040519015158152f35b346101f75760403660031901126101f757600435602435428111156116e85760148261163960209415156125b4565b60015492611646846125f8565b60019081555f8581526002808852604080832088815593840180546001600160a01b031916339081179091559184019590955560038301805461ffff191690554260048401819055600584015560068301939093559301805460ff60a01b1916600160a01b17905582526007845290206116c1908290612606565b6040515f81524283820152815f516020612b355f395f51905f5260403393a3604051908152f35b60405162461bcd60e51b815260206004820152602160248201527f556e6c6f636b2074696d65206d75737420626520696e207468652066757475726044820152606560f81b6064820152608490fd5b346101f75760403660031901126101f757611750612421565b6004355f52600560205260405f209060018060a01b03165f52602052602060ff60405f205416611783604051809261244d565bf35b346101f7575f3660031901126101f7576001545f1981019081116112f857602090604051908152f35b346101f7575f3660031901126101f7576117c6612a2b565b5f80546001600160a01b0319811682556001600160a01b03167f8be0079c531659141344cd1fd0a4f28419497f9722a3daafe3b4186f6b6457e08280a3005b346101f75760803660031901126101f757600435611821612421565b60443590606435928315158094036101f7576001600160a01b03821615611987578215611942576020936014926118598315156125b4565b60015494611866866125f8565b60019081555f8781526002808a5260408083208a815593840180546001600160a01b031916339081179091559184019790975560038301805461ffff1916600490811790915542908401819055600584015560128301939093556013820180546001600160a81b03191660ff969096169590951760089490941b610100600160a81b03169390931790935593909101805460ff60a01b1916600160a01b17905591825260078452902061191a908290612606565b604051600481524283820152815f516020612b355f395f51905f5260403393a3604051908152f35b60405162461bcd60e51b815260206004820152601b60248201527f5072696365207468726573686f6c64206d757374206265203e203000000000006044820152606490fd5b60405162461bcd60e51b8152602060048201526016602482015275496e76616c6964206f7261636c65206164647265737360501b6044820152606490fd5b346101f75760203660031901126101f7576004356119e16129f3565b805f5260026020526119ff60ff601460405f20015460a01c1661263a565b805f52600260205260ff600360405f20015460081c1660048110156103a457611a2890156126bd565b805f52600260205260405f206003810160ff81541660068110156103a457600514611ae857611a56836127a3565b15611aae5761010061ff0019825416179055600542910155604051904282527fc8ee545e5b582cef6b0ab3ab5a84dc33bd22cc3ae4fc4b86d4004f1ddf88b74860203393a360015f516020612b555f395f51905f5255005b60405162461bcd60e51b815260206004820152601260248201527110dbdb991a5d1a5bdb9cc81b9bdd081b595d60721b6044820152606490fd5b60405162461bcd60e51b81526020600482015260136024820152725573652072656c65617365457363726f77282960681b6044820152606490fd5b346101f75760203660031901126101f757600435805f526002602052611b5560ff601460405f20015460a01c1661263a565b805f52600260205260ff600360405f20015460081c1660048110156103a457611b7e90156126bd565b805f52600260205260405f209060ff60038301541660068110156103a457600203611cc7575f81815260036020908152604080832033845290915290205460ff16611c8f57611bcd33826129a4565b15611c4a57805f52600360205260405f2060018060a01b0333165f5260205260405f20600160ff19825416179055600b600c830192611c0c84546125f8565b809455426005820155015460405192835260208301527fc993e60c6bf9dbd562b8c3796f50de8d9e54439cf55afc37e33ffef7405ed90460403393a3005b60405162461bcd60e51b815260206004820152601860248201527f4e6f7420616e20617574686f72697a6564207369676e657200000000000000006044820152606490fd5b60405162461bcd60e51b815260206004820152601060248201526f105b1c9958591e48185c1c1c9bdd995960821b6044820152606490fd5b60405162461bcd60e51b8152602060048201526015602482015274139bdd0818481b5d5b1d1a4b5cda59c81d985d5b1d605a1b6044820152606490fd5b346101f75760403660031901126101f757600435611d20612421565b815f526002602052611d3e60ff601460405f20015460a01c1661263a565b815f526002602052611d6060018060a01b03600160405f20015416331461267d565b815f52600260205260ff600360405f20015460081c1660048110156103a457611d8990156126bd565b6001600160a01b031690611d9e821515612526565b611daa33831415612568565b805f52600260205260405f209060ff60038301541660068110156103a45760018114908115611e79575b5015611e2857600a82019160018060a01b0383541692846001600160601b0360a01b8254161790556005429101557ff585da3452445cd066854ce9c4f3306e8deddd1d571e840b1dddaa1f3d4de53c5f80a4005b60405162461bcd60e51b8152602060048201526024808201527f5661756c74207479706520646f6573206e6f7420686176652062656e656669636044820152636961727960e01b6064820152608490fd5b600591501484611dd4565b346101f75760203660031901126101f7576040611ebf600435805f526002602052611eba60ff6014855f20015460a01c1661263a565b612709565b825191825215156020820152f35b346101f75760403660031901126101f75760243560043581151582036101f757805f526002602052611f0b60ff601460405f20015460a01c1661263a565b805f52600260205260ff600360405f20015460081c1660048110156103a457611f3490156126bd565b805f52600260205260405f209160ff60038401541660068110156103a45760030361211f57600d8301544210156120e4575f82815260056020908152604080832033845290915290205460ff1660038110156103a4576120af57611f98338361294c565b15612072578015612039575f8281526005602090815260408083203384529091529020805460ff19166001179055600f83018054611fd5906125f8565b90555b42600584015515612031576001915b6010600f82015491015490611fff604051809561244d565b602084015260408301527f4fb436bc3e53ee9d93d9cad6bc99565de46432e0ea0e1c0655ef56f189658c9660603393a3005b600291611fe7565b5f8281526005602090815260408083203384529091529020805460ff1916600217905560108301805461206b906125f8565b9055611fd8565b60405162461bcd60e51b81526020600482015260156024820152742737ba1030b71032b634b3b4b13632903b37ba32b960591b6044820152606490fd5b60405162461bcd60e51b815260206004820152600d60248201526c105b1c9958591e481d9bdd1959609a1b6044820152606490fd5b60405162461bcd60e51b8152602060048201526013602482015272159bdd1a5b99c81c195c9a5bd908195b991959606a1b6044820152606490fd5b60405162461bcd60e51b8152602060048201526014602482015273139bdd081848111053c81d9bdd19481d985d5b1d60621b6044820152606490fd5b346101f7575f3660031901126101f7576020600154604051908152f35b346101f75760203660031901126101f757600435805f5260026020526121aa60ff601460405f20015460a01c1661263a565b805f5260026020526121cc60018060a01b03600160405f20015416331461267d565b805f52600260205260ff600360405f20015460081c1660048110156103a4576121f590156126bd565b805f52600260205260405f206003810161020061ff0019825416179055600542910155604051904282527f63c22da2349a9598e170cb9c7e26f1f906bea8e78f0dced9d0b85b17ffe0d61160203393a3005b346101f75760803660031901126101f7576064356001600160a01b038116916024359160443591600435918590036101f7576201518084106123d45750610e10821061238f578360149261229e6020961515612526565b6122aa33831415612568565b6122b58315156125b4565b600154946122c2866125f8565b600155855f526002875260405f20938685556001850160018060a01b0333166001600160601b0360a01b825416179055600285015560038401600160ff1982541617815561ff0019815416905542600485015542600585015560078401554260088401556009830155600a8201906001600160601b0360a01b82541617905501600160a01b60ff60a01b19825416179055335f52600782526123678160405f20612606565b604051600181524283820152815f516020612b355f395f51905f5260403393a3604051908152f35b60405162461bcd60e51b815260206004820152601e60248201527f477261636520706572696f64206d757374206265203e3d203120686f757200006044820152606490fd5b62461bcd60e51b815260206004820152602260248201527f436865636b2d696e20696e74657276616c206d757374206265203e3d20312064604482015261617960f01b6064820152608490fd5b602435906001600160a01b03821682036101f757565b600435906001600160a01b03821682036101f757565b9060038210156103a45752565b9181601f840112156101f75782359167ffffffffffffffff83116101f7576020808501948460051b0101116101f757565b9060068210156103a45752565b9060048210156103a45752565b80548210156124ba575f5260205f2001905f90565b634e487b7160e01b5f52603260045260245ffd5b60409060031901126101f7576004359060243590565b60206040818301928281528451809452019201905f5b8181106125075750505090565b82516001600160a01b03168452602093840193909201916001016124fa565b1561252d57565b60405162461bcd60e51b8152602060048201526013602482015272496e76616c69642062656e656669636961727960681b6044820152606490fd5b1561256f57565b60405162461bcd60e51b815260206004820152601d60248201527f42656e65666963696172792063616e6e6f742062652063726561746f720000006044820152606490fd5b156125bb57565b60405162461bcd60e51b8152602060048201526015602482015274092dcecc2d8d2c840e0c2e6e6eedee4c840d0c2e6d605b1b6044820152606490fd5b5f1981146112f85760010190565b8054600160401b811015610a8657612623916001820181556124a5565b819291549060031b91821b915f19901b1916179055565b1561264157565b60405162461bcd60e51b815260206004820152601460248201527315985d5b1d08191bd95cc81b9bdd08195e1a5cdd60621b6044820152606490fd5b1561268457565b60405162461bcd60e51b81526020600482015260116024820152702737ba103b30bab63a1031b932b0ba37b960791b6044820152606490fd5b156126c457565b60405162461bcd60e51b815260206004820152601060248201526f5661756c74206e6f742061637469766560801b6044820152606490fd5b919082018092116112f857565b5f52600260205260405f2060ff60038201541660068110156103a45760010361276c57806009612745600861274e9401546007840154906126fc565b910154906126fc565b804211612764574281039081116112f857905f90565b505f90600190565b60405162461bcd60e51b815260206004820152600f60248201526e139bdd081848111354c81d985d5b1d608a1b6044820152606490fd5b6127ca90805f5260026020526127c560ff601460405f20015460a01c1661263a565b6127eb565b90565b81156127d7570490565b634e487b7160e01b5f52601260045260245ffd5b5f52600260205260405f20600381015460ff8160081c1660048110156103a45780612904575060ff1660068110156103a45780156128f957600181146128da57600281146128ca576003811461286d5760041461284757505f90565b60138101546012909101546127ca9160ff8116919060081c6001600160a01b0316612a68565b50600d81015442106128c557600f81015461288c6010830154826126fc565b156128bf5761271081029080820461271014901517156112f8576128b7600e916011840154906127cd565b910154111590565b50505f90565b505f90565b50600b600c820154910154111590565b5080600961274560086128f49401546007840154906126fc565b421190565b506006015442101590565b60011492915050565b610300810190811067ffffffffffffffff821117610a8657604052565b90601f8019910116810190811067ffffffffffffffff821117610a8657604052565b5f52600660205260405f20905f918054925b83811061296d57505050505f90565b61297781836124a5565b905460039190911b1c6001600160a01b039081169084161461299b5760010161295e565b50505050600190565b5f52600460205260405f20905f918054925b8381106129c557505050505f90565b6129cf81836124a5565b905460039190911b1c6001600160a01b039081169084161461299b576001016129b6565b60025f516020612b555f395f51905f525414612a1c5760025f516020612b555f395f51905f5255565b633ee5aeb560e01b5f5260045ffd5b5f546001600160a01b03163303612a3e57565b63118cdaa760e01b5f523360045260245ffd5b519069ffffffffffffffffffff821682036101f757565b5f80919392936040516020810190633fabe5a360e21b825260048152612a8f60248261292a565b51915afa903d15612b2c573d9167ffffffffffffffff8311610a865760405192612ac3601f8201601f19166020018561292a565b83523d5f602085013e5b158015612b21575b612b1a5760a0828051810103126101f757612af260208301612a51565b50612b0460a060408401519301612a51565b505f821315612b1a5715612b16571190565b1090565b5050505f90565b5060a0825110612ad5565b606091612acd56fef05b5cfff5f684799218b8134d5d0c1cbeb310e8fc7d26e0ef92e2c792b02ec69b779b17422d0df92223018b32b4d1fa46e071723d6817e2486d003becc55f00a264697066735822122076dc98c8e2729ea2cf55c8a2435cad62885c8095ca3a1a74c5f81eb7b553c4ff64736f6c634300081c0033","opcodes":"PUSH1 0x80 DUP1 PUSH1 0x40 MSTORE CALLVALUE PUSH1 0x99 JUMPI CALLER ISZERO PUSH1 0x86 JUMPI PUSH0 DUP1 SLOAD CALLER PUSH1 0x1 PUSH1 0x1 PUSH1 0xA0 SHL SUB NOT DUP3 AND DUP2 OR DUP4 SSTORE SWAP2 PUSH1 0x1 PUSH1 0x1 PUSH1 0xA0 SHL SUB SWAP1 SWAP2 AND SWAP1 PUSH32 0x8BE0079C531659141344CD1FD0A4F28419497F9722A3DAAFE3B4186F6B6457E0 SWAP1 DUP1 LOG3 PUSH1 0x1 PUSH32 0x9B779B17422D0DF92223018B32B4D1FA46E071723D6817E2486D003BECC55F00 SSTORE PUSH1 0x1 DUP1 SSTORE PUSH2 0x2BAA SWAP1 DUP2 PUSH2 0x9E DUP3 CODECOPY RETURN JUMPDEST PUSH4 0x1E4FBDF7 PUSH1 0xE0 SHL PUSH0 MSTORE PUSH0 PUSH1 0x4 MSTORE PUSH1 0x24 PUSH0 REVERT JUMPDEST PUSH0 DUP1 REVERT INVALID PUSH2 0x1A0 DUP1 PUSH1 0x40 MSTORE PUSH1 0x4 CALLDATASIZE LT ISZERO PUSH2 0x13 JUMPI PUSH0 DUP1 REVERT JUMPDEST PUSH0 CALLDATALOAD PUSH1 0xE0 SHR SWAP1 DUP2 PUSH4 0x61FD021 EQ PUSH2 0x2247 JUMPI POP DUP1 PUSH4 0xCC1A407 EQ PUSH2 0x2178 JUMPI DUP1 PUSH4 0x12AC1763 EQ PUSH2 0x215B JUMPI DUP1 PUSH4 0x15373E3D EQ PUSH2 0x1ECD JUMPI DUP1 PUSH4 0x1A9BA00D EQ PUSH2 0x1E84 JUMPI DUP1 PUSH4 0x3E8EB5A4 EQ PUSH2 0x1D04 JUMPI DUP1 PUSH4 0x568497BB EQ PUSH2 0x1B23 JUMPI DUP1 PUSH4 0x57AA6F49 EQ PUSH2 0x19C5 JUMPI DUP1 PUSH4 0x63EE0F52 EQ PUSH2 0x1805 JUMPI DUP1 PUSH4 0x715018A6 EQ PUSH2 0x17AE JUMPI DUP1 PUSH4 0x74D4E491 EQ PUSH2 0x1785 JUMPI DUP1 PUSH4 0x78640668 EQ PUSH2 0x1737 JUMPI DUP1 PUSH4 0x7AFDCB09 EQ PUSH2 0x160A JUMPI DUP1 PUSH4 0x81607893 EQ PUSH2 0x15E2 JUMPI DUP1 PUSH4 0x81FF793F EQ PUSH2 0x134C JUMPI DUP1 PUSH4 0x82AA0A1F EQ PUSH2 0x121E JUMPI DUP1 PUSH4 0x8C64EA4A EQ PUSH2 0x100B JUMPI DUP1 PUSH4 0x8DA5CB5B EQ PUSH2 0xFE4 JUMPI DUP1 PUSH4 0x9403B634 EQ PUSH2 0xC6F JUMPI DUP1 PUSH4 0x9C841FEF EQ PUSH2 0xC17 JUMPI DUP1 PUSH4 0xBC161F87 EQ PUSH2 0xBCE JUMPI DUP1 PUSH4 0xD1BED386 EQ PUSH2 0xB9F JUMPI DUP1 PUSH4 0xDE22F0C2 EQ PUSH2 0x8D0 JUMPI DUP1 PUSH4 0xDE244BE7 EQ PUSH2 0x6D3 JUMPI DUP1 PUSH4 0xDFC17308 EQ PUSH2 0x68B JUMPI DUP1 PUSH4 0xE5009CC3 EQ PUSH2 0x61E JUMPI DUP1 PUSH4 0xE7F3C69C EQ PUSH2 0x56A JUMPI DUP1 PUSH4 0xE95A644F EQ PUSH2 0x435 JUMPI DUP1 PUSH4 0xEBFE7A1D EQ PUSH2 0x3B8 JUMPI DUP1 PUSH4 0xED653164 EQ PUSH2 0x1FB JUMPI PUSH4 0xF2FDE38B EQ PUSH2 0x172 JUMPI PUSH0 DUP1 REVERT JUMPDEST CALLVALUE PUSH2 0x1F7 JUMPI PUSH1 0x20 CALLDATASIZE PUSH1 0x3 NOT ADD SLT PUSH2 0x1F7 JUMPI PUSH2 0x18B PUSH2 0x2437 JUMP JUMPDEST PUSH2 0x193 PUSH2 0x2A2B JUMP JUMPDEST PUSH1 0x1 PUSH1 0x1 PUSH1 0xA0 SHL SUB AND DUP1 ISZERO PUSH2 0x1E4 JUMPI PUSH0 DUP1 SLOAD PUSH1 0x1 PUSH1 0x1 PUSH1 0xA0 SHL SUB NOT DUP2 AND DUP4 OR DUP3 SSTORE PUSH1 0x1 PUSH1 0x1 PUSH1 0xA0 SHL SUB AND SWAP1 PUSH32 0x8BE0079C531659141344CD1FD0A4F28419497F9722A3DAAFE3B4186F6B6457E0 SWAP1 DUP1 LOG3 STOP JUMPDEST PUSH4 0x1E4FBDF7 PUSH1 0xE0 SHL PUSH0 MSTORE PUSH0 PUSH1 0x4 MSTORE PUSH1 0x24 PUSH0 REVERT JUMPDEST PUSH0 DUP1 REVERT JUMPDEST CALLVALUE PUSH2 0x1F7 JUMPI PUSH1 0x20 CALLDATASIZE PUSH1 0x3 NOT ADD SLT PUSH2 0x1F7 JUMPI PUSH1 0x4 CALLDATALOAD PUSH2 0x217 PUSH2 0x29F3 JUMP JUMPDEST DUP1 PUSH0 MSTORE PUSH1 0x2 PUSH1 0x20 MSTORE PUSH2 0x235 PUSH1 0xFF PUSH1 0x14 PUSH1 0x40 PUSH0 KECCAK256 ADD SLOAD PUSH1 0xA0 SHR AND PUSH2 0x263A JUMP JUMPDEST DUP1 PUSH0 MSTORE PUSH1 0x2 PUSH1 0x20 MSTORE PUSH1 0xFF PUSH1 0x3 PUSH1 0x40 PUSH0 KECCAK256 ADD SLOAD PUSH1 0x8 SHR AND PUSH1 0x4 DUP2 LT ISZERO PUSH2 0x3A4 JUMPI PUSH2 0x25E SWAP1 ISZERO PUSH2 0x26BD JUMP JUMPDEST DUP1 PUSH0 MSTORE PUSH1 0x2 PUSH1 0x20 MSTORE PUSH1 0x40 PUSH0 KECCAK256 PUSH1 0x3 DUP2 ADD PUSH1 0xFF DUP2 SLOAD AND PUSH1 0x6 DUP2 LT ISZERO PUSH2 0x3A4 JUMPI PUSH1 0x5 SUB PUSH2 0x369 JUMPI PUSH1 0x14 DUP3 ADD SLOAD PUSH1 0x1 PUSH1 0x1 PUSH1 0xA0 SHL SUB AND CALLER SUB PUSH2 0x324 JUMPI PUSH2 0x100 PUSH2 0xFF00 NOT DUP3 SLOAD AND OR SWAP1 SSTORE TIMESTAMP PUSH1 0x5 DUP3 ADD SSTORE PUSH1 0xA PUSH1 0x1 DUP1 PUSH1 0xA0 SHL SUB SWAP2 ADD SLOAD AND PUSH1 0x40 MLOAD TIMESTAMP DUP2 MSTORE DUP3 PUSH32 0x23D38AEADADB5B25E6436C7B0D6FCDC7D408B609D4F1CE095CFF6BBBF9ACC41E PUSH1 0x20 CALLER SWAP4 LOG4 PUSH1 0x40 MLOAD SWAP1 TIMESTAMP DUP3 MSTORE PUSH32 0xC8EE545E5B582CEF6B0AB3AB5A84DC33BD22CC3AE4FC4B86D4004F1DDF88B748 PUSH1 0x20 CALLER SWAP4 LOG3 PUSH1 0x1 PUSH0 MLOAD PUSH1 0x20 PUSH2 0x2B55 PUSH0 CODECOPY PUSH0 MLOAD SWAP1 PUSH0 MSTORE SSTORE STOP JUMPDEST PUSH1 0x40 MLOAD PUSH3 0x461BCD PUSH1 0xE5 SHL DUP2 MSTORE PUSH1 0x20 PUSH1 0x4 DUP3 ADD MSTORE PUSH1 0x1B PUSH1 0x24 DUP3 ADD MSTORE PUSH32 0x4F6E6C792061726269747261746F722063616E2072656C656173650000000000 PUSH1 0x44 DUP3 ADD MSTORE PUSH1 0x64 SWAP1 REVERT JUMPDEST PUSH1 0x40 MLOAD PUSH3 0x461BCD PUSH1 0xE5 SHL DUP2 MSTORE PUSH1 0x20 PUSH1 0x4 DUP3 ADD MSTORE PUSH1 0x13 PUSH1 0x24 DUP3 ADD MSTORE PUSH19 0x139BDD08185B88195CD8DC9BDDC81D985D5B1D PUSH1 0x6A SHL PUSH1 0x44 DUP3 ADD MSTORE PUSH1 0x64 SWAP1 REVERT JUMPDEST PUSH4 0x4E487B71 PUSH1 0xE0 SHL PUSH0 MSTORE PUSH1 0x21 PUSH1 0x4 MSTORE PUSH1 0x24 PUSH0 REVERT JUMPDEST CALLVALUE PUSH2 0x1F7 JUMPI PUSH1 0x20 CALLDATASIZE PUSH1 0x3 NOT ADD SLT PUSH2 0x1F7 JUMPI PUSH1 0x4 CALLDATALOAD PUSH0 MSTORE PUSH1 0x6 PUSH1 0x20 MSTORE PUSH1 0x40 PUSH0 KECCAK256 PUSH1 0x40 MLOAD SWAP1 DUP2 PUSH1 0x20 DUP3 SLOAD SWAP2 DUP3 DUP2 MSTORE ADD SWAP2 PUSH0 MSTORE PUSH1 0x20 PUSH0 KECCAK256 SWAP1 PUSH0 JUMPDEST DUP2 DUP2 LT PUSH2 0x416 JUMPI PUSH2 0x412 DUP6 PUSH2 0x406 DUP2 DUP8 SUB DUP3 PUSH2 0x292A JUMP JUMPDEST PUSH1 0x40 MLOAD SWAP2 DUP3 SWAP2 DUP3 PUSH2 0x24E4 JUMP JUMPDEST SUB SWAP1 RETURN JUMPDEST DUP3 SLOAD PUSH1 0x1 PUSH1 0x1 PUSH1 0xA0 SHL SUB AND DUP5 MSTORE PUSH1 0x20 SWAP1 SWAP4 ADD SWAP3 PUSH1 0x1 SWAP3 DUP4 ADD SWAP3 ADD PUSH2 0x3EF JUMP JUMPDEST CALLVALUE PUSH2 0x1F7 JUMPI PUSH1 0x20 CALLDATASIZE PUSH1 0x3 NOT ADD SLT PUSH2 0x1F7 JUMPI PUSH1 0x4 CALLDATALOAD DUP1 PUSH0 MSTORE PUSH1 0x2 PUSH1 0x20 MSTORE PUSH2 0x467 PUSH1 0xFF PUSH1 0x14 PUSH1 0x40 PUSH0 KECCAK256 ADD SLOAD PUSH1 0xA0 SHR AND PUSH2 0x263A JUMP JUMPDEST DUP1 PUSH0 MSTORE PUSH1 0x2 PUSH1 0x20 MSTORE PUSH2 0x489 PUSH1 0x1 DUP1 PUSH1 0xA0 SHL SUB PUSH1 0x1 PUSH1 0x40 PUSH0 KECCAK256 ADD SLOAD AND CALLER EQ PUSH2 0x267D JUMP JUMPDEST DUP1 PUSH0 MSTORE PUSH1 0x2 PUSH1 0x20 MSTORE PUSH1 0xFF PUSH1 0x3 PUSH1 0x40 PUSH0 KECCAK256 ADD SLOAD PUSH1 0x8 SHR AND PUSH1 0x4 DUP2 LT ISZERO PUSH2 0x3A4 JUMPI PUSH2 0x4B2 SWAP1 ISZERO PUSH2 0x26BD JUMP JUMPDEST DUP1 PUSH0 MSTORE PUSH1 0x2 PUSH1 0x20 MSTORE PUSH1 0x40 PUSH0 KECCAK256 PUSH1 0xFF PUSH1 0x3 DUP3 ADD SLOAD AND PUSH1 0x6 DUP2 LT ISZERO PUSH2 0x3A4 JUMPI PUSH1 0x1 SUB PUSH2 0x525 JUMPI PUSH1 0x7 PUSH2 0x4F0 SWAP2 TIMESTAMP PUSH1 0x8 DUP3 ADD SSTORE TIMESTAMP PUSH1 0x5 DUP3 ADD SSTORE ADD SLOAD TIMESTAMP PUSH2 0x26FC JUMP JUMPDEST SWAP1 PUSH1 0x40 MLOAD SWAP2 TIMESTAMP DUP4 MSTORE PUSH1 0x20 DUP4 ADD MSTORE PUSH32 0x58B5FF600C8F70EE1F1B0B8580A69C78BA78F51913156CA1D798FC4322C386D9 PUSH1 0x40 CALLER SWAP4 LOG3 STOP JUMPDEST PUSH1 0x40 MLOAD PUSH3 0x461BCD PUSH1 0xE5 SHL DUP2 MSTORE PUSH1 0x20 PUSH1 0x4 DUP3 ADD MSTORE PUSH1 0x1D PUSH1 0x24 DUP3 ADD MSTORE PUSH32 0x4E6F7420612064656164206D616E277320737769746368207661756C74000000 PUSH1 0x44 DUP3 ADD MSTORE PUSH1 0x64 SWAP1 REVERT JUMPDEST CALLVALUE PUSH2 0x1F7 JUMPI PUSH1 0x20 CALLDATASIZE PUSH1 0x3 NOT ADD SLT PUSH2 0x1F7 JUMPI PUSH1 0x1 PUSH1 0x1 PUSH1 0xA0 SHL SUB PUSH2 0x58B PUSH2 0x2437 JUMP JUMPDEST AND PUSH0 MSTORE PUSH1 0x7 PUSH1 0x20 MSTORE PUSH1 0x40 PUSH0 KECCAK256 PUSH1 0x40 MLOAD DUP1 PUSH1 0x20 DUP4 SLOAD SWAP2 DUP3 DUP2 MSTORE ADD SWAP1 DUP2 SWAP4 PUSH0 MSTORE PUSH1 0x20 PUSH0 KECCAK256 SWAP1 PUSH0 JUMPDEST DUP2 DUP2 LT PUSH2 0x608 JUMPI POP POP POP DUP2 PUSH2 0x5C6 SWAP2 SUB DUP3 PUSH2 0x292A JUMP JUMPDEST PUSH1 0x40 MLOAD SWAP2 DUP3 SWAP2 PUSH1 0x20 DUP4 ADD SWAP1 PUSH1 0x20 DUP5 MSTORE MLOAD DUP1 SWAP2 MSTORE PUSH1 0x40 DUP4 ADD SWAP2 SWAP1 PUSH0 JUMPDEST DUP2 DUP2 LT PUSH2 0x5EF JUMPI POP POP POP SUB SWAP1 RETURN JUMPDEST DUP3 MLOAD DUP5 MSTORE DUP6 SWAP5 POP PUSH1 0x20 SWAP4 DUP5 ADD SWAP4 SWAP1 SWAP3 ADD SWAP2 PUSH1 0x1 ADD PUSH2 0x5E1 JUMP JUMPDEST DUP3 SLOAD DUP5 MSTORE PUSH1 0x20 SWAP1 SWAP4 ADD SWAP3 PUSH1 0x1 SWAP3 DUP4 ADD SWAP3 ADD PUSH2 0x5B0 JUMP JUMPDEST CALLVALUE PUSH2 0x1F7 JUMPI PUSH1 0x20 CALLDATASIZE PUSH1 0x3 NOT ADD SLT PUSH2 0x1F7 JUMPI PUSH1 0x4 CALLDATALOAD PUSH0 MSTORE PUSH1 0x4 PUSH1 0x20 MSTORE PUSH1 0x40 PUSH0 KECCAK256 PUSH1 0x40 MLOAD SWAP1 DUP2 PUSH1 0x20 DUP3 SLOAD SWAP2 DUP3 DUP2 MSTORE ADD SWAP2 PUSH0 MSTORE PUSH1 0x20 PUSH0 KECCAK256 SWAP1 PUSH0 JUMPDEST DUP2 DUP2 LT PUSH2 0x66C JUMPI PUSH2 0x412 DUP6 PUSH2 0x406 DUP2 DUP8 SUB DUP3 PUSH2 0x292A JUMP JUMPDEST DUP3 SLOAD PUSH1 0x1 PUSH1 0x1 PUSH1 0xA0 SHL SUB AND DUP5 MSTORE PUSH1 0x20 SWAP1 SWAP4 ADD SWAP3 PUSH1 0x1 SWAP3 DUP4 ADD SWAP3 ADD PUSH2 0x655 JUMP JUMPDEST CALLVALUE PUSH2 0x1F7 JUMPI PUSH2 0x699 CALLDATASIZE PUSH2 0x24CE JUMP JUMPDEST SWAP1 PUSH0 MSTORE PUSH1 0x4 PUSH1 0x20 MSTORE PUSH1 0x40 PUSH0 KECCAK256 DUP1 SLOAD DUP3 LT ISZERO PUSH2 0x1F7 JUMPI PUSH1 0x20 SWAP2 PUSH2 0x6BA SWAP2 PUSH2 0x24A5 JUMP JUMPDEST SWAP1 SLOAD PUSH1 0x40 MLOAD PUSH1 0x3 SWAP3 SWAP1 SWAP3 SHL SHR PUSH1 0x1 PUSH1 0x1 PUSH1 0xA0 SHL SUB AND DUP2 MSTORE RETURN JUMPDEST CALLVALUE PUSH2 0x1F7 JUMPI PUSH1 0x60 CALLDATASIZE PUSH1 0x3 NOT ADD SLT PUSH2 0x1F7 JUMPI PUSH1 0x4 CALLDATALOAD PUSH2 0x6EF PUSH2 0x2421 JUMP JUMPDEST PUSH1 0x44 CALLDATALOAD PUSH1 0x1 PUSH1 0x1 PUSH1 0xA0 SHL SUB DUP2 AND SWAP2 SWAP1 DUP3 SWAP1 SUB PUSH2 0x1F7 JUMPI PUSH1 0x1 PUSH1 0x1 PUSH1 0xA0 SHL SUB AND SWAP1 PUSH2 0x71A DUP3 ISZERO ISZERO PUSH2 0x2526 JUMP JUMPDEST DUP1 ISZERO PUSH2 0x896 JUMPI CALLER DUP2 EQ PUSH2 0x851 JUMPI DUP1 DUP3 EQ PUSH2 0x80D JUMPI PUSH1 0x14 DUP4 PUSH2 0x73E PUSH1 0x20 SWAP6 ISZERO ISZERO PUSH2 0x25B4 JUMP JUMPDEST PUSH1 0x1 SLOAD SWAP4 PUSH2 0x74B DUP6 PUSH2 0x25F8 JUMP JUMPDEST PUSH1 0x1 SWAP1 DUP2 SSTORE PUSH0 DUP7 DUP2 MSTORE PUSH1 0x2 DUP1 DUP10 MSTORE PUSH1 0x40 DUP1 DUP4 KECCAK256 DUP10 DUP2 SSTORE SWAP4 DUP5 ADD DUP1 SLOAD PUSH1 0x1 PUSH1 0x1 PUSH1 0xA0 SHL SUB NOT SWAP1 DUP2 AND CALLER SWAP1 DUP2 OR SWAP1 SWAP3 SSTORE SWAP3 DUP6 ADD SWAP7 SWAP1 SWAP7 SSTORE PUSH1 0x3 DUP5 ADD DUP1 SLOAD PUSH2 0xFFFF NOT AND PUSH1 0x5 SWAP1 DUP2 OR SWAP1 SWAP2 SSTORE TIMESTAMP PUSH1 0x4 DUP7 ADD DUP2 SWAP1 SSTORE SWAP1 DUP6 ADD SSTORE PUSH1 0xA DUP5 ADD DUP1 SLOAD SWAP1 SWAP3 AND SWAP1 SWAP5 OR SWAP1 SSTORE SWAP4 ADD DUP1 SLOAD PUSH1 0xFF PUSH1 0xA0 SHL NOT SWAP1 SWAP6 AND PUSH1 0x1 PUSH1 0x1 PUSH1 0xA8 SHL SUB NOT SWAP1 SWAP6 AND SWAP5 SWAP1 SWAP5 OR PUSH1 0x1 PUSH1 0xA0 SHL OR SWAP1 SWAP4 SSTORE DUP2 MSTORE PUSH1 0x7 DUP5 MSTORE KECCAK256 PUSH2 0x7E5 SWAP1 DUP3 SWAP1 PUSH2 0x2606 JUMP JUMPDEST PUSH1 0x40 MLOAD PUSH1 0x5 DUP2 MSTORE TIMESTAMP DUP4 DUP3 ADD MSTORE DUP2 PUSH0 MLOAD PUSH1 0x20 PUSH2 0x2B35 PUSH0 CODECOPY PUSH0 MLOAD SWAP1 PUSH0 MSTORE PUSH1 0x40 CALLER SWAP4 LOG3 PUSH1 0x40 MLOAD SWAP1 DUP2 MSTORE RETURN JUMPDEST PUSH1 0x64 PUSH1 0x40 MLOAD PUSH3 0x461BCD PUSH1 0xE5 SHL DUP2 MSTORE PUSH1 0x20 PUSH1 0x4 DUP3 ADD MSTORE PUSH1 0x20 PUSH1 0x24 DUP3 ADD MSTORE PUSH32 0x42656E65666963696172792063616E6E6F742062652061726269747261746F72 PUSH1 0x44 DUP3 ADD MSTORE REVERT JUMPDEST PUSH1 0x40 MLOAD PUSH3 0x461BCD PUSH1 0xE5 SHL DUP2 MSTORE PUSH1 0x20 PUSH1 0x4 DUP3 ADD MSTORE PUSH1 0x1C PUSH1 0x24 DUP3 ADD MSTORE PUSH32 0x41726269747261746F722063616E6E6F742062652063726561746F7200000000 PUSH1 0x44 DUP3 ADD MSTORE PUSH1 0x64 SWAP1 REVERT JUMPDEST PUSH1 0x40 MLOAD PUSH3 0x461BCD PUSH1 0xE5 SHL DUP2 MSTORE PUSH1 0x20 PUSH1 0x4 DUP3 ADD MSTORE PUSH1 0x12 PUSH1 0x24 DUP3 ADD MSTORE PUSH18 0x24B73B30B634B21030B93134BA3930BA37B9 PUSH1 0x71 SHL PUSH1 0x44 DUP3 ADD MSTORE PUSH1 0x64 SWAP1 REVERT JUMPDEST CALLVALUE PUSH2 0x1F7 JUMPI PUSH1 0x60 CALLDATASIZE PUSH1 0x3 NOT ADD SLT PUSH2 0x1F7 JUMPI PUSH1 0x4 CALLDATALOAD PUSH1 0x24 CALLDATALOAD PUSH8 0xFFFFFFFFFFFFFFFF DUP2 GT PUSH2 0x1F7 JUMPI PUSH2 0x904 SWAP1 CALLDATASIZE SWAP1 PUSH1 0x4 ADD PUSH2 0x245A JUMP JUMPDEST PUSH1 0x44 SWAP3 SWAP2 SWAP3 CALLDATALOAD SWAP2 PUSH1 0x2 DUP3 LT PUSH2 0xB5A JUMPI PUSH1 0xA DUP3 GT PUSH2 0xB24 JUMPI PUSH1 0x1 DUP4 LT PUSH2 0xADF JUMPI DUP2 DUP4 GT PUSH2 0xA9A JUMPI DUP1 PUSH2 0x938 PUSH1 0x14 SWAP3 ISZERO ISZERO PUSH2 0x25B4 JUMP JUMPDEST PUSH1 0x1 SLOAD SWAP4 PUSH2 0x945 DUP6 PUSH2 0x25F8 JUMP JUMPDEST PUSH1 0x1 SWAP1 DUP2 SSTORE PUSH0 DUP7 DUP2 MSTORE PUSH1 0x2 PUSH1 0x20 DUP2 DUP2 MSTORE PUSH1 0x40 DUP1 DUP5 KECCAK256 DUP11 DUP2 SSTORE SWAP5 DUP6 ADD DUP1 SLOAD PUSH1 0x1 PUSH1 0x1 PUSH1 0xA0 SHL SUB NOT AND CALLER OR SWAP1 SSTORE DUP5 DUP4 ADD SWAP7 SWAP1 SWAP7 SSTORE PUSH1 0x3 DUP5 ADD DUP1 SLOAD PUSH2 0xFFFF NOT AND SWAP1 SWAP3 OR SWAP1 SWAP2 SSTORE TIMESTAMP PUSH1 0x4 DUP1 DUP6 ADD DUP3 SWAP1 SSTORE PUSH1 0x5 DUP6 ADD SWAP2 SWAP1 SWAP2 SSTORE PUSH1 0xB DUP5 ADD SWAP5 SWAP1 SWAP5 SSTORE PUSH1 0xC DUP4 ADD DUP3 SWAP1 SSTORE SWAP5 SWAP1 SWAP2 ADD DUP1 SLOAD PUSH1 0xFF PUSH1 0xA0 SHL NOT AND PUSH1 0x1 PUSH1 0xA0 SHL OR SWAP1 SSTORE SWAP3 MSTORE SWAP1 KECCAK256 SWAP3 PUSH8 0xFFFFFFFFFFFFFFFF DUP3 GT PUSH2 0xA86 JUMPI PUSH1 0x1 PUSH1 0x40 SHL DUP3 GT PUSH2 0xA86 JUMPI DUP4 SLOAD DUP3 DUP6 SSTORE DUP1 DUP4 LT PUSH2 0xA60 JUMPI JUMPDEST POP SWAP3 PUSH0 MSTORE PUSH1 0x20 PUSH0 KECCAK256 SWAP3 PUSH0 SWAP1 JUMPDEST DUP3 DUP3 LT PUSH2 0xA3B JUMPI PUSH1 0x20 DUP5 CALLER PUSH0 MSTORE PUSH1 0x7 DUP3 MSTORE PUSH2 0xA13 DUP2 PUSH1 0x40 PUSH0 KECCAK256 PUSH2 0x2606 JUMP JUMPDEST PUSH1 0x40 MLOAD PUSH1 0x2 DUP2 MSTORE TIMESTAMP DUP4 DUP3 ADD MSTORE DUP2 PUSH0 MLOAD PUSH1 0x20 PUSH2 0x2B35 PUSH0 CODECOPY PUSH0 MLOAD SWAP1 PUSH0 MSTORE PUSH1 0x40 CALLER SWAP4 LOG3 PUSH1 0x40 MLOAD SWAP1 DUP2 MSTORE RETURN JUMPDEST DUP1 CALLDATALOAD SWAP2 PUSH1 0x1 PUSH1 0x1 PUSH1 0xA0 SHL SUB DUP4 AND DUP4 SUB PUSH2 0x1F7 JUMPI PUSH1 0x20 PUSH1 0x1 SWAP3 ADD SWAP3 DUP2 DUP8 ADD SSTORE ADD SWAP1 PUSH2 0x9F5 JUMP JUMPDEST DUP5 PUSH0 MSTORE DUP3 PUSH1 0x20 PUSH0 KECCAK256 SWAP2 DUP3 ADD SWAP2 ADD JUMPDEST DUP2 DUP2 LT PUSH2 0xA7B JUMPI POP PUSH2 0x9E9 JUMP JUMPDEST PUSH0 DUP2 SSTORE PUSH1 0x1 ADD PUSH2 0xA6E JUMP JUMPDEST PUSH4 0x4E487B71 PUSH1 0xE0 SHL PUSH0 MSTORE PUSH1 0x41 PUSH1 0x4 MSTORE PUSH1 0x24 PUSH0 REVERT JUMPDEST PUSH1 0x40 MLOAD PUSH3 0x461BCD PUSH1 0xE5 SHL DUP2 MSTORE PUSH1 0x20 PUSH1 0x4 DUP3 ADD MSTORE PUSH1 0x18 PUSH1 0x24 DUP3 ADD MSTORE PUSH32 0x5265717569726564203E20746F74616C207369676E6572730000000000000000 PUSH1 0x44 DUP3 ADD MSTORE PUSH1 0x64 SWAP1 REVERT JUMPDEST PUSH1 0x40 MLOAD PUSH3 0x461BCD PUSH1 0xE5 SHL DUP2 MSTORE PUSH1 0x20 PUSH1 0x4 DUP3 ADD MSTORE PUSH1 0x18 PUSH1 0x24 DUP3 ADD MSTORE PUSH32 0x4E656564206174206C65617374203120617070726F76616C0000000000000000 PUSH1 0x44 DUP3 ADD MSTORE PUSH1 0x64 SWAP1 REVERT JUMPDEST PUSH1 0x40 MLOAD PUSH3 0x461BCD PUSH1 0xE5 SHL DUP2 MSTORE PUSH1 0x20 PUSH1 0x4 DUP3 ADD MSTORE PUSH1 0xE PUSH1 0x24 DUP3 ADD MSTORE PUSH14 0x4D6178203130207369676E657273 PUSH1 0x90 SHL PUSH1 0x44 DUP3 ADD MSTORE PUSH1 0x64 SWAP1 REVERT JUMPDEST PUSH1 0x40 MLOAD PUSH3 0x461BCD PUSH1 0xE5 SHL DUP2 MSTORE PUSH1 0x20 PUSH1 0x4 DUP3 ADD MSTORE PUSH1 0x17 PUSH1 0x24 DUP3 ADD MSTORE PUSH32 0x4E656564206174206C656173742032207369676E657273000000000000000000 PUSH1 0x44 DUP3 ADD MSTORE PUSH1 0x64 SWAP1 REVERT JUMPDEST CALLVALUE PUSH2 0x1F7 JUMPI PUSH2 0xBAD CALLDATASIZE PUSH2 0x24CE JUMP JUMPDEST SWAP1 PUSH0 MSTORE PUSH1 0x6 PUSH1 0x20 MSTORE PUSH1 0x40 PUSH0 KECCAK256 DUP1 SLOAD DUP3 LT ISZERO PUSH2 0x1F7 JUMPI PUSH1 0x20 SWAP2 PUSH2 0x6BA SWAP2 PUSH2 0x24A5 JUMP JUMPDEST CALLVALUE PUSH2 0x1F7 JUMPI PUSH1 0x40 CALLDATASIZE PUSH1 0x3 NOT ADD SLT PUSH2 0x1F7 JUMPI PUSH2 0xBE7 PUSH2 0x2421 JUMP JUMPDEST PUSH1 0x4 CALLDATALOAD PUSH0 MSTORE PUSH1 0x3 PUSH1 0x20 MSTORE PUSH1 0x40 PUSH0 KECCAK256 SWAP1 PUSH1 0x1 DUP1 PUSH1 0xA0 SHL SUB AND PUSH0 MSTORE PUSH1 0x20 MSTORE PUSH1 0x20 PUSH1 0xFF PUSH1 0x40 PUSH0 KECCAK256 SLOAD AND PUSH1 0x40 MLOAD SWAP1 ISZERO ISZERO DUP2 MSTORE RETURN JUMPDEST CALLVALUE PUSH2 0x1F7 JUMPI PUSH1 0x40 CALLDATASIZE PUSH1 0x3 NOT ADD SLT PUSH2 0x1F7 JUMPI PUSH2 0xC30 PUSH2 0x2437 JUMP JUMPDEST PUSH1 0x1 PUSH1 0x1 PUSH1 0xA0 SHL SUB AND PUSH0 SWAP1 DUP2 MSTORE PUSH1 0x7 PUSH1 0x20 MSTORE PUSH1 0x40 SWAP1 KECCAK256 DUP1 SLOAD PUSH1 0x24 CALLDATALOAD SWAP2 SWAP1 DUP3 LT ISZERO PUSH2 0x1F7 JUMPI PUSH1 0x20 SWAP2 PUSH2 0xC60 SWAP2 PUSH2 0x24A5 JUMP JUMPDEST SWAP1 SLOAD SWAP1 PUSH1 0x3 SHL SHR PUSH1 0x40 MLOAD SWAP1 DUP2 MSTORE RETURN JUMPDEST CALLVALUE PUSH2 0x1F7 JUMPI PUSH1 0x20 CALLDATASIZE PUSH1 0x3 NOT ADD SLT PUSH2 0x1F7 JUMPI PUSH1 0x4 CALLDATALOAD PUSH0 PUSH2 0x2E0 PUSH1 0x40 MLOAD PUSH2 0xC93 DUP2 PUSH2 0x290D JUMP JUMPDEST DUP3 DUP2 MSTORE DUP3 PUSH1 0x20 DUP3 ADD MSTORE DUP3 PUSH1 0x40 DUP3 ADD MSTORE DUP3 PUSH1 0x60 DUP3 ADD MSTORE DUP3 PUSH1 0x80 DUP3 ADD MSTORE DUP3 PUSH1 0xA0 DUP3 ADD MSTORE DUP3 PUSH1 0xC0 DUP3 ADD MSTORE DUP3 PUSH1 0xE0 DUP3 ADD MSTORE DUP3 PUSH2 0x100 DUP3 ADD MSTORE DUP3 PUSH2 0x120 DUP3 ADD MSTORE DUP3 PUSH2 0x140 DUP3 ADD MSTORE DUP3 PUSH2 0x160 DUP3 ADD MSTORE DUP3 PUSH2 0x180 DUP3 ADD MSTORE DUP3 PUSH2 0x1A0 DUP3 ADD MSTORE DUP3 PUSH2 0x1C0 DUP3 ADD MSTORE DUP3 PUSH2 0x1E0 DUP3 ADD MSTORE DUP3 PUSH2 0x200 DUP3 ADD MSTORE DUP3 PUSH2 0x220 DUP3 ADD MSTORE DUP3 PUSH2 0x240 DUP3 ADD MSTORE DUP3 PUSH2 0x260 DUP3 ADD MSTORE DUP3 PUSH2 0x280 DUP3 ADD MSTORE DUP3 PUSH2 0x2A0 DUP3 ADD MSTORE DUP3 PUSH2 0x2C0 DUP3 ADD MSTORE ADD MSTORE DUP1 PUSH0 MSTORE PUSH1 0x2 PUSH1 0x20 MSTORE PUSH2 0xD49 PUSH1 0xFF PUSH1 0x14 PUSH1 0x40 PUSH0 KECCAK256 ADD SLOAD PUSH1 0xA0 SHR AND PUSH2 0x263A JUMP JUMPDEST PUSH0 MSTORE PUSH1 0x2 PUSH1 0x20 MSTORE PUSH1 0x40 PUSH0 KECCAK256 PUSH1 0x40 MLOAD PUSH2 0xD60 DUP2 PUSH2 0x290D JUMP JUMPDEST DUP2 SLOAD DUP2 MSTORE PUSH1 0x1 DUP3 ADD SLOAD PUSH1 0x1 PUSH1 0x1 PUSH1 0xA0 SHL SUB AND PUSH1 0x20 DUP3 ADD MSTORE PUSH1 0x2 DUP3 ADD SLOAD PUSH1 0x40 DUP3 ADD MSTORE PUSH1 0x3 DUP3 ADD SLOAD PUSH1 0xFF DUP2 AND SWAP1 PUSH1 0x6 DUP3 LT ISZERO PUSH2 0x3A4 JUMPI PUSH1 0xFF SWAP2 PUSH1 0x60 DUP5 ADD MSTORE PUSH1 0x8 SHR AND SWAP2 PUSH1 0x4 DUP4 LT ISZERO PUSH2 0x3A4 JUMPI PUSH1 0x14 PUSH1 0xFF SWAP2 PUSH2 0x300 SWAP5 PUSH1 0x80 DUP6 ADD MSTORE PUSH1 0x4 DUP2 ADD SLOAD PUSH1 0xA0 DUP6 ADD MSTORE PUSH1 0x5 DUP2 ADD SLOAD PUSH1 0xC0 DUP6 ADD MSTORE PUSH1 0x6 DUP2 ADD SLOAD PUSH1 0xE0 DUP6 ADD MSTORE PUSH1 0x7 DUP2 ADD SLOAD PUSH2 0x100 DUP6 ADD MSTORE PUSH1 0x8 DUP2 ADD SLOAD PUSH2 0x120 DUP6 ADD MSTORE PUSH1 0x9 DUP2 ADD SLOAD PUSH2 0x140 DUP6 ADD MSTORE PUSH1 0x1 DUP1 PUSH1 0xA0 SHL SUB PUSH1 0xA DUP3 ADD SLOAD AND PUSH2 0x160 DUP6 ADD MSTORE PUSH1 0xB DUP2 ADD SLOAD PUSH2 0x180 DUP6 ADD MSTORE PUSH1 0xC DUP2 ADD SLOAD PUSH2 0x1A0 DUP6 ADD MSTORE PUSH1 0xD DUP2 ADD SLOAD PUSH2 0x1C0 DUP6 ADD MSTORE PUSH1 0xE DUP2 ADD SLOAD PUSH2 0x1E0 DUP6 ADD MSTORE PUSH1 0xF DUP2 ADD SLOAD PUSH2 0x200 DUP6 ADD MSTORE PUSH1 0x10 DUP2 ADD SLOAD PUSH2 0x220 DUP6 ADD MSTORE PUSH1 0x11 DUP2 ADD SLOAD PUSH2 0x240 DUP6 ADD MSTORE PUSH1 0x12 DUP2 ADD SLOAD PUSH2 0x260 DUP6 ADD MSTORE PUSH1 0x13 DUP2 ADD SLOAD DUP4 DUP2 AND ISZERO ISZERO PUSH2 0x280 DUP7 ADD MSTORE PUSH1 0x1 DUP1 PUSH1 0xA0 SHL SUB SWAP1 PUSH1 0x8 SHR AND PUSH2 0x2A0 DUP6 ADD MSTORE ADD SLOAD PUSH1 0x1 DUP1 PUSH1 0xA0 SHL SUB DUP2 AND PUSH2 0x2C0 DUP5 ADD MSTORE PUSH1 0xA0 SHR AND ISZERO ISZERO PUSH2 0x2E0 DUP3 ADD MSTORE PUSH2 0x2E0 PUSH1 0x40 MLOAD SWAP2 DUP1 MLOAD DUP4 MSTORE PUSH1 0x1 DUP1 PUSH1 0xA0 SHL SUB PUSH1 0x20 DUP3 ADD MLOAD AND PUSH1 0x20 DUP5 ADD MSTORE PUSH1 0x40 DUP2 ADD MLOAD PUSH1 0x40 DUP5 ADD MSTORE PUSH2 0xEDA PUSH1 0x60 DUP3 ADD MLOAD PUSH1 0x60 DUP6 ADD SWAP1 PUSH2 0x248B JUMP JUMPDEST PUSH2 0xEEC PUSH1 0x80 DUP3 ADD MLOAD PUSH1 0x80 DUP6 ADD SWAP1 PUSH2 0x2498 JUMP JUMPDEST PUSH1 0xA0 DUP2 ADD MLOAD PUSH1 0xA0 DUP5 ADD MSTORE PUSH1 0xC0 DUP2 ADD MLOAD PUSH1 0xC0 DUP5 ADD MSTORE PUSH1 0xE0 DUP2 ADD MLOAD PUSH1 0xE0 DUP5 ADD MSTORE PUSH2 0x100 DUP2 ADD MLOAD PUSH2 0x100 DUP5 ADD MSTORE PUSH2 0x120 DUP2 ADD MLOAD PUSH2 0x120 DUP5 ADD MSTORE PUSH2 0x140 DUP2 ADD MLOAD PUSH2 0x140 DUP5 ADD MSTORE PUSH1 0x1 DUP1 PUSH1 0xA0 SHL SUB PUSH2 0x160 DUP3 ADD MLOAD AND PUSH2 0x160 DUP5 ADD MSTORE PUSH2 0x180 DUP2 ADD MLOAD PUSH2 0x180 DUP5 ADD MSTORE PUSH2 0x1A0 DUP2 ADD MLOAD PUSH2 0x1A0 DUP5 ADD MSTORE PUSH2 0x1C0 DUP2 ADD MLOAD PUSH2 0x1C0 DUP5 ADD MSTORE PUSH2 0x1E0 DUP2 ADD MLOAD PUSH2 0x1E0 DUP5 ADD MSTORE PUSH2 0x200 DUP2 ADD MLOAD PUSH2 0x200 DUP5 ADD MSTORE PUSH2 0x220 DUP2 ADD MLOAD PUSH2 0x220 DUP5 ADD MSTORE PUSH2 0x240 DUP2 ADD MLOAD PUSH2 0x240 DUP5 ADD MSTORE PUSH2 0x260 DUP2 ADD MLOAD PUSH2 0x260 DUP5 ADD MSTORE PUSH2 0x280 DUP2 ADD MLOAD ISZERO ISZERO PUSH2 0x280 DUP5 ADD MSTORE PUSH1 0x1 DUP1 PUSH1 0xA0 SHL SUB PUSH2 0x2A0 DUP3 ADD MLOAD AND PUSH2 0x2A0 DUP5 ADD MSTORE PUSH1 0x1 DUP1 PUSH1 0xA0 SHL SUB PUSH2 0x2C0 DUP3 ADD MLOAD AND PUSH2 0x2C0 DUP5 ADD MSTORE ADD MLOAD ISZERO ISZERO PUSH2 0x2E0 DUP3 ADD MSTORE RETURN JUMPDEST CALLVALUE PUSH2 0x1F7 JUMPI PUSH0 CALLDATASIZE PUSH1 0x3 NOT ADD SLT PUSH2 0x1F7 JUMPI PUSH0 SLOAD PUSH1 0x40 MLOAD PUSH1 0x1 PUSH1 0x1 PUSH1 0xA0 SHL SUB SWAP1 SWAP2 AND DUP2 MSTORE PUSH1 0x20 SWAP1 RETURN JUMPDEST CALLVALUE PUSH2 0x1F7 JUMPI PUSH1 0x20 CALLDATASIZE PUSH1 0x3 NOT ADD SLT PUSH2 0x1F7 JUMPI PUSH1 0x4 CALLDATALOAD PUSH0 MSTORE PUSH1 0x2 PUSH1 0x20 MSTORE PUSH1 0x40 PUSH0 KECCAK256 PUSH2 0x180 MSTORE PUSH2 0x180 MLOAD SLOAD PUSH1 0x1 DUP1 PUSH1 0xA0 SHL SUB PUSH1 0x1 PUSH2 0x180 MLOAD ADD SLOAD AND PUSH2 0x100 MSTORE PUSH1 0x2 PUSH2 0x180 MLOAD ADD SLOAD PUSH2 0x140 MSTORE PUSH1 0x3 PUSH2 0x180 MLOAD ADD SLOAD PUSH1 0x4 PUSH2 0x180 MLOAD ADD SLOAD PUSH1 0x5 PUSH2 0x180 MLOAD ADD SLOAD PUSH1 0x6 PUSH2 0x180 MLOAD ADD SLOAD PUSH1 0x7 PUSH2 0x180 MLOAD ADD SLOAD PUSH1 0x8 PUSH2 0x180 MLOAD ADD SLOAD PUSH1 0x9 PUSH2 0x180 MLOAD ADD SLOAD SWAP1 PUSH1 0x1 DUP1 PUSH1 0xA0 SHL SUB PUSH1 0xA PUSH2 0x180 MLOAD ADD SLOAD AND SWAP3 PUSH1 0xB PUSH2 0x180 MLOAD ADD SLOAD SWAP5 PUSH1 0xC PUSH2 0x180 MLOAD ADD SLOAD SWAP7 PUSH1 0xD PUSH2 0x180 MLOAD ADD SLOAD SWAP9 PUSH2 0x114A PUSH1 0xE PUSH2 0x180 MLOAD ADD SLOAD SWAP12 PUSH1 0xF PUSH2 0x180 MLOAD ADD SLOAD SWAP14 PUSH1 0x10 PUSH2 0x180 MLOAD ADD SLOAD PUSH1 0x80 MSTORE PUSH1 0x11 PUSH2 0x180 MLOAD ADD SLOAD PUSH1 0xC0 MSTORE PUSH1 0x12 PUSH2 0x180 MLOAD ADD SLOAD PUSH2 0x160 MSTORE PUSH1 0x13 PUSH2 0x180 MLOAD ADD SLOAD PUSH2 0x120 MSTORE PUSH1 0x14 PUSH2 0x180 MLOAD ADD SLOAD PUSH1 0xE0 MSTORE PUSH1 0x40 MLOAD PUSH1 0xA0 MSTORE PUSH1 0xA0 MLOAD MSTORE PUSH2 0x100 MLOAD PUSH1 0x20 PUSH1 0xA0 MLOAD ADD MSTORE PUSH2 0x140 MLOAD PUSH1 0x40 PUSH1 0xA0 MLOAD ADD MSTORE PUSH2 0x1138 PUSH1 0x60 PUSH1 0xA0 MLOAD ADD PUSH1 0xFF DUP4 AND PUSH2 0x248B JUMP JUMPDEST PUSH1 0xFF PUSH1 0x80 PUSH1 0xA0 MLOAD ADD SWAP2 PUSH1 0x8 SHR AND PUSH2 0x2498 JUMP JUMPDEST PUSH1 0xA0 DUP1 MLOAD ADD MSTORE PUSH1 0xC0 PUSH1 0xA0 MLOAD ADD MSTORE PUSH1 0xE0 PUSH1 0xA0 MLOAD ADD MSTORE PUSH2 0x100 PUSH1 0xA0 MLOAD ADD MSTORE PUSH2 0x120 PUSH1 0xA0 MLOAD ADD MSTORE PUSH2 0x140 PUSH1 0xA0 MLOAD ADD MSTORE PUSH2 0x160 PUSH1 0xA0 MLOAD ADD MSTORE PUSH2 0x180 PUSH1 0xA0 MLOAD ADD MSTORE PUSH2 0x1A0 PUSH1 0xA0 MLOAD ADD MSTORE PUSH2 0x1C0 PUSH1 0xA0 MLOAD ADD MSTORE PUSH2 0x1E0 PUSH1 0xA0 MLOAD ADD MSTORE PUSH2 0x200 PUSH1 0xA0 MLOAD ADD MSTORE PUSH1 0x80 MLOAD PUSH2 0x220 PUSH1 0xA0 MLOAD ADD MSTORE PUSH1 0xC0 MLOAD PUSH2 0x240 PUSH1 0xA0 MLOAD ADD MSTORE PUSH2 0x160 MLOAD PUSH2 0x260 PUSH1 0xA0 MLOAD ADD MSTORE PUSH1 0xFF PUSH2 0x120 MLOAD AND ISZERO ISZERO PUSH2 0x280 PUSH1 0xA0 MLOAD ADD MSTORE PUSH1 0x1 DUP1 PUSH1 0xA0 SHL SUB PUSH2 0x120 MLOAD PUSH1 0x8 SHR AND PUSH2 0x2A0 PUSH1 0xA0 MLOAD ADD MSTORE PUSH1 0x1 DUP1 PUSH1 0xA0 SHL SUB PUSH1 0xE0 MLOAD AND PUSH2 0x2C0 PUSH1 0xA0 MLOAD ADD MSTORE PUSH1 0xFF PUSH1 0xE0 MLOAD PUSH1 0xA0 SHR AND ISZERO ISZERO PUSH2 0x2E0 PUSH1 0xA0 MLOAD ADD MSTORE PUSH2 0x300 PUSH1 0xA0 MLOAD RETURN JUMPDEST CALLVALUE PUSH2 0x1F7 JUMPI PUSH1 0x20 CALLDATASIZE PUSH1 0x3 NOT ADD SLT PUSH2 0x1F7 JUMPI PUSH1 0x4 CALLDATALOAD DUP1 PUSH0 MSTORE PUSH1 0x2 PUSH1 0x20 MSTORE PUSH2 0x1250 PUSH1 0xFF PUSH1 0x14 PUSH1 0x40 PUSH0 KECCAK256 ADD SLOAD PUSH1 0xA0 SHR AND PUSH2 0x263A JUMP JUMPDEST PUSH0 SWAP1 PUSH0 MSTORE PUSH1 0x2 PUSH1 0x20 MSTORE PUSH1 0x40 PUSH0 KECCAK256 SWAP1 PUSH1 0xFF PUSH1 0x3 DUP4 ADD SLOAD AND PUSH1 0x6 DUP2 LT ISZERO PUSH2 0x3A4 JUMPI PUSH1 0x3 SUB PUSH2 0x1315 JUMPI PUSH1 0xF DUP3 ADD SLOAD SWAP1 PUSH1 0x10 DUP4 ADD SLOAD PUSH1 0x11 DUP5 ADD SLOAD SWAP4 PUSH1 0xD PUSH1 0xE DUP3 ADD SLOAD SWAP2 ADD SLOAD TIMESTAMP LT ISZERO SWAP2 DUP3 DUP1 SWAP4 PUSH2 0x130C JUMPI JUMPDEST PUSH2 0x12C9 JUMPI JUMPDEST SWAP5 PUSH1 0xC0 SWAP6 PUSH1 0x40 MLOAD SWAP6 DUP7 MSTORE PUSH1 0x20 DUP7 ADD MSTORE PUSH1 0x40 DUP6 ADD MSTORE PUSH1 0x60 DUP5 ADD MSTORE PUSH1 0x80 DUP4 ADD MSTORE ISZERO ISZERO PUSH1 0xA0 DUP3 ADD MSTORE RETURN JUMPDEST SWAP3 POP PUSH2 0x2710 DUP5 MUL SWAP5 DUP5 DUP7 DIV PUSH2 0x2710 EQ DUP6 ISZERO OR ISZERO PUSH2 0x12F8 JUMPI DUP2 PUSH2 0x12ED DUP3 PUSH1 0xC0 SWAP9 PUSH2 0x27CD JUMP JUMPDEST LT ISZERO SWAP4 SWAP1 SWAP6 POP PUSH2 0x12A2 JUMP JUMPDEST PUSH4 0x4E487B71 PUSH1 0xE0 SHL PUSH0 MSTORE PUSH1 0x11 PUSH1 0x4 MSTORE PUSH1 0x24 PUSH0 REVERT JUMPDEST POP DUP6 ISZERO ISZERO PUSH2 0x129D JUMP JUMPDEST PUSH1 0x40 MLOAD PUSH3 0x461BCD PUSH1 0xE5 SHL DUP2 MSTORE PUSH1 0x20 PUSH1 0x4 DUP3 ADD MSTORE PUSH1 0xF PUSH1 0x24 DUP3 ADD MSTORE PUSH15 0x139BDD081848111053C81D985D5B1D PUSH1 0x8A SHL PUSH1 0x44 DUP3 ADD MSTORE PUSH1 0x64 SWAP1 REVERT JUMPDEST CALLVALUE PUSH2 0x1F7 JUMPI PUSH1 0x80 CALLDATASIZE PUSH1 0x3 NOT ADD SLT PUSH2 0x1F7 JUMPI PUSH1 0x4 CALLDATALOAD PUSH1 0x24 CALLDATALOAD PUSH8 0xFFFFFFFFFFFFFFFF DUP2 GT PUSH2 0x1F7 JUMPI PUSH2 0x1380 SWAP1 CALLDATASIZE SWAP1 PUSH1 0x4 ADD PUSH2 0x245A JUMP JUMPDEST PUSH1 0x44 SWAP3 SWAP2 SWAP3 CALLDATALOAD SWAP2 PUSH1 0x64 CALLDATALOAD SWAP1 PUSH1 0x1 DUP4 LT PUSH2 0x15A5 JUMPI TIMESTAMP DUP5 GT ISZERO PUSH2 0x1560 JUMPI DUP2 ISZERO ISZERO DUP1 PUSH2 0x1554 JUMPI JUMPDEST ISZERO PUSH2 0x1519 JUMPI PUSH1 0x14 SWAP2 PUSH2 0x13B7 DUP3 ISZERO ISZERO PUSH2 0x25B4 JUMP JUMPDEST PUSH1 0x1 SLOAD SWAP5 PUSH2 0x13C4 DUP7 PUSH2 0x25F8 JUMP JUMPDEST PUSH1 0x1 SWAP1 DUP2 SSTORE PUSH0 DUP8 DUP2 MSTORE PUSH1 0x2 PUSH1 0x20 DUP2 DUP2 MSTORE PUSH1 0x40 DUP1 DUP5 KECCAK256 DUP12 DUP2 SSTORE SWAP5 DUP6 ADD DUP1 SLOAD PUSH1 0x1 PUSH1 0x1 PUSH1 0xA0 SHL SUB NOT AND CALLER OR SWAP1 SSTORE SWAP2 DUP5 ADD SWAP7 SWAP1 SWAP7 SSTORE PUSH1 0x3 DUP1 DUP5 ADD DUP1 SLOAD PUSH2 0xFFFF NOT AND SWAP1 SWAP2 OR SWAP1 SSTORE TIMESTAMP PUSH1 0x4 DUP5 ADD DUP2 SWAP1 SSTORE PUSH1 0x5 DUP5 ADD SSTORE PUSH1 0xD DUP4 ADD SWAP4 SWAP1 SWAP4 SSTORE PUSH1 0xE DUP3 ADD SWAP4 SWAP1 SWAP4 SSTORE PUSH1 0xF DUP2 ADD DUP4 SWAP1 SSTORE PUSH1 0x10 DUP2 ADD DUP4 SWAP1 SSTORE PUSH1 0x11 DUP2 ADD DUP7 SWAP1 SSTORE SWAP4 SWAP1 SWAP4 ADD DUP1 SLOAD PUSH1 0xFF PUSH1 0xA0 SHL NOT AND PUSH1 0x1 PUSH1 0xA0 SHL OR SWAP1 SSTORE PUSH1 0x6 SWAP1 SWAP2 MSTORE KECCAK256 SWAP3 PUSH8 0xFFFFFFFFFFFFFFFF DUP3 GT PUSH2 0xA86 JUMPI PUSH1 0x1 PUSH1 0x40 SHL DUP3 GT PUSH2 0xA86 JUMPI DUP4 SLOAD DUP3 DUP6 SSTORE DUP1 DUP4 LT PUSH2 0x14F3 JUMPI JUMPDEST POP SWAP3 PUSH0 MSTORE PUSH1 0x20 PUSH0 KECCAK256 SWAP3 PUSH0 SWAP1 JUMPDEST DUP3 DUP3 LT PUSH2 0x14CE JUMPI PUSH1 0x20 DUP5 CALLER PUSH0 MSTORE PUSH1 0x7 DUP3 MSTORE PUSH2 0x14A6 DUP2 PUSH1 0x40 PUSH0 KECCAK256 PUSH2 0x2606 JUMP JUMPDEST PUSH1 0x40 MLOAD PUSH1 0x3 DUP2 MSTORE TIMESTAMP DUP4 DUP3 ADD MSTORE DUP2 PUSH0 MLOAD PUSH1 0x20 PUSH2 0x2B35 PUSH0 CODECOPY PUSH0 MLOAD SWAP1 PUSH0 MSTORE PUSH1 0x40 CALLER SWAP4 LOG3 PUSH1 0x40 MLOAD SWAP1 DUP2 MSTORE RETURN JUMPDEST DUP1 CALLDATALOAD SWAP2 PUSH1 0x1 PUSH1 0x1 PUSH1 0xA0 SHL SUB DUP4 AND DUP4 SUB PUSH2 0x1F7 JUMPI PUSH1 0x20 PUSH1 0x1 SWAP3 ADD SWAP3 DUP2 DUP8 ADD SSTORE ADD SWAP1 PUSH2 0x1488 JUMP JUMPDEST DUP5 PUSH0 MSTORE DUP3 PUSH1 0x20 PUSH0 KECCAK256 SWAP2 DUP3 ADD SWAP2 ADD JUMPDEST DUP2 DUP2 LT PUSH2 0x150E JUMPI POP PUSH2 0x147C JUMP JUMPDEST PUSH0 DUP2 SSTORE PUSH1 0x1 ADD PUSH2 0x1501 JUMP JUMPDEST PUSH1 0x40 MLOAD PUSH3 0x461BCD PUSH1 0xE5 SHL DUP2 MSTORE PUSH1 0x20 PUSH1 0x4 DUP3 ADD MSTORE PUSH1 0x13 PUSH1 0x24 DUP3 ADD MSTORE PUSH19 0x51756F72756D3A20312D313030303020627073 PUSH1 0x68 SHL PUSH1 0x44 DUP3 ADD MSTORE PUSH1 0x64 SWAP1 REVERT JUMPDEST POP PUSH2 0x2710 DUP3 GT ISZERO PUSH2 0x13A4 JUMP JUMPDEST PUSH1 0x40 MLOAD PUSH3 0x461BCD PUSH1 0xE5 SHL DUP2 MSTORE PUSH1 0x20 PUSH1 0x4 DUP3 ADD MSTORE PUSH1 0x1E PUSH1 0x24 DUP3 ADD MSTORE PUSH32 0x446561646C696E65206D75737420626520696E20746865206675747572650000 PUSH1 0x44 DUP3 ADD MSTORE PUSH1 0x64 SWAP1 REVERT JUMPDEST PUSH1 0x40 MLOAD PUSH3 0x461BCD PUSH1 0xE5 SHL DUP2 MSTORE PUSH1 0x20 PUSH1 0x4 DUP3 ADD MSTORE PUSH1 0x15 PUSH1 0x24 DUP3 ADD MSTORE PUSH21 0x2732B2B21030BA103632B0B9BA1018903B37BA32B9 PUSH1 0x59 SHL PUSH1 0x44 DUP3 ADD MSTORE PUSH1 0x64 SWAP1 REVERT JUMPDEST CALLVALUE PUSH2 0x1F7 JUMPI PUSH1 0x20 CALLDATASIZE PUSH1 0x3 NOT ADD SLT PUSH2 0x1F7 JUMPI PUSH1 0x20 PUSH2 0x1600 PUSH1 0x4 CALLDATALOAD PUSH2 0x27A3 JUMP JUMPDEST PUSH1 0x40 MLOAD SWAP1 ISZERO ISZERO DUP2 MSTORE RETURN JUMPDEST CALLVALUE PUSH2 0x1F7 JUMPI PUSH1 0x40 CALLDATASIZE PUSH1 0x3 NOT ADD SLT PUSH2 0x1F7 JUMPI PUSH1 0x4 CALLDATALOAD PUSH1 0x24 CALLDATALOAD TIMESTAMP DUP2 GT ISZERO PUSH2 0x16E8 JUMPI PUSH1 0x14 DUP3 PUSH2 0x1639 PUSH1 0x20 SWAP5 ISZERO ISZERO PUSH2 0x25B4 JUMP JUMPDEST PUSH1 0x1 SLOAD SWAP3 PUSH2 0x1646 DUP5 PUSH2 0x25F8 JUMP JUMPDEST PUSH1 0x1 SWAP1 DUP2 SSTORE PUSH0 DUP6 DUP2 MSTORE PUSH1 0x2 DUP1 DUP9 MSTORE PUSH1 0x40 DUP1 DUP4 KECCAK256 DUP9 DUP2 SSTORE SWAP4 DUP5 ADD DUP1 SLOAD PUSH1 0x1 PUSH1 0x1 PUSH1 0xA0 SHL SUB NOT AND CALLER SWAP1 DUP2 OR SWAP1 SWAP2 SSTORE SWAP2 DUP5 ADD SWAP6 SWAP1 SWAP6 SSTORE PUSH1 0x3 DUP4 ADD DUP1 SLOAD PUSH2 0xFFFF NOT AND SWAP1 SSTORE TIMESTAMP PUSH1 0x4 DUP5 ADD DUP2 SWAP1 SSTORE PUSH1 0x5 DUP5 ADD SSTORE PUSH1 0x6 DUP4 ADD SWAP4 SWAP1 SWAP4 SSTORE SWAP4 ADD DUP1 SLOAD PUSH1 0xFF PUSH1 0xA0 SHL NOT AND PUSH1 0x1 PUSH1 0xA0 SHL OR SWAP1 SSTORE DUP3 MSTORE PUSH1 0x7 DUP5 MSTORE SWAP1 KECCAK256 PUSH2 0x16C1 SWAP1 DUP3 SWAP1 PUSH2 0x2606 JUMP JUMPDEST PUSH1 0x40 MLOAD PUSH0 DUP2 MSTORE TIMESTAMP DUP4 DUP3 ADD MSTORE DUP2 PUSH0 MLOAD PUSH1 0x20 PUSH2 0x2B35 PUSH0 CODECOPY PUSH0 MLOAD SWAP1 PUSH0 MSTORE PUSH1 0x40 CALLER SWAP4 LOG3 PUSH1 0x40 MLOAD SWAP1 DUP2 MSTORE RETURN JUMPDEST PUSH1 0x40 MLOAD PUSH3 0x461BCD PUSH1 0xE5 SHL DUP2 MSTORE PUSH1 0x20 PUSH1 0x4 DUP3 ADD MSTORE PUSH1 0x21 PUSH1 0x24 DUP3 ADD MSTORE PUSH32 0x556E6C6F636B2074696D65206D75737420626520696E20746865206675747572 PUSH1 0x44 DUP3 ADD MSTORE PUSH1 0x65 PUSH1 0xF8 SHL PUSH1 0x64 DUP3 ADD MSTORE PUSH1 0x84 SWAP1 REVERT JUMPDEST CALLVALUE PUSH2 0x1F7 JUMPI PUSH1 0x40 CALLDATASIZE PUSH1 0x3 NOT ADD SLT PUSH2 0x1F7 JUMPI PUSH2 0x1750 PUSH2 0x2421 JUMP JUMPDEST PUSH1 0x4 CALLDATALOAD PUSH0 MSTORE PUSH1 0x5 PUSH1 0x20 MSTORE PUSH1 0x40 PUSH0 KECCAK256 SWAP1 PUSH1 0x1 DUP1 PUSH1 0xA0 SHL SUB AND PUSH0 MSTORE PUSH1 0x20 MSTORE PUSH1 0x20 PUSH1 0xFF PUSH1 0x40 PUSH0 KECCAK256 SLOAD AND PUSH2 0x1783 PUSH1 0x40 MLOAD DUP1 SWAP3 PUSH2 0x244D JUMP JUMPDEST RETURN JUMPDEST CALLVALUE PUSH2 0x1F7 JUMPI PUSH0 CALLDATASIZE PUSH1 0x3 NOT ADD SLT PUSH2 0x1F7 JUMPI PUSH1 0x1 SLOAD PUSH0 NOT DUP2 ADD SWAP1 DUP2 GT PUSH2 0x12F8 JUMPI PUSH1 0x20 SWAP1 PUSH1 0x40 MLOAD SWAP1 DUP2 MSTORE RETURN JUMPDEST CALLVALUE PUSH2 0x1F7 JUMPI PUSH0 CALLDATASIZE PUSH1 0x3 NOT ADD SLT PUSH2 0x1F7 JUMPI PUSH2 0x17C6 PUSH2 0x2A2B JUMP JUMPDEST PUSH0 DUP1 SLOAD PUSH1 0x1 PUSH1 0x1 PUSH1 0xA0 SHL SUB NOT DUP2 AND DUP3 SSTORE PUSH1 0x1 PUSH1 0x1 PUSH1 0xA0 SHL SUB AND PUSH32 0x8BE0079C531659141344CD1FD0A4F28419497F9722A3DAAFE3B4186F6B6457E0 DUP3 DUP1 LOG3 STOP JUMPDEST CALLVALUE PUSH2 0x1F7 JUMPI PUSH1 0x80 CALLDATASIZE PUSH1 0x3 NOT ADD SLT PUSH2 0x1F7 JUMPI PUSH1 0x4 CALLDATALOAD PUSH2 0x1821 PUSH2 0x2421 JUMP JUMPDEST PUSH1 0x44 CALLDATALOAD SWAP1 PUSH1 0x64 CALLDATALOAD SWAP3 DUP4 ISZERO ISZERO DUP1 SWAP5 SUB PUSH2 0x1F7 JUMPI PUSH1 0x1 PUSH1 0x1 PUSH1 0xA0 SHL SUB DUP3 AND ISZERO PUSH2 0x1987 JUMPI DUP3 ISZERO PUSH2 0x1942 JUMPI PUSH1 0x20 SWAP4 PUSH1 0x14 SWAP3 PUSH2 0x1859 DUP4 ISZERO ISZERO PUSH2 0x25B4 JUMP JUMPDEST PUSH1 0x1 SLOAD SWAP5 PUSH2 0x1866 DUP7 PUSH2 0x25F8 JUMP JUMPDEST PUSH1 0x1 SWAP1 DUP2 SSTORE PUSH0 DUP8 DUP2 MSTORE PUSH1 0x2 DUP1 DUP11 MSTORE PUSH1 0x40 DUP1 DUP4 KECCAK256 DUP11 DUP2 SSTORE SWAP4 DUP5 ADD DUP1 SLOAD PUSH1 0x1 PUSH1 0x1 PUSH1 0xA0 SHL SUB NOT AND CALLER SWAP1 DUP2 OR SWAP1 SWAP2 SSTORE SWAP2 DUP5 ADD SWAP8 SWAP1 SWAP8 SSTORE PUSH1 0x3 DUP4 ADD DUP1 SLOAD PUSH2 0xFFFF NOT AND PUSH1 0x4 SWAP1 DUP2 OR SWAP1 SWAP2 SSTORE TIMESTAMP SWAP1 DUP5 ADD DUP2 SWAP1 SSTORE PUSH1 0x5 DUP5 ADD SSTORE PUSH1 0x12 DUP4 ADD SWAP4 SWAP1 SWAP4 SSTORE PUSH1 0x13 DUP3 ADD DUP1 SLOAD PUSH1 0x1 PUSH1 0x1 PUSH1 0xA8 SHL SUB NOT AND PUSH1 0xFF SWAP7 SWAP1 SWAP7 AND SWAP6 SWAP1 SWAP6 OR PUSH1 0x8 SWAP5 SWAP1 SWAP5 SHL PUSH2 0x100 PUSH1 0x1 PUSH1 0xA8 SHL SUB AND SWAP4 SWAP1 SWAP4 OR SWAP1 SWAP4 SSTORE SWAP4 SWAP1 SWAP2 ADD DUP1 SLOAD PUSH1 0xFF PUSH1 0xA0 SHL NOT AND PUSH1 0x1 PUSH1 0xA0 SHL OR SWAP1 SSTORE SWAP2 DUP3 MSTORE PUSH1 0x7 DUP5 MSTORE SWAP1 KECCAK256 PUSH2 0x191A SWAP1 DUP3 SWAP1 PUSH2 0x2606 JUMP JUMPDEST PUSH1 0x40 MLOAD PUSH1 0x4 DUP2 MSTORE TIMESTAMP DUP4 DUP3 ADD MSTORE DUP2 PUSH0 MLOAD PUSH1 0x20 PUSH2 0x2B35 PUSH0 CODECOPY PUSH0 MLOAD SWAP1 PUSH0 MSTORE PUSH1 0x40 CALLER SWAP4 LOG3 PUSH1 0x40 MLOAD SWAP1 DUP2 MSTORE RETURN JUMPDEST PUSH1 0x40 MLOAD PUSH3 0x461BCD PUSH1 0xE5 SHL DUP2 MSTORE PUSH1 0x20 PUSH1 0x4 DUP3 ADD MSTORE PUSH1 0x1B PUSH1 0x24 DUP3 ADD MSTORE PUSH32 0x5072696365207468726573686F6C64206D757374206265203E20300000000000 PUSH1 0x44 DUP3 ADD MSTORE PUSH1 0x64 SWAP1 REVERT JUMPDEST PUSH1 0x40 MLOAD PUSH3 0x461BCD PUSH1 0xE5 SHL DUP2 MSTORE PUSH1 0x20 PUSH1 0x4 DUP3 ADD MSTORE PUSH1 0x16 PUSH1 0x24 DUP3 ADD MSTORE PUSH22 0x496E76616C6964206F7261636C652061646472657373 PUSH1 0x50 SHL PUSH1 0x44 DUP3 ADD MSTORE PUSH1 0x64 SWAP1 REVERT JUMPDEST CALLVALUE PUSH2 0x1F7 JUMPI PUSH1 0x20 CALLDATASIZE PUSH1 0x3 NOT ADD SLT PUSH2 0x1F7 JUMPI PUSH1 0x4 CALLDATALOAD PUSH2 0x19E1 PUSH2 0x29F3 JUMP JUMPDEST DUP1 PUSH0 MSTORE PUSH1 0x2 PUSH1 0x20 MSTORE PUSH2 0x19FF PUSH1 0xFF PUSH1 0x14 PUSH1 0x40 PUSH0 KECCAK256 ADD SLOAD PUSH1 0xA0 SHR AND PUSH2 0x263A JUMP JUMPDEST DUP1 PUSH0 MSTORE PUSH1 0x2 PUSH1 0x20 MSTORE PUSH1 0xFF PUSH1 0x3 PUSH1 0x40 PUSH0 KECCAK256 ADD SLOAD PUSH1 0x8 SHR AND PUSH1 0x4 DUP2 LT ISZERO PUSH2 0x3A4 JUMPI PUSH2 0x1A28 SWAP1 ISZERO PUSH2 0x26BD JUMP JUMPDEST DUP1 PUSH0 MSTORE PUSH1 0x2 PUSH1 0x20 MSTORE PUSH1 0x40 PUSH0 KECCAK256 PUSH1 0x3 DUP2 ADD PUSH1 0xFF DUP2 SLOAD AND PUSH1 0x6 DUP2 LT ISZERO PUSH2 0x3A4 JUMPI PUSH1 0x5 EQ PUSH2 0x1AE8 JUMPI PUSH2 0x1A56 DUP4 PUSH2 0x27A3 JUMP JUMPDEST ISZERO PUSH2 0x1AAE JUMPI PUSH2 0x100 PUSH2 0xFF00 NOT DUP3 SLOAD AND OR SWAP1 SSTORE PUSH1 0x5 TIMESTAMP SWAP2 ADD SSTORE PUSH1 0x40 MLOAD SWAP1 TIMESTAMP DUP3 MSTORE PUSH32 0xC8EE545E5B582CEF6B0AB3AB5A84DC33BD22CC3AE4FC4B86D4004F1DDF88B748 PUSH1 0x20 CALLER SWAP4 LOG3 PUSH1 0x1 PUSH0 MLOAD PUSH1 0x20 PUSH2 0x2B55 PUSH0 CODECOPY PUSH0 MLOAD SWAP1 PUSH0 MSTORE SSTORE STOP JUMPDEST PUSH1 0x40 MLOAD PUSH3 0x461BCD PUSH1 0xE5 SHL DUP2 MSTORE PUSH1 0x20 PUSH1 0x4 DUP3 ADD MSTORE PUSH1 0x12 PUSH1 0x24 DUP3 ADD MSTORE PUSH18 0x10DBDB991A5D1A5BDB9CC81B9BDD081B595D PUSH1 0x72 SHL PUSH1 0x44 DUP3 ADD MSTORE PUSH1 0x64 SWAP1 REVERT JUMPDEST PUSH1 0x40 MLOAD PUSH3 0x461BCD PUSH1 0xE5 SHL DUP2 MSTORE PUSH1 0x20 PUSH1 0x4 DUP3 ADD MSTORE PUSH1 0x13 PUSH1 0x24 DUP3 ADD MSTORE PUSH19 0x5573652072656C65617365457363726F772829 PUSH1 0x68 SHL PUSH1 0x44 DUP3 ADD MSTORE PUSH1 0x64 SWAP1 REVERT JUMPDEST CALLVALUE PUSH2 0x1F7 JUMPI PUSH1 0x20 CALLDATASIZE PUSH1 0x3 NOT ADD SLT PUSH2 0x1F7 JUMPI PUSH1 0x4 CALLDATALOAD DUP1 PUSH0 MSTORE PUSH1 0x2 PUSH1 0x20 MSTORE PUSH2 0x1B55 PUSH1 0xFF PUSH1 0x14 PUSH1 0x40 PUSH0 KECCAK256 ADD SLOAD PUSH1 0xA0 SHR AND PUSH2 0x263A JUMP JUMPDEST DUP1 PUSH0 MSTORE PUSH1 0x2 PUSH1 0x20 MSTORE PUSH1 0xFF PUSH1 0x3 PUSH1 0x40 PUSH0 KECCAK256 ADD SLOAD PUSH1 0x8 SHR AND PUSH1 0x4 DUP2 LT ISZERO PUSH2 0x3A4 JUMPI PUSH2 0x1B7E SWAP1 ISZERO PUSH2 0x26BD JUMP JUMPDEST DUP1 PUSH0 MSTORE PUSH1 0x2 PUSH1 0x20 MSTORE PUSH1 0x40 PUSH0 KECCAK256 SWAP1 PUSH1 0xFF PUSH1 0x3 DUP4 ADD SLOAD AND PUSH1 0x6 DUP2 LT ISZERO PUSH2 0x3A4 JUMPI PUSH1 0x2 SUB PUSH2 0x1CC7 JUMPI PUSH0 DUP2 DUP2 MSTORE PUSH1 0x3 PUSH1 0x20 SWAP1 DUP2 MSTORE PUSH1 0x40 DUP1 DUP4 KECCAK256 CALLER DUP5 MSTORE SWAP1 SWAP2 MSTORE SWAP1 KECCAK256 SLOAD PUSH1 0xFF AND PUSH2 0x1C8F JUMPI PUSH2 0x1BCD CALLER DUP3 PUSH2 0x29A4 JUMP JUMPDEST ISZERO PUSH2 0x1C4A JUMPI DUP1 PUSH0 MSTORE PUSH1 0x3 PUSH1 0x20 MSTORE PUSH1 0x40 PUSH0 KECCAK256 PUSH1 0x1 DUP1 PUSH1 0xA0 SHL SUB CALLER AND PUSH0 MSTORE PUSH1 0x20 MSTORE PUSH1 0x40 PUSH0 KECCAK256 PUSH1 0x1 PUSH1 0xFF NOT DUP3 SLOAD AND OR SWAP1 SSTORE PUSH1 0xB PUSH1 0xC DUP4 ADD SWAP3 PUSH2 0x1C0C DUP5 SLOAD PUSH2 0x25F8 JUMP JUMPDEST DUP1 SWAP5 SSTORE TIMESTAMP PUSH1 0x5 DUP3 ADD SSTORE ADD SLOAD PUSH1 0x40 MLOAD SWAP3 DUP4 MSTORE PUSH1 0x20 DUP4 ADD MSTORE PUSH32 0xC993E60C6BF9DBD562B8C3796F50DE8D9E54439CF55AFC37E33FFEF7405ED904 PUSH1 0x40 CALLER SWAP4 LOG3 STOP JUMPDEST PUSH1 0x40 MLOAD PUSH3 0x461BCD PUSH1 0xE5 SHL DUP2 MSTORE PUSH1 0x20 PUSH1 0x4 DUP3 ADD MSTORE PUSH1 0x18 PUSH1 0x24 DUP3 ADD MSTORE PUSH32 0x4E6F7420616E20617574686F72697A6564207369676E65720000000000000000 PUSH1 0x44 DUP3 ADD MSTORE PUSH1 0x64 SWAP1 REVERT JUMPDEST PUSH1 0x40 MLOAD PUSH3 0x461BCD PUSH1 0xE5 SHL DUP2 MSTORE PUSH1 0x20 PUSH1 0x4 DUP3 ADD MSTORE PUSH1 0x10 PUSH1 0x24 DUP3 ADD MSTORE PUSH16 0x105B1C9958591E48185C1C1C9BDD9959 PUSH1 0x82 SHL PUSH1 0x44 DUP3 ADD MSTORE PUSH1 0x64 SWAP1 REVERT JUMPDEST PUSH1 0x40 MLOAD PUSH3 0x461BCD PUSH1 0xE5 SHL DUP2 MSTORE PUSH1 0x20 PUSH1 0x4 DUP3 ADD MSTORE PUSH1 0x15 PUSH1 0x24 DUP3 ADD MSTORE PUSH21 0x139BDD0818481B5D5B1D1A4B5CDA59C81D985D5B1D PUSH1 0x5A SHL PUSH1 0x44 DUP3 ADD MSTORE PUSH1 0x64 SWAP1 REVERT JUMPDEST CALLVALUE PUSH2 0x1F7 JUMPI PUSH1 0x40 CALLDATASIZE PUSH1 0x3 NOT ADD SLT PUSH2 0x1F7 JUMPI PUSH1 0x4 CALLDATALOAD PUSH2 0x1D20 PUSH2 0x2421 JUMP JUMPDEST DUP2 PUSH0 MSTORE PUSH1 0x2 PUSH1 0x20 MSTORE PUSH2 0x1D3E PUSH1 0xFF PUSH1 0x14 PUSH1 0x40 PUSH0 KECCAK256 ADD SLOAD PUSH1 0xA0 SHR AND PUSH2 0x263A JUMP JUMPDEST DUP2 PUSH0 MSTORE PUSH1 0x2 PUSH1 0x20 MSTORE PUSH2 0x1D60 PUSH1 0x1 DUP1 PUSH1 0xA0 SHL SUB PUSH1 0x1 PUSH1 0x40 PUSH0 KECCAK256 ADD SLOAD AND CALLER EQ PUSH2 0x267D JUMP JUMPDEST DUP2 PUSH0 MSTORE PUSH1 0x2 PUSH1 0x20 MSTORE PUSH1 0xFF PUSH1 0x3 PUSH1 0x40 PUSH0 KECCAK256 ADD SLOAD PUSH1 0x8 SHR AND PUSH1 0x4 DUP2 LT ISZERO PUSH2 0x3A4 JUMPI PUSH2 0x1D89 SWAP1 ISZERO PUSH2 0x26BD JUMP JUMPDEST PUSH1 0x1 PUSH1 0x1 PUSH1 0xA0 SHL SUB AND SWAP1 PUSH2 0x1D9E DUP3 ISZERO ISZERO PUSH2 0x2526 JUMP JUMPDEST PUSH2 0x1DAA CALLER DUP4 EQ ISZERO PUSH2 0x2568 JUMP JUMPDEST DUP1 PUSH0 MSTORE PUSH1 0x2 PUSH1 0x20 MSTORE PUSH1 0x40 PUSH0 KECCAK256 SWAP1 PUSH1 0xFF PUSH1 0x3 DUP4 ADD SLOAD AND PUSH1 0x6 DUP2 LT ISZERO PUSH2 0x3A4 JUMPI PUSH1 0x1 DUP2 EQ SWAP1 DUP2 ISZERO PUSH2 0x1E79 JUMPI JUMPDEST POP ISZERO PUSH2 0x1E28 JUMPI PUSH1 0xA DUP3 ADD SWAP2 PUSH1 0x1 DUP1 PUSH1 0xA0 SHL SUB DUP4 SLOAD AND SWAP3 DUP5 PUSH1 0x1 PUSH1 0x1 PUSH1 0x60 SHL SUB PUSH1 0xA0 SHL DUP3 SLOAD AND OR SWAP1 SSTORE PUSH1 0x5 TIMESTAMP SWAP2 ADD SSTORE PUSH32 0xF585DA3452445CD066854CE9C4F3306E8DEDDD1D571E840B1DDDAA1F3D4DE53C PUSH0 DUP1 LOG4 STOP JUMPDEST PUSH1 0x40 MLOAD PUSH3 0x461BCD PUSH1 0xE5 SHL DUP2 MSTORE PUSH1 0x20 PUSH1 0x4 DUP3 ADD MSTORE PUSH1 0x24 DUP1 DUP3 ADD MSTORE PUSH32 0x5661756C74207479706520646F6573206E6F7420686176652062656E65666963 PUSH1 0x44 DUP3 ADD MSTORE PUSH4 0x69617279 PUSH1 0xE0 SHL PUSH1 0x64 DUP3 ADD MSTORE PUSH1 0x84 SWAP1 REVERT JUMPDEST PUSH1 0x5 SWAP2 POP EQ DUP5 PUSH2 0x1DD4 JUMP JUMPDEST CALLVALUE PUSH2 0x1F7 JUMPI PUSH1 0x20 CALLDATASIZE PUSH1 0x3 NOT ADD SLT PUSH2 0x1F7 JUMPI PUSH1 0x40 PUSH2 0x1EBF PUSH1 0x4 CALLDATALOAD DUP1 PUSH0 MSTORE PUSH1 0x2 PUSH1 0x20 MSTORE PUSH2 0x1EBA PUSH1 0xFF PUSH1 0x14 DUP6 PUSH0 KECCAK256 ADD SLOAD PUSH1 0xA0 SHR AND PUSH2 0x263A JUMP JUMPDEST PUSH2 0x2709 JUMP JUMPDEST DUP3 MLOAD SWAP2 DUP3 MSTORE ISZERO ISZERO PUSH1 0x20 DUP3 ADD MSTORE RETURN JUMPDEST CALLVALUE PUSH2 0x1F7 JUMPI PUSH1 0x40 CALLDATASIZE PUSH1 0x3 NOT ADD SLT PUSH2 0x1F7 JUMPI PUSH1 0x24 CALLDATALOAD PUSH1 0x4 CALLDATALOAD DUP2 ISZERO ISZERO DUP3 SUB PUSH2 0x1F7 JUMPI DUP1 PUSH0 MSTORE PUSH1 0x2 PUSH1 0x20 MSTORE PUSH2 0x1F0B PUSH1 0xFF PUSH1 0x14 PUSH1 0x40 PUSH0 KECCAK256 ADD SLOAD PUSH1 0xA0 SHR AND PUSH2 0x263A JUMP JUMPDEST DUP1 PUSH0 MSTORE PUSH1 0x2 PUSH1 0x20 MSTORE PUSH1 0xFF PUSH1 0x3 PUSH1 0x40 PUSH0 KECCAK256 ADD SLOAD PUSH1 0x8 SHR AND PUSH1 0x4 DUP2 LT ISZERO PUSH2 0x3A4 JUMPI PUSH2 0x1F34 SWAP1 ISZERO PUSH2 0x26BD JUMP JUMPDEST DUP1 PUSH0 MSTORE PUSH1 0x2 PUSH1 0x20 MSTORE PUSH1 0x40 PUSH0 KECCAK256 SWAP2 PUSH1 0xFF PUSH1 0x3 DUP5 ADD SLOAD AND PUSH1 0x6 DUP2 LT ISZERO PUSH2 0x3A4 JUMPI PUSH1 0x3 SUB PUSH2 0x211F JUMPI PUSH1 0xD DUP4 ADD SLOAD TIMESTAMP LT ISZERO PUSH2 0x20E4 JUMPI PUSH0 DUP3 DUP2 MSTORE PUSH1 0x5 PUSH1 0x20 SWAP1 DUP2 MSTORE PUSH1 0x40 DUP1 DUP4 KECCAK256 CALLER DUP5 MSTORE SWAP1 SWAP2 MSTORE SWAP1 KECCAK256 SLOAD PUSH1 0xFF AND PUSH1 0x3 DUP2 LT ISZERO PUSH2 0x3A4 JUMPI PUSH2 0x20AF JUMPI PUSH2 0x1F98 CALLER DUP4 PUSH2 0x294C JUMP JUMPDEST ISZERO PUSH2 0x2072 JUMPI DUP1 ISZERO PUSH2 0x2039 JUMPI PUSH0 DUP3 DUP2 MSTORE PUSH1 0x5 PUSH1 0x20 SWAP1 DUP2 MSTORE PUSH1 0x40 DUP1 DUP4 KECCAK256 CALLER DUP5 MSTORE SWAP1 SWAP2 MSTORE SWAP1 KECCAK256 DUP1 SLOAD PUSH1 0xFF NOT AND PUSH1 0x1 OR SWAP1 SSTORE PUSH1 0xF DUP4 ADD DUP1 SLOAD PUSH2 0x1FD5 SWAP1 PUSH2 0x25F8 JUMP JUMPDEST SWAP1 SSTORE JUMPDEST TIMESTAMP PUSH1 0x5 DUP5 ADD SSTORE ISZERO PUSH2 0x2031 JUMPI PUSH1 0x1 SWAP2 JUMPDEST PUSH1 0x10 PUSH1 0xF DUP3 ADD SLOAD SWAP2 ADD SLOAD SWAP1 PUSH2 0x1FFF PUSH1 0x40 MLOAD DUP1 SWAP6 PUSH2 0x244D JUMP JUMPDEST PUSH1 0x20 DUP5 ADD MSTORE PUSH1 0x40 DUP4 ADD MSTORE PUSH32 0x4FB436BC3E53EE9D93D9CAD6BC99565DE46432E0EA0E1C0655EF56F189658C96 PUSH1 0x60 CALLER SWAP4 LOG3 STOP JUMPDEST PUSH1 0x2 SWAP2 PUSH2 0x1FE7 JUMP JUMPDEST PUSH0 DUP3 DUP2 MSTORE PUSH1 0x5 PUSH1 0x20 SWAP1 DUP2 MSTORE PUSH1 0x40 DUP1 DUP4 KECCAK256 CALLER DUP5 MSTORE SWAP1 SWAP2 MSTORE SWAP1 KECCAK256 DUP1 SLOAD PUSH1 0xFF NOT AND PUSH1 0x2 OR SWAP1 SSTORE PUSH1 0x10 DUP4 ADD DUP1 SLOAD PUSH2 0x206B SWAP1 PUSH2 0x25F8 JUMP JUMPDEST SWAP1 SSTORE PUSH2 0x1FD8 JUMP JUMPDEST PUSH1 0x40 MLOAD PUSH3 0x461BCD PUSH1 0xE5 SHL DUP2 MSTORE PUSH1 0x20 PUSH1 0x4 DUP3 ADD MSTORE PUSH1 0x15 PUSH1 0x24 DUP3 ADD MSTORE PUSH21 0x2737BA1030B71032B634B3B4B13632903B37BA32B9 PUSH1 0x59 SHL PUSH1 0x44 DUP3 ADD MSTORE PUSH1 0x64 SWAP1 REVERT JUMPDEST PUSH1 0x40 MLOAD PUSH3 0x461BCD PUSH1 0xE5 SHL DUP2 MSTORE PUSH1 0x20 PUSH1 0x4 DUP3 ADD MSTORE PUSH1 0xD PUSH1 0x24 DUP3 ADD MSTORE PUSH13 0x105B1C9958591E481D9BDD1959 PUSH1 0x9A SHL PUSH1 0x44 DUP3 ADD MSTORE PUSH1 0x64 SWAP1 REVERT JUMPDEST PUSH1 0x40 MLOAD PUSH3 0x461BCD PUSH1 0xE5 SHL DUP2 MSTORE PUSH1 0x20 PUSH1 0x4 DUP3 ADD MSTORE PUSH1 0x13 PUSH1 0x24 DUP3 ADD MSTORE PUSH19 0x159BDD1A5B99C81C195C9A5BD908195B991959 PUSH1 0x6A SHL PUSH1 0x44 DUP3 ADD MSTORE PUSH1 0x64 SWAP1 REVERT JUMPDEST PUSH1 0x40 MLOAD PUSH3 0x461BCD PUSH1 0xE5 SHL DUP2 MSTORE PUSH1 0x20 PUSH1 0x4 DUP3 ADD MSTORE PUSH1 0x14 PUSH1 0x24 DUP3 ADD MSTORE PUSH20 0x139BDD081848111053C81D9BDD19481D985D5B1D PUSH1 0x62 SHL PUSH1 0x44 DUP3 ADD MSTORE PUSH1 0x64 SWAP1 REVERT JUMPDEST CALLVALUE PUSH2 0x1F7 JUMPI PUSH0 CALLDATASIZE PUSH1 0x3 NOT ADD SLT PUSH2 0x1F7 JUMPI PUSH1 0x20 PUSH1 0x1 SLOAD PUSH1 0x40 MLOAD SWAP1 DUP2 MSTORE RETURN JUMPDEST CALLVALUE PUSH2 0x1F7 JUMPI PUSH1 0x20 CALLDATASIZE PUSH1 0x3 NOT ADD SLT PUSH2 0x1F7 JUMPI PUSH1 0x4 CALLDATALOAD DUP1 PUSH0 MSTORE PUSH1 0x2 PUSH1 0x20 MSTORE PUSH2 0x21AA PUSH1 0xFF PUSH1 0x14 PUSH1 0x40 PUSH0 KECCAK256 ADD SLOAD PUSH1 0xA0 SHR AND PUSH2 0x263A JUMP JUMPDEST DUP1 PUSH0 MSTORE PUSH1 0x2 PUSH1 0x20 MSTORE PUSH2 0x21CC PUSH1 0x1 DUP1 PUSH1 0xA0 SHL SUB PUSH1 0x1 PUSH1 0x40 PUSH0 KECCAK256 ADD SLOAD AND CALLER EQ PUSH2 0x267D JUMP JUMPDEST DUP1 PUSH0 MSTORE PUSH1 0x2 PUSH1 0x20 MSTORE PUSH1 0xFF PUSH1 0x3 PUSH1 0x40 PUSH0 KECCAK256 ADD SLOAD PUSH1 0x8 SHR AND PUSH1 0x4 DUP2 LT ISZERO PUSH2 0x3A4 JUMPI PUSH2 0x21F5 SWAP1 ISZERO PUSH2 0x26BD JUMP JUMPDEST DUP1 PUSH0 MSTORE PUSH1 0x2 PUSH1 0x20 MSTORE PUSH1 0x40 PUSH0 KECCAK256 PUSH1 0x3 DUP2 ADD PUSH2 0x200 PUSH2 0xFF00 NOT DUP3 SLOAD AND OR SWAP1 SSTORE PUSH1 0x5 TIMESTAMP SWAP2 ADD SSTORE PUSH1 0x40 MLOAD SWAP1 TIMESTAMP DUP3 MSTORE PUSH32 0x63C22DA2349A9598E170CB9C7E26F1F906BEA8E78F0DCED9D0B85B17FFE0D611 PUSH1 0x20 CALLER SWAP4 LOG3 STOP JUMPDEST CALLVALUE PUSH2 0x1F7 JUMPI PUSH1 0x80 CALLDATASIZE PUSH1 0x3 NOT ADD SLT PUSH2 0x1F7 JUMPI PUSH1 0x64 CALLDATALOAD PUSH1 0x1 PUSH1 0x1 PUSH1 0xA0 SHL SUB DUP2 AND SWAP2 PUSH1 0x24 CALLDATALOAD SWAP2 PUSH1 0x44 CALLDATALOAD SWAP2 PUSH1 0x4 CALLDATALOAD SWAP2 DUP6 SWAP1 SUB PUSH2 0x1F7 JUMPI PUSH3 0x15180 DUP5 LT PUSH2 0x23D4 JUMPI POP PUSH2 0xE10 DUP3 LT PUSH2 0x238F JUMPI DUP4 PUSH1 0x14 SWAP3 PUSH2 0x229E PUSH1 0x20 SWAP7 ISZERO ISZERO PUSH2 0x2526 JUMP JUMPDEST PUSH2 0x22AA CALLER DUP4 EQ ISZERO PUSH2 0x2568 JUMP JUMPDEST PUSH2 0x22B5 DUP4 ISZERO ISZERO PUSH2 0x25B4 JUMP JUMPDEST PUSH1 0x1 SLOAD SWAP5 PUSH2 0x22C2 DUP7 PUSH2 0x25F8 JUMP JUMPDEST PUSH1 0x1 SSTORE DUP6 PUSH0 MSTORE PUSH1 0x2 DUP8 MSTORE PUSH1 0x40 PUSH0 KECCAK256 SWAP4 DUP7 DUP6 SSTORE PUSH1 0x1 DUP6 ADD PUSH1 0x1 DUP1 PUSH1 0xA0 SHL SUB CALLER AND PUSH1 0x1 PUSH1 0x1 PUSH1 0x60 SHL SUB PUSH1 0xA0 SHL DUP3 SLOAD AND OR SWAP1 SSTORE PUSH1 0x2 DUP6 ADD SSTORE PUSH1 0x3 DUP5 ADD PUSH1 0x1 PUSH1 0xFF NOT DUP3 SLOAD AND OR DUP2 SSTORE PUSH2 0xFF00 NOT DUP2 SLOAD AND SWAP1 SSTORE TIMESTAMP PUSH1 0x4 DUP6 ADD SSTORE TIMESTAMP PUSH1 0x5 DUP6 ADD SSTORE PUSH1 0x7 DUP5 ADD SSTORE TIMESTAMP PUSH1 0x8 DUP5 ADD SSTORE PUSH1 0x9 DUP4 ADD SSTORE PUSH1 0xA DUP3 ADD SWAP1 PUSH1 0x1 PUSH1 0x1 PUSH1 0x60 SHL SUB PUSH1 0xA0 SHL DUP3 SLOAD AND OR SWAP1 SSTORE ADD PUSH1 0x1 PUSH1 0xA0 SHL PUSH1 0xFF PUSH1 0xA0 SHL NOT DUP3 SLOAD AND OR SWAP1 SSTORE CALLER PUSH0 MSTORE PUSH1 0x7 DUP3 MSTORE PUSH2 0x2367 DUP2 PUSH1 0x40 PUSH0 KECCAK256 PUSH2 0x2606 JUMP JUMPDEST PUSH1 0x40 MLOAD PUSH1 0x1 DUP2 MSTORE TIMESTAMP DUP4 DUP3 ADD MSTORE DUP2 PUSH0 MLOAD PUSH1 0x20 PUSH2 0x2B35 PUSH0 CODECOPY PUSH0 MLOAD SWAP1 PUSH0 MSTORE PUSH1 0x40 CALLER SWAP4 LOG3 PUSH1 0x40 MLOAD SWAP1 DUP2 MSTORE RETURN JUMPDEST PUSH1 0x40 MLOAD PUSH3 0x461BCD PUSH1 0xE5 SHL DUP2 MSTORE PUSH1 0x20 PUSH1 0x4 DUP3 ADD MSTORE PUSH1 0x1E PUSH1 0x24 DUP3 ADD MSTORE PUSH32 0x477261636520706572696F64206D757374206265203E3D203120686F75720000 PUSH1 0x44 DUP3 ADD MSTORE PUSH1 0x64 SWAP1 REVERT JUMPDEST PUSH3 0x461BCD PUSH1 0xE5 SHL DUP2 MSTORE PUSH1 0x20 PUSH1 0x4 DUP3 ADD MSTORE PUSH1 0x22 PUSH1 0x24 DUP3 ADD MSTORE PUSH32 0x436865636B2D696E20696E74657276616C206D757374206265203E3D20312064 PUSH1 0x44 DUP3 ADD MSTORE PUSH2 0x6179 PUSH1 0xF0 SHL PUSH1 0x64 DUP3 ADD MSTORE PUSH1 0x84 SWAP1 REVERT JUMPDEST PUSH1 0x24 CALLDATALOAD SWAP1 PUSH1 0x1 PUSH1 0x1 PUSH1 0xA0 SHL SUB DUP3 AND DUP3 SUB PUSH2 0x1F7 JUMPI JUMP JUMPDEST PUSH1 0x4 CALLDATALOAD SWAP1 PUSH1 0x1 PUSH1 0x1 PUSH1 0xA0 SHL SUB DUP3 AND DUP3 SUB PUSH2 0x1F7 JUMPI JUMP JUMPDEST SWAP1 PUSH1 0x3 DUP3 LT ISZERO PUSH2 0x3A4 JUMPI MSTORE JUMP JUMPDEST SWAP2 DUP2 PUSH1 0x1F DUP5 ADD SLT ISZERO PUSH2 0x1F7 JUMPI DUP3 CALLDATALOAD SWAP2 PUSH8 0xFFFFFFFFFFFFFFFF DUP4 GT PUSH2 0x1F7 JUMPI PUSH1 0x20 DUP1 DUP6 ADD SWAP5 DUP5 PUSH1 0x5 SHL ADD ADD GT PUSH2 0x1F7 JUMPI JUMP JUMPDEST SWAP1 PUSH1 0x6 DUP3 LT ISZERO PUSH2 0x3A4 JUMPI MSTORE JUMP JUMPDEST SWAP1 PUSH1 0x4 DUP3 LT ISZERO PUSH2 0x3A4 JUMPI MSTORE JUMP JUMPDEST DUP1 SLOAD DUP3 LT ISZERO PUSH2 0x24BA JUMPI PUSH0 MSTORE PUSH1 0x20 PUSH0 KECCAK256 ADD SWAP1 PUSH0 SWAP1 JUMP JUMPDEST PUSH4 0x4E487B71 PUSH1 0xE0 SHL PUSH0 MSTORE PUSH1 0x32 PUSH1 0x4 MSTORE PUSH1 0x24 PUSH0 REVERT JUMPDEST PUSH1 0x40 SWAP1 PUSH1 0x3 NOT ADD SLT PUSH2 0x1F7 JUMPI PUSH1 0x4 CALLDATALOAD SWAP1 PUSH1 0x24 CALLDATALOAD SWAP1 JUMP JUMPDEST PUSH1 0x20 PUSH1 0x40 DUP2 DUP4 ADD SWAP3 DUP3 DUP2 MSTORE DUP5 MLOAD DUP1 SWAP5 MSTORE ADD SWAP3 ADD SWAP1 PUSH0 JUMPDEST DUP2 DUP2 LT PUSH2 0x2507 JUMPI POP POP POP SWAP1 JUMP JUMPDEST DUP3 MLOAD PUSH1 0x1 PUSH1 0x1 PUSH1 0xA0 SHL SUB AND DUP5 MSTORE PUSH1 0x20 SWAP4 DUP5 ADD SWAP4 SWAP1 SWAP3 ADD SWAP2 PUSH1 0x1 ADD PUSH2 0x24FA JUMP JUMPDEST ISZERO PUSH2 0x252D JUMPI JUMP JUMPDEST PUSH1 0x40 MLOAD PUSH3 0x461BCD PUSH1 0xE5 SHL DUP2 MSTORE PUSH1 0x20 PUSH1 0x4 DUP3 ADD MSTORE PUSH1 0x13 PUSH1 0x24 DUP3 ADD MSTORE PUSH19 0x496E76616C69642062656E6566696369617279 PUSH1 0x68 SHL PUSH1 0x44 DUP3 ADD MSTORE PUSH1 0x64 SWAP1 REVERT JUMPDEST ISZERO PUSH2 0x256F JUMPI JUMP JUMPDEST PUSH1 0x40 MLOAD PUSH3 0x461BCD PUSH1 0xE5 SHL DUP2 MSTORE PUSH1 0x20 PUSH1 0x4 DUP3 ADD MSTORE PUSH1 0x1D PUSH1 0x24 DUP3 ADD MSTORE PUSH32 0x42656E65666963696172792063616E6E6F742062652063726561746F72000000 PUSH1 0x44 DUP3 ADD MSTORE PUSH1 0x64 SWAP1 REVERT JUMPDEST ISZERO PUSH2 0x25BB JUMPI JUMP JUMPDEST PUSH1 0x40 MLOAD PUSH3 0x461BCD PUSH1 0xE5 SHL DUP2 MSTORE PUSH1 0x20 PUSH1 0x4 DUP3 ADD MSTORE PUSH1 0x15 PUSH1 0x24 DUP3 ADD MSTORE PUSH21 0x92DCECC2D8D2C840E0C2E6E6EEDEE4C840D0C2E6D PUSH1 0x5B SHL PUSH1 0x44 DUP3 ADD MSTORE PUSH1 0x64 SWAP1 REVERT JUMPDEST PUSH0 NOT DUP2 EQ PUSH2 0x12F8 JUMPI PUSH1 0x1 ADD SWAP1 JUMP JUMPDEST DUP1 SLOAD PUSH1 0x1 PUSH1 0x40 SHL DUP2 LT ISZERO PUSH2 0xA86 JUMPI PUSH2 0x2623 SWAP2 PUSH1 0x1 DUP3 ADD DUP2 SSTORE PUSH2 0x24A5 JUMP JUMPDEST DUP2 SWAP3 SWAP2 SLOAD SWAP1 PUSH1 0x3 SHL SWAP2 DUP3 SHL SWAP2 PUSH0 NOT SWAP1 SHL NOT AND OR SWAP1 SSTORE JUMP JUMPDEST ISZERO PUSH2 0x2641 JUMPI JUMP JUMPDEST PUSH1 0x40 MLOAD PUSH3 0x461BCD PUSH1 0xE5 SHL DUP2 MSTORE PUSH1 0x20 PUSH1 0x4 DUP3 ADD MSTORE PUSH1 0x14 PUSH1 0x24 DUP3 ADD MSTORE PUSH20 0x15985D5B1D08191BD95CC81B9BDD08195E1A5CDD PUSH1 0x62 SHL PUSH1 0x44 DUP3 ADD MSTORE PUSH1 0x64 SWAP1 REVERT JUMPDEST ISZERO PUSH2 0x2684 JUMPI JUMP JUMPDEST PUSH1 0x40 MLOAD PUSH3 0x461BCD PUSH1 0xE5 SHL DUP2 MSTORE PUSH1 0x20 PUSH1 0x4 DUP3 ADD MSTORE PUSH1 0x11 PUSH1 0x24 DUP3 ADD MSTORE PUSH17 0x2737BA103B30BAB63A1031B932B0BA37B9 PUSH1 0x79 SHL PUSH1 0x44 DUP3 ADD MSTORE PUSH1 0x64 SWAP1 REVERT JUMPDEST ISZERO PUSH2 0x26C4 JUMPI JUMP JUMPDEST PUSH1 0x40 MLOAD PUSH3 0x461BCD PUSH1 0xE5 SHL DUP2 MSTORE PUSH1 0x20 PUSH1 0x4 DUP3 ADD MSTORE PUSH1 0x10 PUSH1 0x24 DUP3 ADD MSTORE PUSH16 0x5661756C74206E6F7420616374697665 PUSH1 0x80 SHL PUSH1 0x44 DUP3 ADD MSTORE PUSH1 0x64 SWAP1 REVERT JUMPDEST SWAP2 SWAP1 DUP3 ADD DUP1 SWAP3 GT PUSH2 0x12F8 JUMPI JUMP JUMPDEST PUSH0 MSTORE PUSH1 0x2 PUSH1 0x20 MSTORE PUSH1 0x40 PUSH0 KECCAK256 PUSH1 0xFF PUSH1 0x3 DUP3 ADD SLOAD AND PUSH1 0x6 DUP2 LT ISZERO PUSH2 0x3A4 JUMPI PUSH1 0x1 SUB PUSH2 0x276C JUMPI DUP1 PUSH1 0x9 PUSH2 0x2745 PUSH1 0x8 PUSH2 0x274E SWAP5 ADD SLOAD PUSH1 0x7 DUP5 ADD SLOAD SWAP1 PUSH2 0x26FC JUMP JUMPDEST SWAP2 ADD SLOAD SWAP1 PUSH2 0x26FC JUMP JUMPDEST DUP1 TIMESTAMP GT PUSH2 0x2764 JUMPI TIMESTAMP DUP2 SUB SWAP1 DUP2 GT PUSH2 0x12F8 JUMPI SWAP1 PUSH0 SWAP1 JUMP JUMPDEST POP PUSH0 SWAP1 PUSH1 0x1 SWAP1 JUMP JUMPDEST PUSH1 0x40 MLOAD PUSH3 0x461BCD PUSH1 0xE5 SHL DUP2 MSTORE PUSH1 0x20 PUSH1 0x4 DUP3 ADD MSTORE PUSH1 0xF PUSH1 0x24 DUP3 ADD MSTORE PUSH15 0x139BDD081848111354C81D985D5B1D PUSH1 0x8A SHL PUSH1 0x44 DUP3 ADD MSTORE PUSH1 0x64 SWAP1 REVERT JUMPDEST PUSH2 0x27CA SWAP1 DUP1 PUSH0 MSTORE PUSH1 0x2 PUSH1 0x20 MSTORE PUSH2 0x27C5 PUSH1 0xFF PUSH1 0x14 PUSH1 0x40 PUSH0 KECCAK256 ADD SLOAD PUSH1 0xA0 SHR AND PUSH2 0x263A JUMP JUMPDEST PUSH2 0x27EB JUMP JUMPDEST SWAP1 JUMP JUMPDEST DUP2 ISZERO PUSH2 0x27D7 JUMPI DIV SWAP1 JUMP JUMPDEST PUSH4 0x4E487B71 PUSH1 0xE0 SHL PUSH0 MSTORE PUSH1 0x12 PUSH1 0x4 MSTORE PUSH1 0x24 PUSH0 REVERT JUMPDEST PUSH0 MSTORE PUSH1 0x2 PUSH1 0x20 MSTORE PUSH1 0x40 PUSH0 KECCAK256 PUSH1 0x3 DUP2 ADD SLOAD PUSH1 0xFF DUP2 PUSH1 0x8 SHR AND PUSH1 0x4 DUP2 LT ISZERO PUSH2 0x3A4 JUMPI DUP1 PUSH2 0x2904 JUMPI POP PUSH1 0xFF AND PUSH1 0x6 DUP2 LT ISZERO PUSH2 0x3A4 JUMPI DUP1 ISZERO PUSH2 0x28F9 JUMPI PUSH1 0x1 DUP2 EQ PUSH2 0x28DA JUMPI PUSH1 0x2 DUP2 EQ PUSH2 0x28CA JUMPI PUSH1 0x3 DUP2 EQ PUSH2 0x286D JUMPI PUSH1 0x4 EQ PUSH2 0x2847 JUMPI POP PUSH0 SWAP1 JUMP JUMPDEST PUSH1 0x13 DUP2 ADD SLOAD PUSH1 0x12 SWAP1 SWAP2 ADD SLOAD PUSH2 0x27CA SWAP2 PUSH1 0xFF DUP2 AND SWAP2 SWAP1 PUSH1 0x8 SHR PUSH1 0x1 PUSH1 0x1 PUSH1 0xA0 SHL SUB AND PUSH2 0x2A68 JUMP JUMPDEST POP PUSH1 0xD DUP2 ADD SLOAD TIMESTAMP LT PUSH2 0x28C5 JUMPI PUSH1 0xF DUP2 ADD SLOAD PUSH2 0x288C PUSH1 0x10 DUP4 ADD SLOAD DUP3 PUSH2 0x26FC JUMP JUMPDEST ISZERO PUSH2 0x28BF JUMPI PUSH2 0x2710 DUP2 MUL SWAP1 DUP1 DUP3 DIV PUSH2 0x2710 EQ SWAP1 ISZERO OR ISZERO PUSH2 0x12F8 JUMPI PUSH2 0x28B7 PUSH1 0xE SWAP2 PUSH1 0x11 DUP5 ADD SLOAD SWAP1 PUSH2 0x27CD JUMP JUMPDEST SWAP2 ADD SLOAD GT ISZERO SWAP1 JUMP JUMPDEST POP POP PUSH0 SWAP1 JUMP JUMPDEST POP PUSH0 SWAP1 JUMP JUMPDEST POP PUSH1 0xB PUSH1 0xC DUP3 ADD SLOAD SWAP2 ADD SLOAD GT ISZERO SWAP1 JUMP JUMPDEST POP DUP1 PUSH1 0x9 PUSH2 0x2745 PUSH1 0x8 PUSH2 0x28F4 SWAP5 ADD SLOAD PUSH1 0x7 DUP5 ADD SLOAD SWAP1 PUSH2 0x26FC JUMP JUMPDEST TIMESTAMP GT SWAP1 JUMP JUMPDEST POP PUSH1 0x6 ADD SLOAD TIMESTAMP LT ISZERO SWAP1 JUMP JUMPDEST PUSH1 0x1 EQ SWAP3 SWAP2 POP POP JUMP JUMPDEST PUSH2 0x300 DUP2 ADD SWAP1 DUP2 LT PUSH8 0xFFFFFFFFFFFFFFFF DUP3 GT OR PUSH2 0xA86 JUMPI PUSH1 0x40 MSTORE JUMP JUMPDEST SWAP1 PUSH1 0x1F DUP1 NOT SWAP2 ADD AND DUP2 ADD SWAP1 DUP2 LT PUSH8 0xFFFFFFFFFFFFFFFF DUP3 GT OR PUSH2 0xA86 JUMPI PUSH1 0x40 MSTORE JUMP JUMPDEST PUSH0 MSTORE PUSH1 0x6 PUSH1 0x20 MSTORE PUSH1 0x40 PUSH0 KECCAK256 SWAP1 PUSH0 SWAP2 DUP1 SLOAD SWAP3 JUMPDEST DUP4 DUP2 LT PUSH2 0x296D JUMPI POP POP POP POP PUSH0 SWAP1 JUMP JUMPDEST PUSH2 0x2977 DUP2 DUP4 PUSH2 0x24A5 JUMP JUMPDEST SWAP1 SLOAD PUSH1 0x3 SWAP2 SWAP1 SWAP2 SHL SHR PUSH1 0x1 PUSH1 0x1 PUSH1 0xA0 SHL SUB SWAP1 DUP2 AND SWAP1 DUP5 AND EQ PUSH2 0x299B JUMPI PUSH1 0x1 ADD PUSH2 0x295E JUMP JUMPDEST POP POP POP POP PUSH1 0x1 SWAP1 JUMP JUMPDEST PUSH0 MSTORE PUSH1 0x4 PUSH1 0x20 MSTORE PUSH1 0x40 PUSH0 KECCAK256 SWAP1 PUSH0 SWAP2 DUP1 SLOAD SWAP3 JUMPDEST DUP4 DUP2 LT PUSH2 0x29C5 JUMPI POP POP POP POP PUSH0 SWAP1 JUMP JUMPDEST PUSH2 0x29CF DUP2 DUP4 PUSH2 0x24A5 JUMP JUMPDEST SWAP1 SLOAD PUSH1 0x3 SWAP2 SWAP1 SWAP2 SHL SHR PUSH1 0x1 PUSH1 0x1 PUSH1 0xA0 SHL SUB SWAP1 DUP2 AND SWAP1 DUP5 AND EQ PUSH2 0x299B JUMPI PUSH1 0x1 ADD PUSH2 0x29B6 JUMP JUMPDEST PUSH1 0x2 PUSH0 MLOAD PUSH1 0x20 PUSH2 0x2B55 PUSH0 CODECOPY PUSH0 MLOAD SWAP1 PUSH0 MSTORE SLOAD EQ PUSH2 0x2A1C JUMPI PUSH1 0x2 PUSH0 MLOAD PUSH1 0x20 PUSH2 0x2B55 PUSH0 CODECOPY PUSH0 MLOAD SWAP1 PUSH0 MSTORE SSTORE JUMP JUMPDEST PUSH4 0x3EE5AEB5 PUSH1 0xE0 SHL PUSH0 MSTORE PUSH1 0x4 PUSH0 REVERT JUMPDEST PUSH0 SLOAD PUSH1 0x1 PUSH1 0x1 PUSH1 0xA0 SHL SUB AND CALLER SUB PUSH2 0x2A3E JUMPI JUMP JUMPDEST PUSH4 0x118CDAA7 PUSH1 0xE0 SHL PUSH0 MSTORE CALLER PUSH1 0x4 MSTORE PUSH1 0x24 PUSH0 REVERT JUMPDEST MLOAD SWAP1 PUSH10 0xFFFFFFFFFFFFFFFFFFFF DUP3 AND DUP3 SUB PUSH2 0x1F7 JUMPI JUMP JUMPDEST PUSH0 DUP1 SWAP2 SWAP4 SWAP3 SWAP4 PUSH1 0x40 MLOAD PUSH1 0x20 DUP2 ADD SWAP1 PUSH4 0x3FABE5A3 PUSH1 0xE2 SHL DUP3 MSTORE PUSH1 0x4 DUP2 MSTORE PUSH2 0x2A8F PUSH1 0x24 DUP3 PUSH2 0x292A JUMP JUMPDEST MLOAD SWAP2 GAS STATICCALL SWAP1 RETURNDATASIZE ISZERO PUSH2 0x2B2C JUMPI RETURNDATASIZE SWAP2 PUSH8 0xFFFFFFFFFFFFFFFF DUP4 GT PUSH2 0xA86 JUMPI PUSH1 0x40 MLOAD SWAP3 PUSH2 0x2AC3 PUSH1 0x1F DUP3 ADD PUSH1 0x1F NOT AND PUSH1 0x20 ADD DUP6 PUSH2 0x292A JUMP JUMPDEST DUP4 MSTORE RETURNDATASIZE PUSH0 PUSH1 0x20 DUP6 ADD RETURNDATACOPY JUMPDEST ISZERO DUP1 ISZERO PUSH2 0x2B21 JUMPI JUMPDEST PUSH2 0x2B1A JUMPI PUSH1 0xA0 DUP3 DUP1 MLOAD DUP2 ADD SUB SLT PUSH2 0x1F7 JUMPI PUSH2 0x2AF2 PUSH1 0x20 DUP4 ADD PUSH2 0x2A51 JUMP JUMPDEST POP PUSH2 0x2B04 PUSH1 0xA0 PUSH1 0x40 DUP5 ADD MLOAD SWAP4 ADD PUSH2 0x2A51 JUMP JUMPDEST POP PUSH0 DUP3 SGT ISZERO PUSH2 0x2B1A JUMPI ISZERO PUSH2 0x2B16 JUMPI GT SWAP1 JUMP JUMPDEST LT SWAP1 JUMP JUMPDEST POP POP POP PUSH0 SWAP1 JUMP JUMPDEST POP PUSH1 0xA0 DUP3 MLOAD LT PUSH2 0x2AD5 JUMP JUMPDEST PUSH1 0x60 SWAP2 PUSH2 0x2ACD JUMP INVALID CREATE JUMPDEST TLOAD SELFDESTRUCT CREATE2 0xF6 DUP5 PUSH26 0x9218B8134D5D0C1CBEB310E8FC7D26E0EF92E2C792B02EC69B77 SWAP12 OR TIMESTAMP 0x2D 0xD 0xF9 0x22 0x23 ADD DUP12 ORIGIN 0xB4 0xD1 STATICCALL CHAINID 0xE0 PUSH18 0x723D6817E2486D003BECC55F00A264697066 PUSH20 0x5822122076DC98C8E2729EA2CF55C8A2435CAD62 DUP9 TLOAD DUP1 SWAP6 0xCA GASPRICE BYTE PUSH21 0xC5F81EB7B553C4FF64736F6C634300081C00330000 "},"methodIdentifiers":{"approveAccess(uint256)":"568497bb","cancelVault(uint256)":"0cc1a407","castVote(uint256,bool)":"15373e3d","checkIn(uint256)":"e95a644f","conditionalAccess(uint256)":"81607893","createDAOVault(bytes32,address[],uint256,uint256)":"81ff793f","createDeadMansSwitchVault(bytes32,uint256,uint256,address)":"061fd021","createEscrowVault(bytes32,address,address)":"de244be7","createMultiSigVault(bytes32,address[],uint256)":"de22f0c2","createPriceOracleVault(bytes32,address,uint256,bool)":"63ee0f52","createTimeLockVault(bytes32,uint256)":"7afdcb09","daoVoters(uint256,uint256)":"d1bed386","daoVotes(uint256,address)":"78640668","getDAOVoteResults(uint256)":"82aa0a1f","getDAOVoters(uint256)":"ebfe7a1d","getDeadMansSwitchStatus(uint256)":"1a9ba00d","getMultiSigSigners(uint256)":"e5009cc3","getUserVaults(address)":"e7f3c69c","getVault(uint256)":"9403b634","getVaultCount()":"74d4e491","multiSigApprovals(uint256,address)":"bc161f87","multiSigSigners(uint256,uint256)":"dfc17308","nextVaultId()":"12ac1763","owner()":"8da5cb5b","releaseEscrow(uint256)":"ed653164","renounceOwnership()":"715018a6","transferOwnership(address)":"f2fde38b","unlockVault(uint256)":"57aa6f49","updateBeneficiary(uint256,address)":"3e8eb5a4","userVaults(address,uint256)":"9c841fef","vaults(uint256)":"8c64ea4a"}}}}}