{
  "_format": "hh3-artifact-1",
  "contractName": "CommitmentRegistry",
  "sourceName": "contracts/CommitmentRegistry.sol",
  "abi": [
    {
      "inputs": [],
      "stateMutability": "nonpayable",
      "type": "constructor"
    },
    {
      "inputs": [],
      "name": "ECDSAInvalidSignature",
      "type": "error"
    },
    {
      "inputs": [
        {
          "internalType": "uint256",
          "name": "length",
          "type": "uint256"
        }
      ],
      "name": "ECDSAInvalidSignatureLength",
      "type": "error"
    },
    {
      "inputs": [
        {
          "internalType": "bytes32",
          "name": "s",
          "type": "bytes32"
        }
      ],
      "name": "ECDSAInvalidSignatureS",
      "type": "error"
    },
    {
      "inputs": [
        {
          "internalType": "address",
          "name": "owner",
          "type": "address"
        }
      ],
      "name": "OwnableInvalidOwner",
      "type": "error"
    },
    {
      "inputs": [
        {
          "internalType": "address",
          "name": "account",
          "type": "address"
        }
      ],
      "name": "OwnableUnauthorizedAccount",
      "type": "error"
    },
    {
      "anonymous": false,
      "inputs": [
        {
          "indexed": true,
          "internalType": "bytes32",
          "name": "merkleRoot",
          "type": "bytes32"
        },
        {
          "indexed": false,
          "internalType": "uint256",
          "name": "timestamp",
          "type": "uint256"
        },
        {
          "indexed": false,
          "internalType": "uint256",
          "name": "batchSize",
          "type": "uint256"
        },
        {
          "indexed": true,
          "internalType": "address",
          "name": "submitter",
          "type": "address"
        }
      ],
      "name": "CommitmentAnchored",
      "type": "event"
    },
    {
      "anonymous": false,
      "inputs": [
        {
          "indexed": true,
          "internalType": "address",
          "name": "previousOwner",
          "type": "address"
        },
        {
          "indexed": true,
          "internalType": "address",
          "name": "newOwner",
          "type": "address"
        }
      ],
      "name": "OwnershipTransferred",
      "type": "event"
    },
    {
      "anonymous": false,
      "inputs": [
        {
          "indexed": true,
          "internalType": "address",
          "name": "signer",
          "type": "address"
        }
      ],
      "name": "SignerAuthorized",
      "type": "event"
    },
    {
      "anonymous": false,
      "inputs": [
        {
          "indexed": true,
          "internalType": "address",
          "name": "signer",
          "type": "address"
        }
      ],
      "name": "SignerRevoked",
      "type": "event"
    },
    {
      "inputs": [
        {
          "internalType": "address",
          "name": "signer",
          "type": "address"
        }
      ],
      "name": "addAuthorizedSigner",
      "outputs": [],
      "stateMutability": "nonpayable",
      "type": "function"
    },
    {
      "inputs": [
        {
          "internalType": "bytes32",
          "name": "merkleRoot",
          "type": "bytes32"
        },
        {
          "internalType": "uint256",
          "name": "batchSize",
          "type": "uint256"
        },
        {
          "internalType": "bytes",
          "name": "signature",
          "type": "bytes"
        }
      ],
      "name": "anchorCommitment",
      "outputs": [],
      "stateMutability": "nonpayable",
      "type": "function"
    },
    {
      "inputs": [
        {
          "internalType": "address",
          "name": "",
          "type": "address"
        }
      ],
      "name": "authorizedSigners",
      "outputs": [
        {
          "internalType": "bool",
          "name": "",
          "type": "bool"
        }
      ],
      "stateMutability": "view",
      "type": "function"
    },
    {
      "inputs": [
        {
          "internalType": "bytes32",
          "name": "",
          "type": "bytes32"
        }
      ],
      "name": "commitments",
      "outputs": [
        {
          "internalType": "bytes32",
          "name": "merkleRoot",
          "type": "bytes32"
        },
        {
          "internalType": "uint256",
          "name": "timestamp",
          "type": "uint256"
        },
        {
          "internalType": "uint256",
          "name": "batchSize",
          "type": "uint256"
        },
        {
          "internalType": "address",
          "name": "submitter",
          "type": "address"
        },
        {
          "internalType": "bool",
          "name": "exists",
          "type": "bool"
        }
      ],
      "stateMutability": "view",
      "type": "function"
    },
    {
      "inputs": [
        {
          "internalType": "address",
          "name": "submitter",
          "type": "address"
        }
      ],
      "name": "getBatchCount",
      "outputs": [
        {
          "internalType": "uint256",
          "name": "",
          "type": "uint256"
        }
      ],
      "stateMutability": "view",
      "type": "function"
    },
    {
      "inputs": [
        {
          "internalType": "bytes32",
          "name": "merkleRoot",
          "type": "bytes32"
        }
      ],
      "name": "getCommitment",
      "outputs": [
        {
          "components": [
            {
              "internalType": "bytes32",
              "name": "merkleRoot",
              "type": "bytes32"
            },
            {
              "internalType": "uint256",
              "name": "timestamp",
              "type": "uint256"
            },
            {
              "internalType": "uint256",
              "name": "batchSize",
              "type": "uint256"
            },
            {
              "internalType": "address",
              "name": "submitter",
              "type": "address"
            },
            {
              "internalType": "bool",
              "name": "exists",
              "type": "bool"
            }
          ],
          "internalType": "struct CommitmentRegistry.Commitment",
          "name": "",
          "type": "tuple"
        }
      ],
      "stateMutability": "view",
      "type": "function"
    },
    {
      "inputs": [
        {
          "internalType": "address",
          "name": "submitter",
          "type": "address"
        }
      ],
      "name": "getSubmitterCommitments",
      "outputs": [
        {
          "internalType": "bytes32[]",
          "name": "",
          "type": "bytes32[]"
        }
      ],
      "stateMutability": "view",
      "type": "function"
    },
    {
      "inputs": [],
      "name": "owner",
      "outputs": [
        {
          "internalType": "address",
          "name": "",
          "type": "address"
        }
      ],
      "stateMutability": "view",
      "type": "function"
    },
    {
      "inputs": [
        {
          "internalType": "address",
          "name": "signer",
          "type": "address"
        }
      ],
      "name": "removeAuthorizedSigner",
      "outputs": [],
      "stateMutability": "nonpayable",
      "type": "function"
    },
    {
      "inputs": [],
      "name": "renounceOwnership",
      "outputs": [],
      "stateMutability": "nonpayable",
      "type": "function"
    },
    {
      "inputs": [
        {
          "internalType": "address",
          "name": "",
          "type": "address"
        },
        {
          "internalType": "uint256",
          "name": "",
          "type": "uint256"
        }
      ],
      "name": "submitterCommitments",
      "outputs": [
        {
          "internalType": "bytes32",
          "name": "",
          "type": "bytes32"
        }
      ],
      "stateMutability": "view",
      "type": "function"
    },
    {
      "inputs": [
        {
          "internalType": "address",
          "name": "newOwner",
          "type": "address"
        }
      ],
      "name": "transferOwnership",
      "outputs": [],
      "stateMutability": "nonpayable",
      "type": "function"
    },
    {
      "inputs": [
        {
          "internalType": "bytes32",
          "name": "merkleRoot",
          "type": "bytes32"
        },
        {
          "internalType": "bytes32",
          "name": "leafHash",
          "type": "bytes32"
        },
        {
          "internalType": "bytes32[]",
          "name": "proof",
          "type": "bytes32[]"
        }
      ],
      "name": "verifyCommitment",
      "outputs": [
        {
          "internalType": "bool",
          "name": "",
          "type": "bool"
        }
      ],
      "stateMutability": "view",
      "type": "function"
    }
  ],
  "bytecode": "0x6080806040523460ad573315609a575f8054336001600160a01b0319821681178355916001600160a01b03909116907f8be0079c531659141344cd1fd0a4f28419497f9722a3daafe3b4186f6b6457e09080a3335f52600360205260405f20600160ff19825416179055337fc2f263c027e5d0d20cb69b6068f2144a6ce1b7d1369fdc782788faae4bc63db25f80a2610c7990816100b28239f35b631e4fbdf760e01b5f525f60045260245ffd5b5f80fdfe6080806040526004361015610012575f80fd5b5f3560e01c9081631e37d9a3146109b45750806332caa4dd1461095c5780635240eb321461086b5780635d2b6a4e1461082e578063696f1e3514610705578063715018a6146106ae5780637795820c14610598578063839df945146105385780638da5cb5b14610511578063bfd0f0241461021c578063f2fde38b14610197578063f62a4edb146100e75763f8d39a36146100ab575f80fd5b346100e35760203660031901126100e3576001600160a01b036100cc610a65565b165f526002602052602060405f2054604051908152f35b5f80fd5b346100e35760203660031901126100e357610100610a65565b610108610ae2565b6001600160a01b03165f8181526003602052604090205460ff161561016157805f52600360205260405f2060ff1981541690557f99a705a3c2c3339d0051f56b36a60fef91e30142c93353002617999f27aec4af5f80a2005b60405162461bcd60e51b815260206004820152600e60248201526d139bdd08185d5d1a1bdc9a5e995960921b6044820152606490fd5b346100e35760203660031901126100e3576101b0610a65565b6101b8610ae2565b6001600160a01b03168015610209575f80546001600160a01b03198116831782556001600160a01b0316907f8be0079c531659141344cd1fd0a4f28419497f9722a3daafe3b4186f6b6457e09080a3005b631e4fbdf760e01b5f525f60045260245ffd5b346100e35760603660031901126100e35760243560043560443567ffffffffffffffff81116100e357366023820112156100e357806004013567ffffffffffffffff81116100e35736602482840101116100e35783151580610505575b156104cb57825f52600160205260ff600360405f20015460a01c16610493576103259161031c916040516020810190868252876040820152604081526102c0606082610ac0565b5190207f19457468657265756d205369676e6564204d6573736167653a0a3332000000005f52601c525f6020603c8220928060246040519661030b85601f19601f8601160189610ac0565b828852018387013784010152610b08565b90929192610b42565b6001600160a01b03165f9081526003602052604090205460ff16156104585760405161035081610aa4565b81815260208101428152600360408301928584526060810193338552608082019360018552865f52600160205260405f2092518355516001830155516002820155019160018060a01b039051166bffffffffffffffffffffffff60a01b83541617825551151581549060ff60a01b9060a01b169060ff60a01b1916179055335f52600260205260405f20805468010000000000000000811015610444576103fc91600182018155610a7b565b81549060031b9083821b915f19901b19161790556040519142835260208301527fb5d93561d4dc765719d9f993eb53e8d7074f184170d195fbf8b3d4c954dd249d60403393a3005b634e487b7160e01b5f52604160045260245ffd5b60405162461bcd60e51b81526020600482015260136024820152722ab730baba3437b934bd32b21039b4b3b732b960691b6044820152606490fd5b60405162461bcd60e51b815260206004820152601060248201526f105b1c9958591e48185b98da1bdc995960821b6044820152606490fd5b60405162461bcd60e51b8152602060048201526012602482015271496e76616c69642062617463682073697a6560701b6044820152606490fd5b50612710841115610279565b346100e3575f3660031901126100e3575f546040516001600160a01b039091168152602090f35b346100e35760203660031901126100e3576004355f52600160205260a060405f2060ff815491600181015490600360028201549101549160405194855260208501526040840152600180851b0381166060840152831c1615156080820152f35b346100e35760203660031901126100e3576004355f60806040516105bb81610aa4565b8281528260208201528260408201528260608201520152805f52600160205260ff600360405f20015460a01c1615610672575f52600160205260a060405f206040519061060782610aa4565b8054918281526001820154916020820192835260036002820154916040840192835201549260ff608060608501946001808a1b03871686520194871c1615158452604051948552516020850152516040840152600180851b0390511660608301525115156080820152f35b60405162461bcd60e51b815260206004820152601460248201527310dbdb5b5a5d1b595b9d081b9bdd08199bdd5b9960621b6044820152606490fd5b346100e3575f3660031901126100e3576106c6610ae2565b5f80546001600160a01b0319811682556001600160a01b03167f8be0079c531659141344cd1fd0a4f28419497f9722a3daafe3b4186f6b6457e08280a3005b346100e35760603660031901126100e35760443560043567ffffffffffffffff82116100e357366023830112156100e35781600401359067ffffffffffffffff82116100e3573660248360051b850101116100e357805f52600160205260ff600360405f20015460a01c16156107f8575f906024355b838310156107ec57600190600584901b8601602401358082116107c35760405190602082019283526040820152604081526107b7606082610ac0565b519020925b019161077b565b9060405190602082019283526040820152604081526107e3606082610ac0565b519020926107bc565b60209160405191148152f35b60405162461bcd60e51b815260206004820152600e60248201526d149bdbdd081b9bdd08199bdd5b9960921b6044820152606490fd5b346100e35760203660031901126100e3576001600160a01b0361084f610a65565b165f526003602052602060ff60405f2054166040519015158152f35b346100e35760203660031901126100e357610884610a65565b61088c610ae2565b6001600160a01b0316801561092657805f52600360205260ff60405f2054166108ec57805f52600360205260405f20600160ff198254161790557fc2f263c027e5d0d20cb69b6068f2144a6ce1b7d1369fdc782788faae4bc63db25f80a2005b60405162461bcd60e51b8152602060048201526012602482015271105b1c9958591e48185d5d1a1bdc9a5e995960721b6044820152606490fd5b60405162461bcd60e51b815260206004820152600e60248201526d24b73b30b634b21039b4b3b732b960911b6044820152606490fd5b346100e35760403660031901126100e357610975610a65565b6001600160a01b03165f908152600260205260409020805460243591908210156100e3576020916109a591610a7b565b90549060031b1c604051908152f35b346100e35760203660031901126100e3576001600160a01b036109d5610a65565b165f52600260205260405f20908154808252602082019081935f5260205f20905f5b818110610a4f5750505081610a0d910382610ac0565b604051918291602083019060208452518091526040830191905f5b818110610a36575050500390f35b8251845285945060209384019390920191600101610a28565b82548452602090930192600192830192016109f7565b600435906001600160a01b03821682036100e357565b8054821015610a90575f5260205f2001905f90565b634e487b7160e01b5f52603260045260245ffd5b60a0810190811067ffffffffffffffff82111761044457604052565b90601f8019910116810190811067ffffffffffffffff82111761044457604052565b5f546001600160a01b03163303610af557565b63118cdaa760e01b5f523360045260245ffd5b8151919060418303610b3857610b319250602082015190606060408401519301515f1a90610bb6565b9192909190565b50505f9160029190565b6004811015610ba25780610b54575050565b60018103610b6b5763f645eedf60e01b5f5260045ffd5b60028103610b86575063fce698f760e01b5f5260045260245ffd5b600314610b905750565b6335e2f38360e21b5f5260045260245ffd5b634e487b7160e01b5f52602160045260245ffd5b91907f7fffffffffffffffffffffffffffffff5d576e7357a4501ddfe92f46681b20a08411610c38579160209360809260ff5f9560405194855216868401526040830152606082015282805260015afa15610c2d575f516001600160a01b03811615610c2357905f905f90565b505f906001905f90565b6040513d5f823e3d90fd5b5050505f916003919056fea26469706673582212206717a1c986bf31d880f4f48f7cca3fdcecc2feba8e25359cf403c494a6d3d6a064736f6c634300081c0033",
  "linkReferences": {},
  "deployedLinkReferences": {},
  "immutableReferences": {},
  "inputSourceName": "project/contracts/CommitmentRegistry.sol",
  "buildInfoId": "solc-0_8_28-6da5c9a6224e728c8bed896ae7392738701594c8"
}