{
  "_format": "hh3-artifact-1",
  "contractName": "TimeLockedVault",
  "sourceName": "contracts/TimeLockedVault.sol",
  "abi": [
    {
      "inputs": [],
      "stateMutability": "nonpayable",
      "type": "constructor"
    },
    {
      "inputs": [
        {
          "internalType": "address",
          "name": "owner",
          "type": "address"
        }
      ],
      "name": "OwnableInvalidOwner",
      "type": "error"
    },
    {
      "inputs": [
        {
          "internalType": "address",
          "name": "account",
          "type": "address"
        }
      ],
      "name": "OwnableUnauthorizedAccount",
      "type": "error"
    },
    {
      "inputs": [],
      "name": "ReentrancyGuardReentrantCall",
      "type": "error"
    },
    {
      "anonymous": false,
      "inputs": [
        {
          "indexed": true,
          "internalType": "uint256",
          "name": "vaultId",
          "type": "uint256"
        },
        {
          "indexed": true,
          "internalType": "address",
          "name": "oldBeneficiary",
          "type": "address"
        },
        {
          "indexed": true,
          "internalType": "address",
          "name": "newBeneficiary",
          "type": "address"
        }
      ],
      "name": "BeneficiaryUpdated",
      "type": "event"
    },
    {
      "anonymous": false,
      "inputs": [
        {
          "indexed": true,
          "internalType": "uint256",
          "name": "vaultId",
          "type": "uint256"
        },
        {
          "indexed": true,
          "internalType": "address",
          "name": "owner",
          "type": "address"
        },
        {
          "indexed": false,
          "internalType": "uint256",
          "name": "checkedInAt",
          "type": "uint256"
        },
        {
          "indexed": false,
          "internalType": "uint256",
          "name": "nextDeadline",
          "type": "uint256"
        }
      ],
      "name": "CheckIn",
      "type": "event"
    },
    {
      "anonymous": false,
      "inputs": [
        {
          "indexed": true,
          "internalType": "uint256",
          "name": "vaultId",
          "type": "uint256"
        },
        {
          "indexed": true,
          "internalType": "address",
          "name": "voter",
          "type": "address"
        },
        {
          "indexed": false,
          "internalType": "enum TimeLockedVault.VoteChoice",
          "name": "choice",
          "type": "uint8"
        },
        {
          "indexed": false,
          "internalType": "uint256",
          "name": "votesFor",
          "type": "uint256"
        },
        {
          "indexed": false,
          "internalType": "uint256",
          "name": "votesAgainst",
          "type": "uint256"
        }
      ],
      "name": "DAOVoteCast",
      "type": "event"
    },
    {
      "anonymous": false,
      "inputs": [
        {
          "indexed": true,
          "internalType": "uint256",
          "name": "vaultId",
          "type": "uint256"
        },
        {
          "indexed": true,
          "internalType": "address",
          "name": "arbitrator",
          "type": "address"
        },
        {
          "indexed": true,
          "internalType": "address",
          "name": "beneficiary",
          "type": "address"
        },
        {
          "indexed": false,
          "internalType": "uint256",
          "name": "releasedAt",
          "type": "uint256"
        }
      ],
      "name": "EscrowReleased",
      "type": "event"
    },
    {
      "anonymous": false,
      "inputs": [
        {
          "indexed": true,
          "internalType": "uint256",
          "name": "vaultId",
          "type": "uint256"
        },
        {
          "indexed": true,
          "internalType": "address",
          "name": "signer",
          "type": "address"
        },
        {
          "indexed": false,
          "internalType": "uint256",
          "name": "currentApprovals",
          "type": "uint256"
        },
        {
          "indexed": false,
          "internalType": "uint256",
          "name": "requiredApprovals",
          "type": "uint256"
        }
      ],
      "name": "MultiSigApproval",
      "type": "event"
    },
    {
      "anonymous": false,
      "inputs": [
        {
          "indexed": true,
          "internalType": "address",
          "name": "previousOwner",
          "type": "address"
        },
        {
          "indexed": true,
          "internalType": "address",
          "name": "newOwner",
          "type": "address"
        }
      ],
      "name": "OwnershipTransferred",
      "type": "event"
    },
    {
      "anonymous": false,
      "inputs": [
        {
          "indexed": true,
          "internalType": "uint256",
          "name": "vaultId",
          "type": "uint256"
        },
        {
          "indexed": true,
          "internalType": "address",
          "name": "cancelledBy",
          "type": "address"
        },
        {
          "indexed": false,
          "internalType": "uint256",
          "name": "cancelledAt",
          "type": "uint256"
        }
      ],
      "name": "VaultCancelled",
      "type": "event"
    },
    {
      "anonymous": false,
      "inputs": [
        {
          "indexed": true,
          "internalType": "uint256",
          "name": "vaultId",
          "type": "uint256"
        },
        {
          "indexed": true,
          "internalType": "address",
          "name": "creator",
          "type": "address"
        },
        {
          "indexed": false,
          "internalType": "enum TimeLockedVault.ConditionType",
          "name": "conditionType",
          "type": "uint8"
        },
        {
          "indexed": false,
          "internalType": "uint256",
          "name": "createdAt",
          "type": "uint256"
        }
      ],
      "name": "VaultCreated",
      "type": "event"
    },
    {
      "anonymous": false,
      "inputs": [
        {
          "indexed": true,
          "internalType": "uint256",
          "name": "vaultId",
          "type": "uint256"
        },
        {
          "indexed": true,
          "internalType": "address",
          "name": "unlockedBy",
          "type": "address"
        },
        {
          "indexed": false,
          "internalType": "uint256",
          "name": "unlockedAt",
          "type": "uint256"
        }
      ],
      "name": "VaultUnlocked",
      "type": "event"
    },
    {
      "inputs": [],
      "name": "DEFAULT_ORACLE_STALENESS",
      "outputs": [
        {
          "internalType": "uint256",
          "name": "",
          "type": "uint256"
        }
      ],
      "stateMutability": "view",
      "type": "function"
    },
    {
      "inputs": [
        {
          "internalType": "uint256",
          "name": "_vaultId",
          "type": "uint256"
        }
      ],
      "name": "approveAccess",
      "outputs": [],
      "stateMutability": "nonpayable",
      "type": "function"
    },
    {
      "inputs": [
        {
          "internalType": "uint256",
          "name": "_vaultId",
          "type": "uint256"
        }
      ],
      "name": "cancelVault",
      "outputs": [],
      "stateMutability": "nonpayable",
      "type": "function"
    },
    {
      "inputs": [
        {
          "internalType": "uint256",
          "name": "_vaultId",
          "type": "uint256"
        },
        {
          "internalType": "bool",
          "name": "_approve",
          "type": "bool"
        }
      ],
      "name": "castVote",
      "outputs": [],
      "stateMutability": "nonpayable",
      "type": "function"
    },
    {
      "inputs": [
        {
          "internalType": "uint256",
          "name": "_vaultId",
          "type": "uint256"
        }
      ],
      "name": "checkIn",
      "outputs": [],
      "stateMutability": "nonpayable",
      "type": "function"
    },
    {
      "inputs": [
        {
          "internalType": "uint256",
          "name": "_vaultId",
          "type": "uint256"
        }
      ],
      "name": "conditionalAccess",
      "outputs": [
        {
          "internalType": "bool",
          "name": "met",
          "type": "bool"
        }
      ],
      "stateMutability": "view",
      "type": "function"
    },
    {
      "inputs": [
        {
          "internalType": "bytes32",
          "name": "_passwordHash",
          "type": "bytes32"
        },
        {
          "internalType": "address[]",
          "name": "_voters",
          "type": "address[]"
        },
        {
          "internalType": "uint256",
          "name": "_votingDeadline",
          "type": "uint256"
        },
        {
          "internalType": "uint256",
          "name": "_quorumThreshold",
          "type": "uint256"
        }
      ],
      "name": "createDAOVault",
      "outputs": [
        {
          "internalType": "uint256",
          "name": "",
          "type": "uint256"
        }
      ],
      "stateMutability": "nonpayable",
      "type": "function"
    },
    {
      "inputs": [
        {
          "internalType": "bytes32",
          "name": "_passwordHash",
          "type": "bytes32"
        },
        {
          "internalType": "uint256",
          "name": "_checkInInterval",
          "type": "uint256"
        },
        {
          "internalType": "uint256",
          "name": "_gracePeriod",
          "type": "uint256"
        },
        {
          "internalType": "address",
          "name": "_beneficiary",
          "type": "address"
        }
      ],
      "name": "createDeadMansSwitchVault",
      "outputs": [
        {
          "internalType": "uint256",
          "name": "",
          "type": "uint256"
        }
      ],
      "stateMutability": "nonpayable",
      "type": "function"
    },
    {
      "inputs": [
        {
          "internalType": "bytes32",
          "name": "_passwordHash",
          "type": "bytes32"
        },
        {
          "internalType": "address",
          "name": "_beneficiary",
          "type": "address"
        },
        {
          "internalType": "address",
          "name": "_arbitrator",
          "type": "address"
        }
      ],
      "name": "createEscrowVault",
      "outputs": [
        {
          "internalType": "uint256",
          "name": "",
          "type": "uint256"
        }
      ],
      "stateMutability": "nonpayable",
      "type": "function"
    },
    {
      "inputs": [
        {
          "internalType": "bytes32",
          "name": "_passwordHash",
          "type": "bytes32"
        },
        {
          "internalType": "address[]",
          "name": "_signers",
          "type": "address[]"
        },
        {
          "internalType": "uint256",
          "name": "_requiredApprovals",
          "type": "uint256"
        }
      ],
      "name": "createMultiSigVault",
      "outputs": [
        {
          "internalType": "uint256",
          "name": "",
          "type": "uint256"
        }
      ],
      "stateMutability": "nonpayable",
      "type": "function"
    },
    {
      "inputs": [
        {
          "internalType": "bytes32",
          "name": "_passwordHash",
          "type": "bytes32"
        },
        {
          "internalType": "address",
          "name": "_oracleAddress",
          "type": "address"
        },
        {
          "internalType": "uint256",
          "name": "_priceThreshold",
          "type": "uint256"
        },
        {
          "internalType": "bool",
          "name": "_priceAbove",
          "type": "bool"
        },
        {
          "internalType": "uint256",
          "name": "_maxStaleness",
          "type": "uint256"
        }
      ],
      "name": "createPriceOracleVault",
      "outputs": [
        {
          "internalType": "uint256",
          "name": "",
          "type": "uint256"
        }
      ],
      "stateMutability": "nonpayable",
      "type": "function"
    },
    {
      "inputs": [
        {
          "internalType": "bytes32",
          "name": "_passwordHash",
          "type": "bytes32"
        },
        {
          "internalType": "uint256",
          "name": "_unlockTime",
          "type": "uint256"
        }
      ],
      "name": "createTimeLockVault",
      "outputs": [
        {
          "internalType": "uint256",
          "name": "",
          "type": "uint256"
        }
      ],
      "stateMutability": "nonpayable",
      "type": "function"
    },
    {
      "inputs": [
        {
          "internalType": "uint256",
          "name": "",
          "type": "uint256"
        },
        {
          "internalType": "uint256",
          "name": "",
          "type": "uint256"
        }
      ],
      "name": "daoVoters",
      "outputs": [
        {
          "internalType": "address",
          "name": "",
          "type": "address"
        }
      ],
      "stateMutability": "view",
      "type": "function"
    },
    {
      "inputs": [
        {
          "internalType": "uint256",
          "name": "",
          "type": "uint256"
        },
        {
          "internalType": "address",
          "name": "",
          "type": "address"
        }
      ],
      "name": "daoVotes",
      "outputs": [
        {
          "internalType": "enum TimeLockedVault.VoteChoice",
          "name": "",
          "type": "uint8"
        }
      ],
      "stateMutability": "view",
      "type": "function"
    },
    {
      "inputs": [
        {
          "internalType": "uint256",
          "name": "_vaultId",
          "type": "uint256"
        }
      ],
      "name": "getDAOVoteResults",
      "outputs": [
        {
          "internalType": "uint256",
          "name": "votesFor",
          "type": "uint256"
        },
        {
          "internalType": "uint256",
          "name": "votesAgainst",
          "type": "uint256"
        },
        {
          "internalType": "uint256",
          "name": "totalEligible",
          "type": "uint256"
        },
        {
          "internalType": "uint256",
          "name": "quorumThreshold",
          "type": "uint256"
        },
        {
          "internalType": "bool",
          "name": "votingEnded",
          "type": "bool"
        },
        {
          "internalType": "bool",
          "name": "conditionMet",
          "type": "bool"
        }
      ],
      "stateMutability": "view",
      "type": "function"
    },
    {
      "inputs": [
        {
          "internalType": "uint256",
          "name": "_vaultId",
          "type": "uint256"
        }
      ],
      "name": "getDAOVoters",
      "outputs": [
        {
          "internalType": "address[]",
          "name": "",
          "type": "address[]"
        }
      ],
      "stateMutability": "view",
      "type": "function"
    },
    {
      "inputs": [
        {
          "internalType": "uint256",
          "name": "_vaultId",
          "type": "uint256"
        }
      ],
      "name": "getDeadMansSwitchStatus",
      "outputs": [
        {
          "internalType": "uint256",
          "name": "timeRemaining",
          "type": "uint256"
        },
        {
          "internalType": "bool",
          "name": "isTriggered",
          "type": "bool"
        }
      ],
      "stateMutability": "view",
      "type": "function"
    },
    {
      "inputs": [
        {
          "internalType": "uint256",
          "name": "_vaultId",
          "type": "uint256"
        }
      ],
      "name": "getMultiSigSigners",
      "outputs": [
        {
          "internalType": "address[]",
          "name": "",
          "type": "address[]"
        }
      ],
      "stateMutability": "view",
      "type": "function"
    },
    {
      "inputs": [
        {
          "internalType": "address",
          "name": "_user",
          "type": "address"
        }
      ],
      "name": "getUserVaults",
      "outputs": [
        {
          "internalType": "uint256[]",
          "name": "",
          "type": "uint256[]"
        }
      ],
      "stateMutability": "view",
      "type": "function"
    },
    {
      "inputs": [
        {
          "internalType": "uint256",
          "name": "_vaultId",
          "type": "uint256"
        }
      ],
      "name": "getVault",
      "outputs": [
        {
          "components": [
            {
              "internalType": "uint256",
              "name": "id",
              "type": "uint256"
            },
            {
              "internalType": "address",
              "name": "creator",
              "type": "address"
            },
            {
              "internalType": "bytes32",
              "name": "passwordHash",
              "type": "bytes32"
            },
            {
              "internalType": "enum TimeLockedVault.ConditionType",
              "name": "conditionType",
              "type": "uint8"
            },
            {
              "internalType": "enum TimeLockedVault.VaultStatus",
              "name": "status",
              "type": "uint8"
            },
            {
              "internalType": "uint256",
              "name": "createdAt",
              "type": "uint256"
            },
            {
              "internalType": "uint256",
              "name": "updatedAt",
              "type": "uint256"
            },
            {
              "internalType": "uint256",
              "name": "unlockTime",
              "type": "uint256"
            },
            {
              "internalType": "uint256",
              "name": "checkInInterval",
              "type": "uint256"
            },
            {
              "internalType": "uint256",
              "name": "lastCheckIn",
              "type": "uint256"
            },
            {
              "internalType": "uint256",
              "name": "gracePeriod",
              "type": "uint256"
            },
            {
              "internalType": "address",
              "name": "beneficiary",
              "type": "address"
            },
            {
              "internalType": "uint256",
              "name": "requiredApprovals",
              "type": "uint256"
            },
            {
              "internalType": "uint256",
              "name": "approvalCount",
              "type": "uint256"
            },
            {
              "internalType": "uint256",
              "name": "votingDeadline",
              "type": "uint256"
            },
            {
              "internalType": "uint256",
              "name": "quorumThreshold",
              "type": "uint256"
            },
            {
              "internalType": "uint256",
              "name": "votesFor",
              "type": "uint256"
            },
            {
              "internalType": "uint256",
              "name": "votesAgainst",
              "type": "uint256"
            },
            {
              "internalType": "uint256",
              "name": "totalEligibleVoters",
              "type": "uint256"
            },
            {
              "internalType": "uint256",
              "name": "priceThreshold",
              "type": "uint256"
            },
            {
              "internalType": "bool",
              "name": "priceAbove",
              "type": "bool"
            },
            {
              "internalType": "address",
              "name": "oracleAddress",
              "type": "address"
            },
            {
              "internalType": "uint256",
              "name": "oracleMaxStaleness",
              "type": "uint256"
            },
            {
              "internalType": "address",
              "name": "arbitrator",
              "type": "address"
            },
            {
              "internalType": "bool",
              "name": "exists",
              "type": "bool"
            }
          ],
          "internalType": "struct TimeLockedVault.Vault",
          "name": "",
          "type": "tuple"
        }
      ],
      "stateMutability": "view",
      "type": "function"
    },
    {
      "inputs": [],
      "name": "getVaultCount",
      "outputs": [
        {
          "internalType": "uint256",
          "name": "",
          "type": "uint256"
        }
      ],
      "stateMutability": "view",
      "type": "function"
    },
    {
      "inputs": [
        {
          "internalType": "uint256",
          "name": "",
          "type": "uint256"
        },
        {
          "internalType": "address",
          "name": "",
          "type": "address"
        }
      ],
      "name": "multiSigApprovals",
      "outputs": [
        {
          "internalType": "bool",
          "name": "",
          "type": "bool"
        }
      ],
      "stateMutability": "view",
      "type": "function"
    },
    {
      "inputs": [
        {
          "internalType": "uint256",
          "name": "",
          "type": "uint256"
        },
        {
          "internalType": "uint256",
          "name": "",
          "type": "uint256"
        }
      ],
      "name": "multiSigSigners",
      "outputs": [
        {
          "internalType": "address",
          "name": "",
          "type": "address"
        }
      ],
      "stateMutability": "view",
      "type": "function"
    },
    {
      "inputs": [],
      "name": "nextVaultId",
      "outputs": [
        {
          "internalType": "uint256",
          "name": "",
          "type": "uint256"
        }
      ],
      "stateMutability": "view",
      "type": "function"
    },
    {
      "inputs": [],
      "name": "owner",
      "outputs": [
        {
          "internalType": "address",
          "name": "",
          "type": "address"
        }
      ],
      "stateMutability": "view",
      "type": "function"
    },
    {
      "inputs": [
        {
          "internalType": "uint256",
          "name": "_vaultId",
          "type": "uint256"
        }
      ],
      "name": "releaseEscrow",
      "outputs": [],
      "stateMutability": "nonpayable",
      "type": "function"
    },
    {
      "inputs": [],
      "name": "renounceOwnership",
      "outputs": [],
      "stateMutability": "nonpayable",
      "type": "function"
    },
    {
      "inputs": [
        {
          "internalType": "address",
          "name": "newOwner",
          "type": "address"
        }
      ],
      "name": "transferOwnership",
      "outputs": [],
      "stateMutability": "nonpayable",
      "type": "function"
    },
    {
      "inputs": [
        {
          "internalType": "uint256",
          "name": "_vaultId",
          "type": "uint256"
        }
      ],
      "name": "triggerDeadMansSwitch",
      "outputs": [],
      "stateMutability": "nonpayable",
      "type": "function"
    },
    {
      "inputs": [
        {
          "internalType": "uint256",
          "name": "_vaultId",
          "type": "uint256"
        }
      ],
      "name": "unlockVault",
      "outputs": [],
      "stateMutability": "nonpayable",
      "type": "function"
    },
    {
      "inputs": [
        {
          "internalType": "uint256",
          "name": "_vaultId",
          "type": "uint256"
        },
        {
          "internalType": "address",
          "name": "_newBeneficiary",
          "type": "address"
        }
      ],
      "name": "updateBeneficiary",
      "outputs": [],
      "stateMutability": "nonpayable",
      "type": "function"
    },
    {
      "inputs": [
        {
          "internalType": "address",
          "name": "",
          "type": "address"
        },
        {
          "internalType": "uint256",
          "name": "",
          "type": "uint256"
        }
      ],
      "name": "userVaults",
      "outputs": [
        {
          "internalType": "uint256",
          "name": "",
          "type": "uint256"
        }
      ],
      "stateMutability": "view",
      "type": "function"
    },
    {
      "inputs": [
        {
          "internalType": "uint256",
          "name": "",
          "type": "uint256"
        }
      ],
      "name": "vaults",
      "outputs": [
        {
          "internalType": "uint256",
          "name": "id",
          "type": "uint256"
        },
        {
          "internalType": "address",
          "name": "creator",
          "type": "address"
        },
        {
          "internalType": "bytes32",
          "name": "passwordHash",
          "type": "bytes32"
        },
        {
          "internalType": "enum TimeLockedVault.ConditionType",
          "name": "conditionType",
          "type": "uint8"
        },
        {
          "internalType": "enum TimeLockedVault.VaultStatus",
          "name": "status",
          "type": "uint8"
        },
        {
          "internalType": "uint256",
          "name": "createdAt",
          "type": "uint256"
        },
        {
          "internalType": "uint256",
          "name": "updatedAt",
          "type": "uint256"
        },
        {
          "internalType": "uint256",
          "name": "unlockTime",
          "type": "uint256"
        },
        {
          "internalType": "uint256",
          "name": "checkInInterval",
          "type": "uint256"
        },
        {
          "internalType": "uint256",
          "name": "lastCheckIn",
          "type": "uint256"
        },
        {
          "internalType": "uint256",
          "name": "gracePeriod",
          "type": "uint256"
        },
        {
          "internalType": "address",
          "name": "beneficiary",
          "type": "address"
        },
        {
          "internalType": "uint256",
          "name": "requiredApprovals",
          "type": "uint256"
        },
        {
          "internalType": "uint256",
          "name": "approvalCount",
          "type": "uint256"
        },
        {
          "internalType": "uint256",
          "name": "votingDeadline",
          "type": "uint256"
        },
        {
          "internalType": "uint256",
          "name": "quorumThreshold",
          "type": "uint256"
        },
        {
          "internalType": "uint256",
          "name": "votesFor",
          "type": "uint256"
        },
        {
          "internalType": "uint256",
          "name": "votesAgainst",
          "type": "uint256"
        },
        {
          "internalType": "uint256",
          "name": "totalEligibleVoters",
          "type": "uint256"
        },
        {
          "internalType": "uint256",
          "name": "priceThreshold",
          "type": "uint256"
        },
        {
          "internalType": "bool",
          "name": "priceAbove",
          "type": "bool"
        },
        {
          "internalType": "address",
          "name": "oracleAddress",
          "type": "address"
        },
        {
          "internalType": "uint256",
          "name": "oracleMaxStaleness",
          "type": "uint256"
        },
        {
          "internalType": "address",
          "name": "arbitrator",
          "type": "address"
        },
        {
          "internalType": "bool",
          "name": "exists",
          "type": "bool"
        }
      ],
      "stateMutability": "view",
      "type": "function"
    }
  ],
  "bytecode": "0x6080806040523460995733156086575f8054336001600160a01b0319821681178355916001600160a01b03909116907f8be0079c531659141344cd1fd0a4f28419497f9722a3daafe3b4186f6b6457e09080a360017f9b779b17422d0df92223018b32b4d1fa46e071723d6817e2486d003becc55f005560018055612fb2908161009e8239f35b631e4fbdf760e01b5f525f60045260245ffd5b5f80fdfe6101c0806040526004361015610013575f80fd5b5f3560e01c908163061fd021146125cc575080630cc1a407146124fd57806312ac1763146124e0578063149317c0146124c457806315373e3d146122365780631a9ba00d146121ed578063210af0fb14611fdb5780633e8eb5a414611e5b578063568497bb14611c7a57806357aa6f49146119c7578063715018a61461197057806374d4e4911461194757806378640668146118f95780637afdcb09146117cc5780637b707f0114611656578063816078931461162e57806381ff793f1461139857806382aa0a1f1461126a5780638c64ea4a1461103f5780638da5cb5b146110185780639403b63414610c855780639c841fef14610c2d578063bc161f8714610be4578063d1bed38614610bb5578063de22f0c2146108e6578063de244be7146106e9578063dfc17308146106a1578063e5009cc314610634578063e7f3c69c14610580578063e95a644f1461044b578063ebfe7a1d146103ce578063ed653164146102115763f2fde38b14610188575f80fd5b3461020d57602036600319011261020d576101a16127bc565b6101a9612de1565b6001600160a01b031680156101fa575f80546001600160a01b03198116831782556001600160a01b0316907f8be0079c531659141344cd1fd0a4f28419497f9722a3daafe3b4186f6b6457e09080a3005b631e4fbdf760e01b5f525f60045260245ffd5b5f80fd5b3461020d57602036600319011261020d5760043561022d612da9565b805f52600260205261024b60ff601560405f20015460a01c166129bf565b805f52600260205260ff600360405f20015460081c1660048110156103ba576102749015612a42565b805f52600260205260405f206003810160ff81541660068110156103ba5760050361037f5760158201546001600160a01b0316330361033a5761010061ff0019825416179055426005820155600a60018060a01b0391015416604051428152827f23d38aeadadb5b25e6436c7b0d6fcdc7d408b609d4f1ce095cff6bbbf9acc41e60203393a4604051904282527fc8ee545e5b582cef6b0ab3ab5a84dc33bd22cc3ae4fc4b86d4004f1ddf88b74860203393a360015f516020612f5d5f395f51905f5255005b60405162461bcd60e51b815260206004820152601b60248201527f4f6e6c792061726269747261746f722063616e2072656c6561736500000000006044820152606490fd5b60405162461bcd60e51b8152602060048201526013602482015272139bdd08185b88195cd8dc9bddc81d985d5b1d606a1b6044820152606490fd5b634e487b7160e01b5f52602160045260245ffd5b3461020d57602036600319011261020d576004355f52600660205260405f206040519081602082549182815201915f5260205f20905f5b81811061042c576104288561041c81870382612ce0565b60405191829182612869565b0390f35b82546001600160a01b0316845260209093019260019283019201610405565b3461020d57602036600319011261020d57600435805f52600260205261047d60ff601560405f20015460a01c166129bf565b805f52600260205261049f60018060a01b03600160405f200154163314612a02565b805f52600260205260ff600360405f20015460081c1660048110156103ba576104c89015612a42565b805f52600260205260405f2060ff60038201541660068110156103ba5760010361053b57600761050691426008820155426005820155015442612abf565b906040519142835260208301527f58b5ff600c8f70ee1f1b0b8580a69c78ba78f51913156ca1d798fc4322c386d960403393a3005b60405162461bcd60e51b815260206004820152601d60248201527f4e6f7420612064656164206d616e277320737769746368207661756c740000006044820152606490fd5b3461020d57602036600319011261020d576001600160a01b036105a16127bc565b165f52600760205260405f20604051806020835491828152019081935f5260205f20905f5b81811061061e57505050816105dc910382612ce0565b604051918291602083019060208452518091526040830191905f5b818110610605575050500390f35b82518452859450602093840193909201916001016105f7565b82548452602090930192600192830192016105c6565b3461020d57602036600319011261020d576004355f52600460205260405f206040519081602082549182815201915f5260205f20905f5b818110610682576104288561041c81870382612ce0565b82546001600160a01b031684526020909301926001928301920161066b565b3461020d576106af36612853565b905f52600460205260405f20805482101561020d576020916106d09161282a565b905460405160039290921b1c6001600160a01b03168152f35b3461020d57606036600319011261020d576004356107056127a6565b6044356001600160a01b038116919082900361020d576001600160a01b0316906107308215156128ab565b80156108ac5733811461086757808214610823576015836107546020951515612939565b600154936107618561297d565b60019081555f8681526002808952604080832089815593840180546001600160a01b0319908116339081179092559285019690965560038401805461ffff19166005908117909155426004860181905590850155600a8401805490921690941790559301805460ff60a01b199095166001600160a81b031990951694909417600160a01b17909355815260078452206107fb90829061298b565b604051600581524283820152815f516020612f3d5f395f51905f5260403393a3604051908152f35b606460405162461bcd60e51b815260206004820152602060248201527f42656e65666963696172792063616e6e6f742062652061726269747261746f726044820152fd5b60405162461bcd60e51b815260206004820152601c60248201527f41726269747261746f722063616e6e6f742062652063726561746f72000000006044820152606490fd5b60405162461bcd60e51b815260206004820152601260248201527124b73b30b634b21030b93134ba3930ba37b960711b6044820152606490fd5b3461020d57606036600319011261020d5760043560243567ffffffffffffffff811161020d5761091a9036906004016127df565b6044929192359160028210610b7057600a8211610b3a5760018310610af557818311610ab0578061094e6015921515612939565b6001549361095b8561297d565b60019081555f8681526002602081815260408084208a815594850180546001600160a01b031916331790558483019690965560038401805461ffff19169092179091554260048085018290556005850191909155600b840194909455600c830182905594909101805460ff60a01b1916600160a01b179055925290209267ffffffffffffffff8211610a9c57600160401b8211610a9c578354828555808310610a76575b50925f5260205f20925f905b828210610a5157602084335f5260078252610a298160405f2061298b565b604051600281524283820152815f516020612f3d5f395f51905f5260403393a3604051908152f35b8035916001600160a01b038316830361020d5760206001920192818701550190610a0b565b845f528260205f2091820191015b818110610a9157506109ff565b5f8155600101610a84565b634e487b7160e01b5f52604160045260245ffd5b60405162461bcd60e51b815260206004820152601860248201527f5265717569726564203e20746f74616c207369676e65727300000000000000006044820152606490fd5b60405162461bcd60e51b815260206004820152601860248201527f4e656564206174206c65617374203120617070726f76616c00000000000000006044820152606490fd5b60405162461bcd60e51b815260206004820152600e60248201526d4d6178203130207369676e65727360901b6044820152606490fd5b60405162461bcd60e51b815260206004820152601760248201527f4e656564206174206c656173742032207369676e6572730000000000000000006044820152606490fd5b3461020d57610bc336612853565b905f52600660205260405f20805482101561020d576020916106d09161282a565b3461020d57604036600319011261020d57610bfd6127a6565b6004355f52600360205260405f209060018060a01b03165f52602052602060ff60405f2054166040519015158152f35b3461020d57604036600319011261020d57610c466127bc565b6001600160a01b03165f9081526007602052604090208054602435919082101561020d57602091610c769161282a565b90549060031b1c604051908152f35b3461020d57602036600319011261020d576004355f610300604051610ca981612cc3565b8281528260208201528260408201528260608201528260808201528260a08201528260c08201528260e08201528261010082015282610120820152826101408201528261016082015282610180820152826101a0820152826101c0820152826101e08201528261020082015282610220820152826102408201528261026082015282610280820152826102a0820152826102c0820152826102e08201520152805f526002602052610d6660ff601560405f20015460a01c166129bf565b5f52600260205260405f20604051610d7d81612cc3565b8154815260018201546001600160a01b0316602082015260028201546040820152600382015460ff81169060068210156103ba5760ff91606084015260081c169160048310156103ba57601560ff91610320946080850152600481015460a0850152600581015460c0850152600681015460e085015260078101546101008501526008810154610120850152600981015461014085015260018060a01b03600a82015416610160850152600b810154610180850152600c8101546101a0850152600d8101546101c0850152600e8101546101e0850152600f8101546102008501526010810154610220850152601181015461024085015260128101546102608501526013810154838116151561028086015260018060a01b039060081c166102a085015260148101546102c0850152015460018060a01b0381166102e084015260a01c161515610300820152610300604051918051835260018060a01b03602082015116602084015260408101516040840152610f0260608201516060850190612810565b610f146080820151608085019061281d565b60a081015160a084015260c081015160c084015260e081015160e084015261010081015161010084015261012081015161012084015261014081015161014084015260018060a01b03610160820151166101608401526101808101516101808401526101a08101516101a08401526101c08101516101c08401526101e08101516101e0840152610200810151610200840152610220810151610220840152610240810151610240840152610260810151610260840152610280810151151561028084015260018060a01b036102a0820151166102a08401526102c08101516102c084015260018060a01b036102e0820151166102e084015201511515610300820152f35b3461020d575f36600319011261020d575f546040516001600160a01b039091168152602090f35b3461020d57602036600319011261020d576004355f52600260205260405f206101a0526101a0515460018060a01b0360016101a0510154166101005260026101a05101546101405260036101a051015460046101a051015460056101a051015460066101a051015460076101a051015460086101a051015460096101a05101549060018060a01b03600a6101a05101541692600b6101a051015494600c6101a051015496600d6101a05101549861118a600e6101a05101549b600f6101a05101549d60106101a051015460805260116101a051015460c05260126101a05101546101805260136101a05101546101605260146101a05101546101205260156101a051015460e05260405160a05260a0515261010051602060a051015261014051604060a0510152611178606060a0510160ff8316612810565b60ff608060a051019160081c1661281d565b60a08051015260c060a051015260e060a051015261010060a051015261012060a051015261014060a051015261016060a051015261018060a05101526101a060a05101526101c060a05101526101e060a051015261020060a051015260805161022060a051015260c05161024060a05101526101805161026060a051015260ff6101605116151561028060a051015260018060a01b036101605160081c166102a060a0510152610120516102c060a051015260018060a01b0360e051166102e060a051015260ff60e05160a01c16151561030060a051015261032060a051f35b3461020d57602036600319011261020d57600435805f52600260205261129c60ff601560405f20015460a01c166129bf565b5f905f52600260205260405f209060ff60038301541660068110156103ba5760030361136157600f820154906010830154601184015493600d600e82015491015442101591828093611358575b611315575b9460c0956040519586526020860152604085015260608401526080830152151560a0820152f35b9250612710840294848604612710148515171561134457816113398260c098612b6c565b1015939095506112ee565b634e487b7160e01b5f52601160045260245ffd5b508515156112e9565b60405162461bcd60e51b815260206004820152600f60248201526e139bdd081848111053c81d985d5b1d608a1b6044820152606490fd5b3461020d57608036600319011261020d5760043560243567ffffffffffffffff811161020d576113cc9036906004016127df565b6044929192359160643590600183106115f157428411156115ac57811515806115a0575b1561156557601591611403821515612939565b600154946114108661297d565b60019081555f8781526002602081815260408084208b815594850180546001600160a01b03191633179055918401969096556003808401805461ffff1916909117905542600484018190556005840155600d830193909355600e820193909355600f8101839055601081018390556011810186905593909301805460ff60a01b1916600160a01b1790556006909152209267ffffffffffffffff8211610a9c57600160401b8211610a9c57835482855580831061153f575b50925f5260205f20925f905b82821061151a57602084335f52600782526114f28160405f2061298b565b604051600381524283820152815f516020612f3d5f395f51905f5260403393a3604051908152f35b8035916001600160a01b038316830361020d57602060019201928187015501906114d4565b845f528260205f2091820191015b81811061155a57506114c8565b5f815560010161154d565b60405162461bcd60e51b815260206004820152601360248201527251756f72756d3a20312d31303030302062707360681b6044820152606490fd5b506127108211156113f0565b60405162461bcd60e51b815260206004820152601e60248201527f446561646c696e65206d75737420626520696e207468652066757475726500006044820152606490fd5b60405162461bcd60e51b81526020600482015260156024820152742732b2b21030ba103632b0b9ba1018903b37ba32b960591b6044820152606490fd5b3461020d57602036600319011261020d57602061164c600435612b42565b6040519015158152f35b3461020d57602036600319011261020d57600435611672612da9565b805f52600260205261169060ff601560405f20015460a01c166129bf565b805f52600260205260ff600360405f20015460081c1660048110156103ba576116b99015612a42565b805f52600260205260405f206003810160ff81541660068110156103ba5760016116e39114612a81565b600a8201546001600160a01b031633036117945761170083612b42565b156117585761010061ff0019825416179055600542910155604051904282527fc8ee545e5b582cef6b0ab3ab5a84dc33bd22cc3ae4fc4b86d4004f1ddf88b74860203393a360015f516020612f5d5f395f51905f5255005b60405162461bcd60e51b815260206004820152601460248201527314ddda5d18da081b9bdd081d1c9a59d9d95c995960621b6044820152606490fd5b60405162461bcd60e51b815260206004820152601060248201526f4f6e6c792062656e656669636961727960801b6044820152606490fd5b3461020d57604036600319011261020d57600435602435428111156118aa576015826117fb6020941515612939565b600154926118088461297d565b60019081555f8581526002808852604080832088815593840180546001600160a01b031916339081179091559184019590955560038301805461ffff191690554260048401819055600584015560068301939093559301805460ff60a01b1916600160a01b179055825260078452902061188390829061298b565b6040515f81524283820152815f516020612f3d5f395f51905f5260403393a3604051908152f35b60405162461bcd60e51b815260206004820152602160248201527f556e6c6f636b2074696d65206d75737420626520696e207468652066757475726044820152606560f81b6064820152608490fd5b3461020d57604036600319011261020d576119126127a6565b6004355f52600560205260405f209060018060a01b03165f52602052602060ff60405f20541661194560405180926127d2565bf35b3461020d575f36600319011261020d576001545f19810190811161134457602090604051908152f35b3461020d575f36600319011261020d57611988612de1565b5f80546001600160a01b0319811682556001600160a01b03167f8be0079c531659141344cd1fd0a4f28419497f9722a3daafe3b4186f6b6457e08280a3005b3461020d57602036600319011261020d576004356119e3612da9565b805f526002602052611a0160ff601560405f20015460a01c166129bf565b805f52600260205260ff600360405f20015460081c1660048110156103ba57611a2a9015612a42565b805f52600260205260405f206003810160ff81541660068110156103ba5760058114611c3f5760018114611bfa575f905f81158015611bee575b15611b915750505060018201546001600160a01b031633148015611b68575b15611b2357611a9183612b42565b15611ae95761010061ff0019825416179055600542910155604051904282527fc8ee545e5b582cef6b0ab3ab5a84dc33bd22cc3ae4fc4b86d4004f1ddf88b74860203393a360015f516020612f5d5f395f51905f5255005b60405162461bcd60e51b815260206004820152601260248201527110dbdb991a5d1a5bdb9cc81b9bdd081b595d60721b6044820152606490fd5b60405162461bcd60e51b815260206004820152601860248201527f4e6f7420617574686f72697a656420746f20756e6c6f636b00000000000000006044820152606490fd5b50600a8201546001600160a01b03168015159081611b87575b50611a83565b9050331484611b81565b6103ba5760028103611bc657505060018201546001600160a01b031633148015611bbb575b611a83565b50611bb63384612d5a565b600303611a83575060018201546001600160a01b0316331480611bb65750611bb63384612d02565b50505f60048214611a64565b60405162461bcd60e51b815260206004820152601b60248201527f5573652074726967676572446561644d616e73537769746368282900000000006044820152606490fd5b60405162461bcd60e51b81526020600482015260136024820152725573652072656c65617365457363726f77282960681b6044820152606490fd5b3461020d57602036600319011261020d57600435805f526002602052611cac60ff601560405f20015460a01c166129bf565b805f52600260205260ff600360405f20015460081c1660048110156103ba57611cd59015612a42565b805f52600260205260405f209060ff60038301541660068110156103ba57600203611e1e575f81815260036020908152604080832033845290915290205460ff16611de657611d243382612d5a565b15611da157805f52600360205260405f2060018060a01b0333165f5260205260405f20600160ff19825416179055600b600c830192611d63845461297d565b809455426005820155015460405192835260208301527fc993e60c6bf9dbd562b8c3796f50de8d9e54439cf55afc37e33ffef7405ed90460403393a3005b60405162461bcd60e51b815260206004820152601860248201527f4e6f7420616e20617574686f72697a6564207369676e657200000000000000006044820152606490fd5b60405162461bcd60e51b815260206004820152601060248201526f105b1c9958591e48185c1c1c9bdd995960821b6044820152606490fd5b60405162461bcd60e51b8152602060048201526015602482015274139bdd0818481b5d5b1d1a4b5cda59c81d985d5b1d605a1b6044820152606490fd5b3461020d57604036600319011261020d57600435611e776127a6565b815f526002602052611e9560ff601560405f20015460a01c166129bf565b815f526002602052611eb760018060a01b03600160405f200154163314612a02565b815f52600260205260ff600360405f20015460081c1660048110156103ba57611ee09015612a42565b6001600160a01b031690611ef58215156128ab565b611f01338314156128ed565b805f52600260205260405f209060ff60038301541660068110156103ba5760018114908115611fd0575b5015611f7f57600a82019160018060a01b0383541692846001600160601b0360a01b8254161790556005429101557ff585da3452445cd066854ce9c4f3306e8deddd1d571e840b1dddaa1f3d4de53c5f80a4005b60405162461bcd60e51b8152602060048201526024808201527f5661756c74207479706520646f6573206e6f7420686176652062656e656669636044820152636961727960e01b6064820152608490fd5b600591501484611f2b565b3461020d5760a036600319011261020d57600435611ff76127a6565b604435906064359283151580940361020d576084356001600160a01b038316156121af57831561216a5761202c821515612939565b62093a80811161212f57602094601593600154956120498761297d565b60019081555f8881526002808b52604090912089815591820180546001600160a01b0319163317905581019590955560038501805461ffff1916600490811790915542908601819055600586015560128501556013840180546001600160a81b03191660ff939093169290921760089190911b610100600160a81b03161790558061212a5750610e105b601482015501805460ff60a01b1916600160a01b179055335f908152600783526040902061210290829061298b565b604051600481524283820152815f516020612f3d5f395f51905f5260403393a3604051908152f35b6120d3565b60405162461bcd60e51b81526020600482015260136024820152725374616c656e65737320746f6f206c6172676560681b6044820152606490fd5b60405162461bcd60e51b815260206004820152601b60248201527f5072696365207468726573686f6c64206d757374206265203e203000000000006044820152606490fd5b60405162461bcd60e51b8152602060048201526016602482015275496e76616c6964206f7261636c65206164647265737360501b6044820152606490fd5b3461020d57602036600319011261020d576040612228600435805f52600260205261222360ff6015855f20015460a01c166129bf565b612ad9565b825191825215156020820152f35b3461020d57604036600319011261020d57602435600435811515820361020d57805f52600260205261227460ff601560405f20015460a01c166129bf565b805f52600260205260ff600360405f20015460081c1660048110156103ba5761229d9015612a42565b805f52600260205260405f209160ff60038401541660068110156103ba5760030361248857600d83015442101561244d575f82815260056020908152604080832033845290915290205460ff1660038110156103ba57612418576123013383612d02565b156123db5780156123a2575f8281526005602090815260408083203384529091529020805460ff19166001179055600f8301805461233e9061297d565b90555b4260058401551561239a576001915b6010600f8201549101549061236860405180956127d2565b602084015260408301527f4fb436bc3e53ee9d93d9cad6bc99565de46432e0ea0e1c0655ef56f189658c9660603393a3005b600291612350565b5f8281526005602090815260408083203384529091529020805460ff191660021790556010830180546123d49061297d565b9055612341565b60405162461bcd60e51b81526020600482015260156024820152742737ba1030b71032b634b3b4b13632903b37ba32b960591b6044820152606490fd5b60405162461bcd60e51b815260206004820152600d60248201526c105b1c9958591e481d9bdd1959609a1b6044820152606490fd5b60405162461bcd60e51b8152602060048201526013602482015272159bdd1a5b99c81c195c9a5bd908195b991959606a1b6044820152606490fd5b60405162461bcd60e51b8152602060048201526014602482015273139bdd081848111053c81d9bdd19481d985d5b1d60621b6044820152606490fd5b3461020d575f36600319011261020d576020604051610e108152f35b3461020d575f36600319011261020d576020600154604051908152f35b3461020d57602036600319011261020d57600435805f52600260205261252f60ff601560405f20015460a01c166129bf565b805f52600260205261255160018060a01b03600160405f200154163314612a02565b805f52600260205260ff600360405f20015460081c1660048110156103ba5761257a9015612a42565b805f52600260205260405f206003810161020061ff0019825416179055600542910155604051904282527f63c22da2349a9598e170cb9c7e26f1f906bea8e78f0dced9d0b85b17ffe0d61160203393a3005b3461020d57608036600319011261020d576064356001600160a01b0381169160243591604435916004359185900361020d576201518084106127595750610e108210612714578360159261262360209615156128ab565b61262f338314156128ed565b61263a831515612939565b600154946126478661297d565b600155855f526002875260405f20938685556001850160018060a01b0333166001600160601b0360a01b825416179055600285015560038401600160ff1982541617815561ff0019815416905542600485015542600585015560078401554260088401556009830155600a8201906001600160601b0360a01b82541617905501600160a01b60ff60a01b19825416179055335f52600782526126ec8160405f2061298b565b604051600181524283820152815f516020612f3d5f395f51905f5260403393a3604051908152f35b60405162461bcd60e51b815260206004820152601e60248201527f477261636520706572696f64206d757374206265203e3d203120686f757200006044820152606490fd5b62461bcd60e51b815260206004820152602260248201527f436865636b2d696e20696e74657276616c206d757374206265203e3d20312064604482015261617960f01b6064820152608490fd5b602435906001600160a01b038216820361020d57565b600435906001600160a01b038216820361020d57565b9060038210156103ba5752565b9181601f8401121561020d5782359167ffffffffffffffff831161020d576020808501948460051b01011161020d57565b9060068210156103ba5752565b9060048210156103ba5752565b805482101561283f575f5260205f2001905f90565b634e487b7160e01b5f52603260045260245ffd5b604090600319011261020d576004359060243590565b60206040818301928281528451809452019201905f5b81811061288c5750505090565b82516001600160a01b031684526020938401939092019160010161287f565b156128b257565b60405162461bcd60e51b8152602060048201526013602482015272496e76616c69642062656e656669636961727960681b6044820152606490fd5b156128f457565b60405162461bcd60e51b815260206004820152601d60248201527f42656e65666963696172792063616e6e6f742062652063726561746f720000006044820152606490fd5b1561294057565b60405162461bcd60e51b8152602060048201526015602482015274092dcecc2d8d2c840e0c2e6e6eedee4c840d0c2e6d605b1b6044820152606490fd5b5f1981146113445760010190565b8054600160401b811015610a9c576129a89160018201815561282a565b819291549060031b91821b915f19901b1916179055565b156129c657565b60405162461bcd60e51b815260206004820152601460248201527315985d5b1d08191bd95cc81b9bdd08195e1a5cdd60621b6044820152606490fd5b15612a0957565b60405162461bcd60e51b81526020600482015260116024820152702737ba103b30bab63a1031b932b0ba37b960791b6044820152606490fd5b15612a4957565b60405162461bcd60e51b815260206004820152601060248201526f5661756c74206e6f742061637469766560801b6044820152606490fd5b15612a8857565b60405162461bcd60e51b815260206004820152600f60248201526e139bdd081848111354c81d985d5b1d608a1b6044820152606490fd5b9190820180921161134457565b9190820391821161134457565b5f52600260205260405f2060ff6003820154169060068210156103ba57612b056001612b239314612a81565b6009612b1a6008830154600784015490612abf565b91015490612abf565b804211612b3a57612b35904290612acc565b905f90565b505f90600190565b612b6990805f526002602052612b6460ff601560405f20015460a01c166129bf565b612b8a565b90565b8115612b76570490565b634e487b7160e01b5f52601260045260245ffd5b5f52600260205260405f20600381015460ff8160081c1660048110156103ba5780612cba575060ff1660068110156103ba578015612caf5760018114612c905760028114612c805760038114612c2357600414612be657505f90565b806013612b699201546014601283015492015480155f14612c1d5750610e10915b60ff82169160081c6001600160a01b0316612e1e565b91612c07565b50600d8101544210612c7b57600f810154612c42601083015482612abf565b15612c7557612710810290808204612710149015171561134457612c6d600e91601184015490612b6c565b910154111590565b50505f90565b505f90565b50600b600c820154910154111590565b50806009612b1a6008612caa940154600784015490612abf565b421190565b506006015442101590565b60011492915050565b610320810190811067ffffffffffffffff821117610a9c57604052565b90601f8019910116810190811067ffffffffffffffff821117610a9c57604052565b5f52600660205260405f20905f918054925b838110612d2357505050505f90565b612d2d818361282a565b905460039190911b1c6001600160a01b0390811690841614612d5157600101612d14565b50505050600190565b5f52600460205260405f20905f918054925b838110612d7b57505050505f90565b612d85818361282a565b905460039190911b1c6001600160a01b0390811690841614612d5157600101612d6c565b60025f516020612f5d5f395f51905f525414612dd25760025f516020612f5d5f395f51905f5255565b633ee5aeb560e01b5f5260045ffd5b5f546001600160a01b03163303612df457565b63118cdaa760e01b5f523360045260245ffd5b519069ffffffffffffffffffff8216820361020d57565b5f8091949392946040516020810190633fabe5a360e21b825260048152612e46602482612ce0565b51915afa3d15612f34573d9067ffffffffffffffff8211610a9c5760405191612e79601f8201601f191660200184612ce0565b82523d5f602084013e5b158015612f29575b612f215760a08180518101031261020d57612ea860208201612e07565b604082015193612ebf60a060808501519401612e07565b925f861315612f16578015612f1657804210612f1657612edf9042612acc565b11612f0d5769ffffffffffffffffffff809116911610612f065715612f02571190565b1090565b5050505f90565b50505050505f90565b505050505050505f90565b505050505f90565b5060a0815110612e8b565b606090612e8356fef05b5cfff5f684799218b8134d5d0c1cbeb310e8fc7d26e0ef92e2c792b02ec69b779b17422d0df92223018b32b4d1fa46e071723d6817e2486d003becc55f00a26469706673582212204375a7a80516114ef4ea4e07da0b19563fc8fdd77d5ee0b8140770bac31cb7d664736f6c634300081c0033",
  "linkReferences": {},
  "deployedLinkReferences": {},
  "immutableReferences": {},
  "inputSourceName": "project/contracts/TimeLockedVault.sol",
  "buildInfoId": "solc-0_8_28-6da5c9a6224e728c8bed896ae7392738701594c8"
}